{
  "_format": "hh-sol-artifact-1",
  "contractName": "BlockTimeProvider",
  "sourceName": "contracts/utils/BlockTimeProvider.sol",
  "abi": [
    {
      "inputs": [],
      "name": "getNow",
      "outputs": [
        {
          "internalType": "uint256",
          "name": "",
          "type": "uint256"
        }
      ],
      "stateMutability": "view",
      "type": "function"
    },
    {
      "inputs": [
        {
          "internalType": "contract Deployer",
          "name": "deployer",
          "type": "address"
        }
      ],
      "name": "initializeAndLock",
      "outputs": [],
      "stateMutability": "nonpayable",
      "type": "function"
    }
  ],
  "bytecode": "0x608060405234801561001057600080fd5b50610188806100206000396000f3fe608060405234801561001057600080fd5b50600436106100365760003560e01c80635c1bfb321461003b578063bbe4fd501461007f575b600080fd5b61007d6004803603602081101561005157600080fd5b81019080803573ffffffffffffffffffffffffffffffffffffffff16906020019092919050505061009d565b005b610087610147565b6040518082815260200191505060405180910390f35b600260149054906101000a900460ff1615610120576040517f08c379a00000000000000000000000000000000000000000000000000000000081526004018080602001828103825260158152602001807f696e697469616c697a6174696f6e206c6f636b6564000000000000000000000081525060200191505060405180910390fd5b6001600260146101000a81548160ff0219169083151502179055506101448161014f565b50565b600042905090565b5056fea26469706673582212201a49e0a300b9b1e8a079a5c11b6e7d57793d806c197d5cfb64f99be6665d636964736f6c63430006000033",
  "linkReferences": {},
  "deployedLinkReferences": {}
}