{
  "_format": "hh-sol-artifact-1",
  "contractName": "LinearLiquidityPool",
  "sourceName": "contracts/pools/LinearLiquidityPool.sol",
  "abi": [
    {
      "inputs": [],
      "stateMutability": "nonpayable",
      "type": "constructor"
    },
    {
      "anonymous": false,
      "inputs": [
        {
          "indexed": false,
          "internalType": "string",
          "name": "optSymbol",
          "type": "string"
        }
      ],
      "name": "AddSymbol",
      "type": "event"
    },
    {
      "anonymous": false,
      "inputs": [
        {
          "indexed": true,
          "internalType": "address",
          "name": "owner",
          "type": "address"
        },
        {
          "indexed": true,
          "internalType": "address",
          "name": "spender",
          "type": "address"
        },
        {
          "indexed": false,
          "internalType": "uint256",
          "name": "value",
          "type": "uint256"
        }
      ],
      "name": "Approval",
      "type": "event"
    },
    {
      "anonymous": false,
      "inputs": [
        {
          "indexed": true,
          "internalType": "address",
          "name": "token",
          "type": "address"
        },
        {
          "indexed": true,
          "internalType": "address",
          "name": "buyer",
          "type": "address"
        },
        {
          "indexed": false,
          "internalType": "uint256",
          "name": "price",
          "type": "uint256"
        },
        {
          "indexed": false,
          "internalType": "uint256",
          "name": "volume",
          "type": "uint256"
        }
      ],
      "name": "Buy",
      "type": "event"
    },
    {
      "anonymous": false,
      "inputs": [
        {
          "indexed": false,
          "internalType": "string",
          "name": "optSymbol",
          "type": "string"
        }
      ],
      "name": "RemoveSymbol",
      "type": "event"
    },
    {
      "anonymous": false,
      "inputs": [
        {
          "indexed": true,
          "internalType": "address",
          "name": "token",
          "type": "address"
        },
        {
          "indexed": true,
          "internalType": "address",
          "name": "seller",
          "type": "address"
        },
        {
          "indexed": false,
          "internalType": "uint256",
          "name": "price",
          "type": "uint256"
        },
        {
          "indexed": false,
          "internalType": "uint256",
          "name": "volume",
          "type": "uint256"
        }
      ],
      "name": "Sell",
      "type": "event"
    },
    {
      "anonymous": false,
      "inputs": [
        {
          "indexed": true,
          "internalType": "address",
          "name": "from",
          "type": "address"
        },
        {
          "indexed": true,
          "internalType": "address",
          "name": "to",
          "type": "address"
        },
        {
          "indexed": false,
          "internalType": "uint256",
          "name": "value",
          "type": "uint256"
        }
      ],
      "name": "Transfer",
      "type": "event"
    },
    {
      "inputs": [],
      "name": "DOMAIN_SEPARATOR",
      "outputs": [
        {
          "internalType": "bytes32",
          "name": "",
          "type": "bytes32"
        }
      ],
      "stateMutability": "view",
      "type": "function"
    },
    {
      "inputs": [],
      "name": "PERMIT_TYPEHASH",
      "outputs": [
        {
          "internalType": "bytes32",
          "name": "",
          "type": "bytes32"
        }
      ],
      "stateMutability": "view",
      "type": "function"
    },
    {
      "inputs": [
        {
          "internalType": "address",
          "name": "udlFeed",
          "type": "address"
        },
        {
          "internalType": "uint256",
          "name": "strike",
          "type": "uint256"
        },
        {
          "internalType": "uint256",
          "name": "_mt",
          "type": "uint256"
        },
        {
          "internalType": "enum OptionsExchange.OptionType",
          "name": "optType",
          "type": "uint8"
        },
        {
          "internalType": "uint256",
          "name": "t0",
          "type": "uint256"
        },
        {
          "internalType": "uint256",
          "name": "t1",
          "type": "uint256"
        },
        {
          "internalType": "uint120[]",
          "name": "x",
          "type": "uint120[]"
        },
        {
          "internalType": "uint120[]",
          "name": "y",
          "type": "uint120[]"
        },
        {
          "internalType": "uint256",
          "name": "buyStock",
          "type": "uint256"
        },
        {
          "internalType": "uint256",
          "name": "sellStock",
          "type": "uint256"
        }
      ],
      "name": "addSymbol",
      "outputs": [],
      "stateMutability": "nonpayable",
      "type": "function"
    },
    {
      "inputs": [
        {
          "internalType": "address",
          "name": "owner",
          "type": "address"
        },
        {
          "internalType": "address",
          "name": "spender",
          "type": "address"
        }
      ],
      "name": "allowance",
      "outputs": [
        {
          "internalType": "uint256",
          "name": "",
          "type": "uint256"
        }
      ],
      "stateMutability": "view",
      "type": "function"
    },
    {
      "inputs": [
        {
          "internalType": "address",
          "name": "spender",
          "type": "address"
        },
        {
          "internalType": "uint256",
          "name": "value",
          "type": "uint256"
        }
      ],
      "name": "approve",
      "outputs": [
        {
          "internalType": "bool",
          "name": "",
          "type": "bool"
        }
      ],
      "stateMutability": "nonpayable",
      "type": "function"
    },
    {
      "inputs": [
        {
          "internalType": "address",
          "name": "owner",
          "type": "address"
        }
      ],
      "name": "balanceOf",
      "outputs": [
        {
          "internalType": "uint256",
          "name": "",
          "type": "uint256"
        }
      ],
      "stateMutability": "view",
      "type": "function"
    },
    {
      "inputs": [
        {
          "internalType": "string",
          "name": "optSymbol",
          "type": "string"
        },
        {
          "internalType": "uint256",
          "name": "price",
          "type": "uint256"
        },
        {
          "internalType": "uint256",
          "name": "volume",
          "type": "uint256"
        },
        {
          "internalType": "address",
          "name": "token",
          "type": "address"
        },
        {
          "internalType": "uint256",
          "name": "maxValue",
          "type": "uint256"
        },
        {
          "internalType": "uint256",
          "name": "deadline",
          "type": "uint256"
        },
        {
          "internalType": "uint8",
          "name": "v",
          "type": "uint8"
        },
        {
          "internalType": "bytes32",
          "name": "r",
          "type": "bytes32"
        },
        {
          "internalType": "bytes32",
          "name": "s",
          "type": "bytes32"
        }
      ],
      "name": "buy",
      "outputs": [
        {
          "internalType": "address",
          "name": "_tk",
          "type": "address"
        }
      ],
      "stateMutability": "nonpayable",
      "type": "function"
    },
    {
      "inputs": [
        {
          "internalType": "string",
          "name": "optSymbol",
          "type": "string"
        },
        {
          "internalType": "uint256",
          "name": "price",
          "type": "uint256"
        },
        {
          "internalType": "uint256",
          "name": "volume",
          "type": "uint256"
        },
        {
          "internalType": "address",
          "name": "token",
          "type": "address"
        }
      ],
      "name": "buy",
      "outputs": [
        {
          "internalType": "address",
          "name": "_tk",
          "type": "address"
        }
      ],
      "stateMutability": "nonpayable",
      "type": "function"
    },
    {
      "inputs": [],
      "name": "calcFreeBalance",
      "outputs": [
        {
          "internalType": "uint256",
          "name": "balance",
          "type": "uint256"
        }
      ],
      "stateMutability": "view",
      "type": "function"
    },
    {
      "inputs": [],
      "name": "decimals",
      "outputs": [
        {
          "internalType": "uint8",
          "name": "",
          "type": "uint8"
        }
      ],
      "stateMutability": "view",
      "type": "function"
    },
    {
      "inputs": [
        {
          "internalType": "address",
          "name": "spender",
          "type": "address"
        },
        {
          "internalType": "uint256",
          "name": "subtractedValue",
          "type": "uint256"
        }
      ],
      "name": "decreaseAllowance",
      "outputs": [
        {
          "internalType": "bool",
          "name": "",
          "type": "bool"
        }
      ],
      "stateMutability": "nonpayable",
      "type": "function"
    },
    {
      "inputs": [
        {
          "internalType": "address",
          "name": "to",
          "type": "address"
        },
        {
          "internalType": "address",
          "name": "token",
          "type": "address"
        },
        {
          "internalType": "uint256",
          "name": "value",
          "type": "uint256"
        }
      ],
      "name": "depositTokens",
      "outputs": [],
      "stateMutability": "nonpayable",
      "type": "function"
    },
    {
      "inputs": [
        {
          "internalType": "address",
          "name": "to",
          "type": "address"
        },
        {
          "internalType": "address",
          "name": "token",
          "type": "address"
        },
        {
          "internalType": "uint256",
          "name": "value",
          "type": "uint256"
        },
        {
          "internalType": "uint256",
          "name": "deadline",
          "type": "uint256"
        },
        {
          "internalType": "uint8",
          "name": "v",
          "type": "uint8"
        },
        {
          "internalType": "bytes32",
          "name": "r",
          "type": "bytes32"
        },
        {
          "internalType": "bytes32",
          "name": "s",
          "type": "bytes32"
        }
      ],
      "name": "depositTokens",
      "outputs": [],
      "stateMutability": "nonpayable",
      "type": "function"
    },
    {
      "inputs": [
        {
          "internalType": "address",
          "name": "spender",
          "type": "address"
        },
        {
          "internalType": "uint256",
          "name": "addedValue",
          "type": "uint256"
        }
      ],
      "name": "increaseAllowance",
      "outputs": [
        {
          "internalType": "bool",
          "name": "",
          "type": "bool"
        }
      ],
      "stateMutability": "nonpayable",
      "type": "function"
    },
    {
      "inputs": [
        {
          "internalType": "contract Deployer",
          "name": "deployer",
          "type": "address"
        }
      ],
      "name": "initializeAndLock",
      "outputs": [],
      "stateMutability": "nonpayable",
      "type": "function"
    },
    {
      "inputs": [
        {
          "internalType": "string",
          "name": "optSymbol",
          "type": "string"
        },
        {
          "internalType": "enum LiquidityPool.Operation",
          "name": "op",
          "type": "uint8"
        }
      ],
      "name": "isAvailable",
      "outputs": [
        {
          "internalType": "bool",
          "name": "b",
          "type": "bool"
        }
      ],
      "stateMutability": "view",
      "type": "function"
    },
    {
      "inputs": [
        {
          "internalType": "enum LiquidityPool.Operation",
          "name": "op",
          "type": "uint8"
        }
      ],
      "name": "listSymbols",
      "outputs": [
        {
          "internalType": "string",
          "name": "available",
          "type": "string"
        }
      ],
      "stateMutability": "view",
      "type": "function"
    },
    {
      "inputs": [],
      "name": "maturity",
      "outputs": [
        {
          "internalType": "uint256",
          "name": "",
          "type": "uint256"
        }
      ],
      "stateMutability": "view",
      "type": "function"
    },
    {
      "inputs": [],
      "name": "name",
      "outputs": [
        {
          "internalType": "string",
          "name": "",
          "type": "string"
        }
      ],
      "stateMutability": "view",
      "type": "function"
    },
    {
      "inputs": [
        {
          "internalType": "address",
          "name": "",
          "type": "address"
        }
      ],
      "name": "nonces",
      "outputs": [
        {
          "internalType": "uint256",
          "name": "",
          "type": "uint256"
        }
      ],
      "stateMutability": "view",
      "type": "function"
    },
    {
      "inputs": [
        {
          "internalType": "address",
          "name": "owner",
          "type": "address"
        },
        {
          "internalType": "address",
          "name": "spender",
          "type": "address"
        },
        {
          "internalType": "uint256",
          "name": "value",
          "type": "uint256"
        },
        {
          "internalType": "uint256",
          "name": "deadline",
          "type": "uint256"
        },
        {
          "internalType": "uint8",
          "name": "v",
          "type": "uint8"
        },
        {
          "internalType": "bytes32",
          "name": "r",
          "type": "bytes32"
        },
        {
          "internalType": "bytes32",
          "name": "s",
          "type": "bytes32"
        }
      ],
      "name": "permit",
      "outputs": [],
      "stateMutability": "nonpayable",
      "type": "function"
    },
    {
      "inputs": [
        {
          "internalType": "string",
          "name": "optSymbol",
          "type": "string"
        }
      ],
      "name": "queryBuy",
      "outputs": [
        {
          "internalType": "uint256",
          "name": "price",
          "type": "uint256"
        },
        {
          "internalType": "uint256",
          "name": "volume",
          "type": "uint256"
        }
      ],
      "stateMutability": "view",
      "type": "function"
    },
    {
      "inputs": [
        {
          "internalType": "string",
          "name": "optSymbol",
          "type": "string"
        }
      ],
      "name": "querySell",
      "outputs": [
        {
          "internalType": "uint256",
          "name": "price",
          "type": "uint256"
        },
        {
          "internalType": "uint256",
          "name": "volume",
          "type": "uint256"
        }
      ],
      "stateMutability": "view",
      "type": "function"
    },
    {
      "inputs": [
        {
          "internalType": "address[]",
          "name": "owners",
          "type": "address[]"
        }
      ],
      "name": "redeem",
      "outputs": [
        {
          "internalType": "uint256",
          "name": "value",
          "type": "uint256"
        }
      ],
      "stateMutability": "nonpayable",
      "type": "function"
    },
    {
      "inputs": [
        {
          "internalType": "address",
          "name": "owner",
          "type": "address"
        }
      ],
      "name": "redeem",
      "outputs": [
        {
          "internalType": "uint256",
          "name": "value",
          "type": "uint256"
        }
      ],
      "stateMutability": "nonpayable",
      "type": "function"
    },
    {
      "inputs": [],
      "name": "redeemAllowed",
      "outputs": [
        {
          "internalType": "bool",
          "name": "",
          "type": "bool"
        }
      ],
      "stateMutability": "view",
      "type": "function"
    },
    {
      "inputs": [
        {
          "internalType": "string",
          "name": "optSymbol",
          "type": "string"
        }
      ],
      "name": "removeSymbol",
      "outputs": [],
      "stateMutability": "nonpayable",
      "type": "function"
    },
    {
      "inputs": [
        {
          "internalType": "string",
          "name": "optSymbol",
          "type": "string"
        },
        {
          "internalType": "uint256",
          "name": "price",
          "type": "uint256"
        },
        {
          "internalType": "uint256",
          "name": "volume",
          "type": "uint256"
        }
      ],
      "name": "sell",
      "outputs": [],
      "stateMutability": "nonpayable",
      "type": "function"
    },
    {
      "inputs": [
        {
          "internalType": "string",
          "name": "optSymbol",
          "type": "string"
        },
        {
          "internalType": "uint256",
          "name": "price",
          "type": "uint256"
        },
        {
          "internalType": "uint256",
          "name": "volume",
          "type": "uint256"
        },
        {
          "internalType": "uint256",
          "name": "deadline",
          "type": "uint256"
        },
        {
          "internalType": "uint8",
          "name": "v",
          "type": "uint8"
        },
        {
          "internalType": "bytes32",
          "name": "r",
          "type": "bytes32"
        },
        {
          "internalType": "bytes32",
          "name": "s",
          "type": "bytes32"
        }
      ],
      "name": "sell",
      "outputs": [],
      "stateMutability": "nonpayable",
      "type": "function"
    },
    {
      "inputs": [
        {
          "internalType": "uint256",
          "name": "_spread",
          "type": "uint256"
        },
        {
          "internalType": "uint256",
          "name": "_reserveRatio",
          "type": "uint256"
        },
        {
          "internalType": "uint256",
          "name": "_mt",
          "type": "uint256"
        }
      ],
      "name": "setParameters",
      "outputs": [],
      "stateMutability": "nonpayable",
      "type": "function"
    },
    {
      "inputs": [
        {
          "internalType": "string",
          "name": "optSymbol",
          "type": "string"
        },
        {
          "internalType": "enum LiquidityPool.Operation",
          "name": "op",
          "type": "uint8"
        },
        {
          "internalType": "uint256",
          "name": "start",
          "type": "uint256"
        },
        {
          "internalType": "uint256",
          "name": "end",
          "type": "uint256"
        }
      ],
      "name": "setRange",
      "outputs": [],
      "stateMutability": "nonpayable",
      "type": "function"
    },
    {
      "inputs": [],
      "name": "symbol",
      "outputs": [
        {
          "internalType": "string",
          "name": "",
          "type": "string"
        }
      ],
      "stateMutability": "view",
      "type": "function"
    },
    {
      "inputs": [],
      "name": "totalSupply",
      "outputs": [
        {
          "internalType": "uint256",
          "name": "",
          "type": "uint256"
        }
      ],
      "stateMutability": "view",
      "type": "function"
    },
    {
      "inputs": [
        {
          "internalType": "address",
          "name": "to",
          "type": "address"
        },
        {
          "internalType": "uint256",
          "name": "value",
          "type": "uint256"
        }
      ],
      "name": "transfer",
      "outputs": [
        {
          "internalType": "bool",
          "name": "",
          "type": "bool"
        }
      ],
      "stateMutability": "nonpayable",
      "type": "function"
    },
    {
      "inputs": [
        {
          "internalType": "address",
          "name": "from",
          "type": "address"
        },
        {
          "internalType": "address",
          "name": "to",
          "type": "address"
        },
        {
          "internalType": "uint256",
          "name": "value",
          "type": "uint256"
        }
      ],
      "name": "transferFrom",
      "outputs": [
        {
          "internalType": "bool",
          "name": "",
          "type": "bool"
        }
      ],
      "stateMutability": "nonpayable",
      "type": "function"
    },
    {
      "inputs": [
        {
          "internalType": "uint256",
          "name": "dt",
          "type": "uint256"
        }
      ],
      "name": "yield",
      "outputs": [
        {
          "internalType": "uint256",
          "name": "y",
          "type": "uint256"
        }
      ],
      "stateMutability": "view",
      "type": "function"
    }
  ],
  "bytecode": "0x60806040523480156200001157600080fd5b5060405180606001604052806026815260200162008f64602691396000469050604051808062008f8a605291396052019050604051809103902082805190602001206040518060400160405280600181526020017f3100000000000000000000000000000000000000000000000000000000000000815250805190602001208330604051602001808681526020018581526020018481526020018381526020018273ffffffffffffffffffffffffffffffffffffffff1673ffffffffffffffffffffffffffffffffffffffff16815260200195505050505050604051602081830303815290604052805190602001206006819055505050618e4c80620001186000396000f3fe608060405234801561001057600080fd5b506004361061021c5760003560e01c806365288dde116101255780639cfbb00b116100ad578063ad56d52e1161007c578063ad56d52e146110f7578063c7f1978e14611226578063d259945d14611248578063d505accf1461131e578063dd62ed3e146113b75761021c565b80639cfbb00b14610e6e578063a457c2d714610f08578063a57a8aad14610f6e578063a9059cbb146110915761021c565b80638730b205116100f45780638730b20514610bd35780638bd9513e14610c9f5780638e424b6b14610cbd57806395a2251f14610d9357806395d89b4114610deb5761021c565b806365288dde146109a957806370a0823114610ae1578063765287ef14610b395780637ecebe0014610b7b5761021c565b806334c5d2ce116101a857806339dc5ef21161017757806339dc5ef2146106d4578063428f15d614610742578063439fa088146108225780635838d127146108bb5780635c1bfb32146109655761021c565b806334c5d2ce146105955780633644e515146105d757806336977d32146105f5578063395093511461066e5761021c565b806318160ddd116101ef57806318160ddd14610491578063204f83f9146104af57806323b872dd146104cd57806330adf81f14610553578063313ce567146105715761021c565b806304804ee81461022157806306fdde03146102ae578063095ea7b3146103315780630964575714610397575b600080fd5b6102ac6004803603606081101561023757600080fd5b810190808035906020019064010000000081111561025457600080fd5b82018360208201111561026657600080fd5b8035906020019184600183028401116401000000008311171561028857600080fd5b9091929391929390803590602001909291908035906020019092919050505061142f565b005b6102b661148c565b6040518080602001828103825283818151815260200191508051906020019080838360005b838110156102f65780820151818401526020810190506102db565b50505050905090810190601f1680156103235780820380516001836020036101000a031916815260200191505b509250505060405180910390f35b61037d6004803603604081101561034757600080fd5b81019080803573ffffffffffffffffffffffffffffffffffffffff169060200190929190803590602001909291905050506114ac565b604051808215151515815260200191505060405180910390f35b61048f600480360360e08110156103ad57600080fd5b81019080803590602001906401000000008111156103ca57600080fd5b8201836020820111156103dc57600080fd5b803590602001918460018302840111640100000000831117156103fe57600080fd5b91908080601f016020809104026020016040519081016040528093929190818152602001838380828437600081840152601f19601f820116905080830192505050505050509192919290803590602001909291908035906020019092919080359060200190929190803560ff16906020019092919080359060200190929190803590602001909291905050506114c1565b005b6104996120cf565b6040518082815260200191505060405180910390f35b6104b76120d9565b6040518082815260200191505060405180910390f35b610539600480360360608110156104e357600080fd5b81019080803573ffffffffffffffffffffffffffffffffffffffff169060200190929190803573ffffffffffffffffffffffffffffffffffffffff169060200190929190803590602001909291905050506120e3565b604051808215151515815260200191505060405180910390f35b61055b6122f6565b6040518082815260200191505060405180910390f35b61057961231d565b604051808260ff1660ff16815260200191505060405180910390f35b6105d5600480360360608110156105ab57600080fd5b81019080803590602001909291908035906020019092919080359060200190929190505050612326565b005b6105df612348565b6040518082815260200191505060405180910390f35b61066c6004803603602081101561060b57600080fd5b810190808035906020019064010000000081111561062857600080fd5b82018360208201111561063a57600080fd5b8035906020019184600183028401116401000000008311171561065c57600080fd5b909192939192939050505061234e565b005b6106ba6004803603604081101561068457600080fd5b81019080803573ffffffffffffffffffffffffffffffffffffffff16906020019092919080359060200190929190505050612619565b604051808215151515815260200191505060405180910390f35b610740600480360360608110156106ea57600080fd5b81019080803573ffffffffffffffffffffffffffffffffffffffff169060200190929190803573ffffffffffffffffffffffffffffffffffffffff169060200190929190803590602001909291905050506127f4565b005b6108086004803603604081101561075857600080fd5b810190808035906020019064010000000081111561077557600080fd5b82018360208201111561078757600080fd5b803590602001918460018302840111640100000000831117156107a957600080fd5b91908080601f016020809104026020016040519081016040528093929190818152602001838380828437600081840152601f19601f820116905080830192505050505050509192919290803560ff169060200190929190505050612d28565b604051808215151515815260200191505060405180910390f35b6108b9600480360360e081101561083857600080fd5b81019080803573ffffffffffffffffffffffffffffffffffffffff169060200190929190803573ffffffffffffffffffffffffffffffffffffffff1690602001909291908035906020019092919080359060200190929190803560ff16906020019092919080359060200190929190803590602001909291905050506131dc565b005b6108ea600480360360208110156108d157600080fd5b81019080803560ff1690602001909291905050506132e9565b6040518080602001828103825283818151815260200191508051906020019080838360005b8381101561092a57808201518184015260208101905061090f565b50505050905090810190601f1680156109575780820380516001836020036101000a031916815260200191505b509250505060405180910390f35b6109a76004803603602081101561097b57600080fd5b81019080803573ffffffffffffffffffffffffffffffffffffffff169060200190929190505050613598565b005b610adf60048036036101408110156109c057600080fd5b81019080803573ffffffffffffffffffffffffffffffffffffffff1690602001909291908035906020019092919080359060200190929190803560ff169060200190929190803590602001909291908035906020019092919080359060200190640100000000811115610a3257600080fd5b820183602082011115610a4457600080fd5b80359060200191846020830284011164010000000083111715610a6657600080fd5b909192939192939080359060200190640100000000811115610a8757600080fd5b820183602082011115610a9957600080fd5b80359060200191846020830284011164010000000083111715610abb57600080fd5b90919293919293908035906020019092919080359060200190929190505050613642565b005b610b2360048036036020811015610af757600080fd5b81019080803573ffffffffffffffffffffffffffffffffffffffff169060200190929190505050613e22565b6040518082815260200191505060405180910390f35b610b6560048036036020811015610b4f57600080fd5b8101908080359060200190929190505050613e6b565b6040518082815260200191505060405180910390f35b610bbd60048036036020811015610b9157600080fd5b81019080803573ffffffffffffffffffffffffffffffffffffffff169060200190929190505050613f56565b6040518082815260200191505060405180910390f35b610c8960048036036020811015610be957600080fd5b8101908080359060200190640100000000811115610c0657600080fd5b820183602082011115610c1857600080fd5b80359060200191846020830284011164010000000083111715610c3a57600080fd5b919080806020026020016040519081016040528093929190818152602001838360200280828437600081840152601f19601f820116905080830192505050505050509192919290505050613f6e565b6040518082815260200191505060405180910390f35b610ca76141b6565b6040518082815260200191505060405180910390f35b610d7660048036036020811015610cd357600080fd5b8101908080359060200190640100000000811115610cf057600080fd5b820183602082011115610d0257600080fd5b80359060200191846001830284011164010000000083111715610d2457600080fd5b91908080601f016020809104026020016040519081016040528093929190818152602001838380828437600081840152601f19601f8201169050808301925050505050505091929192905050506143dc565b604051808381526020018281526020019250505060405180910390f35b610dd560048036036020811015610da957600080fd5b81019080803573ffffffffffffffffffffffffffffffffffffffff16906020019092919050505061479b565b6040518082815260200191505060405180910390f35b610df361482b565b6040518080602001828103825283818151815260200191508051906020019080838360005b83811015610e33578082015181840152602081019050610e18565b50505050905090810190601f168015610e605780820380516001836020036101000a031916815260200191505b509250505060405180910390f35b610f0660048036036080811015610e8457600080fd5b8101908080359060200190640100000000811115610ea157600080fd5b820183602082011115610eb357600080fd5b80359060200191846001830284011164010000000083111715610ed557600080fd5b9091929391929390803560ff1690602001909291908035906020019092919080359060200190929190505050614868565b005b610f5460048036036040811015610f1e57600080fd5b81019080803573ffffffffffffffffffffffffffffffffffffffff1690602001909291908035906020019092919050505061497e565b604051808215151515815260200191505060405180910390f35b61104f6004803603610120811015610f8557600080fd5b8101908080359060200190640100000000811115610fa257600080fd5b820183602082011115610fb457600080fd5b80359060200191846001830284011164010000000083111715610fd657600080fd5b90919293919293908035906020019092919080359060200190929190803573ffffffffffffffffffffffffffffffffffffffff1690602001909291908035906020019092919080359060200190929190803560ff1690602001909291908035906020019092919080359060200190929190505050614b59565b604051808273ffffffffffffffffffffffffffffffffffffffff1673ffffffffffffffffffffffffffffffffffffffff16815260200191505060405180910390f35b6110dd600480360360408110156110a757600080fd5b81019080803573ffffffffffffffffffffffffffffffffffffffff16906020019092919080359060200190929190505050614cb4565b604051808215151515815260200191505060405180910390f35b6111e46004803603608081101561110d57600080fd5b810190808035906020019064010000000081111561112a57600080fd5b82018360208201111561113c57600080fd5b8035906020019184600183028401116401000000008311171561115e57600080fd5b91908080601f016020809104026020016040519081016040528093929190818152602001838380828437600081840152601f19601f8201169050808301925050505050505091929192908035906020019092919080359060200190929190803573ffffffffffffffffffffffffffffffffffffffff169060200190929190505050614d2e565b604051808273ffffffffffffffffffffffffffffffffffffffff1673ffffffffffffffffffffffffffffffffffffffff16815260200191505060405180910390f35b61122e6154e6565b604051808215151515815260200191505060405180910390f35b6113016004803603602081101561125e57600080fd5b810190808035906020019064010000000081111561127b57600080fd5b82018360208201111561128d57600080fd5b803590602001918460018302840111640100000000831117156112af57600080fd5b91908080601f016020809104026020016040519081016040528093929190818152602001838380828437600081840152601f19601f820116905080830192505050505050509192919290505050615595565b604051808381526020018281526020019250505060405180910390f35b6113b5600480360360e081101561133457600080fd5b81019080803573ffffffffffffffffffffffffffffffffffffffff169060200190929190803573ffffffffffffffffffffffffffffffffffffffff1690602001909291908035906020019092919080359060200190929190803560ff1690602001909291908035906020019092919080359060200190929190505050615954565b005b611419600480360360408110156113cd57600080fd5b81019080803573ffffffffffffffffffffffffffffffffffffffff169060200190929190803573ffffffffffffffffffffffffffffffffffffffff169060200190929190505050615c99565b6040518082815260200191505060405180910390f35b600061148585858080601f016020809104026020016040519081016040528093929190818152602001838380828437600081840152601f19601f82011690508083019250505050505050848460008086876114c1565b5050505050565b6060604051806060016040528060268152602001618daa60269139905090565b60006114b9338484615d20565b905092915050565b60008511611537576040517f08c379a000000000000000000000000000000000000000000000000000000000815260040180806020018281038252600e8152602001807f696e76616c696420766f6c756d6500000000000000000000000000000000000081525060200191505060405180910390fd5b61154087615df2565b6115486189e9565b600e886040518082805190602001908083835b6020831061157e578051825260208201915060208101905060208303925061155b565b6001836020036101000a0380198251168184511680821785525050505050509050019150509081526020016040518091039020604051806101400160405290816000820160009054906101000a900473ffffffffffffffffffffffffffffffffffffffff1673ffffffffffffffffffffffffffffffffffffffff1673ffffffffffffffffffffffffffffffffffffffff1681526020016000820160149054906101000a900460ff16600181111561163157fe5b600181111561163c57fe5b81526020016001820160009054906101000a90046effffffffffffffffffffffffffffff166effffffffffffffffffffffffffffff166effffffffffffffffffffffffffffff16815260200160018201600f9054906101000a900463ffffffff1663ffffffff1663ffffffff1681526020016001820160139054906101000a900463ffffffff1663ffffffff1663ffffffff1681526020016001820160179054906101000a900463ffffffff1663ffffffff1663ffffffff1681526020016002820160009054906101000a90046effffffffffffffffffffffffffffff166effffffffffffffffffffffffffffff166effffffffffffffffffffffffffffff16815260200160028201600f9054906101000a90046effffffffffffffffffffffffffffff166effffffffffffffffffffffffffffff166effffffffffffffffffffffffffffff1681526020016003820180548060200260200160405190810160405280929190818152602001828054801561181857602002820191906000526020600020906000905b82829054906101000a90046effffffffffffffffffffffffffffff166effffffffffffffffffffffffffffff16815260200190600f0190602082600e010492830192600103820291508084116117c55790505b50505050508152602001600482018054806020026020016040519081016040528092919081815260200182805480156118b257602002820191906000526020600020906000905b82829054906101000a90046effffffffffffffffffffffffffffff166effffffffffffffffffffffffffffff16815260200190600f0190602082600e0104928301926001038202915080841161185f5790505b50505050508152505090506118cd8860028360000151615f24565b61193f576040517f08c379a000000000000000000000000000000000000000000000000000000000815260040180806020018281038252600c8152602001807f6f7574206f662072616e6765000000000000000000000000000000000000000081525060200191505060405180910390fd5b61194b878260026160ea565b96506000600860009054906101000a900473ffffffffffffffffffffffffffffffffffffffff1673ffffffffffffffffffffffffffffffffffffffff16638c922b638a6040518263ffffffff1660e01b81526004018080602001828103825283818151815260200191508051906020019080838360005b838110156119dd5780820151818401526020810190506119c2565b50505050905090810190601f168015611a0a5780820380516001836020036101000a031916815260200191505b509250505060206040518083038186803b158015611a2757600080fd5b505afa158015611a3b573d6000803e3d6000fd5b505050506040513d6020811015611a5157600080fd5b8101908080519060200190929190505050905060008190506000871115611b6c578073ffffffffffffffffffffffffffffffffffffffff1663d505accf33308b8b8b8b8b6040518863ffffffff1660e01b8152600401808873ffffffffffffffffffffffffffffffffffffffff1673ffffffffffffffffffffffffffffffffffffffff1681526020018773ffffffffffffffffffffffffffffffffffffffff1673ffffffffffffffffffffffffffffffffffffffff1681526020018681526020018581526020018460ff1660ff168152602001838152602001828152602001975050505050505050600060405180830381600087803b158015611b5357600080fd5b505af1158015611b67573d6000803e3d6000fd5b505050505b8073ffffffffffffffffffffffffffffffffffffffff166323b872dd33308b6040518463ffffffff1660e01b8152600401808473ffffffffffffffffffffffffffffffffffffffff1673ffffffffffffffffffffffffffffffffffffffff1681526020018373ffffffffffffffffffffffffffffffffffffffff1673ffffffffffffffffffffffffffffffffffffffff1681526020018281526020019350505050602060405180830381600087803b158015611c2757600080fd5b505af1158015611c3b573d6000803e3d6000fd5b505050506040513d6020811015611c5157600080fd5b81019080805190602001909291905050505060008173ffffffffffffffffffffffffffffffffffffffff1663d0acc58f306040518263ffffffff1660e01b8152600401808273ffffffffffffffffffffffffffffffffffffffff1673ffffffffffffffffffffffffffffffffffffffff16815260200191505060206040518083038186803b158015611ce257600080fd5b505afa158015611cf6573d6000803e3d6000fd5b505050506040513d6020811015611d0c57600080fd5b810190808051906020019092919050505090506000811115611da3576000611d34828b61619d565b90508273ffffffffffffffffffffffffffffffffffffffff166342966c68826040518263ffffffff1660e01b815260040180828152602001915050600060405180830381600087803b158015611d8957600080fd5b505af1158015611d9d573d6000803e3d6000fd5b50505050505b6000611dcc601754611dbe8c8e6161b690919063ffffffff16565b61623c90919063ffffffff16565b9050600860009054906101000a900473ffffffffffffffffffffffffffffffffffffffff1673ffffffffffffffffffffffffffffffffffffffff166356a6d9ef33836040518363ffffffff1660e01b8152600401808373ffffffffffffffffffffffffffffffffffffffff1673ffffffffffffffffffffffffffffffffffffffff16815260200182815260200192505050600060405180830381600087803b158015611e7757600080fd5b505af1158015611e8b573d6000803e3d6000fd5b505050506000611e996141b6565b11611f0c576040517f08c379a00000000000000000000000000000000000000000000000000000000081526004018080602001828103825260148152602001807f706f6f6c2062616c616e636520746f6f206c6f7700000000000000000000000081525060200191505060405180910390fd5b60008373ffffffffffffffffffffffffffffffffffffffff166370a08231306040518263ffffffff1660e01b8152600401808273ffffffffffffffffffffffffffffffffffffffff1673ffffffffffffffffffffffffffffffffffffffff16815260200191505060206040518083038186803b158015611f8b57600080fd5b505afa158015611f9f573d6000803e3d6000fd5b505050506040513d6020811015611fb557600080fd5b810190808051906020019092919050505090508560e001516effffffffffffffffffffffffffffff16811115612053576040517f08c379a00000000000000000000000000000000000000000000000000000000081526004018080602001828103825260108152602001807f65786365737369766520766f6c756d650000000000000000000000000000000081525060200191505060405180910390fd5b3373ffffffffffffffffffffffffffffffffffffffff168573ffffffffffffffffffffffffffffffffffffffff167fa082022e93cfcd9f1da5f9236718053910f7e840da080c789c7845698dc032ff8e8e604051808381526020018281526020019250505060405180910390a350505050505050505050505050565b6000600754905090565b6000601354905090565b60006120ee84613e22565b8211156120fa57600080fd5b600460008573ffffffffffffffffffffffffffffffffffffffff1673ffffffffffffffffffffffffffffffffffffffff16815260200190815260200160002060003373ffffffffffffffffffffffffffffffffffffffff1673ffffffffffffffffffffffffffffffffffffffff1681526020019081526020016000205482111561218357600080fd5b600073ffffffffffffffffffffffffffffffffffffffff168373ffffffffffffffffffffffffffffffffffffffff1614156121bd57600080fd5b6121c78483616286565b6121d183836162e8565b61226082600460008773ffffffffffffffffffffffffffffffffffffffff1673ffffffffffffffffffffffffffffffffffffffff16815260200190815260200160002060003373ffffffffffffffffffffffffffffffffffffffff1673ffffffffffffffffffffffffffffffffffffffff1681526020019081526020016000205461634a90919063ffffffff16565b600460008673ffffffffffffffffffffffffffffffffffffffff1673ffffffffffffffffffffffffffffffffffffffff16815260200190815260200160002060003373ffffffffffffffffffffffffffffffffffffffff1673ffffffffffffffffffffffffffffffffffffffff168152602001908152602001600020819055506122eb848484616394565b600190509392505050565b7f6e71edae12b1b97f4d1f60370fef10105fa2faae0126114a169c64845d6126c960001b81565b60006012905090565b61232e6163fe565b826011819055508160128190555080601381905550505050565b60065481565b6123566163fe565b61235e6189e9565b80600e8484604051808383808284378083019250505092505050908152602001604051809103902060008201518160000160006101000a81548173ffffffffffffffffffffffffffffffffffffffff021916908373ffffffffffffffffffffffffffffffffffffffff16021790555060208201518160000160146101000a81548160ff021916908360018111156123f157fe5b021790555060408201518160010160006101000a8154816effffffffffffffffffffffffffffff02191690836effffffffffffffffffffffffffffff160217905550606082015181600101600f6101000a81548163ffffffff021916908363ffffffff16021790555060808201518160010160136101000a81548163ffffffff021916908363ffffffff16021790555060a08201518160010160176101000a81548163ffffffff021916908363ffffffff16021790555060c08201518160020160006101000a8154816effffffffffffffffffffffffffffff02191690836effffffffffffffffffffffffffffff16021790555060e082015181600201600f6101000a8154816effffffffffffffffffffffffffffff02191690836effffffffffffffffffffffffffffff16021790555061010082015181600301908051906020019061253f929190618aa2565b5061012082015181600401908051906020019061255d929190618aa2565b509050506125b0601484848080601f016020809104026020016040519081016040528093929190818152602001838380828437600081840152601f19601f8201169050808301925050505050505061651c565b507f4b62493f4f8ba00316d1e11c870ddc857bd37e50aafe15a7ad4d3f6ac1c6d34d838360405180806020018281038252848482818152602001925080828437600081840152601f19601f820116905080830192505050935050505060405180910390a1505050565b60008073ffffffffffffffffffffffffffffffffffffffff168373ffffffffffffffffffffffffffffffffffffffff16141561265457600080fd5b6126e382600460003373ffffffffffffffffffffffffffffffffffffffff1673ffffffffffffffffffffffffffffffffffffffff16815260200190815260200160002060008673ffffffffffffffffffffffffffffffffffffffff1673ffffffffffffffffffffffffffffffffffffffff1681526020019081526020016000205461665a90919063ffffffff16565b600460003373ffffffffffffffffffffffffffffffffffffffff1673ffffffffffffffffffffffffffffffffffffffff16815260200190815260200160002060008573ffffffffffffffffffffffffffffffffffffffff1673ffffffffffffffffffffffffffffffffffffffff168152602001908152602001600020819055506127ea3384600460003373ffffffffffffffffffffffffffffffffffffffff1673ffffffffffffffffffffffffffffffffffffffff16815260200190815260200160002060008773ffffffffffffffffffffffffffffffffffffffff1673ffffffffffffffffffffffffffffffffffffffff168152602001908152602001600020546166e2565b6001905092915050565b6000600860009054906101000a900473ffffffffffffffffffffffffffffffffffffffff1673ffffffffffffffffffffffffffffffffffffffff166370a08231306040518263ffffffff1660e01b8152600401808273ffffffffffffffffffffffffffffffffffffffff1673ffffffffffffffffffffffffffffffffffffffff16815260200191505060206040518083038186803b15801561289557600080fd5b505afa1580156128a9573d6000803e3d6000fd5b505050506040513d60208110156128bf57600080fd5b810190808051906020019092919050505090506128dc838361674c565b6000600860009054906101000a900473ffffffffffffffffffffffffffffffffffffffff1673ffffffffffffffffffffffffffffffffffffffff166370a08231306040518263ffffffff1660e01b8152600401808273ffffffffffffffffffffffffffffffffffffffff1673ffffffffffffffffffffffffffffffffffffffff16815260200191505060206040518083038186803b15801561297d57600080fd5b505afa158015612991573d6000803e3d6000fd5b505050506040513d60208110156129a757600080fd5b810190808051906020019092919050505090506000600860009054906101000a900473ffffffffffffffffffffffffffffffffffffffff1673ffffffffffffffffffffffffffffffffffffffff166302c23074306040518263ffffffff1660e01b8152600401808273ffffffffffffffffffffffffffffffffffffffff1673ffffffffffffffffffffffffffffffffffffffff16815260200191505060206040518083038186803b158015612a5b57600080fd5b505afa158015612a6f573d6000803e3d6000fd5b505050506040513d6020811015612a8557600080fd5b81019080805190602001909291905050509050600d60009054906101000a900473ffffffffffffffffffffffffffffffffffffffff1673ffffffffffffffffffffffffffffffffffffffff16636650e9ea612b81600960009054906101000a900473ffffffffffffffffffffffffffffffffffffffff1673ffffffffffffffffffffffffffffffffffffffff1663bbe4fd506040518163ffffffff1660e01b815260040160206040518083038186803b158015612b4157600080fd5b505afa158015612b55573d6000803e3d6000fd5b505050506040513d6020811015612b6b57600080fd5b8101908080519060200190929190505050616964565b612b9484876169cb90919063ffffffff16565b612ba7878761634a90919063ffffffff16565b6040518463ffffffff1660e01b8152600401808463ffffffff1663ffffffff1681526020018381526020018281526020019350505050600060405180830381600087803b158015612bf757600080fd5b505af1158015612c0b573d6000803e3d6000fd5b50505050600060075490506000612c2b84846169cb90919063ffffffff16565b90506000612c6882612c5a601854612c4c8a8a61634a90919063ffffffff16565b6161b690919063ffffffff16565b61623c90919063ffffffff16565b905060006103e890506000808511612c9257612c8d82856161b690919063ffffffff16565b612cde565b612cdd612caa8460185461634a90919063ffffffff16565b612ccf84612cc1878a6161b690919063ffffffff16565b6161b690919063ffffffff16565b61623c90919063ffffffff16565b5b9050612cea8183616a59565b9050612cf68b826162e8565b612d09818661665a90919063ffffffff16565b600781905550612d1b60008c83616394565b5050505050505050505050565b600060019050612d366189e9565b600e846040518082805190602001908083835b60208310612d6c5780518252602082019150602081019050602083039250612d49565b6001836020036101000a0380198251168184511680821785525050505050509050019150509081526020016040518091039020604051806101400160405290816000820160009054906101000a900473ffffffffffffffffffffffffffffffffffffffff1673ffffffffffffffffffffffffffffffffffffffff1673ffffffffffffffffffffffffffffffffffffffff1681526020016000820160149054906101000a900460ff166001811115612e1f57fe5b6001811115612e2a57fe5b81526020016001820160009054906101000a90046effffffffffffffffffffffffffffff166effffffffffffffffffffffffffffff166effffffffffffffffffffffffffffff16815260200160018201600f9054906101000a900463ffffffff1663ffffffff1663ffffffff1681526020016001820160139054906101000a900463ffffffff1663ffffffff1663ffffffff1681526020016001820160179054906101000a900463ffffffff1663ffffffff1663ffffffff1681526020016002820160009054906101000a90046effffffffffffffffffffffffffffff166effffffffffffffffffffffffffffff166effffffffffffffffffffffffffffff16815260200160028201600f9054906101000a90046effffffffffffffffffffffffffffff166effffffffffffffffffffffffffffff166effffffffffffffffffffffffffffff1681526020016003820180548060200260200160405190810160405280929190818152602001828054801561300657602002820191906000526020600020906000905b82829054906101000a90046effffffffffffffffffffffffffffff166effffffffffffffffffffffffffffff16815260200190600f0190602082600e01049283019260010382029150808411612fb35790505b50505050508152602001600482018054806020026020016040519081016040528092919081815260200182805480156130a057602002820191906000526020600020906000905b82829054906101000a90046effffffffffffffffffffffffffffff166effffffffffffffffffffffffffffff16815260200190600f0190602082600e0104928301926001038202915080841161304d5790505b5050505050815250509050600960009054906101000a900473ffffffffffffffffffffffffffffffffffffffff1673ffffffffffffffffffffffffffffffffffffffff1663bbe4fd506040518163ffffffff1660e01b815260040160206040518083038186803b15801561311357600080fd5b505afa158015613127573d6000803e3d6000fd5b505050506040513d602081101561313d57600080fd5b8101908080519060200190929190505050816060015163ffffffff161161316757600091506131d5565b6001600281111561317457fe5b83600281111561318057fe5b14806131a1575060028081111561319357fe5b83600281111561319f57fe5b145b156131d4576131b584848360000151615f24565b6131c257600091506131d3565b60006131cf858386616ab8565b1191505b5b5b5092915050565b8573ffffffffffffffffffffffffffffffffffffffff1663d505accf333088888888886040518863ffffffff1660e01b8152600401808873ffffffffffffffffffffffffffffffffffffffff1673ffffffffffffffffffffffffffffffffffffffff1681526020018773ffffffffffffffffffffffffffffffffffffffff1673ffffffffffffffffffffffffffffffffffffffff1681526020018681526020018581526020018460ff1660ff168152602001838152602001828152602001975050505050505050600060405180830381600087803b1580156132bd57600080fd5b505af11580156132d1573d6000803e3d6000fd5b505050506132e08787876127f4565b50505050505050565b606060008090505b601480549050811015613592576133b76014828154811061330e57fe5b906000526020600020018054600181600116156101000203166002900480601f0160208091040260200160405190810160405280929190818152602001828054600181600116156101000203166002900480156133ac5780601f10613381576101008083540402835291602001916133ac565b820191906000526020600020905b81548152906001019060200180831161338f57829003601f168201915b505050505084612d28565b156135855760008251141561347d57601481815481106133d357fe5b906000526020600020018054600181600116156101000203166002900480601f0160208091040260200160405190810160405280929190818152602001828054600181600116156101000203166002900480156134715780601f1061344657610100808354040283529160200191613471565b820191906000526020600020905b81548152906001019060200180831161345457829003601f168201915b50505050509150613584565b816014828154811061348b57fe5b906000526020600020016040516020018083805190602001908083835b602083106134cb57805182526020820191506020810190506020830392506134a8565b6001836020036101000a038019825116818451168082178552505050505050905001807f0a000000000000000000000000000000000000000000000000000000000000008152506001018280546001816001161561010002031660029004801561356c5780601f1061354a57610100808354040283529182019161356c565b820191906000526020600020905b815481529060010190602001808311613558575b50509250505060405160208183030381529060405291505b5b80806001019150506132f1565b50919050565b600260149054906101000a900460ff161561361b576040517f08c379a00000000000000000000000000000000000000000000000000000000081526004018080602001828103825260158152602001807f696e697469616c697a6174696f6e206c6f636b6564000000000000000000000081525060200191505060405180910390fd5b6001600260146101000a81548160ff02191690831515021790555061363f81616dc2565b50565b61364a6163fe565b6013548a106136c1576040517f08c379a00000000000000000000000000000000000000000000000000000000081526004018080602001828103825260108152602001807f696e76616c6964206d617475726974790000000000000000000000000000000081525060200191505060405180910390fd5b6000868690501180156136ec5750838390506136ea6002888890506161b690919063ffffffff16565b145b61375e576040517f08c379a00000000000000000000000000000000000000000000000000000000081526004018080602001828103825260178152602001807f696e76616c69642070726963696e67207375726661636500000000000000000081525060200191505060405180910390fd5b6060600860009054906101000a900473ffffffffffffffffffffffffffffffffffffffff1673ffffffffffffffffffffffffffffffffffffffff1663edb5fd4f8e8c8f8f6040518563ffffffff1660e01b8152600401808573ffffffffffffffffffffffffffffffffffffffff1673ffffffffffffffffffffffffffffffffffffffff1681526020018460018111156137f357fe5b60ff16815260200183815260200182815260200194505050505060006040518083038186803b15801561382557600080fd5b505afa158015613839573d6000803e3d6000fd5b505050506040513d6000823e3d601f19601f82011682018060405250602081101561386357600080fd5b810190808051604051939291908464010000000082111561388357600080fd5b8382019150602082018581111561389957600080fd5b82518660018202830111640100000000821117156138b657600080fd5b8083526020830192505050908051906020019080838360005b838110156138ea5780820151818401526020810190506138cf565b50505050905090810190601f1680156139175780820380516001836020036101000a031916815260200191505b5060405250505090506000600e826040518082805190602001908083835b602083106139585780518252602082019150602081019050602083039250613935565b6001836020036101000a03801982511681845116808217855250505050505090500191505090815260200160405180910390206003018054905014156139d5576014819080600181540180825580915050600190039060005260206000200160009091909190915090805190602001906139d3929190618b73565b505b6040518061014001604052808e73ffffffffffffffffffffffffffffffffffffffff1681526020018b6001811115613a0957fe5b8152602001613a178e6175d0565b6effffffffffffffffffffffffffffff168152602001613a368d616964565b63ffffffff168152602001613a4a8b616964565b63ffffffff168152602001613a5e8a616964565b63ffffffff168152602001613a72856175d0565b6effffffffffffffffffffffffffffff168152602001613a91846175d0565b6effffffffffffffffffffffffffffff168152602001888880806020026020016040519081016040528093929190818152602001838360200280828437600081840152601f19601f820116905080830192505050505050508152602001868680806020026020016040519081016040528093929190818152602001838360200280828437600081840152601f19601f82011690508083019250505050505050815250600e826040518082805190602001908083835b60208310613b695780518252602082019150602081019050602083039250613b46565b6001836020036101000a038019825116818451168082178552505050505050905001915050908152602001604051809103902060008201518160000160006101000a81548173ffffffffffffffffffffffffffffffffffffffff021916908373ffffffffffffffffffffffffffffffffffffffff16021790555060208201518160000160146101000a81548160ff02191690836001811115613c0757fe5b021790555060408201518160010160006101000a8154816effffffffffffffffffffffffffffff02191690836effffffffffffffffffffffffffffff160217905550606082015181600101600f6101000a81548163ffffffff021916908363ffffffff16021790555060808201518160010160136101000a81548163ffffffff021916908363ffffffff16021790555060a08201518160010160176101000a81548163ffffffff021916908363ffffffff16021790555060c08201518160020160006101000a8154816effffffffffffffffffffffffffffff02191690836effffffffffffffffffffffffffffff16021790555060e082015181600201600f6101000a8154816effffffffffffffffffffffffffffff02191690836effffffffffffffffffffffffffffff160217905550610100820151816003019080519060200190613d55929190618aa2565b50610120820151816004019080519060200190613d73929190618aa2565b509050507f27136bc3b80a2a48083d0f3dd8acaf97309ab58abf6408d4ab39af25b6b4168e816040518080602001828103825283818151815260200191508051906020019080838360005b83811015613dd9578082015181840152602081019050613dbe565b50505050905090810190601f168015613e065780820380516001836020036101000a031916815260200191505b509250505060405180910390a150505050505050505050505050565b6000600360008373ffffffffffffffffffffffffffffffffffffffff1673ffffffffffffffffffffffffffffffffffffffff168152602001908152602001600020549050919050565b6000600d60009054906101000a900473ffffffffffffffffffffffffffffffffffffffff1673ffffffffffffffffffffffffffffffffffffffff16631dc4ba9f30846040518363ffffffff1660e01b8152600401808373ffffffffffffffffffffffffffffffffffffffff1673ffffffffffffffffffffffffffffffffffffffff1681526020018281526020019250505060206040518083038186803b158015613f1457600080fd5b505afa158015613f28573d6000803e3d6000fd5b505050506040513d6020811015613f3e57600080fd5b81019080805190602001909291905050509050919050565b60056020528060005260406000206000915090505481565b6000613f786154e6565b613fea576040517f08c379a00000000000000000000000000000000000000000000000000000000081526004018080602001828103825260138152602001807f72656465656d64206e6f7420616c6c6f7765640000000000000000000000000081525060200191505060405180910390fd5b6000600860009054906101000a900473ffffffffffffffffffffffffffffffffffffffff1673ffffffffffffffffffffffffffffffffffffffff166370a08231306040518263ffffffff1660e01b8152600401808273ffffffffffffffffffffffffffffffffffffffff1673ffffffffffffffffffffffffffffffffffffffff16815260200191505060206040518083038186803b15801561408b57600080fd5b505afa15801561409f573d6000803e3d6000fd5b505050506040513d60208110156140b557600080fd5b810190808051906020019092919050505090506000819050600060075490506000600754905060008090505b86518110156141a557600073ffffffffffffffffffffffffffffffffffffffff1687828151811061410e57fe5b602002602001015173ffffffffffffffffffffffffffffffffffffffff16146141985760008061415287868b868151811061414557fe5b6020026020010151617642565b91509150614169818961665a90919063ffffffff16565b975061417e818761634a90919063ffffffff16565b9550614193828561634a90919063ffffffff16565b935050505b80806001019150506140e1565b508060078190555050505050919050565b600080600860009054906101000a900473ffffffffffffffffffffffffffffffffffffffff1673ffffffffffffffffffffffffffffffffffffffff166370a08231306040518263ffffffff1660e01b8152600401808273ffffffffffffffffffffffffffffffffffffffff1673ffffffffffffffffffffffffffffffffffffffff16815260200191505060206040518083038186803b15801561425857600080fd5b505afa15801561426c573d6000803e3d6000fd5b505050506040513d602081101561428257600080fd5b8101908080519060200190929190505050905060006142c06018546142b2601254856161b690919063ffffffff16565b61623c90919063ffffffff16565b905060006143b0600860009054906101000a900473ffffffffffffffffffffffffffffffffffffffff1673ffffffffffffffffffffffffffffffffffffffff1663a5fdc5de306040518263ffffffff1660e01b8152600401808273ffffffffffffffffffffffffffffffffffffffff1673ffffffffffffffffffffffffffffffffffffffff16815260200191505060206040518083038186803b15801561436657600080fd5b505afa15801561437a573d6000803e3d6000fd5b505050506040513d602081101561439057600080fd5b81019080805190602001909291905050508461634a90919063ffffffff16565b90508181116143c05760006143d4565b6143d3828261634a90919063ffffffff16565b5b935050505090565b6000806143e883615df2565b6143f06189e9565b600e846040518082805190602001908083835b602083106144265780518252602082019150602081019050602083039250614403565b6001836020036101000a0380198251168184511680821785525050505050509050019150509081526020016040518091039020604051806101400160405290816000820160009054906101000a900473ffffffffffffffffffffffffffffffffffffffff1673ffffffffffffffffffffffffffffffffffffffff1673ffffffffffffffffffffffffffffffffffffffff1681526020016000820160149054906101000a900460ff1660018111156144d957fe5b60018111156144e457fe5b81526020016001820160009054906101000a90046effffffffffffffffffffffffffffff166effffffffffffffffffffffffffffff166effffffffffffffffffffffffffffff16815260200160018201600f9054906101000a900463ffffffff1663ffffffff1663ffffffff1681526020016001820160139054906101000a900463ffffffff1663ffffffff1663ffffffff1681526020016001820160179054906101000a900463ffffffff1663ffffffff1663ffffffff1681526020016002820160009054906101000a90046effffffffffffffffffffffffffffff166effffffffffffffffffffffffffffff166effffffffffffffffffffffffffffff16815260200160028201600f9054906101000a90046effffffffffffffffffffffffffffff166effffffffffffffffffffffffffffff166effffffffffffffffffffffffffffff168152602001600382018054806020026020016040519081016040528092919081815260200182805480156146c057602002820191906000526020600020906000905b82829054906101000a90046effffffffffffffffffffffffffffff166effffffffffffffffffffffffffffff16815260200190600f0190602082600e0104928301926001038202915080841161466d5790505b505050505081526020016004820180548060200260200160405190810160405280929190818152602001828054801561475a57602002820191906000526020600020906000905b82829054906101000a90046effffffffffffffffffffffffffffff166effffffffffffffffffffffffffffff16815260200190600f0190602082600e010492830192600103820291508084116147075790505b5050505050815250509050614770816002617782565b92506147936147828583866002617976565b61478e86846002616ab8565b61619d565b915050915091565b6000606060016040519080825280602002602001820160405280156147cf5781602001602082028038833980820191505090505b50905082816000815181106147e057fe5b602002602001019073ffffffffffffffffffffffffffffffffffffffff16908173ffffffffffffffffffffffffffffffffffffffff168152505061482381613f6e565b915050919050565b60606040518060400160405280600581526020017f4c4c50544b000000000000000000000000000000000000000000000000000000815250905090565b6148706163fe565b6040518060400160405280614884846175d0565b6effffffffffffffffffffffffffffff1681526020016148a3836175d0565b6effffffffffffffffffffffffffffff16815250600f8686604051808383808284378083019250505092505050908152602001604051809103902060008560028111156148ec57fe5b815260200190815260200160002060008201518160000160006101000a8154816effffffffffffffffffffffffffffff02191690836effffffffffffffffffffffffffffff160217905550602082015181600001600f6101000a8154816effffffffffffffffffffffffffffff02191690836effffffffffffffffffffffffffffff1602179055509050505050505050565b60008073ffffffffffffffffffffffffffffffffffffffff168373ffffffffffffffffffffffffffffffffffffffff1614156149b957600080fd5b614a4882600460003373ffffffffffffffffffffffffffffffffffffffff1673ffffffffffffffffffffffffffffffffffffffff16815260200190815260200160002060008673ffffffffffffffffffffffffffffffffffffffff1673ffffffffffffffffffffffffffffffffffffffff1681526020019081526020016000205461634a90919063ffffffff16565b600460003373ffffffffffffffffffffffffffffffffffffffff1673ffffffffffffffffffffffffffffffffffffffff16815260200190815260200160002060008573ffffffffffffffffffffffffffffffffffffffff1673ffffffffffffffffffffffffffffffffffffffff16815260200190815260200160002081905550614b4f3384600460003373ffffffffffffffffffffffffffffffffffffffff1673ffffffffffffffffffffffffffffffffffffffff16815260200190815260200160002060008773ffffffffffffffffffffffffffffffffffffffff1673ffffffffffffffffffffffffffffffffffffffff168152602001908152602001600020546166e2565b6001905092915050565b60008673ffffffffffffffffffffffffffffffffffffffff1663d505accf333089898989896040518863ffffffff1660e01b8152600401808873ffffffffffffffffffffffffffffffffffffffff1673ffffffffffffffffffffffffffffffffffffffff1681526020018773ffffffffffffffffffffffffffffffffffffffff1673ffffffffffffffffffffffffffffffffffffffff1681526020018681526020018581526020018460ff1660ff168152602001838152602001828152602001975050505050505050600060405180830381600087803b158015614c3c57600080fd5b505af1158015614c50573d6000803e3d6000fd5b50505050614ca48b8b8080601f016020809104026020016040519081016040528093929190818152602001838380828437600081840152601f19601f820116905080830192505050505050508a8a8a614d2e565b90509a9950505050505050505050565b6000614cbf33613e22565b821115614ccb57600080fd5b600073ffffffffffffffffffffffffffffffffffffffff168373ffffffffffffffffffffffffffffffffffffffff161415614d0557600080fd5b614d0f3383616286565b614d1983836162e8565b614d24338484616394565b6001905092915050565b6000808311614da5576040517f08c379a000000000000000000000000000000000000000000000000000000000815260040180806020018281038252600e8152602001807f696e76616c696420766f6c756d6500000000000000000000000000000000000081525060200191505060405180910390fd5b614dae85615df2565b614db66189e9565b600e866040518082805190602001908083835b60208310614dec5780518252602082019150602081019050602083039250614dc9565b6001836020036101000a0380198251168184511680821785525050505050509050019150509081526020016040518091039020604051806101400160405290816000820160009054906101000a900473ffffffffffffffffffffffffffffffffffffffff1673ffffffffffffffffffffffffffffffffffffffff1673ffffffffffffffffffffffffffffffffffffffff1681526020016000820160149054906101000a900460ff166001811115614e9f57fe5b6001811115614eaa57fe5b81526020016001820160009054906101000a90046effffffffffffffffffffffffffffff166effffffffffffffffffffffffffffff166effffffffffffffffffffffffffffff16815260200160018201600f9054906101000a900463ffffffff1663ffffffff1663ffffffff1681526020016001820160139054906101000a900463ffffffff1663ffffffff1663ffffffff1681526020016001820160179054906101000a900463ffffffff1663ffffffff1663ffffffff1681526020016002820160009054906101000a90046effffffffffffffffffffffffffffff166effffffffffffffffffffffffffffff166effffffffffffffffffffffffffffff16815260200160028201600f9054906101000a90046effffffffffffffffffffffffffffff166effffffffffffffffffffffffffffff166effffffffffffffffffffffffffffff1681526020016003820180548060200260200160405190810160405280929190818152602001828054801561508657602002820191906000526020600020906000905b82829054906101000a90046effffffffffffffffffffffffffffff166effffffffffffffffffffffffffffff16815260200190600f0190602082600e010492830192600103820291508084116150335790505b505050505081526020016004820180548060200260200160405190810160405280929190818152602001828054801561512057602002820191906000526020600020906000905b82829054906101000a90046effffffffffffffffffffffffffffff166effffffffffffffffffffffffffffff16815260200190600f0190602082600e010492830192600103820291508084116150cd5790505b505050505081525050905061513b8660018360000151615f24565b6151ad576040517f08c379a000000000000000000000000000000000000000000000000000000000815260040180806020018281038252600c8152602001807f6f7574206f662072616e6765000000000000000000000000000000000000000081525060200191505060405180910390fd5b6151b981868686618188565b9450600860009054906101000a900473ffffffffffffffffffffffffffffffffffffffff1673ffffffffffffffffffffffffffffffffffffffff16638c922b63876040518263ffffffff1660e01b81526004018080602001828103825283818151815260200191508051906020019080838360005b8381101561524957808201518184015260208101905061522e565b50505050905090810190601f1680156152765780820380516001836020036101000a031916815260200191505b509250505060206040518083038186803b15801561529357600080fd5b505afa1580156152a7573d6000803e3d6000fd5b505050506040513d60208110156152bd57600080fd5b81019080805190602001909291905050509150600082905060008173ffffffffffffffffffffffffffffffffffffffff166370a08231306040518263ffffffff1660e01b8152600401808273ffffffffffffffffffffffffffffffffffffffff1673ffffffffffffffffffffffffffffffffffffffff16815260200191505060206040518083038186803b15801561535457600080fd5b505afa158015615368573d6000803e3d6000fd5b505050506040513d602081101561537e57600080fd5b81019080805190602001909291905050509050808611156153aa576153a58284883361843c565b61546e565b8173ffffffffffffffffffffffffffffffffffffffff1663a9059cbb33886040518363ffffffff1660e01b8152600401808373ffffffffffffffffffffffffffffffffffffffff1673ffffffffffffffffffffffffffffffffffffffff16815260200182815260200192505050602060405180830381600087803b15801561543157600080fd5b505af1158015615445573d6000803e3d6000fd5b505050506040513d602081101561545b57600080fd5b8101908080519060200190929190505050505b3373ffffffffffffffffffffffffffffffffffffffff168473ffffffffffffffffffffffffffffffffffffffff167f89f5adc174562e07c9c9b1cae7109bbecb21cf9d1b2847e550042b8653c54a0e8989604051808381526020018281526020019250505060405180910390a3505050949350505050565b6000601354600960009054906101000a900473ffffffffffffffffffffffffffffffffffffffff1673ffffffffffffffffffffffffffffffffffffffff1663bbe4fd506040518163ffffffff1660e01b815260040160206040518083038186803b15801561555357600080fd5b505afa158015615567573d6000803e3d6000fd5b505050506040513d602081101561557d57600080fd5b81019080805190602001909291905050501015905090565b6000806155a183615df2565b6155a96189e9565b600e846040518082805190602001908083835b602083106155df57805182526020820191506020810190506020830392506155bc565b6001836020036101000a0380198251168184511680821785525050505050509050019150509081526020016040518091039020604051806101400160405290816000820160009054906101000a900473ffffffffffffffffffffffffffffffffffffffff1673ffffffffffffffffffffffffffffffffffffffff1673ffffffffffffffffffffffffffffffffffffffff1681526020016000820160149054906101000a900460ff16600181111561569257fe5b600181111561569d57fe5b81526020016001820160009054906101000a90046effffffffffffffffffffffffffffff166effffffffffffffffffffffffffffff166effffffffffffffffffffffffffffff16815260200160018201600f9054906101000a900463ffffffff1663ffffffff1663ffffffff1681526020016001820160139054906101000a900463ffffffff1663ffffffff1663ffffffff1681526020016001820160179054906101000a900463ffffffff1663ffffffff1663ffffffff1681526020016002820160009054906101000a90046effffffffffffffffffffffffffffff166effffffffffffffffffffffffffffff166effffffffffffffffffffffffffffff16815260200160028201600f9054906101000a90046effffffffffffffffffffffffffffff166effffffffffffffffffffffffffffff166effffffffffffffffffffffffffffff1681526020016003820180548060200260200160405190810160405280929190818152602001828054801561587957602002820191906000526020600020906000905b82829054906101000a90046effffffffffffffffffffffffffffff166effffffffffffffffffffffffffffff16815260200190600f0190602082600e010492830192600103820291508084116158265790505b505050505081526020016004820180548060200260200160405190810160405280929190818152602001828054801561591357602002820191906000526020600020906000905b82829054906101000a90046effffffffffffffffffffffffffffff166effffffffffffffffffffffffffffff16815260200190600f0190602082600e010492830192600103820291508084116158c05790505b5050505050815250509050615929816001617782565b925061594c61593b8583866001617976565b61594786846001616ab8565b61619d565b915050915091565b428410156159ca576040517f08c379a000000000000000000000000000000000000000000000000000000000815260040180806020018281038252600e8152602001807f7065726d6974206578706972656400000000000000000000000000000000000081525060200191505060405180910390fd5b60006006547f6e71edae12b1b97f4d1f60370fef10105fa2faae0126114a169c64845d6126c960001b898989600560008e73ffffffffffffffffffffffffffffffffffffffff1673ffffffffffffffffffffffffffffffffffffffff1681526020019081526020016000206000815480929190600101919050558a604051602001808781526020018673ffffffffffffffffffffffffffffffffffffffff1673ffffffffffffffffffffffffffffffffffffffff1681526020018573ffffffffffffffffffffffffffffffffffffffff1673ffffffffffffffffffffffffffffffffffffffff16815260200184815260200183815260200182815260200196505050505050506040516020818303038152906040528051906020012060405160200180807f190100000000000000000000000000000000000000000000000000000000000081525060020183815260200182815260200192505050604051602081830303815290604052805190602001209050600060018286868660405160008152602001604052604051808581526020018460ff1660ff1681526020018381526020018281526020019450505050506020604051602081039080840390855afa158015615b9c573d6000803e3d6000fd5b505050602060405103519050600073ffffffffffffffffffffffffffffffffffffffff168173ffffffffffffffffffffffffffffffffffffffff1614158015615c1057508873ffffffffffffffffffffffffffffffffffffffff168173ffffffffffffffffffffffffffffffffffffffff16145b615c82576040517f08c379a00000000000000000000000000000000000000000000000000000000081526004018080602001828103825260118152602001807f696e76616c6964207369676e617475726500000000000000000000000000000081525060200191505060405180910390fd5b615c8d898989615d20565b50505050505050505050565b6000600460008473ffffffffffffffffffffffffffffffffffffffff1673ffffffffffffffffffffffffffffffffffffffff16815260200190815260200160002060008373ffffffffffffffffffffffffffffffffffffffff1673ffffffffffffffffffffffffffffffffffffffff16815260200190815260200160002054905092915050565b60008073ffffffffffffffffffffffffffffffffffffffff168373ffffffffffffffffffffffffffffffffffffffff161415615d5b57600080fd5b81600460008673ffffffffffffffffffffffffffffffffffffffff1673ffffffffffffffffffffffffffffffffffffffff16815260200190815260200160002060008573ffffffffffffffffffffffffffffffffffffffff1673ffffffffffffffffffffffffffffffffffffffff16815260200190815260200160002081905550615de78484846166e2565b600190509392505050565b600073ffffffffffffffffffffffffffffffffffffffff16600e826040518082805190602001908083835b60208310615e405780518252602082019150602081019050602083039250615e1d565b6001836020036101000a038019825116818451168082178552505050505050905001915050908152602001604051809103902060000160009054906101000a900473ffffffffffffffffffffffffffffffffffffffff1673ffffffffffffffffffffffffffffffffffffffff161415615f21576040517f08c379a00000000000000000000000000000000000000000000000000000000081526004018080602001828103825260118152602001807f696e76616c6964206f707453796d626f6c00000000000000000000000000000081525060200191505060405180910390fd5b50565b6000615f2e618bf3565b600f856040518082805190602001908083835b60208310615f645780518252602082019150602081019050602083039250615f41565b6001836020036101000a03801982511681845116808217855250505050505090500191505090815260200160405180910390206000856002811115615fa557fe5b81526020019081526020016000206040518060400160405290816000820160009054906101000a90046effffffffffffffffffffffffffffff166effffffffffffffffffffffffffffff166effffffffffffffffffffffffffffff16815260200160008201600f9054906101000a90046effffffffffffffffffffffffffffff166effffffffffffffffffffffffffffff166effffffffffffffffffffffffffffff16815250509050600081600001516effffffffffffffffffffffffffffff161480156160885750600081602001516effffffffffffffffffffffffffffff16145b156160975760019150506160e3565b60006160a28461877f565b905081600001516effffffffffffffffffffffffffffff1681101580156160de575081602001516effffffffffffffffffffffffffffff168111155b925050505b9392505050565b60006160f68383617782565b90506001600281111561610557fe5b82600281111561611157fe5b1461611f5780841115616124565b808410155b616196576040517f08c379a00000000000000000000000000000000000000000000000000000000081526004018080602001828103825260128152602001807f696e73756666696369656e74207072696365000000000000000000000000000081525060200191505060405180910390fd5b9392505050565b60008183106161ac57816161ae565b825b905092915050565b6000808314156161c95760009050616236565b60008284029050828482816161da57fe5b0414616231576040517f08c379a0000000000000000000000000000000000000000000000000000000008152600401808060200182810382526021815260200180618dd06021913960400191505060405180910390fd5b809150505b92915050565b600061627e83836040518060400160405280601a81526020017f536166654d6174683a206469766973696f6e206279207a65726f00000000000081525061881b565b905092915050565b6162a18161629384613e22565b61634a90919063ffffffff16565b600360008473ffffffffffffffffffffffffffffffffffffffff1673ffffffffffffffffffffffffffffffffffffffff168152602001908152602001600020819055505050565b616303816162f584613e22565b61665a90919063ffffffff16565b600360008473ffffffffffffffffffffffffffffffffffffffff1673ffffffffffffffffffffffffffffffffffffffff168152602001908152602001600020819055505050565b600061638c83836040518060400160405280601e81526020017f536166654d6174683a207375627472616374696f6e206f766572666c6f7700008152506188e1565b905092915050565b8173ffffffffffffffffffffffffffffffffffffffff168373ffffffffffffffffffffffffffffffffffffffff167fddf252ad1be2c89b69c2b068fc378daa952ba7f163c4a11628f55a4df523b3ef836040518082815260200191505060405180910390a3505050565b600073ffffffffffffffffffffffffffffffffffffffff16601060009054906101000a900473ffffffffffffffffffffffffffffffffffffffff1673ffffffffffffffffffffffffffffffffffffffff1614806164a85750601060009054906101000a900473ffffffffffffffffffffffffffffffffffffffff1673ffffffffffffffffffffffffffffffffffffffff163373ffffffffffffffffffffffffffffffffffffffff16145b61651a576040517f08c379a00000000000000000000000000000000000000000000000000000000081526004018080602001828103825260138152602001807f756e617574686f72697a65642063616c6c65720000000000000000000000000081525060200191505060405180910390fd5b565b600080600090505b838054905081101561664e57828051906020012084828154811061654457fe5b9060005260206000200160405180828054600181600116156101000203166002900480156165a95780601f106165875761010080835404028352918201916165a9565b820191906000526020600020905b815481529060010190602001808311616595575b50509150506040518091039020141561664157836001858054905003815481106165cf57fe5b906000526020600020018482815481106165e557fe5b90600052602060002001908054600181600116156101000203166002900461660e929190618c2f565b508380548061661957fe5b6001900381819060005260206000200160006166359190618cb6565b90556001915050616654565b8080600101915050616524565b50600090505b92915050565b6000808284019050838110156166d8576040517f08c379a000000000000000000000000000000000000000000000000000000000815260040180806020018281038252601b8152602001807f536166654d6174683a206164646974696f6e206f766572666c6f77000000000081525060200191505060405180910390fd5b8091505092915050565b8173ffffffffffffffffffffffffffffffffffffffff168373ffffffffffffffffffffffffffffffffffffffff167f8c5be1e5ebec7d5bd14f71427d1e84f3dd0314c0f7b2291e5b200ac8c7c3b925836040518082815260200191505060405180910390a3505050565b60008290508073ffffffffffffffffffffffffffffffffffffffff166323b872dd33600b60009054906101000a900473ffffffffffffffffffffffffffffffffffffffff16856040518463ffffffff1660e01b8152600401808473ffffffffffffffffffffffffffffffffffffffff1673ffffffffffffffffffffffffffffffffffffffff1681526020018373ffffffffffffffffffffffffffffffffffffffff1673ffffffffffffffffffffffffffffffffffffffff1681526020018281526020019350505050602060405180830381600087803b15801561682e57600080fd5b505af1158015616842573d6000803e3d6000fd5b505050506040513d602081101561685857600080fd5b810190808051906020019092919050505050600b60009054906101000a900473ffffffffffffffffffffffffffffffffffffffff1673ffffffffffffffffffffffffffffffffffffffff1663d3bca8843085856040518463ffffffff1660e01b8152600401808473ffffffffffffffffffffffffffffffffffffffff1673ffffffffffffffffffffffffffffffffffffffff1681526020018373ffffffffffffffffffffffffffffffffffffffff1673ffffffffffffffffffffffffffffffffffffffff1681526020018281526020019350505050600060405180830381600087803b15801561694757600080fd5b505af115801561695b573d6000803e3d6000fd5b50505050505050565b600064010000000082106169c3576040517f08c379a0000000000000000000000000000000000000000000000000000000008152600401808060200182810382526026815260200180618df16026913960400191505060405180910390fd5b819050919050565b6000808284019050600083121580156169e45750838112155b806169fa57506000831280156169f957508381125b5b616a4f576040517f08c379a0000000000000000000000000000000000000000000000000000000008152600401808060200182810382526021815260200180618d896021913960400191505060405180910390fd5b8091505092915050565b6000616ab0616a7260028461623c90919063ffffffff16565b838581616a7b57fe5b061015616a89576000616a8c565b60015b60ff16616aa2848661623c90919063ffffffff16565b61665a90919063ffffffff16565b905092915050565b6000806000905060008090506000600860009054906101000a900473ffffffffffffffffffffffffffffffffffffffff1673ffffffffffffffffffffffffffffffffffffffff16638c922b63886040518263ffffffff1660e01b81526004018080602001828103825283818151815260200191508051906020019080838360005b83811015616b54578082015181840152602081019050616b39565b50505050905090810190601f168015616b815780820380516001836020036101000a031916815260200191505b509250505060206040518083038186803b158015616b9e57600080fd5b505afa158015616bb2573d6000803e3d6000fd5b505050506040513d6020811015616bc857600080fd5b8101908080519060200190929190505050905060016002811115616be857fe5b856002811115616bf457fe5b1415616cd1578560c001516effffffffffffffffffffffffffffff1692508073ffffffffffffffffffffffffffffffffffffffff1663d0acc58f306040518263ffffffff1660e01b8152600401808273ffffffffffffffffffffffffffffffffffffffff1673ffffffffffffffffffffffffffffffffffffffff16815260200191505060206040518083038186803b158015616c8f57600080fd5b505afa158015616ca3573d6000803e3d6000fd5b505050506040513d6020811015616cb957600080fd5b81019080805190602001909291905050509150616da4565b8560e001516effffffffffffffffffffffffffffff1692508073ffffffffffffffffffffffffffffffffffffffff166370a08231306040518263ffffffff1660e01b8152600401808273ffffffffffffffffffffffffffffffffffffffff1673ffffffffffffffffffffffffffffffffffffffff16815260200191505060206040518083038186803b158015616d6657600080fd5b505afa158015616d7a573d6000803e3d6000fd5b505050506040513d6020811015616d9057600080fd5b810190808051906020019092919050505091505b818311616db2576000616db6565b8183035b93505050509392505050565b616dca6189a1565b73ffffffffffffffffffffffffffffffffffffffff16633644e5156040518163ffffffff1660e01b815260040160206040518083038186803b158015616e0f57600080fd5b505afa158015616e23573d6000803e3d6000fd5b505050506040513d6020811015616e3957600080fd5b81019080805190602001909291905050506006819055508073ffffffffffffffffffffffffffffffffffffffff1663893d20e86040518163ffffffff1660e01b815260040160206040518083038186803b158015616e9657600080fd5b505afa158015616eaa573d6000803e3d6000fd5b505050506040513d6020811015616ec057600080fd5b8101908080519060200190929190505050601060006101000a81548173ffffffffffffffffffffffffffffffffffffffff021916908373ffffffffffffffffffffffffffffffffffffffff1602179055508073ffffffffffffffffffffffffffffffffffffffff166304433bbc6040518163ffffffff1660e01b815260040180806020018281038252600c8152602001807f54696d6550726f7669646572000000000000000000000000000000000000000081525060200191505060206040518083038186803b158015616f9357600080fd5b505afa158015616fa7573d6000803e3d6000fd5b505050506040513d6020811015616fbd57600080fd5b8101908080519060200190929190505050600960006101000a81548173ffffffffffffffffffffffffffffffffffffffff021916908373ffffffffffffffffffffffffffffffffffffffff1602179055508073ffffffffffffffffffffffffffffffffffffffff166304433bbc6040518163ffffffff1660e01b815260040180806020018281038252600f8152602001807f4f7074696f6e7345786368616e6765000000000000000000000000000000000081525060200191505060206040518083038186803b15801561709057600080fd5b505afa1580156170a4573d6000803e3d6000fd5b505050506040513d60208110156170ba57600080fd5b8101908080519060200190929190505050600860006101000a81548173ffffffffffffffffffffffffffffffffffffffff021916908373ffffffffffffffffffffffffffffffffffffffff1602179055508073ffffffffffffffffffffffffffffffffffffffff166304433bbc6040518163ffffffff1660e01b81526004018080602001828103825260108152602001807f50726f746f636f6c53657474696e67730000000000000000000000000000000081525060200191505060206040518083038186803b15801561718d57600080fd5b505afa1580156171a1573d6000803e3d6000fd5b505050506040513d60208110156171b757600080fd5b8101908080519060200190929190505050600a60006101000a81548173ffffffffffffffffffffffffffffffffffffffff021916908373ffffffffffffffffffffffffffffffffffffffff1602179055508073ffffffffffffffffffffffffffffffffffffffff166304433bbc6040518163ffffffff1660e01b815260040180806020018281038252600e8152602001807f43726564697450726f766964657200000000000000000000000000000000000081525060200191505060206040518083038186803b15801561728a57600080fd5b505afa15801561729e573d6000803e3d6000fd5b505050506040513d60208110156172b457600080fd5b8101908080519060200190929190505050600b60006101000a81548173ffffffffffffffffffffffffffffffffffffffff021916908373ffffffffffffffffffffffffffffffffffffffff1602179055508073ffffffffffffffffffffffffffffffffffffffff166304433bbc6040518163ffffffff1660e01b81526004018080602001828103825260128152602001807f4c696e656172496e746572706f6c61746f72000000000000000000000000000081525060200191505060206040518083038186803b15801561738757600080fd5b505afa15801561739b573d6000803e3d6000fd5b505050506040513d60208110156173b157600080fd5b8101908080519060200190929190505050600c60006101000a81548173ffffffffffffffffffffffffffffffffffffffff021916908373ffffffffffffffffffffffffffffffffffffffff1602179055508073ffffffffffffffffffffffffffffffffffffffff166304433bbc6040518163ffffffff1660e01b815260040180806020018281038252600c8152602001807f5969656c64547261636b6572000000000000000000000000000000000000000081525060200191505060206040518083038186803b15801561748457600080fd5b505afa158015617498573d6000803e3d6000fd5b505050506040513d60208110156174ae57600080fd5b8101908080519060200190929190505050600d60006101000a81548173ffffffffffffffffffffffffffffffffffffffff021916908373ffffffffffffffffffffffffffffffffffffffff160217905550670de0b6b3a7640000601581905550633b9aca00601681905550600860009054906101000a900473ffffffffffffffffffffffffffffffffffffffff1673ffffffffffffffffffffffffffffffffffffffff1663a53b00416040518163ffffffff1660e01b815260040160206040518083038186803b15801561758157600080fd5b505afa158015617595573d6000803e3d6000fd5b505050506040513d60208110156175ab57600080fd5b8101908080519060200190929190505050601781905550633b9aca0060188190555050565b60006f01000000000000000000000000000000821061763a576040517f08c379a0000000000000000000000000000000000000000000000000000000008152600401808060200182810382526027815260200180618d626027913960400191505060405180910390fd5b819050919050565b60008061764e83613e22565b9150600082111561776f5760006103e890506176a061769a8661768c61767d85886161b690919063ffffffff16565b8a6161b690919063ffffffff16565b61623c90919063ffffffff16565b82616a59565b9150600860009054906101000a900473ffffffffffffffffffffffffffffffffffffffff1673ffffffffffffffffffffffffffffffffffffffff166356a6d9ef85846040518363ffffffff1660e01b8152600401808373ffffffffffffffffffffffffffffffffffffffff1673ffffffffffffffffffffffffffffffffffffffff16815260200182815260200192505050600060405180830381600087803b15801561774b57600080fd5b505af115801561775f573d6000803e3d6000fd5b5050505061776d8484616286565b505b61777a8383836189cb565b935093915050565b6000806001600281111561779257fe5b83600281111561779e57fe5b146177bf576177ba60115460185461634a90919063ffffffff16565b6177d7565b6177d660185460115461665a90919063ffffffff16565b5b905060006177e8856000015161877f565b9050600c60009054906101000a900473ffffffffffffffffffffffffffffffffffffffff1673ffffffffffffffffffffffffffffffffffffffff1663add386e28287608001518860a001518961010001518a6101200151886040518763ffffffff1660e01b8152600401808781526020018663ffffffff1663ffffffff1681526020018563ffffffff1663ffffffff1681526020018060200180602001848152602001838103835286818151815260200191508051906020019060200280838360005b838110156178c65780820151818401526020810190506178ab565b50505050905001838103825285818151815260200191508051906020019060200280838360005b838110156179085780820151818401526020810190506178ed565b505050509050019850505050505050505060206040518083038186803b15801561793157600080fd5b505afa158015617945573d6000803e3d6000fd5b505050506040513d602081101561795b57600080fd5b81019080805190602001909291905050509250505092915050565b6000806179816141b6565b9050600061799c60125460185461634a90919063ffffffff16565b90506000600860009054906101000a900473ffffffffffffffffffffffffffffffffffffffff1673ffffffffffffffffffffffffffffffffffffffff1663b434e9d688600001516017548a602001518b604001518c606001516040518663ffffffff1660e01b8152600401808673ffffffffffffffffffffffffffffffffffffffff1673ffffffffffffffffffffffffffffffffffffffff168152602001858152602001846001811115617a4c57fe5b60ff168152602001836effffffffffffffffffffffffffffff1681526020018263ffffffff1681526020019550505050505060206040518083038186803b158015617a9657600080fd5b505afa158015617aaa573d6000803e3d6000fd5b505050506040513d6020811015617ac057600080fd5b8101908080519060200190929190505050905060016002811115617ae057fe5b856002811115617aec57fe5b1415617b875785811115617b5e57617b59617b36617b27601854617b19868b6161b690919063ffffffff16565b61623c90919063ffffffff16565b8361634a90919063ffffffff16565b617b4b601754866161b690919063ffffffff16565b61623c90919063ffffffff16565b617b80565b7fffffffffffffffffffffffffffffffffffffffffffffffffffffffffffffffff5b935061817d565b6000600860009054906101000a900473ffffffffffffffffffffffffffffffffffffffff1673ffffffffffffffffffffffffffffffffffffffff166370a08231306040518263ffffffff1660e01b8152600401808273ffffffffffffffffffffffffffffffffffffffff1673ffffffffffffffffffffffffffffffffffffffff16815260200191505060206040518083038186803b158015617c2857600080fd5b505afa158015617c3c573d6000803e3d6000fd5b505050506040513d6020811015617c5257600080fd5b810190808051906020019092919050505090506000600860009054906101000a900473ffffffffffffffffffffffffffffffffffffffff1673ffffffffffffffffffffffffffffffffffffffff1663a5fdc5de306040518263ffffffff1660e01b8152600401808273ffffffffffffffffffffffffffffffffffffffff1673ffffffffffffffffffffffffffffffffffffffff16815260200191505060206040518083038186803b158015617d0657600080fd5b505afa158015617d1a573d6000803e3d6000fd5b505050506040513d6020811015617d3057600080fd5b810190808051906020019092919050505090506000617f2184600860009054906101000a900473ffffffffffffffffffffffffffffffffffffffff1673ffffffffffffffffffffffffffffffffffffffff16638c922b638e6040518263ffffffff1660e01b81526004018080602001828103825283818151815260200191508051906020019080838360005b83811015617dd7578082015181840152602081019050617dbc565b50505050905090810190601f168015617e045780820380516001836020036101000a031916815260200191505b509250505060206040518083038186803b158015617e2157600080fd5b505afa158015617e35573d6000803e3d6000fd5b505050506040513d6020811015617e4b57600080fd5b810190808051906020019092919050505073ffffffffffffffffffffffffffffffffffffffff1663d0acc58f306040518263ffffffff1660e01b8152600401808273ffffffffffffffffffffffffffffffffffffffff1673ffffffffffffffffffffffffffffffffffffffff16815260200191505060206040518083038186803b158015617ed857600080fd5b505afa158015617eec573d6000803e3d6000fd5b505050506040513d6020811015617f0257600080fd5b81019080805190602001909291905050506161b690919063ffffffff16565b9050808211617f31576000617f45565b617f44818361634a90919063ffffffff16565b5b91506000600860009054906101000a900473ffffffffffffffffffffffffffffffffffffffff1673ffffffffffffffffffffffffffffffffffffffff166383a7e7e18c600001518d602001518e604001518f606001516040518563ffffffff1660e01b8152600401808573ffffffffffffffffffffffffffffffffffffffff1673ffffffffffffffffffffffffffffffffffffffff168152602001846001811115617fec57fe5b60ff168152602001836effffffffffffffffffffffffffffff1681526020018263ffffffff16815260200194505050505060206040518083038186803b15801561803557600080fd5b505afa158015618049573d6000803e3d6000fd5b505050506040513d602081101561805f57600080fd5b81019080805190602001909291905050509050808a11156180f0576180eb618090828c61634a90919063ffffffff16565b6180dd6017546180cf6180c08b6180b26018548b6161b690919063ffffffff16565b61623c90919063ffffffff16565b8961634a90919063ffffffff16565b6161b690919063ffffffff16565b61623c90919063ffffffff16565b618112565b7fffffffffffffffffffffffffffffffffffffffffffffffffffffffffffffffff5b97506181448861813f8c618131601754896161b690919063ffffffff16565b61623c90919063ffffffff16565b6189d0565b9750618176886181718c618163601754896161b690919063ffffffff16565b61623c90919063ffffffff16565b61619d565b9750505050505b505050949350505050565b6000618196848660016160ea565b935060006181c16017546181b386886161b690919063ffffffff16565b61623c90919063ffffffff16565b9050600860009054906101000a900473ffffffffffffffffffffffffffffffffffffffff1673ffffffffffffffffffffffffffffffffffffffff168373ffffffffffffffffffffffffffffffffffffffff161461833a57600080600a60009054906101000a900473ffffffffffffffffffffffffffffffffffffffff1673ffffffffffffffffffffffffffffffffffffffff166354dea00a866040518263ffffffff1660e01b8152600401808273ffffffffffffffffffffffffffffffffffffffff1673ffffffffffffffffffffffffffffffffffffffff168152602001915050604080518083038186803b1580156182b957600080fd5b505afa1580156182cd573d6000803e3d6000fd5b505050506040513d60408110156182e357600080fd5b810190808051906020019092919080519060200190929190505050915091506183278161831984866161b690919063ffffffff16565b61623c90919063ffffffff16565b9250618333858461674c565b5050618430565b600860009054906101000a900473ffffffffffffffffffffffffffffffffffffffff1673ffffffffffffffffffffffffffffffffffffffff1663a606b94a3330846040518463ffffffff1660e01b8152600401808473ffffffffffffffffffffffffffffffffffffffff1673ffffffffffffffffffffffffffffffffffffffff1681526020018373ffffffffffffffffffffffffffffffffffffffff1673ffffffffffffffffffffffffffffffffffffffff1681526020018281526020019350505050600060405180830381600087803b15801561841757600080fd5b505af115801561842b573d6000803e3d6000fd5b505050505b84915050949350505050565b60008473ffffffffffffffffffffffffffffffffffffffff1663d0acc58f306040518263ffffffff1660e01b8152600401808273ffffffffffffffffffffffffffffffffffffffff1673ffffffffffffffffffffffffffffffffffffffff16815260200191505060206040518083038186803b1580156184bb57600080fd5b505afa1580156184cf573d6000803e3d6000fd5b505050506040513d60208110156184e557600080fd5b810190808051906020019092919050505090508360c001516effffffffffffffffffffffffffffff16618521848361665a90919063ffffffff16565b1115618595576040517f08c379a00000000000000000000000000000000000000000000000000000000081526004018080602001828103825260108152602001807f65786365737369766520766f6c756d650000000000000000000000000000000081525060200191505060405180910390fd5b600860009054906101000a900473ffffffffffffffffffffffffffffffffffffffff1673ffffffffffffffffffffffffffffffffffffffff1663b4d39b98856000015185876020015188604001518960600151886040518763ffffffff1660e01b8152600401808773ffffffffffffffffffffffffffffffffffffffff1673ffffffffffffffffffffffffffffffffffffffff16815260200186815260200185600181111561864057fe5b60ff168152602001846effffffffffffffffffffffffffffff1681526020018363ffffffff1681526020018273ffffffffffffffffffffffffffffffffffffffff1673ffffffffffffffffffffffffffffffffffffffff1681526020019650505050505050602060405180830381600087803b1580156186bf57600080fd5b505af11580156186d3573d6000803e3d6000fd5b505050506040513d60208110156186e957600080fd5b81019080805190602001909291905050505060006187056141b6565b11618778576040517f08c379a00000000000000000000000000000000000000000000000000000000081526004018080602001828103825260148152602001807f706f6f6c2062616c616e636520746f6f206c6f7700000000000000000000000081525060200191505060405180910390fd5b5050505050565b6000808290508073ffffffffffffffffffffffffffffffffffffffff16638e15f4736040518163ffffffff1660e01b8152600401604080518083038186803b1580156187ca57600080fd5b505afa1580156187de573d6000803e3d6000fd5b505050506040513d60408110156187f457600080fd5b81019080805190602001909291908051906020019092919050505090508092505050919050565b600080831182906188c7576040517f08c379a00000000000000000000000000000000000000000000000000000000081526004018080602001828103825283818151815260200191508051906020019080838360005b8381101561888c578082015181840152602081019050618871565b50505050905090810190601f1680156188b95780820380516001836020036101000a031916815260200191505b509250505060405180910390fd5b5060008385816188d357fe5b049050809150509392505050565b600083831115829061898e576040517f08c379a00000000000000000000000000000000000000000000000000000000081526004018080602001828103825283818151815260200191508051906020019080838360005b83811015618953578082015181840152602081019050618938565b50505050905090810190601f1680156189805780820380516001836020036101000a031916815260200191505b509250505060405180910390fd5b5060008385039050809150509392505050565b6000600260009054906101000a900473ffffffffffffffffffffffffffffffffffffffff16905090565b505050565b60008183116189df57816189e1565b825b905092915050565b604051806101400160405280600073ffffffffffffffffffffffffffffffffffffffff16815260200160006001811115618a1f57fe5b815260200160006effffffffffffffffffffffffffffff168152602001600063ffffffff168152602001600063ffffffff168152602001600063ffffffff16815260200160006effffffffffffffffffffffffffffff16815260200160006effffffffffffffffffffffffffffff16815260200160608152602001606081525090565b82805482825590600052602060002090600101600290048101928215618b625791602002820160005b83821115618b2557835183826101000a8154816effffffffffffffffffffffffffffff02191690836effffffffffffffffffffffffffffff1602179055509260200192600f01602081600e01049283019260010302618acb565b8015618b605782816101000a8154906effffffffffffffffffffffffffffff0219169055600f01602081600e01049283019260010302618b25565b505b509050618b6f9190618cfe565b5090565b828054600181600116156101000203166002900490600052602060002090601f016020900481019282601f10618bb457805160ff1916838001178555618be2565b82800160010185558215618be2579182015b82811115618be1578251825591602001919060010190618bc6565b5b509050618bef9190618d3c565b5090565b604051806040016040528060006effffffffffffffffffffffffffffff16815260200160006effffffffffffffffffffffffffffff1681525090565b828054600181600116156101000203166002900490600052602060002090601f016020900481019282601f10618c685780548555618ca5565b82800160010185558215618ca557600052602060002091601f016020900482015b82811115618ca4578254825591600101919060010190618c89565b5b509050618cb29190618d3c565b5090565b50805460018160011615610100020316600290046000825580601f10618cdc5750618cfb565b601f016020900490600052602060002090810190618cfa9190618d3c565b5b50565b618d3991905b80821115618d3557600081816101000a8154906effffffffffffffffffffffffffffff021916905550600101618d04565b5090565b90565b618d5e91905b80821115618d5a576000816000905550600101618d42565b5090565b9056fe53616665436173743a2076616c756520646f65736e27742066697420696e2031323020626974735369676e6564536166654d6174683a206164646974696f6e206f766572666c6f774c696e656172204c697175696469747920506f6f6c2052656465656d61626c6520546f6b656e536166654d6174683a206d756c7469706c69636174696f6e206f766572666c6f7753616665436173743a2076616c756520646f65736e27742066697420696e2033322062697473a26469706673582212202b0da8833703d898db9311f4e17980f063d5c096ac5dec03fb67e0bd8daa892464736f6c634300060000334c696e656172204c697175696469747920506f6f6c2052656465656d61626c6520546f6b656e454950373132446f6d61696e28737472696e67206e616d652c737472696e672076657273696f6e2c75696e7432353620636861696e49642c6164647265737320766572696679696e67436f6e747261637429",
  "linkReferences": {},
  "deployedLinkReferences": {}
}