{
  "_format": "hh-sol-artifact-1",
  "contractName": "Deployer",
  "sourceName": "contracts/deployment/Deployer.sol",
  "abi": [
    {
      "inputs": [
        {
          "internalType": "address",
          "name": "_owner",
          "type": "address"
        }
      ],
      "stateMutability": "nonpayable",
      "type": "constructor"
    },
    {
      "inputs": [
        {
          "internalType": "string",
          "name": "fromKey",
          "type": "string"
        },
        {
          "internalType": "string",
          "name": "toKey",
          "type": "string"
        }
      ],
      "name": "addAlias",
      "outputs": [],
      "stateMutability": "nonpayable",
      "type": "function"
    },
    {
      "inputs": [],
      "name": "deploy",
      "outputs": [],
      "stateMutability": "nonpayable",
      "type": "function"
    },
    {
      "inputs": [
        {
          "internalType": "string",
          "name": "key",
          "type": "string"
        }
      ],
      "name": "getContractAddress",
      "outputs": [
        {
          "internalType": "address",
          "name": "",
          "type": "address"
        }
      ],
      "stateMutability": "view",
      "type": "function"
    },
    {
      "inputs": [],
      "name": "getOwner",
      "outputs": [
        {
          "internalType": "address",
          "name": "",
          "type": "address"
        }
      ],
      "stateMutability": "view",
      "type": "function"
    },
    {
      "inputs": [
        {
          "internalType": "string",
          "name": "key",
          "type": "string"
        }
      ],
      "name": "getPayableContractAddress",
      "outputs": [
        {
          "internalType": "address payable",
          "name": "",
          "type": "address"
        }
      ],
      "stateMutability": "view",
      "type": "function"
    },
    {
      "inputs": [
        {
          "internalType": "string",
          "name": "key",
          "type": "string"
        }
      ],
      "name": "hasKey",
      "outputs": [
        {
          "internalType": "bool",
          "name": "",
          "type": "bool"
        }
      ],
      "stateMutability": "view",
      "type": "function"
    },
    {
      "inputs": [],
      "name": "isDeployed",
      "outputs": [
        {
          "internalType": "bool",
          "name": "",
          "type": "bool"
        }
      ],
      "stateMutability": "view",
      "type": "function"
    },
    {
      "inputs": [],
      "name": "reset",
      "outputs": [],
      "stateMutability": "nonpayable",
      "type": "function"
    },
    {
      "inputs": [
        {
          "internalType": "string",
          "name": "key",
          "type": "string"
        },
        {
          "internalType": "address",
          "name": "addr",
          "type": "address"
        }
      ],
      "name": "setContractAddress",
      "outputs": [],
      "stateMutability": "nonpayable",
      "type": "function"
    }
  ],
  "bytecode": "0x608060405234801561001057600080fd5b506040516121b83803806121b88339818101604052602081101561003357600080fd5b810190808051906020019092919050505080600260006101000a81548173ffffffffffffffffffffffffffffffffffffffff021916908373ffffffffffffffffffffffffffffffffffffffff16021790555050612123806100956000396000f3fe608060405234801561001057600080fd5b50600436106100935760003560e01c8063893d20e811610066578063893d20e81461034b578063c52046de14610395578063d72115dc146103b7578063d826f88f14610509578063e3cecf9c1461051357610093565b806304433bbc14610098578063332d378014610193578063534e785c14610266578063775c300c14610341575b600080fd5b610151600480360360208110156100ae57600080fd5b81019080803590602001906401000000008111156100cb57600080fd5b8201836020820111156100dd57600080fd5b803590602001918460018302840111640100000000831117156100ff57600080fd5b91908080601f016020809104026020016040519081016040528093929190818152602001838380828437600081840152601f19601f82011690508083019250505050505050919291929050505061060e565b604051808273ffffffffffffffffffffffffffffffffffffffff1673ffffffffffffffffffffffffffffffffffffffff16815260200191505060405180910390f35b61024c600480360360208110156101a957600080fd5b81019080803590602001906401000000008111156101c657600080fd5b8201836020820111156101d857600080fd5b803590602001918460018302840111640100000000831117156101fa57600080fd5b91908080601f016020809104026020016040519081016040528093929190818152602001838380828437600081840152601f19601f820116905080830192505050505050509192919290505050610972565b604051808215151515815260200191505060405180910390f35b61033f6004803603604081101561027c57600080fd5b810190808035906020019064010000000081111561029957600080fd5b8201836020820111156102ab57600080fd5b803590602001918460018302840111640100000000831117156102cd57600080fd5b91908080601f016020809104026020016040519081016040528093929190818152602001838380828437600081840152601f19601f820116905080830192505050505050509192919290803573ffffffffffffffffffffffffffffffffffffffff169060200190929190505050610b65565b005b610349610cde565b005b610353611279565b604051808273ffffffffffffffffffffffffffffffffffffffff1673ffffffffffffffffffffffffffffffffffffffff16815260200191505060405180910390f35b61039d6112a3565b604051808215151515815260200191505060405180910390f35b610507600480360360408110156103cd57600080fd5b81019080803590602001906401000000008111156103ea57600080fd5b8201836020820111156103fc57600080fd5b8035906020019184600183028401116401000000008311171561041e57600080fd5b91908080601f016020809104026020016040519081016040528093929190818152602001838380828437600081840152601f19601f8201169050808301925050505050505091929192908035906020019064010000000081111561048157600080fd5b82018360208201111561049357600080fd5b803590602001918460018302840111640100000000831117156104b557600080fd5b91908080601f016020809104026020016040519081016040528093929190818152602001838380828437600081840152601f19601f8201169050808301925050505050505091929192905050506112ba565b005b6105116114b6565b005b6105cc6004803603602081101561052957600080fd5b810190808035906020019064010000000081111561054657600080fd5b82018360208201111561055857600080fd5b8035906020019184600183028401116401000000008311171561057a57600080fd5b91908080601f016020809104026020016040519081016040528093929190818152602001838380828437600081840152601f19601f8201169050808301925050505050505091929192905050506115ca565b604051808273ffffffffffffffffffffffffffffffffffffffff1673ffffffffffffffffffffffffffffffffffffffff16815260200191505060405180910390f35b600061061982610972565b610622836115dc565b906106c8576040517f08c379a00000000000000000000000000000000000000000000000000000000081526004018080602001828103825283818151815260200191508051906020019080838360005b8381101561068d578082015181840152602081019050610672565b50505050905090810190601f1680156106ba5780820380516001836020036101000a031916815260200191505b509250505060405180910390fd5b50600080836040518082805190602001908083835b6020831061070057805182526020820191506020810190506020830392506106dd565b6001836020036101000a038019825116818451168082178552505050505050905001915050908152602001604051809103902060009054906101000a900473ffffffffffffffffffffffffffffffffffffffff169050600073ffffffffffffffffffffffffffffffffffffffff168173ffffffffffffffffffffffffffffffffffffffff1614156108885760006001846040518082805190602001908083835b602083106107c357805182526020820191506020810190506020830392506107a0565b6001836020036101000a038019825116818451168082178552505050505050905001915050908152602001604051809103902060405180828054600181600116156101000203166002900480156108515780601f1061082f576101008083540402835291820191610851565b820191906000526020600020905b81548152906001019060200180831161083d575b5050915050908152602001604051809103902060009054906101000a900473ffffffffffffffffffffffffffffffffffffffff1690505b600173ffffffffffffffffffffffffffffffffffffffff168173ffffffffffffffffffffffffffffffffffffffff1614156108c284611678565b90610968576040517f08c379a00000000000000000000000000000000000000000000000000000000081526004018080602001828103825283818151815260200191508051906020019080838360005b8381101561092d578082015181840152602081019050610912565b50505050905090810190601f16801561095a5780820380516001836020036101000a031916815260200191505b509250505060405180910390fd5b5080915050919050565b60008073ffffffffffffffffffffffffffffffffffffffff166000836040518082805190602001908083835b602083106109c1578051825260208201915060208101905060208303925061099e565b6001836020036101000a038019825116818451168082178552505050505050905001915050908152602001604051809103902060009054906101000a900473ffffffffffffffffffffffffffffffffffffffff1673ffffffffffffffffffffffffffffffffffffffff16141580610b5e5750600073ffffffffffffffffffffffffffffffffffffffff1660006001846040518082805190602001908083835b60208310610a835780518252602082019150602081019050602083039250610a60565b6001836020036101000a03801982511681845116808217855250505050505090500191505090815260200160405180910390206040518082805460018160011615610100020316600290048015610b115780601f10610aef576101008083540402835291820191610b11565b820191906000526020600020905b815481529060010190602001808311610afd575b5050915050908152602001604051809103902060009054906101000a900473ffffffffffffffffffffffffffffffffffffffff1673ffffffffffffffffffffffffffffffffffffffff1614155b9050919050565b610b6d611714565b610b75611799565b600360405180604001604052808481526020018373ffffffffffffffffffffffffffffffffffffffff1681525090806001815401808255809150506001900390600052602060002090600202016000909190919091506000820151816000019080519060200190610be79291906118b7565b5060208201518160010160006101000a81548173ffffffffffffffffffffffffffffffffffffffff021916908373ffffffffffffffffffffffffffffffffffffffff160217905550505060016000836040518082805190602001908083835b60208310610c695780518252602082019150602081019050602083039250610c46565b6001836020036101000a038019825116818451168082178552505050505050905001915050908152602001604051809103902060006101000a81548173ffffffffffffffffffffffffffffffffffffffff021916908373ffffffffffffffffffffffffffffffffffffffff1602179055505050565b610ce6611714565b610cee611799565b6001600460006101000a81548160ff021916908315150217905550600060016003805490500390505b7fffffffffffffffffffffffffffffffffffffffffffffffffffffffffffffffff811461110b57600173ffffffffffffffffffffffffffffffffffffffff16600060038381548110610d6557fe5b90600052602060002090600202016000016040518082805460018160011615610100020316600290048015610dd15780601f10610daf576101008083540402835291820191610dd1565b820191906000526020600020905b815481529060010190602001808311610dbd575b5050915050908152602001604051809103902060009054906101000a900473ffffffffffffffffffffffffffffffffffffffff1673ffffffffffffffffffffffffffffffffffffffff161415610fd1576000610e2b611279565b60038381548110610e3857fe5b906000526020600020906002020160010160009054906101000a900473ffffffffffffffffffffffffffffffffffffffff16604051610e7690611937565b808373ffffffffffffffffffffffffffffffffffffffff1673ffffffffffffffffffffffffffffffffffffffff1681526020018273ffffffffffffffffffffffffffffffffffffffff1673ffffffffffffffffffffffffffffffffffffffff16815260200192505050604051809103906000f080158015610efb573d6000803e3d6000fd5b50905080600060038481548110610f0e57fe5b90600052602060002090600202016000016040518082805460018160011615610100020316600290048015610f7a5780601f10610f58576101008083540402835291820191610f7a565b820191906000526020600020905b815481529060010190602001808311610f66575b5050915050908152602001604051809103902060006101000a81548173ffffffffffffffffffffffffffffffffffffffff021916908373ffffffffffffffffffffffffffffffffffffffff160217905550506110fd565b600360016003805490500381548110610fe657fe5b90600052602060002090600202016003828154811061100157fe5b906000526020600020906002020160008201816000019080546001816001161561010002031660029004611036929190611944565b506001820160009054906101000a900473ffffffffffffffffffffffffffffffffffffffff168160010160006101000a81548173ffffffffffffffffffffffffffffffffffffffff021916908373ffffffffffffffffffffffffffffffffffffffff16021790555090505060038054806110ac57fe5b6001900381819060005260206000209060020201600080820160006110d191906119cb565b6001820160006101000a81549073ffffffffffffffffffffffffffffffffffffffff0219169055505090555b808060019003915050610d17565b5060008090505b600380549050811015611276576000806003838154811061112f57fe5b9060005260206000209060020201600001604051808280546001816001161561010002031660029004801561119b5780601f1061117957610100808354040283529182019161119b565b820191906000526020600020905b815481529060010190602001808311611187575b5050915050908152602001604051809103902060009054906101000a900473ffffffffffffffffffffffffffffffffffffffff1690508073ffffffffffffffffffffffffffffffffffffffff16635c1bfb32306040518263ffffffff1660e01b8152600401808273ffffffffffffffffffffffffffffffffffffffff1673ffffffffffffffffffffffffffffffffffffffff168152602001915050600060405180830381600087803b15801561125057600080fd5b505af1158015611264573d6000803e3d6000fd5b50505050508080600101915050611112565b50565b6000600260009054906101000a900473ffffffffffffffffffffffffffffffffffffffff16905090565b6000600460009054906101000a900460ff16905090565b6112c2611714565b6112ca611799565b600073ffffffffffffffffffffffffffffffffffffffff166000826040518082805190602001908083835b6020831061131857805182526020820191506020810190506020830392506112f5565b6001836020036101000a038019825116818451168082178552505050505050905001915050908152602001604051809103902060009054906101000a900473ffffffffffffffffffffffffffffffffffffffff1673ffffffffffffffffffffffffffffffffffffffff16141561138d826115dc565b90611433576040517f08c379a00000000000000000000000000000000000000000000000000000000081526004018080602001828103825283818151815260200191508051906020019080838360005b838110156113f85780820151818401526020810190506113dd565b50505050905090810190601f1680156114255780820380516001836020036101000a031916815260200191505b509250505060405180910390fd5b50806001836040518082805190602001908083835b6020831061146b5780518252602082019150602081019050602083039250611448565b6001836020036101000a038019825116818451168082178552505050505050905001915050908152602001604051809103902090805190602001906114b1929190611a13565b505050565b6114be611799565b6000600460006101000a81548160ff02191690831515021790555060008090505b6003805490508110156115c75760016000600383815481106114fd57fe5b906000526020600020906002020160000160405180828054600181600116156101000203166002900480156115695780601f10611547576101008083540402835291820191611569565b820191906000526020600020905b815481529060010190602001808311611555575b5050915050908152602001604051809103902060006101000a81548173ffffffffffffffffffffffffffffffffffffffff021916908373ffffffffffffffffffffffffffffffffffffffff16021790555080806001019150506114df565b50565b60006115d58261060e565b9050919050565b60608160405160200180807f636f6e74726163742061646472657373206e6f74207365743a20000000000000815250601a0182805190602001908083835b6020831061163d578051825260208201915060208101905060208303925061161a565b6001836020036101000a0380198251168184511680821785525050505050509050019150506040516020818303038152906040529050919050565b60608160405160200180807f70726f7879206e6f74206465706c6f7965643a2000000000000000000000000081525060140182805190602001908083835b602083106116d957805182526020820191506020810190506020830392506116b6565b6001836020036101000a0380198251168184511680821785525050505050509050019150506040516020818303038152906040529050919050565b600460009054906101000a900460ff1615611797576040517f08c379a00000000000000000000000000000000000000000000000000000000081526004018080602001828103825260108152602001807f616c7265616479206465706c6f7965640000000000000000000000000000000081525060200191505060405180910390fd5b565b600073ffffffffffffffffffffffffffffffffffffffff16600260009054906101000a900473ffffffffffffffffffffffffffffffffffffffff1673ffffffffffffffffffffffffffffffffffffffff1614806118435750600260009054906101000a900473ffffffffffffffffffffffffffffffffffffffff1673ffffffffffffffffffffffffffffffffffffffff163373ffffffffffffffffffffffffffffffffffffffff16145b6118b5576040517f08c379a00000000000000000000000000000000000000000000000000000000081526004018080602001828103825260108152602001807f756e616c6c6f7765642063616c6c65720000000000000000000000000000000081525060200191505060405180910390fd5b565b828054600181600116156101000203166002900490600052602060002090601f016020900481019282601f106118f857805160ff1916838001178555611926565b82800160010185558215611926579182015b8281111561192557825182559160200191906001019061190a565b5b5090506119339190611a93565b5090565b61063580611ab983390190565b828054600181600116156101000203166002900490600052602060002090601f016020900481019282601f1061197d57805485556119ba565b828001600101855582156119ba57600052602060002091601f016020900482015b828111156119b957825482559160010191906001019061199e565b5b5090506119c79190611a93565b5090565b50805460018160011615610100020316600290046000825580601f106119f15750611a10565b601f016020900490600052602060002090810190611a0f9190611a93565b5b50565b828054600181600116156101000203166002900490600052602060002090601f016020900481019282601f10611a5457805160ff1916838001178555611a82565b82800160010185558215611a82579182015b82811115611a81578251825591602001919060010190611a66565b5b509050611a8f9190611a93565b5090565b611ab591905b80821115611ab1576000816000905550600101611a99565b5090565b9056fe608060405234801561001057600080fd5b506040516106353803806106358339818101604052604081101561003357600080fd5b810190808051906020019092919080519060200190929190505050816000806101000a81548173ffffffffffffffffffffffffffffffffffffffff021916908373ffffffffffffffffffffffffffffffffffffffff16021790555080600260006101000a81548173ffffffffffffffffffffffffffffffffffffffff021916908373ffffffffffffffffffffffffffffffffffffffff1602179055505050610555806100e06000396000f3fe6080604052600436106100385760003560e01c806379ba509714610051578063d784d42614610068578063f2fde38b146100b957610047565b366100475761004561010a565b005b61004f61010a565b005b34801561005d57600080fd5b5061006661013f565b005b34801561007457600080fd5b506100b76004803603602081101561008b57600080fd5b81019080803573ffffffffffffffffffffffffffffffffffffffff16906020019092919050505061029e565b005b3480156100c557600080fd5b50610108600480360360208110156100dc57600080fd5b81019080803573ffffffffffffffffffffffffffffffffffffffff1690602001909291905050506103df565b005b6101126104f7565b61013d600260009054906101000a900473ffffffffffffffffffffffffffffffffffffffff166104f9565b565b600160009054906101000a900473ffffffffffffffffffffffffffffffffffffffff1673ffffffffffffffffffffffffffffffffffffffff163373ffffffffffffffffffffffffffffffffffffffff161461019957600080fd5b60008060009054906101000a900473ffffffffffffffffffffffffffffffffffffffff169050336000806101000a81548173ffffffffffffffffffffffffffffffffffffffff021916908373ffffffffffffffffffffffffffffffffffffffff1602179055506000600160006101000a81548173ffffffffffffffffffffffffffffffffffffffff021916908373ffffffffffffffffffffffffffffffffffffffff1602179055503373ffffffffffffffffffffffffffffffffffffffff168173ffffffffffffffffffffffffffffffffffffffff167f8be0079c531659141344cd1fd0a4f28419497f9722a3daafe3b4186f6b6457e060405160405180910390a350565b6000809054906101000a900473ffffffffffffffffffffffffffffffffffffffff1673ffffffffffffffffffffffffffffffffffffffff163373ffffffffffffffffffffffffffffffffffffffff16146102f757600080fd5b6000600260009054906101000a900473ffffffffffffffffffffffffffffffffffffffff16905081600260006101000a81548173ffffffffffffffffffffffffffffffffffffffff021916908373ffffffffffffffffffffffffffffffffffffffff160217905550600260009054906101000a900473ffffffffffffffffffffffffffffffffffffffff1673ffffffffffffffffffffffffffffffffffffffff168173ffffffffffffffffffffffffffffffffffffffff167faa3f731066a578e5f39b4215468d826cdd15373cbc0dfc9cb9bdc649718ef7da60405160405180910390a35050565b6000809054906101000a900473ffffffffffffffffffffffffffffffffffffffff1673ffffffffffffffffffffffffffffffffffffffff163373ffffffffffffffffffffffffffffffffffffffff161461043857600080fd5b80600160006101000a81548173ffffffffffffffffffffffffffffffffffffffff021916908373ffffffffffffffffffffffffffffffffffffffff1602179055508073ffffffffffffffffffffffffffffffffffffffff166000809054906101000a900473ffffffffffffffffffffffffffffffffffffffff1673ffffffffffffffffffffffffffffffffffffffff167fed8889f560326eb138920d842192f0eb3dd22b4f139c87a2c57538e05bae127860405160405180910390a350565b565b3660008037600080366000845af43d6000803e806000811461051a573d6000f35b3d6000fdfea26469706673582212200c74c6e9a55ac66515d15c95919f26f90e4217e8f31adbeb2b6b61a2443d930e64736f6c63430006000033a26469706673582212201489f8b4153cb5d0bd19c33c0a56c3147695bae441f367b7877126f4d87dca0064736f6c63430006000033",
  "linkReferences": {},
  "deployedLinkReferences": {}
}