{
  "_format": "hh-sol-artifact-1",
  "contractName": "LinearInterpolator",
  "sourceName": "contracts/pools/LinearInterpolator.sol",
  "abi": [
    {
      "inputs": [
        {
          "internalType": "contract Deployer",
          "name": "deployer",
          "type": "address"
        }
      ],
      "name": "initializeAndLock",
      "outputs": [],
      "stateMutability": "nonpayable",
      "type": "function"
    },
    {
      "inputs": [
        {
          "internalType": "int256",
          "name": "udlPrice",
          "type": "int256"
        },
        {
          "internalType": "uint32",
          "name": "t0",
          "type": "uint32"
        },
        {
          "internalType": "uint32",
          "name": "t1",
          "type": "uint32"
        },
        {
          "internalType": "uint120[]",
          "name": "x",
          "type": "uint120[]"
        },
        {
          "internalType": "uint120[]",
          "name": "y",
          "type": "uint120[]"
        },
        {
          "internalType": "uint256",
          "name": "f",
          "type": "uint256"
        }
      ],
      "name": "interpolate",
      "outputs": [
        {
          "internalType": "uint256",
          "name": "price",
          "type": "uint256"
        }
      ],
      "stateMutability": "view",
      "type": "function"
    }
  ],
  "bytecode": "0x608060405234801561001057600080fd5b5061108c806100206000396000f3fe608060405234801561001057600080fd5b50600436106100365760003560e01c80635c1bfb321461003b578063add386e21461007f575b600080fd5b61007d6004803603602081101561005157600080fd5b81019080803573ffffffffffffffffffffffffffffffffffffffff169060200190929190505050610195565b005b61017f600480360360c081101561009557600080fd5b8101908080359060200190929190803563ffffffff169060200190929190803563ffffffff169060200190929190803590602001906401000000008111156100dc57600080fd5b8201836020820111156100ee57600080fd5b8035906020019184602083028401116401000000008311171561011057600080fd5b90919293919293908035906020019064010000000081111561013157600080fd5b82018360208201111561014357600080fd5b8035906020019184602083028401116401000000008311171561016557600080fd5b90919293919293908035906020019092919050505061023f565b6040518082815260200191505060405180910390f35b600260149054906101000a900460ff1615610218576040517f08c379a00000000000000000000000000000000000000000000000000000000081526004018080602001828103825260158152602001807f696e697469616c697a6174696f6e206c6f636b6564000000000000000000000081525060200191505060405180910390fd5b6001600260146101000a81548160ff02191690831515021790555061023c816105c8565b50565b600080600061028f8b898980806020026020016040519081016040528093929190818152602001838360200280828437600081840152601f19601f820116905080830192505050505050506106d3565b915091506000600360009054906101000a900473ffffffffffffffffffffffffffffffffffffffff1673ffffffffffffffffffffffffffffffffffffffff1663bbe4fd506040518163ffffffff1660e01b815260040160206040518083038186803b1580156102fd57600080fd5b505afa158015610311573d6000803e3d6000fd5b505050506040513d602081101561032757600080fd5b81019080805190602001909291905050509050600061035b8c63ffffffff168c63ffffffff166107ac90919063ffffffff16565b90508b63ffffffff16821015801561037957508a63ffffffff168211155b6103eb576040517f08c379a000000000000000000000000000000000000000000000000000000000815260040180806020018281038252601a8152602001807f696e76616c69642070726963696e6720706172616d657465727300000000000081525060200191505060405180910390fd5b60006104068d63ffffffff16846107ac90919063ffffffff16565b9050600061049a8c8c80806020026020016040519081016040528093929190818152602001838360200280828437600081840152601f19601f820116905080830192505050505050508b8b80806020026020016040519081016040528093929190818152602001838360200280828437600081840152601f19601f82011690508083019250505050505050600089896107f6565b905060006105308d8d80806020026020016040519081016040528093929190818152602001838360200280828437600081840152601f19601f820116905080830192505050505050508c8c80806020026020016040519081016040528093929190818152602001838360200280828437600081840152601f19601f820116905080830192505050505050508f8f90508a8a6107f6565b90506105b3846105a56004546105978d610589610568610559898b6107ac90919063ffffffff16565b8b61095090919063ffffffff16565b61057b8c8b61095090919063ffffffff16565b6107ac90919063ffffffff16565b61095090919063ffffffff16565b6109d690919063ffffffff16565b6109d690919063ffffffff16565b97505050505050505098975050505050505050565b8073ffffffffffffffffffffffffffffffffffffffff166304433bbc6040518163ffffffff1660e01b815260040180806020018281038252600c8152602001807f54696d6550726f7669646572000000000000000000000000000000000000000081525060200191505060206040518083038186803b15801561064a57600080fd5b505afa15801561065e573d6000803e3d6000fd5b505050506040513d602081101561067457600080fd5b8101908080519060200190929190505050600360006101000a81548173ffffffffffffffffffffffffffffffffffffffff021916908373ffffffffffffffffffffffffffffffffffffffff160217905550633b9aca0060048190555050565b600080600091508390505b808383815181106106eb57fe5b60200260200101516effffffffffffffffffffffffffffff161080156107115750825182105b156107235781806001019250506106de565b6000821180156107335750825182105b6107a5576040517f08c379a000000000000000000000000000000000000000000000000000000000815260040180806020018281038252601a8152602001807f696e76616c69642070726963696e6720706172616d657465727300000000000081525060200191505060405180910390fd5b9250929050565b60006107ee83836040518060400160405280601e81526020017f536166654d6174683a207375627472616374696f6e206f766572666c6f770000815250610a20565b905092915050565b60008061080c8486610ae090919063ffffffff16565b9050600086828151811061081c57fe5b60200260200101516effffffffffffffffffffffffffffff169050600087600184038151811061084857fe5b60200260200101516effffffffffffffffffffffffffffff169050610942816109346108c88c60018b038151811061087c57fe5b60200260200101516effffffffffffffffffffffffffffff168d8b815181106108a157fe5b60200260200101516effffffffffffffffffffffffffffff16610b6890919063ffffffff16565b6109266109058e60018d03815181106108dd57fe5b60200260200101516effffffffffffffffffffffffffffff168b6107ac90919063ffffffff16565b6109188789610b6890919063ffffffff16565b610bf690919063ffffffff16565b610d2090919063ffffffff16565b610e5490919063ffffffff16565b935050505095945050505050565b60008083141561096357600090506109d0565b600082840290508284828161097457fe5b04146109cb576040517f08c379a0000000000000000000000000000000000000000000000000000000008152600401808060200182810382526021815260200180610feb6021913960400191505060405180910390fd5b809150505b92915050565b6000610a1883836040518060400160405280601a81526020017f536166654d6174683a206469766973696f6e206279207a65726f000000000000815250610ee2565b905092915050565b6000838311158290610acd576040517f08c379a00000000000000000000000000000000000000000000000000000000081526004018080602001828103825283818151815260200191508051906020019080838360005b83811015610a92578082015181840152602081019050610a77565b50505050905090810190601f168015610abf5780820380516001836020036101000a031916815260200191505b509250505060405180910390fd5b5060008385039050809150509392505050565b600080828401905083811015610b5e576040517f08c379a000000000000000000000000000000000000000000000000000000000815260040180806020018281038252601b8152602001807f536166654d6174683a206164646974696f6e206f766572666c6f77000000000081525060200191505060405180910390fd5b8091505092915050565b600080828403905060008312158015610b815750838113155b80610b975750600083128015610b9657508381135b5b610bec576040517f08c379a00000000000000000000000000000000000000000000000000000000081526004018080602001828103825260248152602001806110336024913960400191505060405180910390fd5b8091505092915050565b600080831415610c095760009050610d1a565b7fffffffffffffffffffffffffffffffffffffffffffffffffffffffffffffffff83148015610c5757507f800000000000000000000000000000000000000000000000000000000000000082145b15610cad576040517f08c379a000000000000000000000000000000000000000000000000000000000815260040180806020018281038252602781526020018061100c6027913960400191505060405180910390fd5b6000828402905082848281610cbe57fe5b0514610d15576040517f08c379a000000000000000000000000000000000000000000000000000000000815260040180806020018281038252602781526020018061100c6027913960400191505060405180910390fd5b809150505b92915050565b600080821415610d98576040517f08c379a00000000000000000000000000000000000000000000000000000000081526004018080602001828103825260208152602001807f5369676e6564536166654d6174683a206469766973696f6e206279207a65726f81525060200191505060405180910390fd5b7fffffffffffffffffffffffffffffffffffffffffffffffffffffffffffffffff82148015610de657507f800000000000000000000000000000000000000000000000000000000000000083145b15610e3c576040517f08c379a0000000000000000000000000000000000000000000000000000000008152600401808060200182810382526021815260200180610fca6021913960400191505060405180910390fd5b6000828481610e4757fe5b0590508091505092915050565b600080828401905060008312158015610e6d5750838112155b80610e835750600083128015610e8257508381125b5b610ed8576040517f08c379a0000000000000000000000000000000000000000000000000000000008152600401808060200182810382526021815260200180610fa96021913960400191505060405180910390fd5b8091505092915050565b60008083118290610f8e576040517f08c379a00000000000000000000000000000000000000000000000000000000081526004018080602001828103825283818151815260200191508051906020019080838360005b83811015610f53578082015181840152602081019050610f38565b50505050905090810190601f168015610f805780820380516001836020036101000a031916815260200191505b509250505060405180910390fd5b506000838581610f9a57fe5b04905080915050939250505056fe5369676e6564536166654d6174683a206164646974696f6e206f766572666c6f775369676e6564536166654d6174683a206469766973696f6e206f766572666c6f77536166654d6174683a206d756c7469706c69636174696f6e206f766572666c6f775369676e6564536166654d6174683a206d756c7469706c69636174696f6e206f766572666c6f775369676e6564536166654d6174683a207375627472616374696f6e206f766572666c6f77a264697066735822122079da11f98d707d0987ce53a7f3e4188b0cc2ebc6f7272af750320e3c8612539f64736f6c63430006000033",
  "linkReferences": {},
  "deployedLinkReferences": {}
}