{
  "_format": "hh-sol-artifact-1",
  "contractName": "ManagedContract",
  "sourceName": "contracts/deployment/ManagedContract.sol",
  "abi": [
    {
      "inputs": [
        {
          "internalType": "contract Deployer",
          "name": "deployer",
          "type": "address"
        }
      ],
      "name": "initializeAndLock",
      "outputs": [],
      "stateMutability": "nonpayable",
      "type": "function"
    }
  ],
  "bytecode": "0x608060405234801561001057600080fd5b50610157806100206000396000f3fe608060405234801561001057600080fd5b506004361061002b5760003560e01c80635c1bfb3214610030575b600080fd5b6100726004803603602081101561004657600080fd5b81019080803573ffffffffffffffffffffffffffffffffffffffff169060200190929190505050610074565b005b600260149054906101000a900460ff16156100f7576040517f08c379a00000000000000000000000000000000000000000000000000000000081526004018080602001828103825260158152602001807f696e697469616c697a6174696f6e206c6f636b6564000000000000000000000081525060200191505060405180910390fd5b6001600260146101000a81548160ff02191690831515021790555061011b8161011e565b50565b5056fea26469706673582212203070d79c0f11a9beba9f7c6d371b4b6e6ca98116bb10cfc10d818fbf6745ffc664736f6c63430006000033",
  "linkReferences": {},
  "deployedLinkReferences": {}
}