{
  "_format": "hh-sol-artifact-1",
  "contractName": "ProtocolSettings",
  "sourceName": "contracts/governance/ProtocolSettings.sol",
  "abi": [
    {
      "inputs": [
        {
          "internalType": "uint256",
          "name": "value",
          "type": "uint256"
        },
        {
          "internalType": "uint256",
          "name": "date",
          "type": "uint256"
        }
      ],
      "name": "applyCreditInterestRate",
      "outputs": [
        {
          "internalType": "uint256",
          "name": "",
          "type": "uint256"
        }
      ],
      "stateMutability": "view",
      "type": "function"
    },
    {
      "inputs": [
        {
          "internalType": "uint256",
          "name": "value",
          "type": "uint256"
        },
        {
          "internalType": "uint256",
          "name": "date",
          "type": "uint256"
        }
      ],
      "name": "applyDebtInterestRate",
      "outputs": [
        {
          "internalType": "uint256",
          "name": "",
          "type": "uint256"
        }
      ],
      "stateMutability": "view",
      "type": "function"
    },
    {
      "inputs": [],
      "name": "getAllowedTokens",
      "outputs": [
        {
          "internalType": "address[]",
          "name": "",
          "type": "address[]"
        }
      ],
      "stateMutability": "view",
      "type": "function"
    },
    {
      "inputs": [],
      "name": "getCreditInterestRate",
      "outputs": [
        {
          "internalType": "uint256",
          "name": "v",
          "type": "uint256"
        },
        {
          "internalType": "uint256",
          "name": "b",
          "type": "uint256"
        },
        {
          "internalType": "uint256",
          "name": "d",
          "type": "uint256"
        }
      ],
      "stateMutability": "view",
      "type": "function"
    },
    {
      "inputs": [
        {
          "internalType": "uint256",
          "name": "date",
          "type": "uint256"
        }
      ],
      "name": "getCreditInterestRate",
      "outputs": [
        {
          "internalType": "uint256",
          "name": "v",
          "type": "uint256"
        },
        {
          "internalType": "uint256",
          "name": "b",
          "type": "uint256"
        },
        {
          "internalType": "uint256",
          "name": "d",
          "type": "uint256"
        }
      ],
      "stateMutability": "view",
      "type": "function"
    },
    {
      "inputs": [],
      "name": "getDebtInterestRate",
      "outputs": [
        {
          "internalType": "uint256",
          "name": "v",
          "type": "uint256"
        },
        {
          "internalType": "uint256",
          "name": "b",
          "type": "uint256"
        },
        {
          "internalType": "uint256",
          "name": "d",
          "type": "uint256"
        }
      ],
      "stateMutability": "view",
      "type": "function"
    },
    {
      "inputs": [],
      "name": "getMinShareForProposal",
      "outputs": [
        {
          "internalType": "uint256",
          "name": "v",
          "type": "uint256"
        },
        {
          "internalType": "uint256",
          "name": "b",
          "type": "uint256"
        }
      ],
      "stateMutability": "view",
      "type": "function"
    },
    {
      "inputs": [],
      "name": "getOwner",
      "outputs": [
        {
          "internalType": "address",
          "name": "",
          "type": "address"
        }
      ],
      "stateMutability": "view",
      "type": "function"
    },
    {
      "inputs": [],
      "name": "getProcessingFee",
      "outputs": [
        {
          "internalType": "uint256",
          "name": "v",
          "type": "uint256"
        },
        {
          "internalType": "uint256",
          "name": "b",
          "type": "uint256"
        }
      ],
      "stateMutability": "view",
      "type": "function"
    },
    {
      "inputs": [
        {
          "internalType": "address",
          "name": "token",
          "type": "address"
        }
      ],
      "name": "getTokenRate",
      "outputs": [
        {
          "internalType": "uint256",
          "name": "v",
          "type": "uint256"
        },
        {
          "internalType": "uint256",
          "name": "b",
          "type": "uint256"
        }
      ],
      "stateMutability": "view",
      "type": "function"
    },
    {
      "inputs": [
        {
          "internalType": "address",
          "name": "addr",
          "type": "address"
        }
      ],
      "name": "getUdlFeed",
      "outputs": [
        {
          "internalType": "int256",
          "name": "",
          "type": "int256"
        }
      ],
      "stateMutability": "view",
      "type": "function"
    },
    {
      "inputs": [],
      "name": "getVolatilityPeriod",
      "outputs": [
        {
          "internalType": "uint256",
          "name": "",
          "type": "uint256"
        }
      ],
      "stateMutability": "view",
      "type": "function"
    },
    {
      "inputs": [
        {
          "internalType": "contract Deployer",
          "name": "deployer",
          "type": "address"
        }
      ],
      "name": "initializeAndLock",
      "outputs": [],
      "stateMutability": "nonpayable",
      "type": "function"
    },
    {
      "inputs": [
        {
          "internalType": "address",
          "name": "token",
          "type": "address"
        },
        {
          "internalType": "uint256",
          "name": "v",
          "type": "uint256"
        },
        {
          "internalType": "uint256",
          "name": "b",
          "type": "uint256"
        }
      ],
      "name": "setAllowedToken",
      "outputs": [],
      "stateMutability": "nonpayable",
      "type": "function"
    },
    {
      "inputs": [
        {
          "internalType": "uint256",
          "name": "i",
          "type": "uint256"
        },
        {
          "internalType": "uint256",
          "name": "b",
          "type": "uint256"
        }
      ],
      "name": "setCreditInterestRate",
      "outputs": [],
      "stateMutability": "nonpayable",
      "type": "function"
    },
    {
      "inputs": [
        {
          "internalType": "uint256",
          "name": "i",
          "type": "uint256"
        },
        {
          "internalType": "uint256",
          "name": "b",
          "type": "uint256"
        }
      ],
      "name": "setDebtInterestRate",
      "outputs": [],
      "stateMutability": "nonpayable",
      "type": "function"
    },
    {
      "inputs": [
        {
          "internalType": "uint256",
          "name": "s",
          "type": "uint256"
        },
        {
          "internalType": "uint256",
          "name": "b",
          "type": "uint256"
        }
      ],
      "name": "setMinShareForProposal",
      "outputs": [],
      "stateMutability": "nonpayable",
      "type": "function"
    },
    {
      "inputs": [
        {
          "internalType": "address",
          "name": "_owner",
          "type": "address"
        }
      ],
      "name": "setOwner",
      "outputs": [],
      "stateMutability": "nonpayable",
      "type": "function"
    },
    {
      "inputs": [
        {
          "internalType": "uint256",
          "name": "f",
          "type": "uint256"
        },
        {
          "internalType": "uint256",
          "name": "b",
          "type": "uint256"
        }
      ],
      "name": "setProcessingFee",
      "outputs": [],
      "stateMutability": "nonpayable",
      "type": "function"
    },
    {
      "inputs": [
        {
          "internalType": "address",
          "name": "token",
          "type": "address"
        },
        {
          "internalType": "uint256",
          "name": "v",
          "type": "uint256"
        },
        {
          "internalType": "uint256",
          "name": "b",
          "type": "uint256"
        }
      ],
      "name": "setTokenRate",
      "outputs": [],
      "stateMutability": "nonpayable",
      "type": "function"
    },
    {
      "inputs": [
        {
          "internalType": "address",
          "name": "addr",
          "type": "address"
        },
        {
          "internalType": "int256",
          "name": "v",
          "type": "int256"
        }
      ],
      "name": "setUdlFeed",
      "outputs": [],
      "stateMutability": "nonpayable",
      "type": "function"
    },
    {
      "inputs": [
        {
          "internalType": "uint256",
          "name": "_volatilityPeriod",
          "type": "uint256"
        }
      ],
      "name": "setVolatilityPeriod",
      "outputs": [],
      "stateMutability": "nonpayable",
      "type": "function"
    }
  ],
  "bytecode": "0x608060405234801561001057600080fd5b506121a0806100206000396000f3fe608060405234801561001057600080fd5b50600436106101425760003560e01c8063a479a3f0116100b8578063daafed401161007c578063daafed4014610570578063e1b56e2a14610595578063ee6e79d9146105ed578063f06b8dfe14610619578063f87c30f014610665578063fdbed14f146106b557610142565b8063a479a3f01461047e578063aa325158146104b6578063b8c3af7b146104e2578063d1001b6a14610500578063d91d23fc1461053857610142565b80636c39ada41161010a5780636c39ada4146102db5780636fd1ab2d1461030057806379ad16421461034c57806387ed36f8146103a4578063893d20e8146103fc578063a2be5ca61461044657610142565b8063024ece891461014757806313af4035146101a657806345c9363b146101ea57806354dea00a146102385780635c1bfb3214610297575b600080fd5b61014f6106e3565b6040518080602001828103825283818151815260200191508051906020019060200280838360005b83811015610192578082015181840152602081019050610177565b505050509050019250505060405180910390f35b6101e8600480360360208110156101bc57600080fd5b81019080803573ffffffffffffffffffffffffffffffffffffffff169060200190929190505050610771565b005b6102366004803603604081101561020057600080fd5b81019080803573ffffffffffffffffffffffffffffffffffffffff16906020019092919080359060200190929190505050610868565b005b61027a6004803603602081101561024e57600080fd5b81019080803573ffffffffffffffffffffffffffffffffffffffff1690602001909291905050506108b8565b604051808381526020018281526020019250505060405180910390f35b6102d9600480360360208110156102ad57600080fd5b81019080803573ffffffffffffffffffffffffffffffffffffffff16906020019092919050505061094a565b005b6102e36109f4565b604051808381526020018281526020019250505060405180910390f35b6103366004803603604081101561031657600080fd5b810190808035906020019092919080359060200190929190505050610a0b565b6040518082815260200191505060405180910390f35b6103a26004803603606081101561036257600080fd5b81019080803573ffffffffffffffffffffffffffffffffffffffff1690602001909291908035906020019092919080359060200190929190505050610a21565b005b6103e6600480360360208110156103ba57600080fd5b81019080803573ffffffffffffffffffffffffffffffffffffffff169060200190929190505050610b65565b6040518082815260200191505060405180910390f35b610404610bae565b604051808273ffffffffffffffffffffffffffffffffffffffff1673ffffffffffffffffffffffffffffffffffffffff16815260200191505060405180910390f35b61047c6004803603604081101561045c57600080fd5b810190808035906020019092919080359060200190929190505050610bd8565b005b6104b46004803603604081101561049457600080fd5b810190808035906020019092919080359060200190929190505050610d19565b005b6104be610e5a565b60405180848152602001838152602001828152602001935050505060405180910390f35b6104ea610ed5565b6040518082815260200191505060405180910390f35b6105366004803603604081101561051657600080fd5b810190808035906020019092919080359060200190929190505050610edf565b005b61056e6004803603604081101561054e57600080fd5b810190808035906020019092919080359060200190929190505050610f2b565b005b610578610f77565b604051808381526020018281526020019250505060405180910390f35b6105eb600480360360608110156105ab57600080fd5b81019080803573ffffffffffffffffffffffffffffffffffffffff1690602001909291908035906020019092919080359060200190929190505050610f8e565b005b6105f5611018565b60405180848152602001838152602001828152602001935050505060405180910390f35b61064f6004803603604081101561062f57600080fd5b810190808035906020019092919080359060200190929190505050611093565b6040518082815260200191505060405180910390f35b6106916004803603602081101561067b57600080fd5b81019080803590602001909291905050506110a9565b60405180848152602001838152602001828152602001935050505060405180910390f35b6106e1600480360360208110156106cb57600080fd5b81019080803590602001909291905050506110e0565b005b6060600980548060200260200160405190810160405280929190818152602001828054801561076757602002820191906000526020600020905b8160009054906101000a900473ffffffffffffffffffffffffffffffffffffffff1673ffffffffffffffffffffffffffffffffffffffff168152602001906001019080831161071d575b5050505050905090565b600860009054906101000a900473ffffffffffffffffffffffffffffffffffffffff1673ffffffffffffffffffffffffffffffffffffffff163373ffffffffffffffffffffffffffffffffffffffff16148061081b5750600073ffffffffffffffffffffffffffffffffffffffff16600860009054906101000a900473ffffffffffffffffffffffffffffffffffffffff1673ffffffffffffffffffffffffffffffffffffffff16145b61082457600080fd5b80600860006101000a81548173ffffffffffffffffffffffffffffffffffffffff021916908373ffffffffffffffffffffffffffffffffffffffff16021790555050565b6108706110f2565b80600660008473ffffffffffffffffffffffffffffffffffffffff1673ffffffffffffffffffffffffffffffffffffffff168152602001908152602001600020819055505050565b600080600760008473ffffffffffffffffffffffffffffffffffffffff1673ffffffffffffffffffffffffffffffffffffffff168152602001908152602001600020600001549150600760008473ffffffffffffffffffffffffffffffffffffffff1673ffffffffffffffffffffffffffffffffffffffff168152602001908152602001600020600101549050915091565b600260149054906101000a900460ff16156109cd576040517f08c379a00000000000000000000000000000000000000000000000000000000081526004018080602001828103825260158152602001807f696e697469616c697a6174696f6e206c6f636b6564000000000000000000000081525060200191505060405180910390fd5b6001600260146101000a81548160ff0219169083151502179055506109f18161138f565b50565b600080600a600001549150600a6001015490509091565b6000610a19600d84846118f2565b905092915050565b610a296110f2565b6000600760008573ffffffffffffffffffffffffffffffffffffffff1673ffffffffffffffffffffffffffffffffffffffff1681526020019081526020016000206000015414610a8057610a7e600984611a24565b505b6009839080600181540180825580915050600190039060005260206000200160009091909190916101000a81548173ffffffffffffffffffffffffffffffffffffffff021916908373ffffffffffffffffffffffffffffffffffffffff1602179055506040518060600160405280838152602001828152602001601354815250600760008573ffffffffffffffffffffffffffffffffffffffff1673ffffffffffffffffffffffffffffffffffffffff168152602001908152602001600020600082015181600001556020820151816001015560408201518160020155905050505050565b6000600660008373ffffffffffffffffffffffffffffffffffffffff1673ffffffffffffffffffffffffffffffffffffffff168152602001908152602001600020549050919050565b6000600860009054906101000a900473ffffffffffffffffffffffffffffffffffffffff16905090565b610be06110f2565b600360009054906101000a900473ffffffffffffffffffffffffffffffffffffffff1673ffffffffffffffffffffffffffffffffffffffff1663bbe4fd506040518163ffffffff1660e01b815260040160206040518083038186803b158015610c4857600080fd5b505afa158015610c5c573d6000803e3d6000fd5b505050506040513d6020811015610c7257600080fd5b8101908080519060200190929190505050600d6001600d805490500381548110610c9857fe5b906000526020600020906003020160020181905550600d6040518060600160405280848152602001838152602001601354815250908060018154018082558091505060019003906000526020600020906003020160009091909190915060008201518160000155602082015181600101556040820151816002015550505050565b610d216110f2565b600360009054906101000a900473ffffffffffffffffffffffffffffffffffffffff1673ffffffffffffffffffffffffffffffffffffffff1663bbe4fd506040518163ffffffff1660e01b815260040160206040518083038186803b158015610d8957600080fd5b505afa158015610d9d573d6000803e3d6000fd5b505050506040513d6020811015610db357600080fd5b8101908080519060200190929190505050600e6001600e805490500381548110610dd957fe5b906000526020600020906003020160020181905550600e6040518060600160405280848152602001838152602001601354815250908060018154018082558091505060019003906000526020600020906003020160009091909190915060008201518160000155602082015181600101556040820151816002015550505050565b600080600080600e805490509050610e70612128565b600e6001830381548110610e8057fe5b9060005260206000209060030201604051806060016040529081600082015481526020016001820154815260200160028201548152505090508060000151945080602001519350806040015192505050909192565b6000601254905090565b610ee76110f2565b6040518060600160405280838152602001828152602001601354815250600f6000820151816000015560208201518160010155604082015181600201559050505050565b610f336110f2565b6040518060600160405280838152602001828152602001601354815250600a6000820151816000015560208201518160010155604082015181600201559050505050565b600080600f600001549150600f6001015490509091565b610f966110f2565b6040518060600160405280838152602001828152602001601354815250600760008573ffffffffffffffffffffffffffffffffffffffff1673ffffffffffffffffffffffffffffffffffffffff168152602001908152602001600020600082015181600001556020820151816001015560408201518160020155905050505050565b600080600080600d80549050905061102e612128565b600d600183038154811061103e57fe5b9060005260206000209060030201604051806060016040529081600082015481526020016001820154815260200160028201548152505090508060000151945080602001519350806040015192505050909192565b60006110a1600e84846118f2565b905092915050565b60008060006110b6612128565b6110c1600e86611b96565b9050806000015193508060200151925080604001519150509193909250565b6110e86110f2565b8060128190555050565b600860009054906101000a900473ffffffffffffffffffffffffffffffffffffffff1673ffffffffffffffffffffffffffffffffffffffff163373ffffffffffffffffffffffffffffffffffffffff161461138d576000339050600560009054906101000a900473ffffffffffffffffffffffffffffffffffffffff1673ffffffffffffffffffffffffffffffffffffffff1663736820ce336040518263ffffffff1660e01b8152600401808273ffffffffffffffffffffffffffffffffffffffff1673ffffffffffffffffffffffffffffffffffffffff16815260200191505060206040518083038186803b1580156111eb57600080fd5b505afa1580156111ff573d6000803e3d6000fd5b505050506040513d602081101561121557600080fd5b8101908080519060200190929190505050611298576040517f08c379a00000000000000000000000000000000000000000000000000000000081526004018080602001828103825260178152602001807f70726f706f73616c206e6f74207265676973746572656400000000000000000081525060200191505060405180910390fd5b8073ffffffffffffffffffffffffffffffffffffffff1663bb8e8f466040518163ffffffff1660e01b815260040160206040518083038186803b1580156112de57600080fd5b505afa1580156112f2573d6000803e3d6000fd5b505050506040513d602081101561130857600080fd5b810190808051906020019092919050505061138b576040517f08c379a00000000000000000000000000000000000000000000000000000000081526004018080602001828103825260158152602001807f657865637574696f6e206e6f7420616c6c6f776564000000000000000000000081525060200191505060405180910390fd5b505b565b8073ffffffffffffffffffffffffffffffffffffffff1663893d20e86040518163ffffffff1660e01b815260040160206040518083038186803b1580156113d557600080fd5b505afa1580156113e9573d6000803e3d6000fd5b505050506040513d60208110156113ff57600080fd5b8101908080519060200190929190505050600860006101000a81548173ffffffffffffffffffffffffffffffffffffffff021916908373ffffffffffffffffffffffffffffffffffffffff1602179055508073ffffffffffffffffffffffffffffffffffffffff1663e3cecf9c6040518163ffffffff1660e01b815260040180806020018281038252600c8152602001807f54696d6550726f7669646572000000000000000000000000000000000000000081525060200191505060206040518083038186803b1580156114d257600080fd5b505afa1580156114e6573d6000803e3d6000fd5b505050506040513d60208110156114fc57600080fd5b8101908080519060200190929190505050600360006101000a81548173ffffffffffffffffffffffffffffffffffffffff021916908373ffffffffffffffffffffffffffffffffffffffff1602179055508073ffffffffffffffffffffffffffffffffffffffff1663e3cecf9c6040518163ffffffff1660e01b815260040180806020018281038252600e8152602001807f43726564697450726f766964657200000000000000000000000000000000000081525060200191505060206040518083038186803b1580156115cf57600080fd5b505afa1580156115e3573d6000803e3d6000fd5b505050506040513d60208110156115f957600080fd5b8101908080519060200190929190505050600460006101000a81548173ffffffffffffffffffffffffffffffffffffffff021916908373ffffffffffffffffffffffffffffffffffffffff1602179055508073ffffffffffffffffffffffffffffffffffffffff1663e3cecf9c6040518163ffffffff1660e01b81526004018080602001828103825260088152602001807f476f76546f6b656e00000000000000000000000000000000000000000000000081525060200191505060206040518083038186803b1580156116cc57600080fd5b505afa1580156116e0573d6000803e3d6000fd5b505050506040513d60208110156116f657600080fd5b8101908080519060200190929190505050600560006101000a81548173ffffffffffffffffffffffffffffffffffffffff021916908373ffffffffffffffffffffffffffffffffffffffff1602179055507fffffffffffffffffffffffffffffffffffffffffffffffffffffffffffffffff6013819055506040518060600160405280606481526020016127108152602001601354815250600a600082015181600001556020820151816001015560408201518160020155905050600d60405180606001604052806623872dbf0b15ef8152602001662386f26fc10000815260200160135481525090806001815401808255809150506001900390600052602060002090600302016000909190919091506000820151816000015560208201518160010155604082015181600201555050600e6040518060600160405280662386ff678909898152602001662386f26fc10000815260200160135481525090806001815401808255809150506001900390600052602060002090600302016000909190919091506000820151816000015560208201518160010155604082015181600201555050604051806060016040528060008152602001662386f26fc100008152602001601354815250600f6000820151816000015560208201518160010155604082015181600201559050506276a70060128190555050565b60006118fc612128565b5b6119078584611b96565b905060006119e1610e106119d3866119c58660400151600360009054906101000a900473ffffffffffffffffffffffffffffffffffffffff1673ffffffffffffffffffffffffffffffffffffffff1663bbe4fd506040518163ffffffff1660e01b815260040160206040518083038186803b15801561198557600080fd5b505afa158015611999573d6000803e3d6000fd5b505050506040513d60208110156119af57600080fd5b8101908080519060200190929190505050611c81565b611c9a90919063ffffffff16565b611ce490919063ffffffff16565b90506000811115611a0a57611a00826000015183602001518388611d2e565b9450816040015193505b50601354816040015114156118fd57839150509392505050565b600080600090505b8380549050811015611b8a578273ffffffffffffffffffffffffffffffffffffffff16848281548110611a5b57fe5b9060005260206000200160009054906101000a900473ffffffffffffffffffffffffffffffffffffffff1673ffffffffffffffffffffffffffffffffffffffff161415611b7d5783600185805490500381548110611ab557fe5b9060005260206000200160009054906101000a900473ffffffffffffffffffffffffffffffffffffffff16848281548110611aec57fe5b9060005260206000200160006101000a81548173ffffffffffffffffffffffffffffffffffffffff021916908373ffffffffffffffffffffffffffffffffffffffff16021790555083805480611b3e57fe5b6001900381819060005260206000200160006101000a81549073ffffffffffffffffffffffffffffffffffffffff021916905590556001915050611b90565b8080600101915050611a2c565b50600090505b92915050565b611b9e612128565b600083805490509050836001820381548110611bb657fe5b90600052602060002090600302016040518060600160405290816000820154815260200160018201548152602001600282015481525050915060008090505b81811015611c7957848181548110611c0957fe5b906000526020600020906003020160020154841015611c6c57848181548110611c2e57fe5b906000526020600020906003020160405180606001604052908160008201548152602001600182015481526020016002820154815250509250611c79565b8080600101915050611bf5565b505092915050565b6000818310611c905781611c92565b825b905092915050565b6000611cdc83836040518060400160405280601e81526020017f536166654d6174683a207375627472616374696f6e206f766572666c6f770000815250611e11565b905092915050565b6000611d2683836040518060400160405280601a81526020017f536166654d6174683a206469766973696f6e206279207a65726f000000000000815250611ed1565b905092915050565b600080831415611d415760019050611e09565b6001831415611d7657611d6f84611d618785611f9790919063ffffffff16565b611ce490919063ffffffff16565b9050611e09565b6000611d978686611d91600288611ce490919063ffffffff16565b86611d2e565b9050611dbe83611db08384611f9790919063ffffffff16565b611ce490919063ffffffff16565b90506001611dd660028661201d90919063ffffffff16565b1415611e0457611e0185611df38884611f9790919063ffffffff16565b611ce490919063ffffffff16565b90505b809150505b949350505050565b6000838311158290611ebe576040517f08c379a00000000000000000000000000000000000000000000000000000000081526004018080602001828103825283818151815260200191508051906020019080838360005b83811015611e83578082015181840152602081019050611e68565b50505050905090810190601f168015611eb05780820380516001836020036101000a031916815260200191505b509250505060405180910390fd5b5060008385039050809150509392505050565b60008083118290611f7d576040517f08c379a00000000000000000000000000000000000000000000000000000000081526004018080602001828103825283818151815260200191508051906020019080838360005b83811015611f42578082015181840152602081019050611f27565b50505050905090810190601f168015611f6f5780820380516001836020036101000a031916815260200191505b509250505060405180910390fd5b506000838581611f8957fe5b049050809150509392505050565b600080831415611faa5760009050612017565b6000828402905082848281611fbb57fe5b0414612012576040517f08c379a000000000000000000000000000000000000000000000000000000000815260040180806020018281038252602181526020018061214a6021913960400191505060405180910390fd5b809150505b92915050565b600061205f83836040518060400160405280601881526020017f536166654d6174683a206d6f64756c6f206279207a65726f0000000000000000815250612067565b905092915050565b6000808314158290612114576040517f08c379a00000000000000000000000000000000000000000000000000000000081526004018080602001828103825283818151815260200191508051906020019080838360005b838110156120d95780820151818401526020810190506120be565b50505050905090810190601f1680156121065780820380516001836020036101000a031916815260200191505b509250505060405180910390fd5b5082848161211e57fe5b0690509392505050565b6040518060600160405280600081526020016000815260200160008152509056fe536166654d6174683a206d756c7469706c69636174696f6e206f766572666c6f77a26469706673582212201eccb2121d2d974b2b1e7236806f4dd3dc9ce522354d262a4ff5311ea663e53164736f6c63430006000033",
  "linkReferences": {},
  "deployedLinkReferences": {}
}