{
  "_format": "hh-sol-artifact-1",
  "contractName": "YieldTracker",
  "sourceName": "contracts/finance/YieldTracker.sol",
  "abi": [
    {
      "inputs": [
        {
          "internalType": "contract Deployer",
          "name": "deployer",
          "type": "address"
        }
      ],
      "name": "initializeAndLock",
      "outputs": [],
      "stateMutability": "nonpayable",
      "type": "function"
    },
    {
      "inputs": [
        {
          "internalType": "uint32",
          "name": "date",
          "type": "uint32"
        },
        {
          "internalType": "uint256",
          "name": "balance",
          "type": "uint256"
        },
        {
          "internalType": "uint256",
          "name": "value",
          "type": "uint256"
        }
      ],
      "name": "push",
      "outputs": [],
      "stateMutability": "nonpayable",
      "type": "function"
    },
    {
      "inputs": [
        {
          "internalType": "address",
          "name": "target",
          "type": "address"
        },
        {
          "internalType": "uint256",
          "name": "dt",
          "type": "uint256"
        }
      ],
      "name": "yield",
      "outputs": [
        {
          "internalType": "uint256",
          "name": "y",
          "type": "uint256"
        }
      ],
      "stateMutability": "view",
      "type": "function"
    }
  ],
  "bytecode": "0x608060405234801561001057600080fd5b50611340806100206000396000f3fe608060405234801561001057600080fd5b50600436106100415760003560e01c80631dc4ba9f146100465780635c1bfb32146100a85780636650e9ea146100ec575b600080fd5b6100926004803603604081101561005c57600080fd5b81019080803573ffffffffffffffffffffffffffffffffffffffff16906020019092919080359060200190929190505050610134565b6040518082815260200191505060405180910390f35b6100ea600480360360208110156100be57600080fd5b81019080803573ffffffffffffffffffffffffffffffffffffffff16906020019092919050505061037f565b005b6101326004803603606081101561010257600080fd5b81019080803563ffffffff1690602001909291908035906020019092919080359060200190929190505050610429565b005b600060065490506060600560008573ffffffffffffffffffffffffffffffffffffffff1673ffffffffffffffffffffffffffffffffffffffff168152602001908152602001600020805480602002602001604051908101604052809291908181526020016000905b8282101561020857838290600052602060002090600302016040518060600160405290816000820160009054906101000a900463ffffffff1663ffffffff1663ffffffff168152602001600182015481526020016002820154815250508152602001906001019061019c565b505050509050600081511115610378576000600360009054906101000a900473ffffffffffffffffffffffffffffffffffffffff1673ffffffffffffffffffffffffffffffffffffffff1663bbe4fd506040518163ffffffff1660e01b815260040160206040518083038186803b15801561028257600080fd5b505afa158015610296573d6000803e3d6000fd5b505050506040513d60208110156102ac57600080fd5b8101908080519060200190929190505050905060006102d485836104f490919063ffffffff16565b90506000809050600090505b835181101561032057818482815181106102f657fe5b60200260200101516000015163ffffffff16111561031357610320565b80806001019150506102e0565b5b83518111610374576000811115610367576103646006546103566103478a88868861053e565b8861090890919063ffffffff16565b61098e90919063ffffffff16565b94505b8080600101915050610321565b5050505b5092915050565b600260149054906101000a900460ff1615610402576040517f08c379a00000000000000000000000000000000000000000000000000000000081526004018080602001828103825260158152602001807f696e697469616c697a6174696f6e206c6f636b6564000000000000000000000081525060200191505060405180910390fd5b6001600260146101000a81548160ff021916908315150217905550610426816109d8565b50565b600560003373ffffffffffffffffffffffffffffffffffffffff1673ffffffffffffffffffffffffffffffffffffffff16815260200190815260200160002060405180606001604052808563ffffffff16815260200184815260200183815250908060018154018082558091505060019003906000526020600020906003020160009091909190915060008201518160000160006101000a81548163ffffffff021916908363ffffffff16021790555060208201518160010155604082015181600201555050505050565b600061053683836040518060400160405280601e81526020017f536166654d6174683a207375627472616374696f6e206f766572666c6f770000815250610be0565b905092915050565b60008084600185038151811061055057fe5b60200260200101516000015163ffffffff16905060008551851061061657600360009054906101000a900473ffffffffffffffffffffffffffffffffffffffff1673ffffffffffffffffffffffffffffffffffffffff1663bbe4fd506040518163ffffffff1660e01b815260040160206040518083038186803b1580156105d657600080fd5b505afa1580156105ea573d6000803e3d6000fd5b505050506040513d602081101561060057600080fd5b8101908080519060200190929190505050610635565b85858151811061062257fe5b60200260200101516000015163ffffffff165b9050600061068087600188038151811061064b57fe5b60200260200101516020015188600189038151811061066657fe5b602002602001015160400151610ca090919063ffffffff16565b905060008751871061085657610851600460009054906101000a900473ffffffffffffffffffffffffffffffffffffffff1673ffffffffffffffffffffffffffffffffffffffff166370a082318b6040518263ffffffff1660e01b8152600401808273ffffffffffffffffffffffffffffffffffffffff1673ffffffffffffffffffffffffffffffffffffffff16815260200191505060206040518083038186803b15801561072e57600080fd5b505afa158015610742573d6000803e3d6000fd5b505050506040513d602081101561075857600080fd5b8101908080519060200190929190505050600460009054906101000a900473ffffffffffffffffffffffffffffffffffffffff1673ffffffffffffffffffffffffffffffffffffffff166302c230748c6040518263ffffffff1660e01b8152600401808273ffffffffffffffffffffffffffffffffffffffff1673ffffffffffffffffffffffffffffffffffffffff16815260200191505060206040518083038186803b15801561080857600080fd5b505afa15801561081c573d6000803e3d6000fd5b505050506040513d602081101561083257600080fd5b8101908080519060200190929190505050610d2890919063ffffffff16565b61086f565b87878151811061086257fe5b6020026020010151602001515b90506108988261088a60065484610db690919063ffffffff16565b610ee090919063ffffffff16565b9450838611156108fc576108f9856108f16108bc87876104f490919063ffffffff16565b6108e36006546108d58c8a6104f490919063ffffffff16565b61090890919063ffffffff16565b61098e90919063ffffffff16565b600654611014565b94505b50505050949350505050565b60008083141561091b5760009050610988565b600082840290508284828161092c57fe5b0414610983576040517f08c379a00000000000000000000000000000000000000000000000000000000081526004018080602001828103825260218152602001806112c36021913960400191505060405180910390fd5b809150505b92915050565b60006109d083836040518060400160405280601a81526020017f536166654d6174683a206469766973696f6e206279207a65726f00000000000081525061113a565b905092915050565b8073ffffffffffffffffffffffffffffffffffffffff166304433bbc6040518163ffffffff1660e01b815260040180806020018281038252600c8152602001807f54696d6550726f7669646572000000000000000000000000000000000000000081525060200191505060206040518083038186803b158015610a5a57600080fd5b505afa158015610a6e573d6000803e3d6000fd5b505050506040513d6020811015610a8457600080fd5b8101908080519060200190929190505050600360006101000a81548173ffffffffffffffffffffffffffffffffffffffff021916908373ffffffffffffffffffffffffffffffffffffffff1602179055508073ffffffffffffffffffffffffffffffffffffffff166304433bbc6040518163ffffffff1660e01b815260040180806020018281038252600f8152602001807f4f7074696f6e7345786368616e6765000000000000000000000000000000000081525060200191505060206040518083038186803b158015610b5757600080fd5b505afa158015610b6b573d6000803e3d6000fd5b505050506040513d6020811015610b8157600080fd5b8101908080519060200190929190505050600460006101000a81548173ffffffffffffffffffffffffffffffffffffffff021916908373ffffffffffffffffffffffffffffffffffffffff160217905550633b9aca0060068190555050565b6000838311158290610c8d576040517f08c379a00000000000000000000000000000000000000000000000000000000081526004018080602001828103825283818151815260200191508051906020019080838360005b83811015610c52578082015181840152602081019050610c37565b50505050905090810190601f168015610c7f5780820380516001836020036101000a031916815260200191505b509250505060405180910390fd5b5060008385039050809150509392505050565b600080828401905083811015610d1e576040517f08c379a000000000000000000000000000000000000000000000000000000000815260040180806020018281038252601b8152602001807f536166654d6174683a206164646974696f6e206f766572666c6f77000000000081525060200191505060405180910390fd5b8091505092915050565b600080828401905060008312158015610d415750838112155b80610d575750600083128015610d5657508381125b5b610dac576040517f08c379a00000000000000000000000000000000000000000000000000000000081526004018080602001828103825260218152602001806112816021913960400191505060405180910390fd5b8091505092915050565b600080831415610dc95760009050610eda565b7fffffffffffffffffffffffffffffffffffffffffffffffffffffffffffffffff83148015610e1757507f800000000000000000000000000000000000000000000000000000000000000082145b15610e6d576040517f08c379a00000000000000000000000000000000000000000000000000000000081526004018080602001828103825260278152602001806112e46027913960400191505060405180910390fd5b6000828402905082848281610e7e57fe5b0514610ed5576040517f08c379a00000000000000000000000000000000000000000000000000000000081526004018080602001828103825260278152602001806112e46027913960400191505060405180910390fd5b809150505b92915050565b600080821415610f58576040517f08c379a00000000000000000000000000000000000000000000000000000000081526004018080602001828103825260208152602001807f5369676e6564536166654d6174683a206469766973696f6e206279207a65726f81525060200191505060405180910390fd5b7fffffffffffffffffffffffffffffffffffffffffffffffffffffffffffffffff82148015610fa657507f800000000000000000000000000000000000000000000000000000000000000083145b15610ffc576040517f08c379a00000000000000000000000000000000000000000000000000000000081526004018080602001828103825260218152602001806112a26021913960400191505060405180910390fd5b600082848161100757fe5b0590508091505092915050565b60008083141561102657819050611133565b818311156110765761106f826110616110528761104c87896104f490919063ffffffff16565b87611014565b8761090890919063ffffffff16565b61098e90919063ffffffff16565b9050611133565b819050600082905060008090506000869050600061109386611200565b90505b600184111561112e576110b360028561098e90919063ffffffff16565b93506110d0816110c284611200565b61090890919063ffffffff16565b9150866110e68585610ca090919063ffffffff16565b1015611129576110ff8484610ca090919063ffffffff16565b925061112686611118848861090890919063ffffffff16565b61098e90919063ffffffff16565b94505b611096565b505050505b9392505050565b600080831182906111e6576040517f08c379a00000000000000000000000000000000000000000000000000000000081526004018080602001828103825283818151815260200191508051906020019080838360005b838110156111ab578082015181840152602081019050611190565b50505050905090810190601f1680156111d85780820380516001836020036101000a031916815260200191505b509250505060405180910390fd5b5060008385816111f257fe5b049050809150509392505050565b60008061122a600261121c600186610ca090919063ffffffff16565b61098e90919063ffffffff16565b90508291505b8181101561127a57809150611273600261126583611257858861098e90919063ffffffff16565b610ca090919063ffffffff16565b61098e90919063ffffffff16565b9050611230565b5091905056fe5369676e6564536166654d6174683a206164646974696f6e206f766572666c6f775369676e6564536166654d6174683a206469766973696f6e206f766572666c6f77536166654d6174683a206d756c7469706c69636174696f6e206f766572666c6f775369676e6564536166654d6174683a206d756c7469706c69636174696f6e206f766572666c6f77a2646970667358221220d950c5279898837a6d630d86028e93fe3c1a0440bdb4a8be82167e268d8730fc64736f6c63430006000033",
  "linkReferences": {},
  "deployedLinkReferences": {}
}