{
  "_format": "hh-sol-artifact-1",
  "contractName": "ChainlinkFeed",
  "sourceName": "contracts/feeds/ChainlinkFeed.sol",
  "abi": [
    {
      "inputs": [
        {
          "internalType": "string",
          "name": "_sb",
          "type": "string"
        },
        {
          "internalType": "address",
          "name": "_aggregator",
          "type": "address"
        },
        {
          "internalType": "address",
          "name": "_time",
          "type": "address"
        },
        {
          "internalType": "uint256",
          "name": "_offset",
          "type": "uint256"
        },
        {
          "internalType": "uint256[]",
          "name": "_timestamps",
          "type": "uint256[]"
        },
        {
          "internalType": "int256[]",
          "name": "_prices",
          "type": "int256[]"
        }
      ],
      "stateMutability": "nonpayable",
      "type": "constructor"
    },
    {
      "inputs": [
        {
          "internalType": "uint256",
          "name": "vol",
          "type": "uint256"
        }
      ],
      "name": "calcLowerVolatility",
      "outputs": [
        {
          "internalType": "uint256",
          "name": "lowerVol",
          "type": "uint256"
        }
      ],
      "stateMutability": "view",
      "type": "function"
    },
    {
      "inputs": [
        {
          "internalType": "uint256",
          "name": "vol",
          "type": "uint256"
        }
      ],
      "name": "calcUpperVolatility",
      "outputs": [
        {
          "internalType": "uint256",
          "name": "upperVol",
          "type": "uint256"
        }
      ],
      "stateMutability": "view",
      "type": "function"
    },
    {
      "inputs": [
        {
          "internalType": "uint256",
          "name": "timespan",
          "type": "uint256"
        }
      ],
      "name": "getDailyVolatility",
      "outputs": [
        {
          "internalType": "uint256",
          "name": "vol",
          "type": "uint256"
        }
      ],
      "stateMutability": "view",
      "type": "function"
    },
    {
      "inputs": [
        {
          "internalType": "uint256",
          "name": "timespan",
          "type": "uint256"
        }
      ],
      "name": "getDailyVolatilityCached",
      "outputs": [
        {
          "internalType": "uint256",
          "name": "vol",
          "type": "uint256"
        },
        {
          "internalType": "bool",
          "name": "cached",
          "type": "bool"
        }
      ],
      "stateMutability": "view",
      "type": "function"
    },
    {
      "inputs": [],
      "name": "getLatestPrice",
      "outputs": [
        {
          "internalType": "uint256",
          "name": "timestamp",
          "type": "uint256"
        },
        {
          "internalType": "int256",
          "name": "price",
          "type": "int256"
        }
      ],
      "stateMutability": "view",
      "type": "function"
    },
    {
      "inputs": [
        {
          "internalType": "uint256",
          "name": "position",
          "type": "uint256"
        }
      ],
      "name": "getPrice",
      "outputs": [
        {
          "internalType": "uint256",
          "name": "timestamp",
          "type": "uint256"
        },
        {
          "internalType": "int256",
          "name": "price",
          "type": "int256"
        }
      ],
      "stateMutability": "view",
      "type": "function"
    },
    {
      "inputs": [
        {
          "internalType": "uint256",
          "name": "position",
          "type": "uint256"
        }
      ],
      "name": "getPriceCached",
      "outputs": [
        {
          "internalType": "uint256",
          "name": "timestamp",
          "type": "uint256"
        },
        {
          "internalType": "int256",
          "name": "price",
          "type": "int256"
        },
        {
          "internalType": "bool",
          "name": "cached",
          "type": "bool"
        }
      ],
      "stateMutability": "view",
      "type": "function"
    },
    {
      "inputs": [
        {
          "internalType": "uint256[]",
          "name": "_timestamps",
          "type": "uint256[]"
        },
        {
          "internalType": "int256[]",
          "name": "_prices",
          "type": "int256[]"
        }
      ],
      "name": "initialize",
      "outputs": [],
      "stateMutability": "nonpayable",
      "type": "function"
    },
    {
      "inputs": [
        {
          "internalType": "uint256",
          "name": "roundId",
          "type": "uint256"
        }
      ],
      "name": "prefetchDailyPrice",
      "outputs": [],
      "stateMutability": "nonpayable",
      "type": "function"
    },
    {
      "inputs": [
        {
          "internalType": "uint256",
          "name": "timespan",
          "type": "uint256"
        }
      ],
      "name": "prefetchDailyVolatility",
      "outputs": [],
      "stateMutability": "nonpayable",
      "type": "function"
    },
    {
      "inputs": [],
      "name": "prefetchSample",
      "outputs": [],
      "stateMutability": "nonpayable",
      "type": "function"
    },
    {
      "inputs": [],
      "name": "symbol",
      "outputs": [
        {
          "internalType": "string",
          "name": "",
          "type": "string"
        }
      ],
      "stateMutability": "view",
      "type": "function"
    }
  ],
  "bytecode": "0x60806040523480156200001157600080fd5b50604051620037cd380380620037cd833981810160405260c08110156200003757600080fd5b81019080805160405193929190846401000000008211156200005857600080fd5b838201915060208201858111156200006f57600080fd5b82518660018202830111640100000000821117156200008d57600080fd5b8083526020830192505050908051906020019080838360005b83811015620000c3578082015181840152602081019050620000a6565b50505050905090810190601f168015620000f15780820380516001836020036101000a031916815260200191505b50604052602001805190602001909291908051906020019092919080519060200190929190805160405193929190846401000000008211156200013357600080fd5b838201915060208201858111156200014a57600080fd5b82518660208202830111640100000000821117156200016857600080fd5b8083526020830192505050908051906020019060200280838360005b83811015620001a157808201518184015260208101905062000184565b5050505090500160405260200180516040519392919084640100000000821115620001cb57600080fd5b83820191506020820185811115620001e257600080fd5b82518660208202830111640100000000821117156200020057600080fd5b8083526020830192505050908051906020019060200280838360005b83811015620002395780820151818401526020810190506200021c565b5050505090500160405250505085600490805190602001906200025e92919062000ca9565b50846000806101000a81548173ffffffffffffffffffffffffffffffffffffffff021916908373ffffffffffffffffffffffffffffffffffffffff16021790555083600160006101000a81548173ffffffffffffffffffffffffffffffffffffffff021916908373ffffffffffffffffffffffffffffffffffffffff16021790555082600681905550620002f982826200030560201b60201c565b50505050505062000d7b565b60006005805490501462000381576040517f08c379a00000000000000000000000000000000000000000000000000000000081526004018080602001828103825260138152602001807f616c726561647920696e697469616c697a65640000000000000000000000000081525060200191505060405180910390fd5b62000391620003a760201b60201c565b620003a382826200055360201b60201c565b5050565b6000601290506000620004706000809054906101000a900473ffffffffffffffffffffffffffffffffffffffff1673ffffffffffffffffffffffffffffffffffffffff1663313ce5676040518163ffffffff1660e01b815260040160206040518083038186803b1580156200041b57600080fd5b505afa15801562000430573d6000803e3d6000fd5b505050506040513d60208110156200044757600080fd5b810190808051906020019092919050505060ff16836200073460201b6200258d1790919060201c565b9050807fffffffffffffffffffffffffffffffffffffffffffffffffffffffffffffffee13158015620004a4575060128113155b62000517576040517f08c379a00000000000000000000000000000000000000000000000000000000081526004018080602001828103825260108152602001807f696e76616c696420646563696d616c730000000000000000000000000000000081525060200191505060405180910390fd5b6000811315620005395780600a0a60078190555060016008819055506200054f565b600160078190555080600003600a0a6008819055505b5050565b60008090505b82518110156200072f5760008382815181106200057257fe5b6020026020010151905060008383815181106200058b57fe5b602002602001015190506200059f62000d30565b6040518060400160405280620005c085620007c760201b62001b2e1760201c565b63ffffffff168152602001620005dc846200083060201b60201c565b600f0b815250905060006200060362015180856200088560201b620015e21790919060201c565b14156200068b57806002600085815260200190815260200160002060008201518160000160006101000a81548163ffffffff021916908363ffffffff16021790555060208201518160000160046101000a8154816fffffffffffffffffffffffffffffffff0219169083600f0b6fffffffffffffffffffffffffffffffff1602179055509050505b6005819080600181540180825580915050600190039060005260206000200160009091909190915060008201518160000160006101000a81548163ffffffff021916908363ffffffff16021790555060208201518160000160046101000a8154816fffffffffffffffffffffffffffffffff0219169083600f0b6fffffffffffffffffffffffffffffffff1602179055505050505050808060010191505062000559565b505050565b6000808284039050600083121580156200074e5750838113155b806200076657506000831280156200076557508381135b5b620007bd576040517f08c379a0000000000000000000000000000000000000000000000000000000008152600401808060200182810382526024815260200180620037a96024913960400191505060405180910390fd5b8091505092915050565b6000640100000000821062000828576040517f08c379a0000000000000000000000000000000000000000000000000000000008152600401808060200182810382526026815260200180620037836026913960400191505060405180910390fd5b819050919050565b60006200087e6200086d6008546200085960075486620008d760201b62001d651790919060201c565b62000a0960201b62001e8f1790919060201c565b62000b4260201b62001b951760201c565b9050919050565b6000620008cf83836040518060400160405280601881526020017f536166654d6174683a206d6f64756c6f206279207a65726f000000000000000081525062000be360201b60201c565b905092915050565b600080831415620008ec576000905062000a03565b7fffffffffffffffffffffffffffffffffffffffffffffffffffffffffffffffff831480156200093b57507f800000000000000000000000000000000000000000000000000000000000000082145b1562000993576040517f08c379a00000000000000000000000000000000000000000000000000000000081526004018080602001828103825260278152602001806200375c6027913960400191505060405180910390fd5b6000828402905082848281620009a557fe5b0514620009fe576040517f08c379a00000000000000000000000000000000000000000000000000000000081526004018080602001828103825260278152602001806200375c6027913960400191505060405180910390fd5b809150505b92915050565b60008082141562000a82576040517f08c379a00000000000000000000000000000000000000000000000000000000081526004018080602001828103825260208152602001807f5369676e6564536166654d6174683a206469766973696f6e206279207a65726f81525060200191505060405180910390fd5b7fffffffffffffffffffffffffffffffffffffffffffffffffffffffffffffffff8214801562000ad157507f800000000000000000000000000000000000000000000000000000000000000083145b1562000b29576040517f08c379a00000000000000000000000000000000000000000000000000000000081526004018080602001828103825260218152602001806200373b6021913960400191505060405180910390fd5b600082848162000b3557fe5b0590508091505092915050565b60007fffffffffffffffffffffffffffffffff80000000000000000000000000000000821215801562000b8457506f8000000000000000000000000000000082125b62000bdb576040517f08c379a0000000000000000000000000000000000000000000000000000000008152600401808060200182810382526027815260200180620037146027913960400191505060405180910390fd5b819050919050565b600080831415829062000c94576040517f08c379a00000000000000000000000000000000000000000000000000000000081526004018080602001828103825283818151815260200191508051906020019080838360005b8381101562000c5857808201518184015260208101905062000c3b565b50505050905090810190601f16801562000c865780820380516001836020036101000a031916815260200191505b509250505060405180910390fd5b5082848162000c9f57fe5b0690509392505050565b828054600181600116156101000203166002900490600052602060002090601f016020900481019282601f1062000cec57805160ff191683800117855562000d1d565b8280016001018555821562000d1d579182015b8281111562000d1c57825182559160200191906001019062000cff565b5b50905062000d2c919062000d53565b5090565b6040518060400160405280600063ffffffff1681526020016000600f0b81525090565b62000d7891905b8082111562000d7457600081600090555060010162000d5a565b5090565b90565b6129898062000d8b6000396000f3fe608060405234801561001057600080fd5b50600436106100b45760003560e01c8063990c11d811610071578063990c11d814610339578063be1eb6de1461037b578063c26802c9146103c8578063d2cc49a11461040a578063e75722301461044c578063e89dd84e14610495576100b4565b80630464c13c146100b95780630d7745101461010d5780632d9e1047146102595780638e15f4731461028757806392e436aa146102ac57806395d89b41146102b6575b600080fd5b6100e5600480360360208110156100cf57600080fd5b81019080803590602001909291905050506104c3565b6040518084815260200183815260200182151515158152602001935050505060405180910390f35b6102576004803603604081101561012357600080fd5b810190808035906020019064010000000081111561014057600080fd5b82018360208201111561015257600080fd5b8035906020019184602083028401116401000000008311171561017457600080fd5b919080806020026020016040519081016040528093929190818152602001838360200280828437600081840152601f19601f820116905080830192505050505050509192919290803590602001906401000000008111156101d457600080fd5b8201836020820111156101e657600080fd5b8035906020019184602083028401116401000000008311171561020857600080fd5b919080806020026020016040519081016040528093929190818152602001838360200280828437600081840152601f19601f8201169050808301925050505050505091929192905050506108b4565b005b6102856004803603602081101561026f57600080fd5b8101908080359060200190929190505050610945565b005b61028f610dfc565b604051808381526020018281526020019250505060405180910390f35b6102b4610eec565b005b6102be61113f565b6040518080602001828103825283818151815260200191508051906020019080838360005b838110156102fe5780820151818401526020810190506102e3565b50505050905090810190601f16801561032b5780820380516001836020036101000a031916815260200191505b509250505060405180910390f35b6103656004803603602081101561034f57600080fd5b81019080803590602001909291905050506111e1565b6040518082815260200191505060405180910390f35b6103a76004803603602081101561039157600080fd5b81019080803590602001909291905050506111f6565b60405180838152602001821515151581526020019250505060405180910390f35b6103f4600480360360208110156103de57600080fd5b81019080803590602001909291905050506113fa565b6040518082815260200191505060405180910390f35b6104366004803603602081101561042057600080fd5b8101908080359060200190929190505050611417565b6040518082815260200191505060405180910390f35b6104786004803603602081101561046257600080fd5b8101908080359060200190929190505050611447565b604051808381526020018281526020019250505060405180910390f35b6104c1600480360360208110156104ab57600080fd5b8101908080359060200190929190505050611461565b005b6000806000806104df62015180866115e290919063ffffffff16565b148015610519575060006002600086815260200190815260200160002060000160009054906101000a900463ffffffff1663ffffffff1614155b15610553578392506002600085815260200190815260200160002060000160049054906101000a9004600f0b600f0b9150600190506108ad565b60006005805490509050600081116105d3576040517f08c379a00000000000000000000000000000000000000000000000000000000081526004018080602001828103825260098152602001807f6e6f2073616d706c65000000000000000000000000000000000000000000000081525060200191505060405180910390fd5b8460056000815481106105e257fe5b9060005260206000200160000160009054906101000a900463ffffffff1663ffffffff16111580156106475750846005600183038154811061062057fe5b9060005260206000200160000160009054906101000a900463ffffffff1663ffffffff1610155b6106508661162c565b60405160200180807f696e76616c696420706f736974696f6e3a20000000000000000000000000000081525060120182805190602001908083835b602083106106ae578051825260208201915060208101905060208303925061068b565b6001836020036101000a03801982511681845116808217855250505050505090500191505060405160208183030381529060405290610788576040517f08c379a00000000000000000000000000000000000000000000000000000000081526004018080602001828103825283818151815260200191508051906020019080838360005b8381101561074d578082015181840152602081019050610732565b50505050905090810190601f16801561077a5780820380516001836020036101000a031916815260200191505b509250505060405180910390fd5b50600080905060006001830390505b6001156108a95760006107d960026107cb60016107bd868861164090919063ffffffff16565b61164090919063ffffffff16565b6116c890919063ffffffff16565b90506107e3612835565b600582815481106107f057fe5b906000526020600020016040518060400160405290816000820160009054906101000a900463ffffffff1663ffffffff1663ffffffff1681526020016000820160049054906101000a9004600f0b600f0b600f0b81525050905088816000015163ffffffff16111561086457819250610868565b8193505b88816000015163ffffffff16148061087f57508183145b156108a257806000015163ffffffff1697508060200151600f0b965050506108a9565b5050610797565b5050505b9193909250565b60006005805490501461092f576040517f08c379a00000000000000000000000000000000000000000000000000000000081526004018080602001828103825260138152602001807f616c726561647920696e697469616c697a65640000000000000000000000000081525060200191505060405180910390fd5b610937611712565b61094182826118b0565b5050565b6000806000831415610a31576000809054906101000a900473ffffffffffffffffffffffffffffffffffffffff1673ffffffffffffffffffffffffffffffffffffffff1663feaf968c6040518163ffffffff1660e01b815260040160a06040518083038186803b1580156109b857600080fd5b505afa1580156109cc573d6000803e3d6000fd5b505050506040513d60a08110156109e257600080fd5b8101908080519060200190929190805190602001909291908051906020019092919080519060200190929190805190602001909291905050509091929350909150508092508193505050610b30565b6000809054906101000a900473ffffffffffffffffffffffffffffffffffffffff1673ffffffffffffffffffffffffffffffffffffffff16639a6fc8f5846040518263ffffffff1660e01b8152600401808269ffffffffffffffffffff1669ffffffffffffffffffff16815260200191505060a06040518083038186803b158015610abb57600080fd5b505afa158015610acf573d6000803e3d6000fd5b505050506040513d60a0811015610ae557600080fd5b81019080805190602001909291908051906020019092919080519060200190929190805190602001909291908051906020019092919050505090919293509091505080925081935050505b610b3982611a6e565b600f0b91506000610b6b62015180610b5d62015180856116c890919063ffffffff16565b611aa890919063ffffffff16565b9050610b75612835565b6040518060400160405280610b8985611b2e565b63ffffffff168152602001610b9d86611b95565b600f0b815250905060006002600084815260200190815260200160002060000160009054906101000a900463ffffffff1663ffffffff161480610c155750806000015163ffffffff166002600084815260200190815260200160002060000160009054906101000a900463ffffffff1663ffffffff16115b610c87576040517f08c379a00000000000000000000000000000000000000000000000000000000081526004018080602001828103825260118152602001807f707269636520616c72656164792073657400000000000000000000000000000081525060200191505060405180910390fd5b806002600084815260200190815260200160002060008201518160000160006101000a81548163ffffffff021916908363ffffffff16021790555060208201518160000160046101000a8154816fffffffffffffffffffffffffffffffff0219169083600f0b6fffffffffffffffffffffffffffffffff16021790555090505060006005805490501480610d5c5750806000015163ffffffff16600560016005805490500381548110610d3657fe5b9060005260206000200160000160009054906101000a900463ffffffff1663ffffffff16105b15610df5576005819080600181540180825580915050600190039060005260206000200160009091909190915060008201518160000160006101000a81548163ffffffff021916908363ffffffff16021790555060208201518160000160046101000a8154816fffffffffffffffffffffffffffffffff0219169083600f0b6fffffffffffffffffffffffffffffffff16021790555050505b5050505050565b6000806000809054906101000a900473ffffffffffffffffffffffffffffffffffffffff1673ffffffffffffffffffffffffffffffffffffffff1663feaf968c6040518163ffffffff1660e01b815260040160a06040518083038186803b158015610e6657600080fd5b505afa158015610e7a573d6000803e3d6000fd5b505050506040513d60a0811015610e9057600080fd5b8101908080519060200190929190805190602001909291908051906020019092919080519060200190929190805190602001909291905050509091929350909150508093508192505050610ee381611a6e565b600f0b90509091565b6000806000809054906101000a900473ffffffffffffffffffffffffffffffffffffffff1673ffffffffffffffffffffffffffffffffffffffff1663feaf968c6040518163ffffffff1660e01b815260040160a06040518083038186803b158015610f5657600080fd5b505afa158015610f6a573d6000803e3d6000fd5b505050506040513d60a0811015610f8057600080fd5b81019080805190602001909291908051906020019092919080519060200190929190805190602001909291908051906020019092919050505050935050925050610fc982611a6e565b600f0b9150600560016005805490500381548110610fe357fe5b9060005260206000200160000160009054906101000a900463ffffffff1663ffffffff16811161107b576040517f08c379a00000000000000000000000000000000000000000000000000000000081526004018080602001828103825260128152602001807f616c726561647920757020746f2064617465000000000000000000000000000081525060200191505060405180910390fd5b6005604051806040016040528061109184611b2e565b63ffffffff1681526020016110a585611b95565b600f0b8152509080600181540180825580915050600190039060005260206000200160009091909190915060008201518160000160006101000a81548163ffffffff021916908363ffffffff16021790555060208201518160000160046101000a8154816fffffffffffffffffffffffffffffffff0219169083600f0b6fffffffffffffffffffffffffffffffff16021790555050505050565b606060048054600181600116156101000203166002900480601f0160208091040260200160405190810160405280929190818152602001828054600181600116156101000203166002900480156111d75780601f106111ac576101008083540402835291602001916111d7565b820191906000526020600020905b8154815290600101906020018083116111ba57829003601f168201915b5050505050905090565b60006111ec826111f6565b5080915050919050565b600080600061121162015180856116c890919063ffffffff16565b90506112296201518082611aa890919063ffffffff16565b935060606001820360405190808252806020026020018201604052801561125f5781602001602082028038833980820191505090505b5090506000600360008781526020019081526020016000206000611281611c33565b81526020019081526020016000205414156113b857600080633b9aca00905060008090505b848110156113815760006113046112dc620151806112ce60018661164090919063ffffffff16565b611aa890919063ffffffff16565b6112f68b6112e8611c33565b611d1b90919063ffffffff16565b61164090919063ffffffff16565b90506000611311826104c3565b50915050600083111561136f57611343856113358684611d6590919063ffffffff16565b611e8f90919063ffffffff16565b86611358600186611d1b90919063ffffffff16565b8151811061136257fe5b6020026020010181815250505b809450505080806001019150506112a6565b506113af816113a18461139387611fc3565b611aa890919063ffffffff16565b6116c890919063ffffffff16565b955050506113f3565b6113ec6003600087815260200190815260200160002060006113d8611c33565b815260200190815260200160002054612074565b9350600192505b5050915091565b6000611410600383611aa890919063ffffffff16565b9050919050565b60006114406002611432600385611aa890919063ffffffff16565b6116c890919063ffffffff16565b9050919050565b600080611453836104c3565b508092508193505050915091565b600061147962015180836115e290919063ffffffff16565b146114ec576040517f08c379a00000000000000000000000000000000000000000000000000000000081526004018080602001828103825260108152602001807f696e76616c69642074696d657370616e0000000000000000000000000000000081525060200191505060405180910390fd5b600060036000838152602001908152602001600020600061150b611c33565b81526020019081526020016000205414156115df5760008061152c836111f6565b9150915080156115a4576040517f08c379a000000000000000000000000000000000000000000000000000000000815260040180806020018281038252600e8152602001807f616c72656164792063616368656400000000000000000000000000000000000081525060200191505060405180910390fd5b6115ad82612086565b6003600085815260200190815260200160002060006115ca611c33565b81526020019081526020016000208190555050505b50565b600061162483836040518060400160405280601881526020017f536166654d6174683a206d6f64756c6f206279207a65726f0000000000000000815250612097565b905092915050565b6060611639826001612158565b9050919050565b6000808284019050838110156116be576040517f08c379a000000000000000000000000000000000000000000000000000000000815260040180806020018281038252601b8152602001807f536166654d6174683a206164646974696f6e206f766572666c6f77000000000081525060200191505060405180910390fd5b8091505092915050565b600061170a83836040518060400160405280601a81526020017f536166654d6174683a206469766973696f6e206279207a65726f0000000000008152506124c7565b905092915050565b60006012905060006117d16000809054906101000a900473ffffffffffffffffffffffffffffffffffffffff1673ffffffffffffffffffffffffffffffffffffffff1663313ce5676040518163ffffffff1660e01b815260040160206040518083038186803b15801561178457600080fd5b505afa158015611798573d6000803e3d6000fd5b505050506040513d60208110156117ae57600080fd5b810190808051906020019092919050505060ff168361258d90919063ffffffff16565b9050807fffffffffffffffffffffffffffffffffffffffffffffffffffffffffffffffee13158015611804575060128113155b611876576040517f08c379a00000000000000000000000000000000000000000000000000000000081526004018080602001828103825260108152602001807f696e76616c696420646563696d616c730000000000000000000000000000000081525060200191505060405180910390fd5b60008113156118965780600a0a60078190555060016008819055506118ac565b600160078190555080600003600a0a6008819055505b5050565b60008090505b8251811015611a695760008382815181106118cd57fe5b6020026020010151905060008383815181106118e557fe5b602002602001015190506118f7612835565b604051806040016040528061190b85611b2e565b63ffffffff16815260200161191f84611a6e565b600f0b8152509050600061193f62015180856115e290919063ffffffff16565b14156119c657806002600085815260200190815260200160002060008201518160000160006101000a81548163ffffffff021916908363ffffffff16021790555060208201518160000160046101000a8154816fffffffffffffffffffffffffffffffff0219169083600f0b6fffffffffffffffffffffffffffffffff1602179055509050505b6005819080600181540180825580915050600190039060005260206000200160009091909190915060008201518160000160006101000a81548163ffffffff021916908363ffffffff16021790555060208201518160000160046101000a8154816fffffffffffffffffffffffffffffffff0219169083600f0b6fffffffffffffffffffffffffffffffff160217905550505050505080806001019150506118b6565b505050565b6000611aa1611a9c600854611a8e60075486611d6590919063ffffffff16565b611e8f90919063ffffffff16565b611b95565b9050919050565b600080831415611abb5760009050611b28565b6000828402905082848281611acc57fe5b0414611b23576040517f08c379a00000000000000000000000000000000000000000000000000000000081526004018080602001828103825260218152602001806128c26021913960400191505060405180910390fd5b809150505b92915050565b60006401000000008210611b8d576040517f08c379a000000000000000000000000000000000000000000000000000000000815260040180806020018281038252602681526020018061290a6026913960400191505060405180910390fd5b819050919050565b60007fffffffffffffffffffffffffffffffff800000000000000000000000000000008212158015611bd657506f8000000000000000000000000000000082125b611c2b576040517f08c379a00000000000000000000000000000000000000000000000000000000081526004018080602001828103825260278152602001806128596027913960400191505060405180910390fd5b819050919050565b6000611d1662015180611d0862015180611cfa600654600160009054906101000a900473ffffffffffffffffffffffffffffffffffffffff1673ffffffffffffffffffffffffffffffffffffffff1663bbe4fd506040518163ffffffff1660e01b815260040160206040518083038186803b158015611cb157600080fd5b505afa158015611cc5573d6000803e3d6000fd5b505050506040513d6020811015611cdb57600080fd5b8101908080519060200190929190505050611d1b90919063ffffffff16565b6116c890919063ffffffff16565b611aa890919063ffffffff16565b905090565b6000611d5d83836040518060400160405280601e81526020017f536166654d6174683a207375627472616374696f6e206f766572666c6f77000081525061261b565b905092915050565b600080831415611d785760009050611e89565b7fffffffffffffffffffffffffffffffffffffffffffffffffffffffffffffffff83148015611dc657507f800000000000000000000000000000000000000000000000000000000000000082145b15611e1c576040517f08c379a00000000000000000000000000000000000000000000000000000000081526004018080602001828103825260278152602001806128e36027913960400191505060405180910390fd5b6000828402905082848281611e2d57fe5b0514611e84576040517f08c379a00000000000000000000000000000000000000000000000000000000081526004018080602001828103825260278152602001806128e36027913960400191505060405180910390fd5b809150505b92915050565b600080821415611f07576040517f08c379a00000000000000000000000000000000000000000000000000000000081526004018080602001828103825260208152602001807f5369676e6564536166654d6174683a206469766973696f6e206279207a65726f81525060200191505060405180910390fd5b7fffffffffffffffffffffffffffffffffffffffffffffffffffffffffffffffff82148015611f5557507f800000000000000000000000000000000000000000000000000000000000000083145b15611fab576040517f08c379a00000000000000000000000000000000000000000000000000000000081526004018080602001828103825260218152602001806128a16021913960400191505060405180910390fd5b6000828481611fb657fe5b0590508091505092915050565b600080611fe28351611fd4856126db565b611e8f90919063ffffffff16565b9050600080905060008090505b84518110156120575760006120208487848151811061200a57fe5b602002602001015161258d90919063ffffffff16565b90506120476120388283611d6590919063ffffffff16565b8461164090919063ffffffff16565b9250508080600101915050611fef565b5061206b8451828161206557fe5b04612727565b92505050919050565b600060ff6001901b1982169050919050565b600060ff6001901b82179050919050565b6000808314158290612144576040517f08c379a00000000000000000000000000000000000000000000000000000000081526004018080602001828103825283818151815260200191508051906020019080838360005b838110156121095780820151818401526020810190506120ee565b50505050905090810190601f1680156121365780820380516001836020036101000a031916815260200191505b509250505060405180910390fd5b5082848161214e57fe5b0690509392505050565b606060008314156121a0576040518060400160405280600181526020017f300000000000000000000000000000000000000000000000000000000000000081525090506124c1565b6000606490506060816040519080825280601f01601f1916602001820160405280156121db5781602001600182028038833980820191505090505b50905060008090505b60008614612256576000600a87816121f857fe5b069050600a878161220557fe5b0496508060300160f81b83838060010194508151811061222157fe5b60200101907effffffffffffffffffffffffffffffffffffffffffffffffffffffffffffff1916908160001a905350506121e4565b600080905085156122f05760008090505b828110156122ee577f300000000000000000000000000000000000000000000000000000000000000084828151811061229c57fe5b602001015160f81c60f81b7effffffffffffffffffffffffffffffffffffffffffffffffffffffffffffff191614156122dc5781806001019250506122e1565b6122ee565b8080600101915050612267565b505b600060028211612301576000612303565b815b830390506060816040519080825280601f01601f19166020018201604052801561233c5781602001600182028038833980820191505090505b50905060008090505b828110156123b157856001828703038151811061235e57fe5b602001015160f81c60f81b82828151811061237557fe5b60200101907effffffffffffffffffffffffffffffffffffffffffffffffffffffffffffff1916908160001a9053508080600101915050612345565b508096508780156123c25750600283115b156124ba57806123d3846000612158565b6040516020018083805190602001908083835b6020831061240957805182526020820191506020810190506020830392506123e6565b6001836020036101000a038019825116818451168082178552505050505050905001807f650000000000000000000000000000000000000000000000000000000000000081525060010182805190602001908083835b60208310612482578051825260208201915060208101905060208303925061245f565b6001836020036101000a0380198251168184511680821785525050505050509050019250505060405160208183030381529060405296505b5050505050505b92915050565b60008083118290612573576040517f08c379a00000000000000000000000000000000000000000000000000000000081526004018080602001828103825283818151815260200191508051906020019080838360005b8381101561253857808201518184015260208101905061251d565b50505050905090810190601f1680156125655780820380516001836020036101000a031916815260200191505b509250505060405180910390fd5b50600083858161257f57fe5b049050809150509392505050565b6000808284039050600083121580156125a65750838113155b806125bc57506000831280156125bb57508381135b5b612611576040517f08c379a00000000000000000000000000000000000000000000000000000000081526004018080602001828103825260248152602001806129306024913960400191505060405180910390fd5b8091505092915050565b60008383111582906126c8576040517f08c379a00000000000000000000000000000000000000000000000000000000081526004018080602001828103825283818151815260200191508051906020019080838360005b8381101561268d578082015181840152602081019050612672565b50505050905090810190601f1680156126ba5780820380516001836020036101000a031916815260200191505b509250505060405180910390fd5b5060008385039050809150509392505050565b600080600090505b8251811015612721576127128382815181106126fb57fe5b6020026020010151836127a790919063ffffffff16565b915080806001019150506126e3565b50919050565b600080612751600261274360018661164090919063ffffffff16565b6116c890919063ffffffff16565b90508291505b818110156127a15780915061279a600261278c8361277e85886116c890919063ffffffff16565b61164090919063ffffffff16565b6116c890919063ffffffff16565b9050612757565b50919050565b6000808284019050600083121580156127c05750838112155b806127d657506000831280156127d557508381125b5b61282b576040517f08c379a00000000000000000000000000000000000000000000000000000000081526004018080602001828103825260218152602001806128806021913960400191505060405180910390fd5b8091505092915050565b6040518060400160405280600063ffffffff1681526020016000600f0b8152509056fe53616665436173743a2076616c756520646f65736e27742066697420696e2031323820626974735369676e6564536166654d6174683a206164646974696f6e206f766572666c6f775369676e6564536166654d6174683a206469766973696f6e206f766572666c6f77536166654d6174683a206d756c7469706c69636174696f6e206f766572666c6f775369676e6564536166654d6174683a206d756c7469706c69636174696f6e206f766572666c6f7753616665436173743a2076616c756520646f65736e27742066697420696e20333220626974735369676e6564536166654d6174683a207375627472616374696f6e206f766572666c6f77a264697066735822122082b08a6dc1fe8eb8d9d3f8632bc685a8c70163939bf2c97a1cb387a5811f178264736f6c6343000600003353616665436173743a2076616c756520646f65736e27742066697420696e2031323820626974735369676e6564536166654d6174683a206469766973696f6e206f766572666c6f775369676e6564536166654d6174683a206d756c7469706c69636174696f6e206f766572666c6f7753616665436173743a2076616c756520646f65736e27742066697420696e20333220626974735369676e6564536166654d6174683a207375627472616374696f6e206f766572666c6f77",
  "linkReferences": {},
  "deployedLinkReferences": {}
}