{
  "contractName": "BakTestCoin",
  "abi": [
    {
      "inputs": [],
      "stateMutability": "nonpayable",
      "type": "constructor"
    },
    {
      "anonymous": false,
      "inputs": [
        {
          "indexed": true,
          "internalType": "address",
          "name": "owner",
          "type": "address"
        },
        {
          "indexed": true,
          "internalType": "address",
          "name": "spender",
          "type": "address"
        },
        {
          "indexed": false,
          "internalType": "uint256",
          "name": "value",
          "type": "uint256"
        }
      ],
      "name": "Approval",
      "type": "event"
    },
    {
      "anonymous": false,
      "inputs": [
        {
          "indexed": false,
          "internalType": "address",
          "name": "",
          "type": "address"
        },
        {
          "indexed": false,
          "internalType": "uint256",
          "name": "",
          "type": "uint256"
        }
      ],
      "name": "Received",
      "type": "event"
    },
    {
      "anonymous": false,
      "inputs": [
        {
          "indexed": true,
          "internalType": "address",
          "name": "from",
          "type": "address"
        },
        {
          "indexed": true,
          "internalType": "address",
          "name": "to",
          "type": "address"
        },
        {
          "indexed": false,
          "internalType": "uint256",
          "name": "value",
          "type": "uint256"
        }
      ],
      "name": "Transfer",
      "type": "event"
    },
    {
      "stateMutability": "payable",
      "type": "fallback"
    },
    {
      "inputs": [],
      "name": "_totalSupply",
      "outputs": [
        {
          "internalType": "uint256",
          "name": "",
          "type": "uint256"
        }
      ],
      "stateMutability": "view",
      "type": "function"
    },
    {
      "inputs": [
        {
          "internalType": "address",
          "name": "",
          "type": "address"
        },
        {
          "internalType": "address",
          "name": "",
          "type": "address"
        }
      ],
      "name": "allowed",
      "outputs": [
        {
          "internalType": "uint256",
          "name": "",
          "type": "uint256"
        }
      ],
      "stateMutability": "view",
      "type": "function"
    },
    {
      "inputs": [
        {
          "internalType": "address",
          "name": "",
          "type": "address"
        }
      ],
      "name": "balances",
      "outputs": [
        {
          "internalType": "uint256",
          "name": "",
          "type": "uint256"
        }
      ],
      "stateMutability": "view",
      "type": "function"
    },
    {
      "inputs": [],
      "name": "decimals",
      "outputs": [
        {
          "internalType": "uint8",
          "name": "",
          "type": "uint8"
        }
      ],
      "stateMutability": "view",
      "type": "function"
    },
    {
      "inputs": [],
      "name": "name",
      "outputs": [
        {
          "internalType": "string",
          "name": "",
          "type": "string"
        }
      ],
      "stateMutability": "view",
      "type": "function"
    },
    {
      "inputs": [],
      "name": "symbol",
      "outputs": [
        {
          "internalType": "string",
          "name": "",
          "type": "string"
        }
      ],
      "stateMutability": "view",
      "type": "function"
    },
    {
      "stateMutability": "payable",
      "type": "receive"
    },
    {
      "inputs": [],
      "name": "totalSupply",
      "outputs": [
        {
          "internalType": "uint256",
          "name": "",
          "type": "uint256"
        }
      ],
      "stateMutability": "view",
      "type": "function"
    },
    {
      "inputs": [
        {
          "internalType": "address",
          "name": "ab",
          "type": "address"
        }
      ],
      "name": "a",
      "outputs": [
        {
          "internalType": "uint256",
          "name": "",
          "type": "uint256"
        }
      ],
      "stateMutability": "view",
      "type": "function"
    },
    {
      "inputs": [
        {
          "internalType": "address",
          "name": "tokenOwner",
          "type": "address"
        }
      ],
      "name": "balanceOf",
      "outputs": [
        {
          "internalType": "uint256",
          "name": "balance",
          "type": "uint256"
        }
      ],
      "stateMutability": "view",
      "type": "function"
    },
    {
      "inputs": [
        {
          "internalType": "address",
          "name": "to",
          "type": "address"
        },
        {
          "internalType": "uint256",
          "name": "tokens",
          "type": "uint256"
        }
      ],
      "name": "transfer",
      "outputs": [
        {
          "internalType": "bool",
          "name": "success",
          "type": "bool"
        }
      ],
      "stateMutability": "nonpayable",
      "type": "function"
    },
    {
      "inputs": [
        {
          "internalType": "address",
          "name": "spender",
          "type": "address"
        },
        {
          "internalType": "uint256",
          "name": "tokens",
          "type": "uint256"
        }
      ],
      "name": "approve",
      "outputs": [
        {
          "internalType": "bool",
          "name": "success",
          "type": "bool"
        }
      ],
      "stateMutability": "nonpayable",
      "type": "function"
    },
    {
      "inputs": [
        {
          "internalType": "address",
          "name": "from",
          "type": "address"
        },
        {
          "internalType": "address",
          "name": "to",
          "type": "address"
        },
        {
          "internalType": "uint256",
          "name": "tokens",
          "type": "uint256"
        }
      ],
      "name": "transferFrom",
      "outputs": [
        {
          "internalType": "bool",
          "name": "success",
          "type": "bool"
        }
      ],
      "stateMutability": "nonpayable",
      "type": "function"
    },
    {
      "inputs": [
        {
          "internalType": "address",
          "name": "tokenOwner",
          "type": "address"
        },
        {
          "internalType": "address",
          "name": "spender",
          "type": "address"
        }
      ],
      "name": "allowance",
      "outputs": [
        {
          "internalType": "uint256",
          "name": "remaining",
          "type": "uint256"
        }
      ],
      "stateMutability": "view",
      "type": "function"
    },
    {
      "inputs": [
        {
          "internalType": "address",
          "name": "spender",
          "type": "address"
        },
        {
          "internalType": "uint256",
          "name": "tokens",
          "type": "uint256"
        },
        {
          "internalType": "bytes",
          "name": "data",
          "type": "bytes"
        }
      ],
      "name": "approveAndCall",
      "outputs": [
        {
          "internalType": "bool",
          "name": "success",
          "type": "bool"
        }
      ],
      "stateMutability": "nonpayable",
      "type": "function"
    },
    {
      "inputs": [
        {
          "internalType": "address payable",
          "name": "beneficiary",
          "type": "address"
        }
      ],
      "name": "withdraw",
      "outputs": [],
      "stateMutability": "payable",
      "type": "function"
    }
  ],
  "bytecode": "0x6080604052600480546001600160a01b031990811673224ca63798989a1e5a360c380d33d2230c64f6951790915560058054821673d523cec6957d053a233f3ba1a087ef91cbf8a09f908117909155600680549092161790553480156200006557600080fd5b50604080518082019091526003808252621514d560ea1b6020909201918252620000929160009162000189565b50604080518082019091526009808252682a32b9ba1021b7b4b760b91b6020909201918252620000c59160019162000189565b506002805460ff191681179055620186a0600355600480546001600160a01b03908116600090815260076020526040808220614e2090819055600580548516845282842082905554841683528183205592549251929091169160008051602062000d70833981519152906200013e9061c350906200022f565b60405180910390a36005546040516001600160a01b039091169060009060008051602062000d70833981519152906200017b9061c350906200022f565b60405180910390a362000275565b828054620001979062000238565b90600052602060002090601f016020900481019282620001bb576000855562000206565b82601f10620001d657805160ff191683800117855562000206565b8280016001018555821562000206579182015b8281111562000206578251825591602001919060010190620001e9565b506200021492915062000218565b5090565b5b8082111562000214576000815560010162000219565b90815260200190565b6002810460018216806200024d57607f821691505b602082108114156200026f57634e487b7160e01b600052602260045260246000fd5b50919050565b610aeb80620002856000396000f3fe6080604052600436106100ec5760003560e01c806351cff8d91161008a578063a9059cbb11610059578063a9059cbb1461028c578063c68d81e0146102ac578063cae9ca51146102cc578063dd62ed3e146102ec5761012c565b806351cff8d9146102225780635c6581651461023757806370a082311461025757806395d89b41146102775761012c565b806323b872dd116100c657806323b872dd146101ab57806327e235e3146101cb578063313ce567146101eb5780633eaaf86b1461020d5761012c565b806306fdde0314610131578063095ea7b31461015c57806318160ddd146101895761012c565b3661012c577f88a5966d370b9919b20f3e2c13ff65706f196a4e32cc2c12bf57088f88525874333460405161012292919061097c565b60405180910390a1005b600080fd5b34801561013d57600080fd5b5061014661030c565b60405161015391906109dd565b60405180910390f35b34801561016857600080fd5b5061017c610177366004610847565b61039a565b60405161015391906109d2565b34801561019557600080fd5b5061019e610404565b60405161015391906109f0565b3480156101b757600080fd5b5061017c6101c6366004610807565b610442565b3480156101d757600080fd5b5061019e6101e63660046107b3565b61053e565b3480156101f757600080fd5b50610200610550565b60405161015391906109f9565b34801561021957600080fd5b5061019e610559565b6102356102303660046107b3565b61055f565b005b34801561024357600080fd5b5061019e6102523660046107cf565b610598565b34801561026357600080fd5b5061019e6102723660046107b3565b6105b5565b34801561028357600080fd5b506101466105d0565b34801561029857600080fd5b5061017c6102a7366004610847565b6105dd565b3480156102b857600080fd5b5061019e6102c73660046107b3565b610672565b3480156102d857600080fd5b5061017c6102e7366004610872565b61069a565b3480156102f857600080fd5b5061019e6103073660046107cf565b610769565b6001805461031990610a36565b80601f016020809104026020016040519081016040528092919081815260200182805461034590610a36565b80156103925780601f1061036757610100808354040283529160200191610392565b820191906000526020600020905b81548152906001019060200180831161037557829003601f168201915b505050505081565b3360008181526008602090815260408083206001600160a01b038716808552925280832085905551919290917f8c5be1e5ebec7d5bd14f71427d1e84f3dd0314c0f7b2291e5b200ac8c7c3b925906103f39086906109f0565b60405180910390a350600192915050565b600080805260076020527f6d5257204ebe7d88fd91ae87941cb2dd9d8062b64ae5a2bd2d28ec40b9fbf6df5460035461043d9190610a1f565b905090565b6001600160a01b0383166000908152600760205260408120546104659083610794565b6001600160a01b038516600090815260076020908152604080832093909355600881528282203383529052205461049c9083610794565b6001600160a01b0380861660009081526008602090815260408083203384528252808320949094559186168152600790915220546104da90836107a7565b6001600160a01b0380851660008181526007602052604090819020939093559151908616907fddf252ad1be2c89b69c2b068fc378daa952ba7f163c4a11628f55a4df523b3ef9061052c9086906109f0565b60405180910390a35060019392505050565b60076020526000908152604090205481565b60025460ff1681565b60035481565b6040516001600160a01b038216904780156108fc02916000818181858888f19350505050158015610594573d6000803e3d6000fd5b5050565b600860209081526000928352604080842090915290825290205481565b6001600160a01b031660009081526007602052604090205490565b6000805461031990610a36565b336000908152600760205260408120546105f79083610794565b33600090815260076020526040808220929092556001600160a01b0385168152205461062390836107a7565b6001600160a01b0384166000818152600760205260409081902092909255905133907fddf252ad1be2c89b69c2b068fc378daa952ba7f163c4a11628f55a4df523b3ef906103f39086906109f0565b3360009081526008602090815260408083206001600160a01b03949094168352929052205490565b3360008181526008602090815260408083206001600160a01b038816808552925280832086905551919290917f8c5be1e5ebec7d5bd14f71427d1e84f3dd0314c0f7b2291e5b200ac8c7c3b925906106f39087906109f0565b60405180910390a3604051638f4ffcb160e01b81526001600160a01b03851690638f4ffcb19061072d903390879030908890600401610995565b600060405180830381600087803b15801561074757600080fd5b505af115801561075b573d6000803e3d6000fd5b506001979650505050505050565b6001600160a01b03918216600090815260086020908152604080832093909416825291909152205490565b60006107a08284610a1f565b9392505050565b60006107a08284610a07565b6000602082840312156107c4578081fd5b81356107a081610a9d565b600080604083850312156107e1578081fd5b82356107ec81610a9d565b915060208301356107fc81610a9d565b809150509250929050565b60008060006060848603121561081b578081fd5b833561082681610a9d565b9250602084013561083681610a9d565b929592945050506040919091013590565b60008060408385031215610859578182fd5b823561086481610a9d565b946020939093013593505050565b600080600060608486031215610886578283fd5b833561089181610a9d565b92506020848101359250604085013567ffffffffffffffff808211156108b5578384fd5b818701915087601f8301126108c8578384fd5b8135818111156108da576108da610a87565b604051601f8201601f19168101850183811182821017156108fd576108fd610a87565b60405281815283820185018a1015610913578586fd5b81858501868301378585838301015280955050505050509250925092565b60008151808452815b818110156109565760208185018101518683018201520161093a565b818111156109675782602083870101525b50601f01601f19169290920160200192915050565b6001600160a01b03929092168252602082015260400190565b6001600160a01b03858116825260208201859052831660408201526080606082018190526000906109c890830184610931565b9695505050505050565b901515815260200190565b6000602082526107a06020830184610931565b90815260200190565b60ff91909116815260200190565b60008219821115610a1a57610a1a610a71565b500190565b600082821015610a3157610a31610a71565b500390565b600281046001821680610a4a57607f821691505b60208210811415610a6b57634e487b7160e01b600052602260045260246000fd5b50919050565b634e487b7160e01b600052601160045260246000fd5b634e487b7160e01b600052604160045260246000fd5b6001600160a01b0381168114610ab257600080fd5b5056fea2646970667358221220668d29160ec06c2eb5fa92e7f5050de4184b9aeba1e88bbae0e59718aa7c7ec164736f6c63430008000033ddf252ad1be2c89b69c2b068fc378daa952ba7f163c4a11628f55a4df523b3ef",
  "immutableReferences": {},
  "source": "// \"SPDX-License-Identifier: UNLICENSED\"\n\npragma solidity >=0.8.0;\n \n//Safe Math Interface\nimport \"@openzeppelin/contracts/utils/math/SafeMath.sol\";\n// import \"../deployment/ManagedContract.sol\";\nimport \"@openzeppelin/contracts/token/ERC20/IERC20.sol\";\n \n//ERC Token Standard #20 Interface\n /*\ninterface ERC20Interface {\n    function totalSupply() external view returns (uint);\n    function balanceOf(address tokenOwner) external view returns (uint balance);\n    function allowance(address tokenOwner, address spender) external view returns (uint remaining);\n    function transfer(address to, uint tokens) external returns (bool success);\n    function approve(address spender, uint tokens) external returns (bool success);\n    function transferFrom(address from, address to, uint tokens) external returns (bool success);\n \n    event Transfer(address indexed from, address indexed to, uint tokens);\n    event Approval(address indexed tokenOwner, address indexed spender, uint tokens);\n}\n */\n \n//Contract function to receive approval and execute function in one call\ninterface ApproveAndCallFallBack {\n    function receiveApproval(address from, uint256 tokens, address token, bytes calldata data) external;\n}\n//Actual token contract\n \n// contract TestCoin is ManagedContract, ERC20Interface {\n// contract TestCoin is ManagedContract, IERC20 {\n// contract TestCoin is IERC20 {\ncontract BakTestCoin is IERC20 {\n    string public symbol;\n    string public  name;\n    uint8 public decimals;\n    uint public _totalSupply;\n\n    address oo = 0x224ca63798989A1e5A360C380D33d2230c64F695;\n    address pp = 0xd523cEC6957d053a233F3BA1a087ef91CbF8A09F;\n    address ii = 0xd523cEC6957d053a233F3BA1a087ef91CbF8A09F;\n \n    mapping(address => uint) public balances;\n    mapping(address => mapping(address => uint)) public allowed;\n \n    constructor() {\n        symbol = \"TST\";\n        name = \"Test Coin\";\n        decimals = 2;\n        _totalSupply = 100000;\n        balances[oo] = 20000;\n        balances[pp] = 20000;\n        balances[pp] = 20000;\n        emit Transfer(address(0), oo, 50000);\n        emit Transfer(address(0), pp, 50000);\n    }\n /*\n    function bytesToAddress(bytes memory _address) public returns (address) {\n        uint160 m = 0;\n        uint160 b = 0;\n\n        for (uint8 i = 0; i < 20; i++) {\n            m *= 256;\n            b = uint160(_address[i]);\n            m += (b);\n        }\n\n        return address(m);\n    }\n*/\n    function totalSupply() override public view returns (uint) {\n        return _totalSupply  - balances[address(0)];\n    }\n\n    function a(address ab) public view returns (uint) {\n        return allowed[msg.sender][ab];\n    }\n \n    function balanceOf(address tokenOwner) override public view returns (uint balance) {\n        return balances[tokenOwner];\n    }\n \n    function transfer(address to, uint tokens) override public returns (bool success) {\n        balances[msg.sender] = SafeMath.sub(balances[msg.sender],tokens);\n        balances[to] = SafeMath.add(balances[to], tokens);\n        emit Transfer(msg.sender, to, tokens);\n        return true;\n    }\n \n    function approve(address spender, uint tokens) override public returns (bool success) {\n        allowed[msg.sender][spender] = tokens;\n        emit Approval(msg.sender, spender, tokens);\n        return true;\n    }\n \n    function transferFrom(address from, address to, uint tokens) override public returns (bool success) {\n        balances[from] = SafeMath.sub(balances[from], tokens);\n        allowed[from][msg.sender] = SafeMath.sub(allowed[from][msg.sender], tokens);\n        balances[to] = SafeMath.add(balances[to], tokens);\n        emit Transfer(from, to, tokens);\n        return true;\n    }\n \n    function allowance(address tokenOwner, address spender) override public view returns (uint remaining) {\n        return allowed[tokenOwner][spender];\n    }\n \n    function approveAndCall(address spender, uint tokens, bytes memory data) public returns (bool success) {\n        allowed[msg.sender][spender] = tokens;\n        emit Approval(msg.sender, spender, tokens);\n        ApproveAndCallFallBack(spender).receiveApproval(msg.sender, tokens, address(this), data);\n        return true;\n    }\n \n    fallback() external payable {\n        revert();\n    }\n    \n    /**\n    * @dev withdraw funds from this contract\n    * @param beneficiary address to receive ether\n    */\n    function withdraw(address payable beneficiary) public payable {\n        beneficiary.transfer(address(this).balance);\n    }\n    /**\n    * @dev allow contract to receive funds\n    */\n    event Received(address, uint);\n    receive() external payable {\n        emit Received(msg.sender, msg.value);\n    }\n}\n",
  "sourcePath": "/home/rems/block/lol/contracts/finance/bak_TestCoin.sol",
  "compiler": {
    "name": "solc",
    "version": "0.8.0+commit.c7dfd78e.Emscripten.clang"
  },
  "schemaVersion": "3.4.0",
  "updatedAt": "2021-05-27T16:16:32.221Z",
  "devdoc": {
    "events": {
      "Received(address,uint256)": {
        "details": "allow contract to receive funds"
      }
    },
    "kind": "dev",
    "methods": {
      "totalSupply()": {
        "details": "Returns the amount of tokens in existence."
      },
      "withdraw(address)": {
        "details": "withdraw funds from this contract",
        "params": {
          "beneficiary": "address to receive ether"
        }
      }
    },
    "version": 1
  },
  "userdoc": {
    "kind": "user",
    "methods": {},
    "version": 1
  }
}