{
  "contractName": "FarmToken",
  "abi": [
    {
      "inputs": [
        {
          "internalType": "address",
          "name": "_token",
          "type": "address"
        }
      ],
      "stateMutability": "nonpayable",
      "type": "constructor"
    },
    {
      "anonymous": false,
      "inputs": [
        {
          "indexed": true,
          "internalType": "address",
          "name": "owner",
          "type": "address"
        },
        {
          "indexed": true,
          "internalType": "address",
          "name": "spender",
          "type": "address"
        },
        {
          "indexed": false,
          "internalType": "uint256",
          "name": "value",
          "type": "uint256"
        }
      ],
      "name": "Approval",
      "type": "event"
    },
    {
      "anonymous": false,
      "inputs": [
        {
          "indexed": true,
          "internalType": "address",
          "name": "from",
          "type": "address"
        },
        {
          "indexed": true,
          "internalType": "address",
          "name": "to",
          "type": "address"
        },
        {
          "indexed": false,
          "internalType": "uint256",
          "name": "value",
          "type": "uint256"
        }
      ],
      "name": "Transfer",
      "type": "event"
    },
    {
      "inputs": [
        {
          "internalType": "address",
          "name": "owner",
          "type": "address"
        },
        {
          "internalType": "address",
          "name": "spender",
          "type": "address"
        }
      ],
      "name": "allowance",
      "outputs": [
        {
          "internalType": "uint256",
          "name": "",
          "type": "uint256"
        }
      ],
      "stateMutability": "view",
      "type": "function",
      "constant": true
    },
    {
      "inputs": [
        {
          "internalType": "address",
          "name": "spender",
          "type": "address"
        },
        {
          "internalType": "uint256",
          "name": "amount",
          "type": "uint256"
        }
      ],
      "name": "approve",
      "outputs": [
        {
          "internalType": "bool",
          "name": "",
          "type": "bool"
        }
      ],
      "stateMutability": "nonpayable",
      "type": "function"
    },
    {
      "inputs": [
        {
          "internalType": "address",
          "name": "account",
          "type": "address"
        }
      ],
      "name": "balanceOf",
      "outputs": [
        {
          "internalType": "uint256",
          "name": "",
          "type": "uint256"
        }
      ],
      "stateMutability": "view",
      "type": "function",
      "constant": true
    },
    {
      "inputs": [
        {
          "internalType": "address",
          "name": "spender",
          "type": "address"
        },
        {
          "internalType": "uint256",
          "name": "subtractedValue",
          "type": "uint256"
        }
      ],
      "name": "decreaseAllowance",
      "outputs": [
        {
          "internalType": "bool",
          "name": "",
          "type": "bool"
        }
      ],
      "stateMutability": "nonpayable",
      "type": "function"
    },
    {
      "inputs": [
        {
          "internalType": "address",
          "name": "spender",
          "type": "address"
        },
        {
          "internalType": "uint256",
          "name": "addedValue",
          "type": "uint256"
        }
      ],
      "name": "increaseAllowance",
      "outputs": [
        {
          "internalType": "bool",
          "name": "",
          "type": "bool"
        }
      ],
      "stateMutability": "nonpayable",
      "type": "function"
    },
    {
      "inputs": [],
      "name": "name",
      "outputs": [
        {
          "internalType": "string",
          "name": "",
          "type": "string"
        }
      ],
      "stateMutability": "view",
      "type": "function",
      "constant": true
    },
    {
      "inputs": [],
      "name": "symbol",
      "outputs": [
        {
          "internalType": "string",
          "name": "",
          "type": "string"
        }
      ],
      "stateMutability": "view",
      "type": "function",
      "constant": true
    },
    {
      "inputs": [],
      "name": "token",
      "outputs": [
        {
          "internalType": "contract IERC20",
          "name": "",
          "type": "address"
        }
      ],
      "stateMutability": "view",
      "type": "function",
      "constant": true
    },
    {
      "inputs": [],
      "name": "totalSupply",
      "outputs": [
        {
          "internalType": "uint256",
          "name": "",
          "type": "uint256"
        }
      ],
      "stateMutability": "view",
      "type": "function",
      "constant": true
    },
    {
      "inputs": [
        {
          "internalType": "address",
          "name": "recipient",
          "type": "address"
        },
        {
          "internalType": "uint256",
          "name": "amount",
          "type": "uint256"
        }
      ],
      "name": "transfer",
      "outputs": [
        {
          "internalType": "bool",
          "name": "",
          "type": "bool"
        }
      ],
      "stateMutability": "nonpayable",
      "type": "function"
    },
    {
      "inputs": [
        {
          "internalType": "address",
          "name": "sender",
          "type": "address"
        },
        {
          "internalType": "address",
          "name": "recipient",
          "type": "address"
        },
        {
          "internalType": "uint256",
          "name": "amount",
          "type": "uint256"
        }
      ],
      "name": "transferFrom",
      "outputs": [
        {
          "internalType": "bool",
          "name": "",
          "type": "bool"
        }
      ],
      "stateMutability": "nonpayable",
      "type": "function"
    },
    {
      "inputs": [],
      "name": "decimals",
      "outputs": [
        {
          "internalType": "uint8",
          "name": "",
          "type": "uint8"
        }
      ],
      "stateMutability": "view",
      "type": "function",
      "constant": true
    },
    {
      "inputs": [],
      "name": "balance",
      "outputs": [
        {
          "internalType": "uint256",
          "name": "",
          "type": "uint256"
        }
      ],
      "stateMutability": "view",
      "type": "function",
      "constant": true
    },
    {
      "inputs": [
        {
          "internalType": "uint256",
          "name": "_amount",
          "type": "uint256"
        }
      ],
      "name": "deposit",
      "outputs": [
        {
          "internalType": "uint256",
          "name": "",
          "type": "uint256"
        }
      ],
      "stateMutability": "nonpayable",
      "type": "function"
    },
    {
      "inputs": [
        {
          "internalType": "uint256",
          "name": "_amount",
          "type": "uint256"
        }
      ],
      "name": "withdraw",
      "outputs": [
        {
          "internalType": "uint256",
          "name": "",
          "type": "uint256"
        }
      ],
      "stateMutability": "nonpayable",
      "type": "function"
    }
  ],
  "bytecode": "0x60806040523480156200001157600080fd5b506040516200139438038062001394833981016040819052620000349162000170565b604051806040016040528060098152602001682330b936aa37b5b2b760b91b8152506040518060400160405280600381526020016246524d60e81b81525081600390805190602001906200008a929190620000ca565b508051620000a0906004906020840190620000ca565b5050600580546001600160a01b0319166001600160a01b03939093169290921790915550620001dd565b828054620000d890620001a0565b90600052602060002090601f016020900481019282620000fc576000855562000147565b82601f106200011757805160ff191683800117855562000147565b8280016001018555821562000147579182015b82811115620001475782518255916020019190600101906200012a565b506200015592915062000159565b5090565b5b808211156200015557600081556001016200015a565b60006020828403121562000182578081fd5b81516001600160a01b038116811462000199578182fd5b9392505050565b600281046001821680620001b557607f821691505b60208210811415620001d757634e487b7160e01b600052602260045260246000fd5b50919050565b6111a780620001ed6000396000f3fe608060405234801561001057600080fd5b50600436106100f55760003560e01c806370a0823111610097578063b69ef8a811610066578063b69ef8a8146101dc578063b6b55f25146101e4578063dd62ed3e146101f7578063fc0c546a1461020a576100f5565b806370a082311461019b57806395d89b41146101ae578063a457c2d7146101b6578063a9059cbb146101c9576100f5565b806323b872dd116100d357806323b872dd1461014d5780632e1a7d4d14610160578063313ce567146101735780633950935114610188576100f5565b806306fdde03146100fa578063095ea7b31461011857806318160ddd14610138575b600080fd5b61010261021f565b60405161010f9190610ced565b60405180910390f35b61012b610126366004610bfc565b6102b1565b60405161010f9190610ce2565b6101406102ce565b60405161010f91906110ae565b61012b61015b366004610bc1565b6102d4565b61014061016e366004610c45565b610376565b61017b6103a1565b60405161010f91906110b7565b61012b610196366004610bfc565b6103a6565b6101406101a9366004610b75565b6103f5565b610102610410565b61012b6101c4366004610bfc565b61041f565b61012b6101d7366004610bfc565b61049a565b6101406104ae565b6101406101f2366004610c45565b610534565b610140610205366004610b8f565b610577565b6102126105a2565b60405161010f9190610c91565b60606003805461022e90611120565b80601f016020809104026020016040519081016040528092919081815260200182805461025a90611120565b80156102a75780601f1061027c576101008083540402835291602001916102a7565b820191906000526020600020905b81548152906001019060200180831161028a57829003601f168201915b5050505050905090565b60006102c56102be6105b1565b84846105b5565b50600192915050565b60025490565b60006102e1848484610669565b6001600160a01b0384166000908152600160205260408120816103026105b1565b6001600160a01b03166001600160a01b031681526020019081526020016000205490508281101561034e5760405162461bcd60e51b815260040161034590610e73565b60405180910390fd5b6103698561035a6105b1565b61036486856110dd565b6105b5565b60019150505b9392505050565b60006103823383610791565b600554610399906001600160a01b03163384610877565b50805b919050565b600090565b60006102c56103b36105b1565b8484600160006103c16105b1565b6001600160a01b03908116825260208083019390935260409182016000908120918b168152925290205461036491906110c5565b6001600160a01b031660009081526020819052604090205490565b60606004805461022e90611120565b6000806001600061042e6105b1565b6001600160a01b039081168252602080830193909352604091820160009081209188168152925290205490508281101561047a5760405162461bcd60e51b815260040161034590611032565b6104906104856105b1565b8561036486856110dd565b5060019392505050565b60006102c56104a76105b1565b8484610669565b6005546040516370a0823160e01b81526000916001600160a01b0316906370a08231906104df903090600401610c91565b60206040518083038186803b1580156104f757600080fd5b505afa15801561050b573d6000803e3d6000fd5b505050506040513d601f19601f8201168201806040525081019061052f9190610c5d565b905090565b60008082116105555760405162461bcd60e51b815260040161034590610fbc565b60055461056d906001600160a01b03163330856108d2565b61039933836108f9565b6001600160a01b03918216600090815260016020908152604080832093909416825291909152205490565b6005546001600160a01b031681565b3390565b6001600160a01b0383166105db5760405162461bcd60e51b815260040161034590610f41565b6001600160a01b0382166106015760405162461bcd60e51b815260040161034590610da5565b6001600160a01b0380841660008181526001602090815260408083209487168084529490915290819020849055517f8c5be1e5ebec7d5bd14f71427d1e84f3dd0314c0f7b2291e5b200ac8c7c3b9259061065c9085906110ae565b60405180910390a3505050565b6001600160a01b03831661068f5760405162461bcd60e51b815260040161034590610efc565b6001600160a01b0382166106b55760405162461bcd60e51b815260040161034590610d20565b6106c08383836108cd565b6001600160a01b038316600090815260208190526040902054818110156106f95760405162461bcd60e51b815260040161034590610de7565b61070382826110dd565b6001600160a01b0380861660009081526020819052604080822093909355908516815290812080548492906107399084906110c5565b92505081905550826001600160a01b0316846001600160a01b03167fddf252ad1be2c89b69c2b068fc378daa952ba7f163c4a11628f55a4df523b3ef8460405161078391906110ae565b60405180910390a350505050565b6001600160a01b0382166107b75760405162461bcd60e51b815260040161034590610ebb565b6107c3826000836108cd565b6001600160a01b038216600090815260208190526040902054818110156107fc5760405162461bcd60e51b815260040161034590610d63565b61080682826110dd565b6001600160a01b038416600090815260208190526040812091909155600280548492906108349084906110dd565b90915550506040516000906001600160a01b038516907fddf252ad1be2c89b69c2b068fc378daa952ba7f163c4a11628f55a4df523b3ef9061065c9086906110ae565b6108cd8363a9059cbb60e01b8484604051602401610896929190610cc9565b60408051601f198184030181529190526020810180516001600160e01b03166001600160e01b0319909316929092179091526109b9565b505050565b6108f3846323b872dd60e01b85858560405160240161089693929190610ca5565b50505050565b6001600160a01b03821661091f5760405162461bcd60e51b815260040161034590611077565b61092b600083836108cd565b806002600082825461093d91906110c5565b90915550506001600160a01b0382166000908152602081905260408120805483929061096a9084906110c5565b90915550506040516001600160a01b038316906000907fddf252ad1be2c89b69c2b068fc378daa952ba7f163c4a11628f55a4df523b3ef906109ad9085906110ae565b60405180910390a35050565b6000610a0e826040518060400160405280602081526020017f5361666545524332303a206c6f772d6c6576656c2063616c6c206661696c6564815250856001600160a01b0316610a489092919063ffffffff16565b8051909150156108cd5780806020019051810190610a2c9190610c25565b6108cd5760405162461bcd60e51b815260040161034590610fe8565b6060610a578484600085610a5f565b949350505050565b606082471015610a815760405162461bcd60e51b815260040161034590610e2d565b610a8a85610b1f565b610aa65760405162461bcd60e51b815260040161034590610f85565b600080866001600160a01b03168587604051610ac29190610c75565b60006040518083038185875af1925050503d8060008114610aff576040519150601f19603f3d011682016040523d82523d6000602084013e610b04565b606091505b5091509150610b14828286610b25565b979650505050505050565b3b151590565b60608315610b3457508161036f565b825115610b445782518084602001fd5b8160405162461bcd60e51b81526004016103459190610ced565b80356001600160a01b038116811461039c57600080fd5b600060208284031215610b86578081fd5b61036f82610b5e565b60008060408385031215610ba1578081fd5b610baa83610b5e565b9150610bb860208401610b5e565b90509250929050565b600080600060608486031215610bd5578081fd5b610bde84610b5e565b9250610bec60208501610b5e565b9150604084013590509250925092565b60008060408385031215610c0e578182fd5b610c1783610b5e565b946020939093013593505050565b600060208284031215610c36578081fd5b8151801515811461036f578182fd5b600060208284031215610c56578081fd5b5035919050565b600060208284031215610c6e578081fd5b5051919050565b60008251610c878184602087016110f4565b9190910192915050565b6001600160a01b0391909116815260200190565b6001600160a01b039384168152919092166020820152604081019190915260600190565b6001600160a01b03929092168252602082015260400190565b901515815260200190565b6000602082528251806020840152610d0c8160408501602087016110f4565b601f01601f19169190910160400192915050565b60208082526023908201527f45524332303a207472616e7366657220746f20746865207a65726f206164647260408201526265737360e81b606082015260800190565b60208082526022908201527f45524332303a206275726e20616d6f756e7420657863656564732062616c616e604082015261636560f01b606082015260800190565b60208082526022908201527f45524332303a20617070726f766520746f20746865207a65726f206164647265604082015261737360f01b606082015260800190565b60208082526026908201527f45524332303a207472616e7366657220616d6f756e7420657863656564732062604082015265616c616e636560d01b606082015260800190565b60208082526026908201527f416464726573733a20696e73756666696369656e742062616c616e636520666f6040820152651c8818d85b1b60d21b606082015260800190565b60208082526028908201527f45524332303a207472616e7366657220616d6f756e74206578636565647320616040820152676c6c6f77616e636560c01b606082015260800190565b60208082526021908201527f45524332303a206275726e2066726f6d20746865207a65726f206164647265736040820152607360f81b606082015260800190565b60208082526025908201527f45524332303a207472616e736665722066726f6d20746865207a65726f206164604082015264647265737360d81b606082015260800190565b60208082526024908201527f45524332303a20617070726f76652066726f6d20746865207a65726f206164646040820152637265737360e01b606082015260800190565b6020808252601d908201527f416464726573733a2063616c6c20746f206e6f6e2d636f6e7472616374000000604082015260600190565b6020808252601290820152710616d6f756e742063616e6e6f7420626520360741b604082015260600190565b6020808252602a908201527f5361666545524332303a204552433230206f7065726174696f6e20646964206e6040820152691bdd081cdd58d8d9595960b21b606082015260800190565b60208082526025908201527f45524332303a2064656372656173656420616c6c6f77616e63652062656c6f77604082015264207a65726f60d81b606082015260800190565b6020808252601f908201527f45524332303a206d696e7420746f20746865207a65726f206164647265737300604082015260600190565b90815260200190565b60ff91909116815260200190565b600082198211156110d8576110d861115b565b500190565b6000828210156110ef576110ef61115b565b500390565b60005b8381101561110f5781810151838201526020016110f7565b838111156108f35750506000910152565b60028104600182168061113457607f821691505b6020821081141561115557634e487b7160e01b600052602260045260246000fd5b50919050565b634e487b7160e01b600052601160045260246000fdfea26469706673582212205227717e49da36e89427c343ccf6985fa09fc1ab279af013bb6ce5222088833664736f6c63430008000033",
  "immutableReferences": {},
  "source": "// SPDX-License-Identifier: MIT\n\npragma solidity >=0.8.0;\n\nimport \"@openzeppelin/contracts/token/ERC20/IERC20.sol\";\nimport \"@openzeppelin/contracts/utils/Address.sol\";\nimport \"@openzeppelin/contracts/token/ERC20/utils/SafeERC20.sol\";\nimport \"@openzeppelin/contracts/token/ERC20/ERC20.sol\";\nimport \"@openzeppelin/contracts/utils/math/SafeMath.sol\";\n\ncontract FarmToken is ERC20 {\n    using Address for address;\n    using SafeMath for uint256;\n    using SafeERC20 for IERC20;\n\n    IERC20 public token;\n\n    constructor(address _token)\n        ERC20(\"FarmToken\", \"FRM\")\n    {\n        token = IERC20(_token);\n    }\n\n    function decimals() public view virtual override returns (uint8) {\n        return 0;\n    }\n\n    function balance() public view returns (uint256) {\n        return token.balanceOf(address(this));\n    }\n\n    function deposit(uint256 _amount) public returns(uint256){\n        // Amount must be greater than zero\n        require(_amount > 0, \"amount cannot be 0\");\n\n        // Transfer MyToken to smart contract\n        token.safeTransferFrom(msg.sender, address(this), _amount);\n\n        // Mint FarmToken to msg sender\n        _mint(msg.sender, _amount);\n\n        return _amount;\n    }\n\n    function withdraw(uint256 _amount) public returns(uint256){\n        // Burn FarmTokens from msg sender\n        _burn(msg.sender, _amount);\n\n        // Transfer MyTokens from this smart contract to msg sender\n        token.safeTransfer(msg.sender, _amount);\n        \n        return _amount;\n    }\n}",
  "sourcePath": "/home/rems/block/lol/contracts/finance/FarmToken.sol",
  "compiler": {
    "name": "solc",
    "version": "0.8.0+commit.c7dfd78e.Emscripten.clang"
  },
  "schemaVersion": "3.4.0",
  "updatedAt": "2021-05-27T21:21:13.236Z",
  "networkType": "ethereum",
  "devdoc": {
    "kind": "dev",
    "methods": {
      "allowance(address,address)": {
        "details": "See {IERC20-allowance}."
      },
      "approve(address,uint256)": {
        "details": "See {IERC20-approve}. Requirements: - `spender` cannot be the zero address."
      },
      "balanceOf(address)": {
        "details": "See {IERC20-balanceOf}."
      },
      "decimals()": {
        "details": "Returns the number of decimals used to get its user representation. For example, if `decimals` equals `2`, a balance of `505` tokens should be displayed to a user as `5,05` (`505 / 10 ** 2`). Tokens usually opt for a value of 18, imitating the relationship between Ether and Wei. This is the value {ERC20} uses, unless this function is overridden; NOTE: This information is only used for _display_ purposes: it in no way affects any of the arithmetic of the contract, including {IERC20-balanceOf} and {IERC20-transfer}."
      },
      "decreaseAllowance(address,uint256)": {
        "details": "Atomically decreases the allowance granted to `spender` by the caller. This is an alternative to {approve} that can be used as a mitigation for problems described in {IERC20-approve}. Emits an {Approval} event indicating the updated allowance. Requirements: - `spender` cannot be the zero address. - `spender` must have allowance for the caller of at least `subtractedValue`."
      },
      "increaseAllowance(address,uint256)": {
        "details": "Atomically increases the allowance granted to `spender` by the caller. This is an alternative to {approve} that can be used as a mitigation for problems described in {IERC20-approve}. Emits an {Approval} event indicating the updated allowance. Requirements: - `spender` cannot be the zero address."
      },
      "name()": {
        "details": "Returns the name of the token."
      },
      "symbol()": {
        "details": "Returns the symbol of the token, usually a shorter version of the name."
      },
      "totalSupply()": {
        "details": "See {IERC20-totalSupply}."
      },
      "transfer(address,uint256)": {
        "details": "See {IERC20-transfer}. Requirements: - `recipient` cannot be the zero address. - the caller must have a balance of at least `amount`."
      },
      "transferFrom(address,address,uint256)": {
        "details": "See {IERC20-transferFrom}. Emits an {Approval} event indicating the updated allowance. This is not required by the EIP. See the note at the beginning of {ERC20}. Requirements: - `sender` and `recipient` cannot be the zero address. - `sender` must have a balance of at least `amount`. - the caller must have allowance for ``sender``'s tokens of at least `amount`."
      }
    },
    "version": 1
  },
  "userdoc": {
    "kind": "user",
    "methods": {},
    "version": 1
  }
}