{
  "contractName": "Marex",
  "abi": [
    {
      "anonymous": false,
      "inputs": [
        {
          "indexed": false,
          "internalType": "uint256",
          "name": "event_int",
          "type": "uint256"
        },
        {
          "indexed": false,
          "internalType": "string",
          "name": "event_string",
          "type": "string"
        }
      ],
      "name": "Fric",
      "type": "event"
    },
    {
      "anonymous": false,
      "inputs": [
        {
          "indexed": false,
          "internalType": "address",
          "name": "event_string",
          "type": "address"
        }
      ],
      "name": "Log",
      "type": "event"
    },
    {
      "anonymous": false,
      "inputs": [
        {
          "indexed": false,
          "internalType": "string",
          "name": "event_string",
          "type": "string"
        }
      ],
      "name": "LogS",
      "type": "event"
    },
    {
      "anonymous": false,
      "inputs": [
        {
          "indexed": false,
          "internalType": "uint256",
          "name": "event_uint",
          "type": "uint256"
        },
        {
          "indexed": false,
          "internalType": "uint256",
          "name": "event_block",
          "type": "uint256"
        }
      ],
      "name": "MaturityEnd",
      "type": "event"
    },
    {
      "anonymous": false,
      "inputs": [
        {
          "indexed": false,
          "internalType": "uint256",
          "name": "event_int",
          "type": "uint256"
        }
      ],
      "name": "Test",
      "type": "event"
    },
    {
      "inputs": [],
      "name": "ERC20Interface",
      "outputs": [
        {
          "internalType": "contract ERC20",
          "name": "",
          "type": "address"
        }
      ],
      "stateMutability": "view",
      "type": "function",
      "constant": true
    },
    {
      "inputs": [],
      "name": "activationDate",
      "outputs": [
        {
          "internalType": "uint256",
          "name": "",
          "type": "uint256"
        }
      ],
      "stateMutability": "view",
      "type": "function",
      "constant": true
    },
    {
      "inputs": [
        {
          "internalType": "string",
          "name": "",
          "type": "string"
        }
      ],
      "name": "authorizedTokens",
      "outputs": [
        {
          "internalType": "address",
          "name": "",
          "type": "address"
        }
      ],
      "stateMutability": "view",
      "type": "function",
      "constant": true
    },
    {
      "inputs": [
        {
          "internalType": "uint256",
          "name": "",
          "type": "uint256"
        }
      ],
      "name": "holders",
      "outputs": [
        {
          "internalType": "address payable",
          "name": "",
          "type": "address"
        }
      ],
      "stateMutability": "view",
      "type": "function",
      "constant": true
    },
    {
      "inputs": [],
      "name": "initialPrice",
      "outputs": [
        {
          "internalType": "uint256",
          "name": "",
          "type": "uint256"
        }
      ],
      "stateMutability": "view",
      "type": "function",
      "constant": true
    },
    {
      "inputs": [],
      "name": "investorLock",
      "outputs": [
        {
          "internalType": "bool",
          "name": "",
          "type": "bool"
        }
      ],
      "stateMutability": "view",
      "type": "function",
      "constant": true
    },
    {
      "inputs": [],
      "name": "liquidityProviderLock",
      "outputs": [
        {
          "internalType": "bool",
          "name": "",
          "type": "bool"
        }
      ],
      "stateMutability": "view",
      "type": "function",
      "constant": true
    },
    {
      "inputs": [],
      "name": "locked",
      "outputs": [
        {
          "internalType": "bool",
          "name": "",
          "type": "bool"
        }
      ],
      "stateMutability": "view",
      "type": "function",
      "constant": true
    },
    {
      "inputs": [],
      "name": "maturityDate",
      "outputs": [
        {
          "internalType": "uint256",
          "name": "",
          "type": "uint256"
        }
      ],
      "stateMutability": "view",
      "type": "function",
      "constant": true
    },
    {
      "inputs": [],
      "name": "maximumLiquidity",
      "outputs": [
        {
          "internalType": "uint256",
          "name": "",
          "type": "uint256"
        }
      ],
      "stateMutability": "view",
      "type": "function",
      "constant": true
    },
    {
      "inputs": [],
      "name": "maximumPayout",
      "outputs": [
        {
          "internalType": "uint256",
          "name": "",
          "type": "uint256"
        }
      ],
      "stateMutability": "view",
      "type": "function",
      "constant": true
    },
    {
      "inputs": [],
      "name": "maximumSender",
      "outputs": [
        {
          "internalType": "uint256",
          "name": "",
          "type": "uint256"
        }
      ],
      "stateMutability": "view",
      "type": "function",
      "constant": true
    },
    {
      "inputs": [],
      "name": "payoutRatio",
      "outputs": [
        {
          "internalType": "uint256",
          "name": "",
          "type": "uint256"
        }
      ],
      "stateMutability": "view",
      "type": "function",
      "constant": true
    },
    {
      "inputs": [
        {
          "internalType": "address",
          "name": "",
          "type": "address"
        }
      ],
      "name": "providerType",
      "outputs": [
        {
          "internalType": "enum Marex.addressType",
          "name": "",
          "type": "uint8"
        }
      ],
      "stateMutability": "view",
      "type": "function",
      "constant": true
    },
    {
      "inputs": [
        {
          "internalType": "address",
          "name": "",
          "type": "address"
        }
      ],
      "name": "senderList",
      "outputs": [
        {
          "internalType": "bool",
          "name": "",
          "type": "bool"
        }
      ],
      "stateMutability": "view",
      "type": "function",
      "constant": true
    },
    {
      "inputs": [
        {
          "internalType": "address",
          "name": "",
          "type": "address"
        }
      ],
      "name": "shares",
      "outputs": [
        {
          "internalType": "uint256",
          "name": "",
          "type": "uint256"
        }
      ],
      "stateMutability": "view",
      "type": "function",
      "constant": true
    },
    {
      "inputs": [],
      "name": "strikePrice",
      "outputs": [
        {
          "internalType": "uint256",
          "name": "",
          "type": "uint256"
        }
      ],
      "stateMutability": "view",
      "type": "function",
      "constant": true
    },
    {
      "inputs": [
        {
          "internalType": "uint256",
          "name": "",
          "type": "uint256"
        }
      ],
      "name": "whitelistedInvestor",
      "outputs": [
        {
          "internalType": "address",
          "name": "",
          "type": "address"
        }
      ],
      "stateMutability": "view",
      "type": "function",
      "constant": true
    },
    {
      "inputs": [
        {
          "internalType": "uint256",
          "name": "",
          "type": "uint256"
        }
      ],
      "name": "whitelistedLiquidityProvider",
      "outputs": [
        {
          "internalType": "address",
          "name": "",
          "type": "address"
        }
      ],
      "stateMutability": "view",
      "type": "function",
      "constant": true
    },
    {
      "inputs": [
        {
          "internalType": "uint256",
          "name": "payout_ratio",
          "type": "uint256"
        }
      ],
      "name": "setPayoutRatio",
      "outputs": [],
      "stateMutability": "nonpayable",
      "type": "function"
    },
    {
      "inputs": [
        {
          "internalType": "uint256",
          "name": "initial_price",
          "type": "uint256"
        }
      ],
      "name": "setInitialPrice",
      "outputs": [],
      "stateMutability": "nonpayable",
      "type": "function"
    },
    {
      "inputs": [
        {
          "internalType": "uint256",
          "name": "strike_price",
          "type": "uint256"
        }
      ],
      "name": "setStrikePrice",
      "outputs": [],
      "stateMutability": "nonpayable",
      "type": "function"
    },
    {
      "inputs": [
        {
          "internalType": "uint256",
          "name": "maturity_minute",
          "type": "uint256"
        }
      ],
      "name": "addMaturity",
      "outputs": [],
      "stateMutability": "nonpayable",
      "type": "function"
    },
    {
      "inputs": [
        {
          "internalType": "uint256",
          "name": "maximum_liquidity",
          "type": "uint256"
        }
      ],
      "name": "setMaximumLiquidity",
      "outputs": [],
      "stateMutability": "nonpayable",
      "type": "function"
    },
    {
      "inputs": [],
      "name": "switchLock",
      "outputs": [],
      "stateMutability": "nonpayable",
      "type": "function"
    },
    {
      "inputs": [
        {
          "internalType": "string",
          "name": "symbol_",
          "type": "string"
        },
        {
          "internalType": "address",
          "name": "address_",
          "type": "address"
        }
      ],
      "name": "addNewToken",
      "outputs": [
        {
          "internalType": "bool",
          "name": "",
          "type": "bool"
        }
      ],
      "stateMutability": "nonpayable",
      "type": "function"
    },
    {
      "inputs": [
        {
          "internalType": "string",
          "name": "symbol_",
          "type": "string"
        },
        {
          "internalType": "address",
          "name": "to_",
          "type": "address"
        },
        {
          "internalType": "uint256",
          "name": "amount_",
          "type": "uint256"
        }
      ],
      "name": "transferTokens",
      "outputs": [],
      "stateMutability": "nonpayable",
      "type": "function"
    },
    {
      "inputs": [
        {
          "internalType": "string",
          "name": "symbol_",
          "type": "string"
        },
        {
          "internalType": "uint256",
          "name": "liquidityAmount",
          "type": "uint256"
        }
      ],
      "name": "addLiquidity",
      "outputs": [],
      "stateMutability": "nonpayable",
      "type": "function"
    },
    {
      "inputs": [
        {
          "internalType": "string",
          "name": "symbol_",
          "type": "string"
        },
        {
          "internalType": "uint256",
          "name": "collateralAmount",
          "type": "uint256"
        }
      ],
      "name": "addCollateral",
      "outputs": [],
      "stateMutability": "nonpayable",
      "type": "function"
    },
    {
      "inputs": [],
      "name": "settle",
      "outputs": [],
      "stateMutability": "nonpayable",
      "type": "function"
    },
    {
      "inputs": [
        {
          "internalType": "uint256",
          "name": "oraclePrice",
          "type": "uint256"
        }
      ],
      "name": "payout",
      "outputs": [
        {
          "internalType": "uint256",
          "name": "",
          "type": "uint256"
        }
      ],
      "stateMutability": "view",
      "type": "function",
      "constant": true
    }
  ],
  "bytecode": "0x6080604052600a600255601e60035560006004554260058190556100249060b4610078565b6006556007805460ff19169055612710600881905560025461004591610090565b6009556009546008546100589190610078565b600a55600b805461ffff1916905534801561007257600080fd5b506100c5565b6000821982111561008b5761008b6100af565b500190565b60008160001904831182151516156100aa576100aa6100af565b500290565b634e487b7160e01b600052601160045260246000fd5b610d42806100d46000396000f3fe608060405234801561001057600080fd5b50600436106101e55760003560e01c80638d3e5f2d1161010f578063ce7c2ac2116100a2578063e115234311610071578063e115234314610388578063e488cd9f1461039b578063f10ff2de146103ae578063fc5cd246146103b6576101e5565b8063ce7c2ac21461035d578063cf30901214610370578063d27a597214610378578063d59624b414610380576101e5565b80639f4ba0ee116100de5780639f4ba0ee1461031a578063a59b2de61461032d578063afd2a01c1461034d578063c52987cf14610355576101e5565b80638d3e5f2d146102e457806391c4101c146102f75780639c2d0664146102ff5780639d4e13da14610312576101e5565b80632740728e11610187578063433ff28811610156578063433ff288146102b657806362e9fa2c146102c95780638610404c146102b657806389439c05146102d1576101e5565b80632740728e146102685780632a11ced014610288578063309818f41461029b578063432c919a146102a3576101e5565b806311da60b4116101c357806311da60b41461023d5780631bbc4b83146102455780631d0806ae1461024d5780632010b1ed14610255576101e5565b80630403aa3b146101ea5780630b098d85146102085780630ffe9d521461021d575b600080fd5b6101f26103c9565b6040516101ff9190610c70565b60405180910390f35b61021b610216366004610b74565b6103cf565b005b61023061022b366004610a55565b6103d4565b6040516101ff9190610bec565b61021b6103fa565b610230610510565b6101f261051f565b610230610263366004610b74565b610525565b61027b610276366004610a90565b61054f565b6040516101ff9190610c3d565b610230610296366004610b74565b61059a565b61027b6105b5565b61021b6102b1366004610adc565b6105be565b61021b6102c4366004610b31565b610683565b61021b610882565b6102306102df366004610b74565b6108ac565b61027b6102f2366004610a14565b6108bc565b6101f26108d1565b61021b61030d366004610b74565b6108d7565b6101f26108f5565b61021b610328366004610b74565b6108fb565b61034061033b366004610a14565b610900565b6040516101ff9190610c48565b6101f2610915565b6101f261091b565b6101f261036b366004610a14565b610921565b61027b610933565b6101f261093c565b6101f2610942565b6101f2610396366004610b74565b610948565b61021b6103a9366004610b74565b610964565b61027b610969565b61021b6103c4366004610b74565b610977565b60055481565b600255565b80516020818301810180516012825292820191909301209152546001600160a01b031681565b600454600061040882610948565b90506000601260405161041a90610bdd565b90815260405190819003602001812054600080546001600160a01b0319166001600160a01b039283169081179182905563a9059cbb60e01b84529350169063a9059cbb9061046e9033908690600401610c24565b602060405180830381600087803b15801561048857600080fd5b505af115801561049c573d6000803e3d6000fd5b505050506040513d601f19601f820116820180604052508101906104c09190610a35565b503360009081526011602052604080822091909155517f96ade0f1f5bcb55715ca55b0ec0d2a69bc3af69979945687d88827f582be382190610503908490610c79565b60405180910390a1505050565b6000546001600160a01b031681565b60035481565b600c818154811061053557600080fd5b6000918252602090912001546001600160a01b0316905081565b6000816012846040516105629190610ba4565b90815260405190819003602001902080546001600160a01b03929092166001600160a01b031990921691909117905550600192915050565b6010602052600090815260409020546001600160a01b031681565b600b5460ff1681565b60006012846040516105d09190610ba4565b90815260405190819003602001812054600080546001600160a01b0319166001600160a01b03928316908117918290556323b872dd60e01b8452935033929116906323b872dd9061062990849088908890600401610c00565b602060405180830381600087803b15801561064357600080fd5b505af1158015610657573d6000803e3d6000fd5b505050506040513d601f19601f8201168201806040525081019061067b9190610a35565b505050505050565b60006012836040516106959190610ba4565b90815260405190819003602001812054600080546001600160a01b0319166001600160a01b039283169081178083556370a0823160e01b855290945090929116906370a08231906106ea903090600401610bec565b60206040518083038186803b15801561070257600080fd5b505afa158015610716573d6000803e3d6000fd5b505050506040513d601f19601f8201168201806040525081019061073a9190610b8c565b6000546040516323b872dd60e01b81529192506001600160a01b0316906323b872dd9061076f90339030908890600401610c00565b602060405180830381600087803b15801561078957600080fd5b505af115801561079d573d6000803e3d6000fd5b505050506040513d601f19601f820116820180604052508101906107c19190610a35565b50600080546040516370a0823160e01b81526001600160a01b03909116906370a08231906107f3903090600401610bec565b60206040518083038186803b15801561080b57600080fd5b505afa15801561081f573d6000803e3d6000fd5b505050506040513d601f19601f820116820180604052508101906108439190610b8c565b905061084f8483610ca9565b81141561087b573360009081526011602052604081208054869290610875908490610ca9565b90915550505b5050505050565b60075460ff161561089c576007805460ff191690556108aa565b6007805460ff191660011790555b565b600d818154811061053557600080fd5b600e6020526000908152604090205460ff1681565b60095481565b6108e281603c610cc1565b6006546108ef9190610ca9565b60065550565b60025481565b600355565b60016020526000908152604090205460ff1681565b60085481565b60045481565b60116020526000908152604090205481565b60075460ff1681565b600a5481565b60065481565b6000600454821061095b5750601461095f565b5060505b919050565b600455565b600b54610100900460ff1681565b600855565b80356001600160a01b038116811461095f57600080fd5b600082601f8301126109a3578081fd5b813567ffffffffffffffff808211156109be576109be610cf6565b604051601f8301601f1916810160200182811182821017156109e2576109e2610cf6565b6040528281528483016020018610156109f9578384fd5b82602086016020830137918201602001929092529392505050565b600060208284031215610a25578081fd5b610a2e8261097c565b9392505050565b600060208284031215610a46578081fd5b81518015158114610a2e578182fd5b600060208284031215610a66578081fd5b813567ffffffffffffffff811115610a7c578182fd5b610a8884828501610993565b949350505050565b60008060408385031215610aa2578081fd5b823567ffffffffffffffff811115610ab8578182fd5b610ac485828601610993565b925050610ad36020840161097c565b90509250929050565b600080600060608486031215610af0578081fd5b833567ffffffffffffffff811115610b06578182fd5b610b1286828701610993565b935050610b216020850161097c565b9150604084013590509250925092565b60008060408385031215610b43578182fd5b823567ffffffffffffffff811115610b59578283fd5b610b6585828601610993565b95602094909401359450505050565b600060208284031215610b85578081fd5b5035919050565b600060208284031215610b9d578081fd5b5051919050565b60008251815b81811015610bc45760208186018101518583015201610baa565b81811115610bd25782828501525b509190910192915050565b621514d560ea1b815260030190565b6001600160a01b0391909116815260200190565b6001600160a01b039384168152919092166020820152604081019190915260600190565b6001600160a01b03929092168252602082015260400190565b901515815260200190565b6020810160028310610c6a57634e487b7160e01b600052602160045260246000fd5b91905290565b90815260200190565b908152604060208201819052600f908201526e53656e64206d6f6e6579206261636b60881b606082015260800190565b60008219821115610cbc57610cbc610ce0565b500190565b6000816000190483118215151615610cdb57610cdb610ce0565b500290565b634e487b7160e01b600052601160045260246000fd5b634e487b7160e01b600052604160045260246000fdfea26469706673582212209987ba39fd0579aa4b79a0b1ef86761ae376711016db293d476b9f4e488b8d5c64736f6c63430008000033",
  "immutableReferences": {},
  "source": "/*\nMarex SmartContract\n\nSPDX-License-Identifier: MIT\n*/\npragma solidity >=0.8.0;\n\n// import \"./finance/OptionsExchange.sol\";\n// import \"./deployment/ManagedContract.sol\";\nimport \"@openzeppelin/contracts/utils/math/SafeMath.sol\";\nimport \"@openzeppelin/contracts/token/ERC20/ERC20.sol\";\n\n\n\n// contract Marex is ManagedContract {\ncontract Marex {\n    using SafeMath for uint;\n\n    ERC20 public ERC20Interface;\n\n    enum addressType{INVESTOR, LIQUIDITY}\n    mapping (address => addressType) public providerType;\n\n    // payoutRatio de 10%\n    uint public payoutRatio = 10;\n    uint public initialPrice = 30;\n    uint public strikePrice = 0;\n\n    // Active le contract aujourd'hui\n    uint public activationDate = block.timestamp;\n    // Date de maturit  aujourd'hui + 1 minute\n    uint public maturityDate = ( activationDate + 3 minutes);\n    // Bolean to activate/deactivate the contract\n    bool public locked = false;\n\n    // Liquidit maximum du provider\n    uint public maximumLiquidity = 10000;\n    // Liquidit maximum du sender  payoutRatio * liquidit du provider\n    uint public maximumSender = maximumLiquidity * payoutRatio;\n\n    uint public maximumPayout = maximumLiquidity + maximumSender;\n\n    bool public investorLock = false;\n    bool public liquidityProviderLock = false;\n\n    // @TODO ajout/Retrait de whitelist\n    address[] public whitelistedInvestor;\n    address[] public whitelistedLiquidityProvider;\n\n    mapping (address => bool) public senderList;\n    // mapping address => fond\n    uint _totalHolders; // you should initialize this to 0 in the constructor\n    mapping (uint => address payable) public holders;\n    mapping (address => uint) public shares;\n\n    /**\n    * @dev list of all supported tokens for transfer\n    *  string token symbol\n    *  address contract address of token\n    */\n    mapping(string => address) public authorizedTokens;\n\n\n    event Test(uint event_int);\n    event Fric(uint event_int, string event_string);\n    event Log(address event_string);\n    event LogS(string event_string);\n    event MaturityEnd(uint event_uint, uint event_block);\n\n/*\n    function initialize(Deployer deployer) override internal {\n        // exchange = OptionsExchange(deployer.getContractAddress(\"OptionsExchange\"));\n    }\n*/\n\n    function setPayoutRatio(uint payout_ratio) public {\n        payoutRatio = payout_ratio;\n    }\n    function setInitialPrice(uint initial_price) public {\n        initialPrice = initial_price;\n    }\n    function setStrikePrice(uint strike_price) public {\n        strikePrice = strike_price;\n    }\n    function addMaturity(uint maturity_minute) public {\n        maturityDate = maturityDate + ( maturity_minute * 60);\n    }\n\n    function setMaximumLiquidity(uint maximum_liquidity) public {\n        maximumLiquidity = maximum_liquidity;\n    }\n\n    function switchLock() public {\n        if (locked) {locked = false;}\n        else{locked = true;}\n    }\n\n\n/*\n    function approve(string memory symbol_, address address_, uint value) public {\n        address contract_ = authorizedTokens[symbol_];\n        ERC20Interface =  ERC20(contract_);\n        ERC20Interface.approve(address_, value);\n        // ERC20Interface.approve(address(0xCD50Fcc572DB2Cf8056aa76Cb0b26812696E353c), value);\n        //ee.approve(address(exchange), msg.value);\n        emit Log(address(contract_));\n    }\n*/\n    /**\n    * @dev add address of token to list of supported tokens using\n    * token symbol as identifier in mapping\n    */\n    function addNewToken(string memory symbol_, address address_) public returns (bool) {\n        authorizedTokens[symbol_] = address_;\n        return true;\n    }\n\n    function transferTokens(string memory symbol_, address to_, uint256 amount_) public {\n        //require(tokens[symbol_] != address(0));\n        //require(amount_ > 0);\n\n        address contract_ = authorizedTokens[symbol_];\n        address from_ = msg.sender;\n\n        ERC20Interface =  ERC20(contract_);\n\n     /*   transactions.push(\n            Transfer({\n            contract_:  contract_,\n            to_: to_,\n            amount_: amount_,\n            failed_: true\n            })\n        );\n        uint256 transactionId = transactions.length;\n        transactionIndexesToSender[from_].push(transactionId - 1);\n\n        if(amount_ > ERC20Interface.allowance(from_, address(this))) {\n            emit TransferFailed(from_, to_, amount_);\n            revert();\n        }\n*/\n        ERC20Interface.transferFrom(from_, to_, amount_);\n\n        //transactions[transactionId - 1].failed_ = false;\n\n        //emit TransferSuccessful(from_, to_, amount_);\n    }\n\n    function addLiquidity(string memory symbol_, uint liquidityAmount) public {\n        // require(shares[msg.sender] + msg.value <= maximumsender, \"You can't send that much money\");\n        // require(whitelistedLiquidityProvider[msg.sender], \"You are not authorized to deposit);\n        // require(msg.value > 3, \"You can't send that much money\");\n        // Test if we reach maximumLiquidity\n\n\n        // WhiteList des liquidityProvider\n\n        address contract_ = authorizedTokens[symbol_];\n        ERC20Interface =  ERC20(contract_);\n        \n        uint previousBalance = ERC20Interface.balanceOf(address(this));\n\n        ERC20Interface.transferFrom(msg.sender, address(this), liquidityAmount);\n        \n        uint currentBalance = ERC20Interface.balanceOf(address(this));\n\n        if (currentBalance == previousBalance + liquidityAmount) {\n            shares[msg.sender] += liquidityAmount;\n        }\n\n        // Emit that an liquidity provider sent money\n        //emit Test(msg.value);\n    }\n\n    function addCollateral(string memory symbol_, uint collateralAmount) public {\n        // require(shares[msg.sender] + msg.value <= maximumsender, \"You can't send that much money\");\n        // require(whitelistedLiquidityProvider[msg.sender], \"You are not authorized to deposit);\n        // require(msg.value > 3, \"You can't send that much money\");\n        // Test if we reach maximumLiquidity\n\n\n        address contract_ = authorizedTokens[symbol_];\n        ERC20Interface =  ERC20(contract_);\n        \n        uint previousBalance = ERC20Interface.balanceOf(address(this));\n\n        ERC20Interface.transferFrom(msg.sender, address(this), collateralAmount);\n        \n        uint currentBalance = ERC20Interface.balanceOf(address(this));\n\n        if (currentBalance == previousBalance + collateralAmount) {\n            shares[msg.sender] += collateralAmount;\n        }\n\n        // Emit that an liquidity provider sent money\n        //emit Test(msg.value);\n    }\n/*\n    function associateLiquidity(string memory symbol_) public payable {\n        // require(shares[msg.sender] + msg.value <= maximumsender, \"You can't send that much money\");\n        // require(whitelistedLiquidityProvider[msg.sender], \"You are not authorized to deposit);\n        // require(msg.value > 3, \"You can't send that much money\");\n        // Test if we reach maximumLiquidity\n        shares[msg.sender] += msg.value;\n        address contract_ = authorizedTokens[symbol_];\n        ERC20Interface =  ERC20(contract_);\n        ERC20Interface.transfer(address(this), msg.value);\n        // exchange.depositTokens(address(this), address(ERC20Interface), msg.value);\n       /* \n        require(!liquidityProviderLock, \"This contract is locked for funds\");\n        if (shares[msg.sender] + msg.value > maximumLiquidity) {\n            if (msg.value >= (maximumSender - shares[msg.sender])) {\n                shares[msg.sender] += (maximumLiquidity = shares[msg.sender]);\n                msg.sender.transfer(maximumLiquidity = shares[msg.sender]);\n                liquidityProviderLock = true;\n            }\n        }else{\n            shares[msg.sender] += msg.value;\n        }\n        if(!senderList[msg.sender]) {\n            holders[_totalHolders] = msg.sender;\n            providerType[msg.sender] = addressType.LIQUIDITY;\n            senderList[msg.sender] = true;\n            _totalHolders++;\n        }*/\n        // Emit that an liquidity provider sent money\n        //emit Test(msg.value);\n    //}\n    /*\n    function associateAddress() public payable {\n        // require(shares[msg.sender] + msg.value <= maximumsender, \"You can't send that much money\");\n        // require(whitelistedInvestor[msg.sender], \"You are not authorized to deposit);\n        // require(msg.value > 3, \"You can't send that much money\");\n        // Test if we reach maximumsender\n        require(!investorLock, \"This contract is locked for funds\");\n        if (shares[msg.sender] + msg.value > maximumSender) {\n            if (msg.value >= (maximumSender - shares[msg.sender])) {\n                shares[msg.sender] += (maximumSender = shares[msg.sender]);\n                payable(msg.sender).transfer(maximumSender = shares[msg.sender]);\n                investorLock = true;\n            }\n        }else{\n            shares[msg.sender] += msg.value;\n        }\n        if(!senderList[msg.sender]) {\n            holders[_totalHolders] = payable(msg.sender);\n            providerType[msg.sender] = addressType.INVESTOR;\n            senderList[msg.sender] = true;\n            _totalHolders++;\n        }\n        // Emit that an investors sent money\n        emit Test(msg.value);\n    }\n*/\n    function settle() public {\n        // Check maturity requirements\n        // require(block.timestamp >= maturityDate, \"This is not the right time\");\n        // require(shares[msg.sender] > 0, \"Participant balance is 0\");\n        // require(!locked, \"This Contract is still locked\");\n\n        // Check oracle price\n        uint oraclePrice = strikePrice;\n\n        // Compute payout function ratio on all shares\n        // uint participantShares = shares[msg.sender];\n        uint settleAmount = payout(oraclePrice);\n\n        // Check if sum of all balances is okay compared to fund locked in the contract\n        // and be sure that debt are cleansed and balance ajusted\n\n        // Send back payout\n        address contract_ = authorizedTokens[\"TST\"];\n        ERC20Interface =  ERC20(contract_);\n        ERC20Interface.transfer(msg.sender, settleAmount);\n\n        shares[msg.sender] = 0;\n        \n        // Emit the event \n        emit Fric(settleAmount, \"Send money back\");\n\n\n        /*\n        // Use the PayoutRatio Function\n        if (settleAmount > 0) {\n            shares[msg.sender] -= settleAmount;\n            if(senderList[msg.sender]) {\n                holders[_totalHolders] = address(0);\n                senderList[msg.sender] = false;\n                _totalHolders--;\n            }\n        }\n        msg.sender.transfer(settleAmount);\n\n        */\n        // exchange.withdrawTokens(settleAmount);\n    }\n\n    /*\n    function withdraw() public returns (bool) {\n        // It is important to set this to zero because the recipient\n        // can call this function again as part of the receiving call\n        // before `send` returns.\n        pendingReturns[msg.sender] = 0;\n\n        if (!msg.sender.send(amount)) {\n            // No need to call throw here, just reset the amount owing\n            pendingReturns[msg.sender] = amount;\n            return false;\n        }\n        return true;\n    }*/\n\n    function payout(uint oraclePrice) public view returns(uint) {\n        if (oraclePrice >= strikePrice) {\n            // return maximumPayout;\n            return 20;\n        }\n        // return (maximumPayout * oraclePrice / initialPrice);\n        return 80;\n\n    }\n/*\n    function maturityEnd() public {\n        // Conditions\n\n        require(block.timestamp >= maturityDate, \"Maturity not yet ended.\");\n        require(!locked, \"Maturity has already been called.\");\n\n        locked = true;\n        emit MaturityEnd(strikePrice, block.timestamp);\n\n        uint _shares;\n        for(uint i = 0 ; i<_totalHolders; i++) {\n            _shares = shares[holders[i]];\n            holders[i].transfer(_shares);\n        }\n    }*/\n}\n",
  "sourcePath": "/home/rems/block/lol/contracts/Marex.sol",
  "compiler": {
    "name": "solc",
    "version": "0.8.0+commit.c7dfd78e.Emscripten.clang"
  },
  "schemaVersion": "3.4.0",
  "updatedAt": "2021-05-24T19:03:24.968Z",
  "networkType": "ethereum",
  "devdoc": {
    "kind": "dev",
    "methods": {
      "addNewToken(string,address)": {
        "details": "add address of token to list of supported tokens using token symbol as identifier in mapping"
      }
    },
    "stateVariables": {
      "authorizedTokens": {
        "details": "list of all supported tokens for transfer  string token symbol  address contract address of token"
      }
    },
    "version": 1
  },
  "userdoc": {
    "kind": "user",
    "methods": {},
    "version": 1
  }
}