{
  "contractName": "Marex",
  "abi": [
    {
      "inputs": [
        {
          "internalType": "address",
          "name": "farmTokenAddress",
          "type": "address"
        },
        {
          "internalType": "address",
          "name": "testCoinAddress",
          "type": "address"
        }
      ],
      "stateMutability": "nonpayable",
      "type": "constructor"
    },
    {
      "anonymous": false,
      "inputs": [
        {
          "indexed": false,
          "internalType": "uint256",
          "name": "event_int",
          "type": "uint256"
        },
        {
          "indexed": false,
          "internalType": "string",
          "name": "event_string",
          "type": "string"
        }
      ],
      "name": "Fric",
      "type": "event"
    },
    {
      "anonymous": false,
      "inputs": [
        {
          "indexed": false,
          "internalType": "address",
          "name": "event_string",
          "type": "address"
        }
      ],
      "name": "Log",
      "type": "event"
    },
    {
      "anonymous": false,
      "inputs": [
        {
          "indexed": false,
          "internalType": "string",
          "name": "event_string",
          "type": "string"
        }
      ],
      "name": "LogS",
      "type": "event"
    },
    {
      "anonymous": false,
      "inputs": [
        {
          "indexed": false,
          "internalType": "uint256",
          "name": "event_uint",
          "type": "uint256"
        },
        {
          "indexed": false,
          "internalType": "uint256",
          "name": "event_block",
          "type": "uint256"
        }
      ],
      "name": "MaturityEnd",
      "type": "event"
    },
    {
      "anonymous": false,
      "inputs": [
        {
          "indexed": false,
          "internalType": "uint256",
          "name": "event_int",
          "type": "uint256"
        }
      ],
      "name": "Test",
      "type": "event"
    },
    {
      "inputs": [],
      "name": "ERC20Interface",
      "outputs": [
        {
          "internalType": "contract IERC20",
          "name": "",
          "type": "address"
        }
      ],
      "stateMutability": "view",
      "type": "function",
      "constant": true
    },
    {
      "inputs": [],
      "name": "_farmtoken",
      "outputs": [
        {
          "internalType": "contract FarmToken",
          "name": "",
          "type": "address"
        }
      ],
      "stateMutability": "view",
      "type": "function",
      "constant": true
    },
    {
      "inputs": [],
      "name": "_testcoin",
      "outputs": [
        {
          "internalType": "contract TestCoin",
          "name": "",
          "type": "address"
        }
      ],
      "stateMutability": "view",
      "type": "function",
      "constant": true
    },
    {
      "inputs": [],
      "name": "activationDate",
      "outputs": [
        {
          "internalType": "uint256",
          "name": "",
          "type": "uint256"
        }
      ],
      "stateMutability": "view",
      "type": "function",
      "constant": true
    },
    {
      "inputs": [],
      "name": "adminShares",
      "outputs": [
        {
          "internalType": "uint256",
          "name": "",
          "type": "uint256"
        }
      ],
      "stateMutability": "view",
      "type": "function",
      "constant": true
    },
    {
      "inputs": [
        {
          "internalType": "address",
          "name": "",
          "type": "address"
        }
      ],
      "name": "adminWhitelist",
      "outputs": [
        {
          "internalType": "bool",
          "name": "",
          "type": "bool"
        }
      ],
      "stateMutability": "view",
      "type": "function",
      "constant": true
    },
    {
      "inputs": [
        {
          "internalType": "string",
          "name": "",
          "type": "string"
        }
      ],
      "name": "authorizedTokens",
      "outputs": [
        {
          "internalType": "address",
          "name": "",
          "type": "address"
        }
      ],
      "stateMutability": "view",
      "type": "function",
      "constant": true
    },
    {
      "inputs": [],
      "name": "clientShares",
      "outputs": [
        {
          "internalType": "uint256",
          "name": "",
          "type": "uint256"
        }
      ],
      "stateMutability": "view",
      "type": "function",
      "constant": true
    },
    {
      "inputs": [
        {
          "internalType": "address",
          "name": "",
          "type": "address"
        }
      ],
      "name": "clientWhitelist",
      "outputs": [
        {
          "internalType": "bool",
          "name": "",
          "type": "bool"
        }
      ],
      "stateMutability": "view",
      "type": "function",
      "constant": true
    },
    {
      "inputs": [],
      "name": "earlyRedemptionSharesNumber",
      "outputs": [
        {
          "internalType": "uint256",
          "name": "",
          "type": "uint256"
        }
      ],
      "stateMutability": "view",
      "type": "function",
      "constant": true
    },
    {
      "inputs": [],
      "name": "initialFixing",
      "outputs": [
        {
          "internalType": "uint256",
          "name": "",
          "type": "uint256"
        }
      ],
      "stateMutability": "view",
      "type": "function",
      "constant": true
    },
    {
      "inputs": [],
      "name": "locked",
      "outputs": [
        {
          "internalType": "bool",
          "name": "",
          "type": "bool"
        }
      ],
      "stateMutability": "view",
      "type": "function",
      "constant": true
    },
    {
      "inputs": [],
      "name": "maturityDate",
      "outputs": [
        {
          "internalType": "uint256",
          "name": "",
          "type": "uint256"
        }
      ],
      "stateMutability": "view",
      "type": "function",
      "constant": true
    },
    {
      "inputs": [],
      "name": "maximumLiquidity",
      "outputs": [
        {
          "internalType": "uint256",
          "name": "",
          "type": "uint256"
        }
      ],
      "stateMutability": "view",
      "type": "function",
      "constant": true
    },
    {
      "inputs": [],
      "name": "maximumNotional",
      "outputs": [
        {
          "internalType": "uint256",
          "name": "",
          "type": "uint256"
        }
      ],
      "stateMutability": "view",
      "type": "function",
      "constant": true
    },
    {
      "inputs": [],
      "name": "maximumRedemption",
      "outputs": [
        {
          "internalType": "uint256",
          "name": "",
          "type": "uint256"
        }
      ],
      "stateMutability": "view",
      "type": "function",
      "constant": true
    },
    {
      "inputs": [],
      "name": "payoutRatio",
      "outputs": [
        {
          "internalType": "uint256",
          "name": "",
          "type": "uint256"
        }
      ],
      "stateMutability": "view",
      "type": "function",
      "constant": true
    },
    {
      "inputs": [
        {
          "internalType": "address",
          "name": "",
          "type": "address"
        }
      ],
      "name": "shares",
      "outputs": [
        {
          "internalType": "uint256",
          "name": "",
          "type": "uint256"
        }
      ],
      "stateMutability": "view",
      "type": "function",
      "constant": true
    },
    {
      "inputs": [],
      "name": "strikePrice",
      "outputs": [
        {
          "internalType": "uint256",
          "name": "",
          "type": "uint256"
        }
      ],
      "stateMutability": "view",
      "type": "function",
      "constant": true
    },
    {
      "inputs": [
        {
          "internalType": "address",
          "name": "_address",
          "type": "address"
        }
      ],
      "name": "addClient",
      "outputs": [],
      "stateMutability": "nonpayable",
      "type": "function"
    },
    {
      "inputs": [
        {
          "internalType": "address",
          "name": "_address",
          "type": "address"
        }
      ],
      "name": "addAdmin",
      "outputs": [],
      "stateMutability": "nonpayable",
      "type": "function"
    },
    {
      "inputs": [
        {
          "internalType": "uint256",
          "name": "payout_ratio",
          "type": "uint256"
        }
      ],
      "name": "setPayoutRatio",
      "outputs": [],
      "stateMutability": "nonpayable",
      "type": "function"
    },
    {
      "inputs": [
        {
          "internalType": "uint256",
          "name": "initial_price",
          "type": "uint256"
        }
      ],
      "name": "setInitialPrice",
      "outputs": [],
      "stateMutability": "nonpayable",
      "type": "function"
    },
    {
      "inputs": [
        {
          "internalType": "uint256",
          "name": "strike_price",
          "type": "uint256"
        }
      ],
      "name": "setStrikePrice",
      "outputs": [],
      "stateMutability": "nonpayable",
      "type": "function"
    },
    {
      "inputs": [
        {
          "internalType": "uint256",
          "name": "maturity_minute",
          "type": "uint256"
        }
      ],
      "name": "addMaturity",
      "outputs": [],
      "stateMutability": "nonpayable",
      "type": "function"
    },
    {
      "inputs": [
        {
          "internalType": "uint256",
          "name": "maximum_liquidity",
          "type": "uint256"
        }
      ],
      "name": "setMaximumLiquidity",
      "outputs": [],
      "stateMutability": "nonpayable",
      "type": "function"
    },
    {
      "inputs": [
        {
          "internalType": "uint256",
          "name": "maximum_notional",
          "type": "uint256"
        }
      ],
      "name": "setMaximumNotional",
      "outputs": [],
      "stateMutability": "nonpayable",
      "type": "function"
    },
    {
      "inputs": [
        {
          "internalType": "uint256",
          "name": "shares_number",
          "type": "uint256"
        }
      ],
      "name": "setEarlyRedemptionSharesNumber",
      "outputs": [],
      "stateMutability": "nonpayable",
      "type": "function"
    },
    {
      "inputs": [],
      "name": "switchLock",
      "outputs": [],
      "stateMutability": "nonpayable",
      "type": "function"
    },
    {
      "inputs": [
        {
          "internalType": "string",
          "name": "symbol_",
          "type": "string"
        },
        {
          "internalType": "address",
          "name": "address_",
          "type": "address"
        }
      ],
      "name": "addNewToken",
      "outputs": [
        {
          "internalType": "bool",
          "name": "",
          "type": "bool"
        }
      ],
      "stateMutability": "nonpayable",
      "type": "function"
    },
    {
      "inputs": [
        {
          "internalType": "uint256",
          "name": "finalFixing",
          "type": "uint256"
        }
      ],
      "name": "adminPayout",
      "outputs": [
        {
          "internalType": "uint256",
          "name": "",
          "type": "uint256"
        }
      ],
      "stateMutability": "view",
      "type": "function",
      "constant": true
    },
    {
      "inputs": [
        {
          "internalType": "uint256",
          "name": "finalFixing",
          "type": "uint256"
        },
        {
          "internalType": "uint256",
          "name": "notional",
          "type": "uint256"
        }
      ],
      "name": "payout",
      "outputs": [
        {
          "internalType": "uint256",
          "name": "",
          "type": "uint256"
        }
      ],
      "stateMutability": "view",
      "type": "function",
      "constant": true
    },
    {
      "inputs": [
        {
          "internalType": "string",
          "name": "symbol_",
          "type": "string"
        },
        {
          "internalType": "uint256",
          "name": "liquidityAmount",
          "type": "uint256"
        }
      ],
      "name": "addLiquidity",
      "outputs": [],
      "stateMutability": "nonpayable",
      "type": "function"
    },
    {
      "inputs": [
        {
          "internalType": "string",
          "name": "symbol_",
          "type": "string"
        },
        {
          "internalType": "uint256",
          "name": "notionalAmount",
          "type": "uint256"
        }
      ],
      "name": "addNotional",
      "outputs": [],
      "stateMutability": "nonpayable",
      "type": "function"
    },
    {
      "inputs": [
        {
          "internalType": "uint256",
          "name": "sharesAmount",
          "type": "uint256"
        }
      ],
      "name": "settle",
      "outputs": [],
      "stateMutability": "nonpayable",
      "type": "function"
    },
    {
      "inputs": [
        {
          "internalType": "uint256",
          "name": "lpTokenAmount",
          "type": "uint256"
        }
      ],
      "name": "withdrawNotional",
      "outputs": [],
      "stateMutability": "nonpayable",
      "type": "function"
    },
    {
      "inputs": [
        {
          "internalType": "uint256",
          "name": "lpTokenAmount",
          "type": "uint256"
        }
      ],
      "name": "withdrawLiquidity",
      "outputs": [],
      "stateMutability": "nonpayable",
      "type": "function"
    }
  ],
  "bytecode": "0x6080604052600a600355601e6004556000600555426006819055620000269060b4620001ef565b6007556008805460ff19169055600a600981905560035462000048916200020a565b600a55600a546009546200005d9190620001ef565b600b55600a600c55600060105560006011553480156200007c57600080fd5b5060405162001aee38038062001aee8339810160408190526200009f9162000176565b600180546001600160a01b038085166001600160a01b031992831617909255600280548484169216919091179081905560405163095ea7b360e01b815291169063095ea7b390620000fa908590620f424090600401620001d6565b602060405180830381600087803b1580156200011557600080fd5b505af11580156200012a573d6000803e3d6000fd5b505050506040513d601f19601f82011682018060405250810190620001509190620001ad565b50505062000242565b80516001600160a01b03811681146200017157600080fd5b919050565b6000806040838503121562000189578182fd5b620001948362000159565b9150620001a46020840162000159565b90509250929050565b600060208284031215620001bf578081fd5b81518015158114620001cf578182fd5b9392505050565b6001600160a01b03929092168252602082015260400190565b600082198211156200020557620002056200022c565b500190565b60008160001904831182151516156200022757620002276200022c565b500290565b634e487b7160e01b600052601160045260246000fd5b61189c80620002526000396000f3fe608060405234801561001057600080fd5b50600436106102275760003560e01c8063740e1cca11610130578063b9487330116100b8578063e488cd9f1161007c578063e488cd9f14610419578063f93881a71461042c578063fa53060f14610434578063fc3fdb6f14610447578063fc5cd2461461044757610227565b8063b9487330146103db578063c52987cf146103ee578063ce7c2ac2146103f6578063cf30901214610409578063d59624b41461041157610227565b80639c2d0664116100ff5780639c2d0664146103925780639d4e13da146103a55780639f4ba0ee146103ad578063ac12319d146103c0578063afd2a01c146103d357610227565b8063740e1cca1461035c5780638b24dc39146103645780638df828001461037757806396099fd61461038a57610227565b80632740728e116101b357806343e20a1d1161018257806343e20a1d1461031357806344a0b085146103265780635aa6cf971461032e57806362e9fa2c14610341578063704802751461034957610227565b80632740728e146102c557806331932a4d146102e5578063433ff288146102ed57806343928cfd1461030057610227565b80630ffe9d52116101fa5780630ffe9d521461027a5780631a3f3f081461029a5780631bbc4b83146102ad5780631ffca242146102b557806325e73303146102bd57610227565b806303dcd9cc1461022c5780630403aa3b1461024a5780630a861f2a146102525780630b098d8514610267575b600080fd5b61023461045a565b6040516102419190611793565b60405180910390f35b610234610460565b6102656102603660046115a2565b610466565b005b6102656102753660046115a2565b610892565b61028d6102883660046114d8565b610897565b604051610241919061163b565b6102656102a83660046115a2565b6108bd565b61028d610aa4565b61028d610ab3565b610234610ac2565b6102d86102d3366004611513565b610ac8565b604051610241919061168c565b610234610b14565b6102656102fb36600461155f565b610b1a565b61026561030e36600461149e565b610d7d565b6102d861032136600461149e565b610da1565b610234610db6565b61023461033c3660046115d2565b610dbc565b610265610dfb565b61026561035736600461149e565b610e25565b61028d610e49565b6102656103723660046115a2565b610e58565b6102656103853660046115a2565b610e5d565b6102346110d2565b6102656103a03660046115a2565b6110d8565b6102346110f6565b6102656103bb3660046115a2565b6110fc565b6102346103ce3660046115a2565b611101565b610234611151565b6102d86103e936600461149e565b611157565b61023461116c565b61023461040436600461149e565b611172565b6102d8611184565b61023461118d565b6102656104273660046115a2565b611193565b610234611198565b61026561044236600461155f565b61119e565b6102656104553660046115a2565b611401565b600b5481565b60065481565b336000908152600e602052604090205460ff1661049e5760405162461bcd60e51b815260040161049590611731565b60405180910390fd5b6010546011546104ae91906117cc565b811415610663576001546040516323b872dd60e01b81526001600160a01b03909116906323b872dd906104e99033903090869060040161164f565b602060405180830381600087803b15801561050357600080fd5b505af1158015610517573d6000803e3d6000fd5b505050506040513d601f19601f8201168201806040525081019061053b91906114b8565b50600154604051632e1a7d4d60e01b81526001600160a01b0390911690632e1a7d4d9061056c908490600401611793565b602060405180830381600087803b15801561058657600080fd5b505af115801561059a573d6000803e3d6000fd5b505050506040513d601f19601f820116820180604052508101906105be91906115ba565b50336000818152600f6020526040808220829055601182905560108290559054600b54915163a9059cbb60e01b81526001600160a01b039091169263a9059cbb9261060b92600401611673565b602060405180830381600087803b15801561062557600080fd5b505af1158015610639573d6000803e3d6000fd5b505050506040513d601f19601f8201168201806040525081019061065d91906114b8565b5061088f565b6007544210156106855760405162461bcd60e51b8152600401610495906116c3565b6001546040516323b872dd60e01b81526001600160a01b03909116906323b872dd906106b99033903090869060040161164f565b602060405180830381600087803b1580156106d357600080fd5b505af11580156106e7573d6000803e3d6000fd5b505050506040513d601f19601f8201168201806040525081019061070b91906114b8565b50600154604051632e1a7d4d60e01b81526000916001600160a01b031690632e1a7d4d9061073d908590600401611793565b602060405180830381600087803b15801561075757600080fd5b505af115801561076b573d6000803e3d6000fd5b505050506040513d601f19601f8201168201806040525081019061078f91906115ba565b60055490915060006107a082611101565b336000908152600f60205260409020546064906107be908690611823565b6107c891906117e4565b6107d3906001611823565b6107dd9190611804565b336000908152600f6020526040812080549293508592909190610801908490611823565b909155505060005460405163a9059cbb60e01b81526001600160a01b039091169063a9059cbb906108389033908590600401611673565b602060405180830381600087803b15801561085257600080fd5b505af1158015610866573d6000803e3d6000fd5b505050506040513d601f19601f8201168201806040525081019061088a91906114b8565b505050505b50565b600355565b80516020818301810180516012825292820191909301209152546001600160a01b031681565b336000908152600d602052604090205460ff166108ec5760405162461bcd60e51b815260040161049590611731565b60075442101561090e5760405162461bcd60e51b8152600401610495906116c3565b6001546040516323b872dd60e01b81526001600160a01b03909116906323b872dd906109429033903090869060040161164f565b602060405180830381600087803b15801561095c57600080fd5b505af1158015610970573d6000803e3d6000fd5b505050506040513d601f19601f8201168201806040525081019061099491906114b8565b50600154604051632e1a7d4d60e01b81526000916001600160a01b031690632e1a7d4d906109c6908590600401611793565b602060405180830381600087803b1580156109e057600080fd5b505af11580156109f4573d6000803e3d6000fd5b505050506040513d601f19601f82011682018060405250810190610a1891906115ba565b6005549091506000610a2a8284610dbc565b336000908152600f6020526040902054606490610a48908690611823565b610a5291906117e4565b610a5d906001611823565b610a679190611804565b336000908152600f6020526040812080549293508592909190610a8b908490611823565b9250508190555082601160008282546108019190611823565b6000546001600160a01b031681565b6002546001600160a01b031681565b600a5481565b600081601284604051610adb91906115f3565b90815260405190819003602001902080546001600160a01b03929092166001600160a01b03199092169190911790555060015b92915050565b600c5481565b336000908152600e602052604090205460ff16610b495760405162461bcd60e51b8152600401610495906116fa565b60095481601054610b5a91906117cc565b1115610b785760405162461bcd60e51b815260040161049590611697565b6000601283604051610b8a91906115f3565b90815260405190819003602001812054600080546001600160a01b0319166001600160a01b03928316908117918290556323b872dd60e01b8452935016906323b872dd90610be09033903090879060040161164f565b602060405180830381600087803b158015610bfa57600080fd5b505af1158015610c0e573d6000803e3d6000fd5b505050506040513d601f19601f82011682018060405250810190610c3291906114b8565b5060015460405163b6b55f2560e01b81526001600160a01b039091169063b6b55f2590610c63908590600401611793565b602060405180830381600087803b158015610c7d57600080fd5b505af1158015610c91573d6000803e3d6000fd5b505050506040513d601f19601f82011682018060405250810190610cb591906115ba565b5060015460405163a9059cbb60e01b81526001600160a01b039091169063a9059cbb90610ce89033908690600401611673565b602060405180830381600087803b158015610d0257600080fd5b505af1158015610d16573d6000803e3d6000fd5b505050506040513d601f19601f82011682018060405250810190610d3a91906114b8565b50336000908152600f602052604081208054849290610d5a9084906117cc565b925050819055508160106000828254610d7391906117cc565b9091555050505050565b6001600160a01b03166000908152600d60205260409020805460ff19166001179055565b600e6020526000908152604090205460ff1681565b60045481565b60006005548310610dd05750600b54610b0e565b600954600454610de090856117e4565b610dea9084611804565b610df491906117cc565b9392505050565b60085460ff1615610e15576008805460ff19169055610e23565b6008805460ff191660011790555b565b6001600160a01b03166000908152600e60205260409020805460ff19166001179055565b6001546001600160a01b031681565b600c55565b60006012604051610e6d9061162c565b90815260405190819003602001902054600080546001600160a01b0319166001600160a01b039092169182179055600754909150421015610ec05760405162461bcd60e51b8152600401610495906116c3565b6005546001546040516323b872dd60e01b8152849182916001600160a01b03909116906323b872dd90610efb9033903090869060040161164f565b602060405180830381600087803b158015610f1557600080fd5b505af1158015610f29573d6000803e3d6000fd5b505050506040513d601f19601f82011682018060405250810190610f4d91906114b8565b50600154604051632e1a7d4d60e01b81526001600160a01b0390911690632e1a7d4d90610f7e908890600401611793565b602060405180830381600087803b158015610f9857600080fd5b505af1158015610fac573d6000803e3d6000fd5b505050506040513d601f19601f82011682018060405250810190610fd091906115ba565b5060005460405163a9059cbb60e01b81526001600160a01b039091169063a9059cbb906110039033908590600401611673565b602060405180830381600087803b15801561101d57600080fd5b505af1158015611031573d6000803e3d6000fd5b505050506040513d601f19601f8201168201806040525081019061105591906114b8565b50336000908152600f602052604081208054879290611075908490611823565b92505081905550846011600082825461108e9190611823565b90915550506040517f96ade0f1f5bcb55715ca55b0ec0d2a69bc3af69979945687d88827f582be3821906110c390839061179c565b60405180910390a15050505050565b60115481565b6110e381603c611804565b6007546110f091906117cc565b60075550565b60035481565b600455565b60006005548210156111485760095460045461111d90846117e4565b60115461112a9190611804565b61113491906117cc565b600b546111419190611823565b905061114c565b5060005b919050565b60095481565b600d6020526000908152604090205460ff1681565b60055481565b600f6020526000908152604090205481565b60085460ff1681565b60075481565b600555565b60105481565b336000908152600d602052604090205460ff166111cd5760405162461bcd60e51b815260040161049590611731565b600a54816011546111de91906117cc565b11156111fc5760405162461bcd60e51b815260040161049590611768565b600060128360405161120e91906115f3565b90815260405190819003602001812054600080546001600160a01b0319166001600160a01b03928316908117918290556323b872dd60e01b8452935016906323b872dd906112649033903090879060040161164f565b602060405180830381600087803b15801561127e57600080fd5b505af1158015611292573d6000803e3d6000fd5b505050506040513d601f19601f820116820180604052508101906112b691906114b8565b50336000908152600f6020526040812080548492906112d69084906117cc565b9250508190555081601160008282546112ef91906117cc565b909155505060015460405163b6b55f2560e01b81526001600160a01b039091169063b6b55f2590611324908590600401611793565b602060405180830381600087803b15801561133e57600080fd5b505af1158015611352573d6000803e3d6000fd5b505050506040513d601f19601f8201168201806040525081019061137691906115ba565b5060015460405163a9059cbb60e01b81526001600160a01b039091169063a9059cbb906113a99033908690600401611673565b602060405180830381600087803b1580156113c357600080fd5b505af11580156113d7573d6000803e3d6000fd5b505050506040513d601f19601f820116820180604052508101906113fb91906114b8565b50505050565b600955565b80356001600160a01b038116811461114c57600080fd5b600082601f83011261142d578081fd5b813567ffffffffffffffff8082111561144857611448611850565b604051601f8301601f19168101602001828111828210171561146c5761146c611850565b604052828152848301602001861015611483578384fd5b82602086016020830137918201602001929092529392505050565b6000602082840312156114af578081fd5b610df482611406565b6000602082840312156114c9578081fd5b81518015158114610df4578182fd5b6000602082840312156114e9578081fd5b813567ffffffffffffffff8111156114ff578182fd5b61150b8482850161141d565b949350505050565b60008060408385031215611525578081fd5b823567ffffffffffffffff81111561153b578182fd5b6115478582860161141d565b92505061155660208401611406565b90509250929050565b60008060408385031215611571578182fd5b823567ffffffffffffffff811115611587578283fd5b6115938582860161141d565b95602094909401359450505050565b6000602082840312156115b3578081fd5b5035919050565b6000602082840312156115cb578081fd5b5051919050565b600080604083850312156115e4578182fd5b50508035926020909101359150565b60008251815b8181101561161357602081860181015185830152016115f9565b818111156116215782828501525b509190910192915050565b621514d560ea1b815260030190565b6001600160a01b0391909116815260200190565b6001600160a01b039384168152919092166020820152604081019190915260600190565b6001600160a01b03929092168252602082015260400190565b901515815260200190565b602080825260129082015271546f6f206d616e79206c697175696469747960701b604082015260600190565b6020808252601d908201527f4d617475726974792064617465206e6f74207265616368656420796574000000604082015260600190565b6020808252601b908201527f596f75277265206e6f7420616e20616c6c6f7765642061646d696e0000000000604082015260600190565b6020808252601c908201527f596f75277265206e6f7420616e20616c6c6f77656420636c69656e7400000000604082015260600190565b602080825260119082015270151bdbc81b585b9e48139bdd1a5bdb985b607a1b604082015260600190565b90815260200190565b908152604060208201819052600f908201526e53656e64206d6f6e6579206261636b60881b606082015260800190565b600082198211156117df576117df61183a565b500190565b6000826117ff57634e487b7160e01b81526012600452602481fd5b500490565b600081600019048311821515161561181e5761181e61183a565b500290565b6000828210156118355761183561183a565b500390565b634e487b7160e01b600052601160045260246000fd5b634e487b7160e01b600052604160045260246000fdfea2646970667358221220ebcec679498ed14d7dd16c13a9c5b5f531173d34c73847dc09386b47e2b1cc6264736f6c63430008000033",
  "immutableReferences": {},
  "source": "/*\nMarex SmartContract\n\nSPDX-License-Identifier: MIT\n*/\npragma solidity >=0.8.0;\n\n// import \"./deployment/ManagedContract.sol\";\nimport \"@openzeppelin/contracts/utils/math/SafeMath.sol\";\nimport \"@openzeppelin/contracts/token/ERC20/ERC20.sol\";\nimport \"./finance/FarmToken.sol\";\nimport \"./finance/TestCoin.sol\";\n\n\n// contract Marex is ManagedContract {\ncontract Marex {\n    using SafeMath for uint;\n\n    IERC20 public ERC20Interface;\n    FarmToken public _farmtoken;\n    TestCoin public _testcoin;\n\n    /*\n    enum addressType{INVESTOR, LIQUIDITY}\n    mapping (address => addressType) public providerType;\n    */\n\n    // payoutRatio de 10%\n    uint public payoutRatio = 10;\n    uint public initialFixing = 30;\n    uint public strikePrice = 0;\n\n    // Active le contract aujourd'hui\n    uint public activationDate = block.timestamp;\n    // Date de maturit  aujourd'hui + 1 minute\n    uint public maturityDate = ( activationDate + 3 minutes);\n    // Bolean to activate/deactivate the contract\n    bool public locked = false;\n\n    // Liquidit maximum du provider\n    uint public maximumLiquidity = 10;\n    // Liquidit maximum du sender  payoutRatio * liquidit du provider\n    uint public maximumNotional = maximumLiquidity * payoutRatio;\n    uint public maximumRedemption = maximumLiquidity + maximumNotional;\n\n    // Number of shares required to withdrawn before the maturity has been reached\n    uint public earlyRedemptionSharesNumber = 10;\n\n    // For multiple liquidity providers\n    // uint public maximumDenomination = maximumLiquidity + maximumNotional;\n    // uint public maximumIssuanceSize = maximumDenomination + maximumNotional;\n\n    // @TODO ajout/Retrait de whitelist\n    mapping(address => bool) public clientWhitelist;\n    mapping(address => bool) public adminWhitelist;\n\n    // mapping address => fond\n    mapping (address => uint) public shares;\n\n    uint public adminShares = 0;\n    uint public clientShares = 0;\n\n    /**\n    * @dev list of all supported tokens for transfer\n    *  string token symbol\n    *  address contract address of token\n    */\n    mapping(string => address) public authorizedTokens;\n\n\n    event Test(uint event_int);\n    event Fric(uint event_int, string event_string);\n    event Log(address event_string);\n    event LogS(string event_string);\n    event MaturityEnd(uint event_uint, uint event_block);\n\n    constructor(address farmTokenAddress, address testCoinAddress) {\n        _farmtoken = FarmToken(farmTokenAddress);\n        _testcoin = TestCoin(testCoinAddress);\n        // _farmtoken.approve(farmTokenAddress, 1000000);\n        _testcoin.approve(farmTokenAddress, 1000000);\n    }\n    /*\n    function initialize(Deployer deployer) override internal {\n        // exchange = OptionsExchange(deployer.getContractAddress(\"OptionsExchange\"));\n    }\n    */\n    function addClient(address _address) public {\n        clientWhitelist[_address] = true;\n    }\n    function addAdmin(address _address) public {\n        adminWhitelist[_address] = true;\n    }\n\n    function setPayoutRatio(uint payout_ratio) public {\n        payoutRatio = payout_ratio;\n    }\n    function setInitialPrice(uint initial_price) public {\n        initialFixing = initial_price;\n    }\n    function setStrikePrice(uint strike_price) public {\n        strikePrice = strike_price;\n    }\n    function addMaturity(uint maturity_minute) public {\n        maturityDate = maturityDate + ( maturity_minute * 60);\n    }\n    function setMaximumLiquidity(uint maximum_liquidity) public {\n        maximumLiquidity = maximum_liquidity;\n    }\n    function setMaximumNotional(uint maximum_notional) public {\n        maximumLiquidity = maximum_notional;\n    }\n    function setEarlyRedemptionSharesNumber(uint shares_number) public {\n        earlyRedemptionSharesNumber = shares_number;\n    }\n\n    function switchLock() public {\n        if (locked) {locked = false;}\n        else{locked = true;}\n    }\n\n    function addNewToken(string memory symbol_, address address_) public returns (bool) {\n        authorizedTokens[symbol_] = address_;\n        return true;\n    }\n\n    function adminPayout(uint finalFixing) public view returns(uint) {\n        if (finalFixing < strikePrice) {\n            return maximumRedemption - (clientShares * (finalFixing / initialFixing) + maximumLiquidity);\n        }\n        return 0;\n\n    }\n    function payout(uint finalFixing, uint notional) public view returns(uint) {\n        if (finalFixing >= strikePrice) {\n            return maximumRedemption;\n        }\n        return notional * (finalFixing / initialFixing) + maximumLiquidity;\n\n    }\n\n    function addLiquidity(string memory symbol_, uint liquidityAmount) public {\n        // require(shares[msg.sender] + msg.value <= maximumsender, \"You can't send that much money\");\n        // require(whitelistedLiquidityProvider[msg.sender], \"You are not authorized to deposit);\n        // require(msg.value > 3, \"You can't send that much money\");\n        // Test if we reach maximumLiquidity\n\n\n        // LiquidityProvider Whitelist\n        // require(adminWhitelist[msg.sender].exists, \"You are not an authorized admin\");\n        require(adminWhitelist[msg.sender], \"You're not an allowed admin\");\n\n        require(adminShares + liquidityAmount <= maximumLiquidity, \"Too many liquidity\");\n\n\n        address contract_ = authorizedTokens[symbol_];\n        ERC20Interface =  ERC20(contract_);\n\n        ERC20Interface.transferFrom(msg.sender, address(this), liquidityAmount);\n        _farmtoken.deposit(liquidityAmount);        \n        // Conversion Ratio ?\n        _farmtoken.transfer(msg.sender, liquidityAmount);\n        \n        shares[msg.sender] += liquidityAmount;\n        adminShares += liquidityAmount;\n        /*if (currentBalance == previousBalance + liquidityAmount) {\n        }*/\n\n        // Emit that an liquidity provider sent money\n        //emit Test(msg.value);\n    }\n\n    function addNotional(string memory symbol_, uint notionalAmount) public {\n        // require(shares[msg.sender] + msg.value <= maximumsender, \"You can't send that much money\");\n        // require(whitelistedLiquidityProvider[msg.sender], \"You are not authorized to deposit);\n        // require(msg.value > 3, \"You can't send that much money\");\n        // Test if we reach maximumLiquidity\n        \n        // Client Whitelist\n        // require(clientWhitelist[msg.sender].exists, \"You are not an authorized client\");\n\n        require(clientWhitelist[msg.sender], \"You're not an allowed client\");\n        require(clientShares + notionalAmount <= maximumNotional, \"Too many Notional\");\n\n\n\n        address contract_ = authorizedTokens[symbol_];\n        ERC20Interface =  ERC20(contract_);\n        \n        ERC20Interface.transferFrom(msg.sender, address(this), notionalAmount);\n\n        shares[msg.sender] += notionalAmount;\n        clientShares += notionalAmount;\n            // Conversion Ratio ?\n        _farmtoken.deposit(notionalAmount);\n        _farmtoken.transfer(msg.sender, notionalAmount);\n\n        // Emit that an liquidity provider sent money\n        //emit Test(msg.value);\n    }\n    function settle(uint sharesAmount) public {\n        address contract_ = authorizedTokens[\"TST\"];\n        ERC20Interface =  ERC20(contract_);\n        // Have we reached maturity ?\n        require(block.timestamp >= maturityDate, \"Maturity date not reached yet\");\n        // Do both participant send their maximum amount ?\n        /*\n        require(\n            ERC20Interface.balanceOf(address(this)) == maximumRedemption && \n            shares[msg.sender] == maximumNotional, \n            \"Maximum payout not reached\"\n        );*/\n\n        // Check oracle price\n        uint oraclePrice = strikePrice;\n        // Without liquidity pegging\n        // uint notional = shares[msg.sender];\n        // With liquidity pegging (Ratio multiplier ?)\n        // must also check if shares are enough compared to what was deposited\n        uint notional = sharesAmount;\n\n        // uint settleAmount = 0 ;\n        uint settleAmount = notional;\n        \n        // uint previousBalance = _farmtoken.balanceOf(address(this));\n        _farmtoken.transferFrom(msg.sender, address(this), sharesAmount);\n        // uint currentBalance = _farmtoken.balanceOf(address(this));\n        _farmtoken.withdraw(sharesAmount);\n\n        // Normally multiplier * sharesAmount = initialCollateral\n        // initialCollateral has to be fed in the payout function\n        \n        /*\n        if(clientWhitelist[msg.sender].exists) {\n            // Address is a client\n            settleAmount = payout(oraclePrice, notional);\n        } else if (admin.whiteList[msg.sender].exists) {\n            // Address is an admin\n            settleAmount = what's left in the pool ?\n        } else {\n            // Address is neither we stop computation\n            assert(true);\n        }*/\n\n        // Compute payout function ratio on all shares\n        // uint participantShares = shares[msg.sender];\n\n        // Check if sum of all balances is okay compared to fund locked in the contract\n        // and be sure that debt are cleansed and balance ajusted\n\n        // Send back payout\n        ERC20Interface.transfer(msg.sender, settleAmount);\n\n        // Previous\n        // shares[msg.sender] = 0;\n        // Multiplier also need here if liquidity pegging\n        shares[msg.sender] -= sharesAmount;\n        clientShares -= sharesAmount;\n        \n        // Emit the event \n        emit Fric(settleAmount, \"Send money back\");\n\n\n        /*\n        // Use the PayoutRatio Function\n        if (settleAmount > 0) {\n            shares[msg.sender] -= settleAmount;\n            if(senderList[msg.sender]) {\n                holders[_totalHolders] = address(0);\n                senderList[msg.sender] = false;\n                _totalHolders--;\n            }\n        }\n        msg.sender.transfer(settleAmount);\n\n        */\n        // exchange.withdrawTokens(settleAmount);\n    }\n\n\n    function withdrawNotional(uint lpTokenAmount) public {\n        // Depending on the number of LP tokens sent\n        require(clientWhitelist[msg.sender], \"You're not an allowed client\");\n        require(block.timestamp >= maturityDate, \"Maturity date not reached yet\");\n        //Check if the maxm amount from admin ad client have been deposited otherwise you can't withdraw\n        // + report the maturity until the max deposit has been made\n\n        // uint previousBalance = _farmtoken.balanceOf(address(this));\n        _farmtoken.transferFrom(msg.sender, address(this), lpTokenAmount);\n        // uint currentBalance = _farmtoken.balanceOf(address(this));\n        uint256 clientAmount = _farmtoken.withdraw(lpTokenAmount);\n\n        // OraclePrice should be fixed now\n        uint oraclePrice = strikePrice;\n        // uint withdrawAmount;\n        // uint currentShares = shares[msg.sender];\n\n        uint currentPayoutAmount = (1 - (shares[msg.sender] - clientAmount)/100) * payout(oraclePrice, clientAmount);\n\n\n        shares[msg.sender] -= clientAmount;\n        clientShares -= clientAmount;\n\n        ERC20Interface.transfer(msg.sender, currentPayoutAmount);\n    }\n\n    function withdrawLiquidity(uint lpTokenAmount) public {\n        // Depending on the number of LP tokens sent\n        require(adminWhitelist[msg.sender], \"You're not an allowed client\");\n        if (lpTokenAmount == clientShares + adminShares) {\n            _farmtoken.transferFrom(msg.sender, address(this), lpTokenAmount);\n            _farmtoken.withdraw(lpTokenAmount);\n            shares[msg.sender] = 0;\n            clientShares = 0;\n            adminShares = 0;\n            // We Must clean every shares of everyone for this options\n            ERC20Interface.transfer(msg.sender, maximumRedemption);\n\n        } else {\n            require(block.timestamp >= maturityDate, \"Maturity date not reached yet\");\n\n            // uint previousBalance = _farmtoken.balanceOf(address(this));\n            _farmtoken.transferFrom(msg.sender, address(this), lpTokenAmount);\n            // uint currentBalance = _farmtoken.balanceOf(address(this));\n            uint256 adminAmount = _farmtoken.withdraw(lpTokenAmount);\n\n            // OraclePrice should be fixed now\n            uint oraclePrice = strikePrice;\n            // uint withdrawAmount;\n            // uint currentShares = shares[msg.sender];\n\n            uint currentPayoutAmount = (1 - (shares[msg.sender] - adminAmount)/100) * adminPayout(oraclePrice);\n\n\n            shares[msg.sender] -= adminAmount;\n\n            ERC20Interface.transfer(msg.sender, currentPayoutAmount);\n        }\n    }\n/*\n    function associateLiquidity(string memory symbol_) public payable {\n        // require(shares[msg.sender] + msg.value <= maximumsender, \"You can't send that much money\");\n        // require(whitelistedLiquidityProvider[msg.sender], \"You are not authorized to deposit);\n        // require(msg.value > 3, \"You can't send that much money\");\n        // Test if we reach maximumLiquidity\n        shares[msg.sender] += msg.value;\n        address contract_ = authorizedTokens[symbol_];\n        ERC20Interface =  ERC20(contract_);\n        ERC20Interface.transfer(address(this), msg.value);\n        // exchange.depositTokens(address(this), address(ERC20Interface), msg.value);\n       /* \n        require(!liquidityProviderLock, \"This contract is locked for funds\");\n        if (shares[msg.sender] + msg.value > maximumLiquidity) {\n            if (msg.value >= (maximumSender - shares[msg.sender])) {\n                shares[msg.sender] += (maximumLiquidity = shares[msg.sender]);\n                msg.sender.transfer(maximumLiquidity = shares[msg.sender]);\n                liquidityProviderLock = true;\n            }\n        }else{\n            shares[msg.sender] += msg.value;\n        }\n        if(!senderList[msg.sender]) {\n            holders[_totalHolders] = msg.sender;\n            providerType[msg.sender] = addressType.LIQUIDITY;\n            senderList[msg.sender] = true;\n            _totalHolders++;\n        }*/\n        // Emit that an liquidity provider sent money\n        //emit Test(msg.value);\n    //}\n    /*\n    function associateAddress() public payable {\n        // require(shares[msg.sender] + msg.value <= maximumsender, \"You can't send that much money\");\n        // require(whitelistedInvestor[msg.sender], \"You are not authorized to deposit);\n        // require(msg.value > 3, \"You can't send that much money\");\n        // Test if we reach maximumsender\n        require(!investorLock, \"This contract is locked for funds\");\n        if (shares[msg.sender] + msg.value > maximumSender) {\n            if (msg.value >= (maximumSender - shares[msg.sender])) {\n                shares[msg.sender] += (maximumSender = shares[msg.sender]);\n                payable(msg.sender).transfer(maximumSender = shares[msg.sender]);\n                investorLock = true;\n            }\n        }else{\n            shares[msg.sender] += msg.value;\n        }\n        if(!senderList[msg.sender]) {\n            holders[_totalHolders] = payable(msg.sender);\n            providerType[msg.sender] = addressType.INVESTOR;\n            senderList[msg.sender] = true;\n            _totalHolders++;\n        }\n        // Emit that an investors sent money\n        emit Test(msg.value);\n    }\n*/\n    /*\n    function withdraw() public returns (bool) {\n        // It is important to set this to zero because the recipient\n        // can call this function again as part of the receiving call\n        // before `send` returns.\n        pendingReturns[msg.sender] = 0;\n\n        if (!msg.sender.send(amount)) {\n            // No need to call throw here, just reset the amount owing\n            pendingReturns[msg.sender] = amount;\n            return false;\n        }\n        return true;\n    }*/\n\n}\n/*\n    function approve(string memory symbol_, address address_, uint value) public {\n        address contract_ = authorizedTokens[symbol_];\n        ERC20Interface =  ERC20(contract_);\n        ERC20Interface.approve(address_, value);\n        // ERC20Interface.approve(address(0xCD50Fcc572DB2Cf8056aa76Cb0b26812696E353c), value);\n        //ee.approve(address(exchange), msg.value);\n        emit Log(address(contract_));\n    }\n*/",
  "sourcePath": "/home/rems/block/lol/contracts/Marex.sol",
  "compiler": {
    "name": "solc",
    "version": "0.8.0+commit.c7dfd78e.Emscripten.clang"
  },
  "schemaVersion": "3.4.0",
  "updatedAt": "2021-05-27T16:16:34.428Z",
  "networkType": "ethereum",
  "devdoc": {
    "kind": "dev",
    "methods": {},
    "stateVariables": {
      "authorizedTokens": {
        "details": "list of all supported tokens for transfer  string token symbol  address contract address of token"
      }
    },
    "version": 1
  },
  "userdoc": {
    "kind": "user",
    "methods": {},
    "version": 1
  }
}