{
  "contractName": "Marex",
  "abi": [
    {
      "inputs": [
        {
          "internalType": "address",
          "name": "farmTokenAddress",
          "type": "address"
        },
        {
          "internalType": "address",
          "name": "testCoinAddress",
          "type": "address"
        }
      ],
      "stateMutability": "nonpayable",
      "type": "constructor"
    },
    {
      "anonymous": false,
      "inputs": [
        {
          "indexed": false,
          "internalType": "uint256",
          "name": "event_int",
          "type": "uint256"
        },
        {
          "indexed": false,
          "internalType": "string",
          "name": "event_string",
          "type": "string"
        }
      ],
      "name": "Fric",
      "type": "event"
    },
    {
      "anonymous": false,
      "inputs": [
        {
          "indexed": false,
          "internalType": "address",
          "name": "event_string",
          "type": "address"
        }
      ],
      "name": "Log",
      "type": "event"
    },
    {
      "anonymous": false,
      "inputs": [
        {
          "indexed": false,
          "internalType": "string",
          "name": "event_string",
          "type": "string"
        }
      ],
      "name": "LogS",
      "type": "event"
    },
    {
      "anonymous": false,
      "inputs": [
        {
          "indexed": false,
          "internalType": "uint256",
          "name": "event_uint",
          "type": "uint256"
        },
        {
          "indexed": false,
          "internalType": "uint256",
          "name": "event_block",
          "type": "uint256"
        }
      ],
      "name": "MaturityEnd",
      "type": "event"
    },
    {
      "anonymous": false,
      "inputs": [
        {
          "indexed": false,
          "internalType": "uint256",
          "name": "event_int",
          "type": "uint256"
        }
      ],
      "name": "Test",
      "type": "event"
    },
    {
      "inputs": [],
      "name": "ERC20Interface",
      "outputs": [
        {
          "internalType": "contract IERC20",
          "name": "",
          "type": "address"
        }
      ],
      "stateMutability": "view",
      "type": "function",
      "constant": true
    },
    {
      "inputs": [],
      "name": "_farmtoken",
      "outputs": [
        {
          "internalType": "contract DecentralizedNote",
          "name": "",
          "type": "address"
        }
      ],
      "stateMutability": "view",
      "type": "function",
      "constant": true
    },
    {
      "inputs": [],
      "name": "_testcoin",
      "outputs": [
        {
          "internalType": "contract MarexCoin",
          "name": "",
          "type": "address"
        }
      ],
      "stateMutability": "view",
      "type": "function",
      "constant": true
    },
    {
      "inputs": [],
      "name": "activationDate",
      "outputs": [
        {
          "internalType": "uint256",
          "name": "",
          "type": "uint256"
        }
      ],
      "stateMutability": "view",
      "type": "function",
      "constant": true
    },
    {
      "inputs": [],
      "name": "adminShares",
      "outputs": [
        {
          "internalType": "uint256",
          "name": "",
          "type": "uint256"
        }
      ],
      "stateMutability": "view",
      "type": "function",
      "constant": true
    },
    {
      "inputs": [
        {
          "internalType": "address",
          "name": "",
          "type": "address"
        }
      ],
      "name": "adminWhitelist",
      "outputs": [
        {
          "internalType": "bool",
          "name": "",
          "type": "bool"
        }
      ],
      "stateMutability": "view",
      "type": "function",
      "constant": true
    },
    {
      "inputs": [
        {
          "internalType": "string",
          "name": "",
          "type": "string"
        }
      ],
      "name": "authorizedTokens",
      "outputs": [
        {
          "internalType": "address",
          "name": "",
          "type": "address"
        }
      ],
      "stateMutability": "view",
      "type": "function",
      "constant": true
    },
    {
      "inputs": [],
      "name": "clientShares",
      "outputs": [
        {
          "internalType": "uint256",
          "name": "",
          "type": "uint256"
        }
      ],
      "stateMutability": "view",
      "type": "function",
      "constant": true
    },
    {
      "inputs": [
        {
          "internalType": "address",
          "name": "",
          "type": "address"
        }
      ],
      "name": "clientWhitelist",
      "outputs": [
        {
          "internalType": "bool",
          "name": "",
          "type": "bool"
        }
      ],
      "stateMutability": "view",
      "type": "function",
      "constant": true
    },
    {
      "inputs": [],
      "name": "finalFixing",
      "outputs": [
        {
          "internalType": "uint256",
          "name": "",
          "type": "uint256"
        }
      ],
      "stateMutability": "view",
      "type": "function",
      "constant": true
    },
    {
      "inputs": [],
      "name": "initialFixing",
      "outputs": [
        {
          "internalType": "uint256",
          "name": "",
          "type": "uint256"
        }
      ],
      "stateMutability": "view",
      "type": "function",
      "constant": true
    },
    {
      "inputs": [],
      "name": "locked",
      "outputs": [
        {
          "internalType": "bool",
          "name": "",
          "type": "bool"
        }
      ],
      "stateMutability": "view",
      "type": "function",
      "constant": true
    },
    {
      "inputs": [],
      "name": "maturityDate",
      "outputs": [
        {
          "internalType": "uint256",
          "name": "",
          "type": "uint256"
        }
      ],
      "stateMutability": "view",
      "type": "function",
      "constant": true
    },
    {
      "inputs": [],
      "name": "maximumLiquidity",
      "outputs": [
        {
          "internalType": "uint256",
          "name": "",
          "type": "uint256"
        }
      ],
      "stateMutability": "view",
      "type": "function",
      "constant": true
    },
    {
      "inputs": [],
      "name": "payoutRatio",
      "outputs": [
        {
          "internalType": "uint256",
          "name": "",
          "type": "uint256"
        }
      ],
      "stateMutability": "view",
      "type": "function",
      "constant": true
    },
    {
      "inputs": [],
      "name": "strikePrice",
      "outputs": [
        {
          "internalType": "uint256",
          "name": "",
          "type": "uint256"
        }
      ],
      "stateMutability": "view",
      "type": "function",
      "constant": true
    },
    {
      "inputs": [],
      "name": "totalLiquidity",
      "outputs": [
        {
          "internalType": "uint256",
          "name": "",
          "type": "uint256"
        }
      ],
      "stateMutability": "view",
      "type": "function",
      "constant": true
    },
    {
      "inputs": [],
      "name": "totalNotional",
      "outputs": [
        {
          "internalType": "uint256",
          "name": "",
          "type": "uint256"
        }
      ],
      "stateMutability": "view",
      "type": "function",
      "constant": true
    },
    {
      "inputs": [
        {
          "internalType": "address",
          "name": "_address",
          "type": "address"
        }
      ],
      "name": "addClient",
      "outputs": [],
      "stateMutability": "nonpayable",
      "type": "function"
    },
    {
      "inputs": [
        {
          "internalType": "address",
          "name": "_address",
          "type": "address"
        }
      ],
      "name": "addAdmin",
      "outputs": [],
      "stateMutability": "nonpayable",
      "type": "function"
    },
    {
      "inputs": [
        {
          "internalType": "uint256",
          "name": "_payoutRatio",
          "type": "uint256"
        }
      ],
      "name": "setPayoutRatio",
      "outputs": [],
      "stateMutability": "nonpayable",
      "type": "function"
    },
    {
      "inputs": [
        {
          "internalType": "uint256",
          "name": "_initialFixing",
          "type": "uint256"
        }
      ],
      "name": "setInitialFixing",
      "outputs": [],
      "stateMutability": "nonpayable",
      "type": "function"
    },
    {
      "inputs": [
        {
          "internalType": "uint256",
          "name": "_finalFixing",
          "type": "uint256"
        }
      ],
      "name": "setFinalFixing",
      "outputs": [],
      "stateMutability": "nonpayable",
      "type": "function"
    },
    {
      "inputs": [
        {
          "internalType": "uint256",
          "name": "_strikePrice",
          "type": "uint256"
        }
      ],
      "name": "setStrikePrice",
      "outputs": [],
      "stateMutability": "nonpayable",
      "type": "function"
    },
    {
      "inputs": [
        {
          "internalType": "uint256",
          "name": "maturity_minute",
          "type": "uint256"
        }
      ],
      "name": "addMaturity",
      "outputs": [],
      "stateMutability": "nonpayable",
      "type": "function"
    },
    {
      "inputs": [
        {
          "internalType": "uint256",
          "name": "maximum_liquidity",
          "type": "uint256"
        }
      ],
      "name": "setMaximumLiquidity",
      "outputs": [],
      "stateMutability": "nonpayable",
      "type": "function"
    },
    {
      "inputs": [
        {
          "internalType": "uint256",
          "name": "maximum_notional",
          "type": "uint256"
        }
      ],
      "name": "setMaximumNotional",
      "outputs": [],
      "stateMutability": "nonpayable",
      "type": "function"
    },
    {
      "inputs": [],
      "name": "switchLock",
      "outputs": [],
      "stateMutability": "nonpayable",
      "type": "function"
    },
    {
      "inputs": [
        {
          "internalType": "string",
          "name": "symbol_",
          "type": "string"
        },
        {
          "internalType": "address",
          "name": "address_",
          "type": "address"
        }
      ],
      "name": "addNewToken",
      "outputs": [
        {
          "internalType": "bool",
          "name": "",
          "type": "bool"
        }
      ],
      "stateMutability": "nonpayable",
      "type": "function"
    },
    {
      "inputs": [
        {
          "internalType": "uint256",
          "name": "_finalFixing",
          "type": "uint256"
        }
      ],
      "name": "adminPayout",
      "outputs": [
        {
          "internalType": "uint256",
          "name": "",
          "type": "uint256"
        }
      ],
      "stateMutability": "view",
      "type": "function",
      "constant": true
    },
    {
      "inputs": [
        {
          "internalType": "uint256",
          "name": "_finalFixing",
          "type": "uint256"
        }
      ],
      "name": "clientPayout",
      "outputs": [
        {
          "internalType": "uint256",
          "name": "",
          "type": "uint256"
        }
      ],
      "stateMutability": "view",
      "type": "function",
      "constant": true
    },
    {
      "inputs": [],
      "name": "getPool",
      "outputs": [
        {
          "internalType": "uint256",
          "name": "",
          "type": "uint256"
        }
      ],
      "stateMutability": "view",
      "type": "function",
      "constant": true
    },
    {
      "inputs": [],
      "name": "getEarlyRedemptionSharesNumber",
      "outputs": [
        {
          "internalType": "uint256",
          "name": "",
          "type": "uint256"
        }
      ],
      "stateMutability": "view",
      "type": "function",
      "constant": true
    },
    {
      "inputs": [],
      "name": "getMaximumNotional",
      "outputs": [
        {
          "internalType": "uint256",
          "name": "",
          "type": "uint256"
        }
      ],
      "stateMutability": "view",
      "type": "function",
      "constant": true
    },
    {
      "inputs": [
        {
          "internalType": "string",
          "name": "symbol_",
          "type": "string"
        },
        {
          "internalType": "uint256",
          "name": "liquidityAmount",
          "type": "uint256"
        }
      ],
      "name": "addLiquidity",
      "outputs": [],
      "stateMutability": "nonpayable",
      "type": "function"
    },
    {
      "inputs": [
        {
          "internalType": "string",
          "name": "symbol_",
          "type": "string"
        },
        {
          "internalType": "uint256",
          "name": "notionalAmount",
          "type": "uint256"
        }
      ],
      "name": "addNotional",
      "outputs": [],
      "stateMutability": "nonpayable",
      "type": "function"
    },
    {
      "inputs": [
        {
          "internalType": "uint256",
          "name": "lpTokenAmount",
          "type": "uint256"
        }
      ],
      "name": "withdrawNotional",
      "outputs": [],
      "stateMutability": "nonpayable",
      "type": "function"
    },
    {
      "inputs": [
        {
          "internalType": "uint256",
          "name": "lpTokenAmount",
          "type": "uint256"
        }
      ],
      "name": "withdrawLiquidity",
      "outputs": [],
      "stateMutability": "nonpayable",
      "type": "function"
    },
    {
      "inputs": [],
      "name": "settle",
      "outputs": [],
      "stateMutability": "nonpayable",
      "type": "function"
    }
  ],
  "bytecode": "0x6080604052600a600355619c406004556165906005556175306006554260078190556200002e9060b462000109565b6008556009805460ff19169055600a80556000600b819055600c819055600f8190556010553480156200006057600080fd5b506040516200174d3803806200174d8339810160408190526200008391620000d2565b600180546001600160a01b039384166001600160a01b031991821617909155600280549290931691161790556200012e565b80516001600160a01b0381168114620000cd57600080fd5b919050565b60008060408385031215620000e5578182fd5b620000f083620000b5565b91506200010060208401620000b5565b90509250929050565b600082198211156200012957634e487b7160e01b81526011600452602481fd5b500190565b61160f806200013e6000396000f3fe608060405234801561001057600080fd5b506004361061023d5760003560e01c80637d4367421161013b578063c347abd9116100b8578063e488cd9f1161007c578063e488cd9f14610429578063f93881a71461043c578063fa53060f14610444578063fc3fdb6f14610457578063fc5cd246146104575761023d565b8063c347abd9146103f6578063c52987cf14610409578063c53d1b8014610411578063cf30901214610419578063d59624b4146104215761023d565b8063ac12319d116100ff578063ac12319d146103ad578063afd2a01c146103c0578063b9487330146103c8578063baa0854c146103db578063bdf5265d146103ee5761023d565b80637d4367421461037a57806396099fd6146103825780639ae7b5f61461038a5780639c2d0664146103925780639d4e13da146103a55761023d565b80631ffca242116101c957806344a0b0851161018d57806344a0b0851461033c57806362e9fa2c14610344578063704802751461034c578063740e1cca1461035f5780637adbbf14146103675761023d565b80631ffca242146102db5780632740728e146102e3578063433ff2881461030357806343928cfd1461031657806343e20a1d146103295761023d565b80630ffe9d52116102105780630ffe9d521461029057806311da60b4146102b057806315770f92146102b85780631a3f3f08146102c05780631bbc4b83146102d35761023d565b8063026b1d5f146102425780630403aa3b146102605780630a861f2a146102685780630b098d851461027d575b600080fd5b61024a61046a565b6040516102579190611536565b60405180910390f35b61024a610481565b61027b610276366004611375565b610487565b005b61027b61028b366004611375565b6107c9565b6102a361029e3660046112ab565b6107ce565b60405161025791906113de565b61027b6107f4565b61024a610988565b61027b6102ce366004611375565b61098e565b6102a3610b0a565b6102a3610b19565b6102f66102f13660046112e6565b610b28565b604051610257919061142f565b61027b610311366004611332565b610b73565b61027b61032436600461126a565b610dc9565b6102f661033736600461126a565b610ded565b61024a610e02565b61027b610e08565b61027b61035a36600461126a565b610e31565b6102a3610e55565b61024a610375366004611375565b610e64565b61024a610eb0565b61024a610eb6565b61024a610ebc565b61027b6103a0366004611375565b610ece565b61024a610eec565b61024a6103bb366004611375565b610ef2565b61024a610f20565b6102f66103d636600461126a565b610f26565b61027b6103e9366004611375565b610f3b565b61024a610f40565b61027b610404366004611375565b610f46565b61024a610f4b565b61024a610f51565b6102f6610f63565b61024a610f6c565b61027b610437366004611375565b610f72565b61024a610f77565b61027b610452366004611332565b610f7d565b61027b610465366004611375565b6111cd565b6000600c54600b5461047c919061153f565b905090565b60075481565b336000908152600e602052604090205460ff166104bf5760405162461bcd60e51b81526004016104b6906114d4565b60405180910390fd5b6104c7610ebc565b8114156105e5576001546040516323b872dd60e01b81526001600160a01b03909116906323b872dd90610502903390309086906004016113f2565b602060405180830381600087803b15801561051c57600080fd5b505af1158015610530573d6000803e3d6000fd5b505050506040513d601f19601f82011682018060405250810190610554919061128b565b50600154604051632e1a7d4d60e01b81526001600160a01b0390911690632e1a7d4d90610585908490600401611536565b602060405180830381600087803b15801561059f57600080fd5b505af11580156105b3573d6000803e3d6000fd5b505050506040513d601f19601f820116820180604052508101906105d7919061138d565b506105e06107f4565b6107c6565b6008544210156106075760405162461bcd60e51b81526004016104b690611466565b6001546040516323b872dd60e01b81526001600160a01b03909116906323b872dd9061063b903390309086906004016113f2565b602060405180830381600087803b15801561065557600080fd5b505af1158015610669573d6000803e3d6000fd5b505050506040513d601f19601f8201168201806040525081019061068d919061128b565b50600154604051632e1a7d4d60e01b81526001600160a01b0390911690632e1a7d4d906106be908490600401611536565b602060405180830381600087803b1580156106d857600080fd5b505af11580156106ec573d6000803e3d6000fd5b505050506040513d601f19601f82011682018060405250810190610710919061138d565b50600554600061071f82610ef2565b90506000600f5482856107329190611577565b61073c9190611557565b60005460405163a9059cbb60e01b81529192506001600160a01b03169063a9059cbb9061076f9033908590600401611416565b602060405180830381600087803b15801561078957600080fd5b505af115801561079d573d6000803e3d6000fd5b505050506040513d601f19601f820116820180604052508101906107c1919061128b565b505050505b50565b600355565b80516020818301810180516011825292820191909301209152546001600160a01b031681565b60006010819055600f819055600b819055600c556002546040516370a0823160e01b81526001600160a01b03909116906370a08231906108389030906004016113de565b60206040518083038186803b15801561085057600080fd5b505afa158015610864573d6000803e3d6000fd5b505050506040513d601f19601f82011682018060405250810190610888919061138d565b15610986576002546040516370a0823160e01b81526001600160a01b039091169063a9059cbb90339083906370a08231906108c79030906004016113de565b60206040518083038186803b1580156108df57600080fd5b505afa1580156108f3573d6000803e3d6000fd5b505050506040513d601f19601f82011682018060405250810190610917919061138d565b6040518363ffffffff1660e01b8152600401610934929190611416565b602060405180830381600087803b15801561094e57600080fd5b505af1158015610962573d6000803e3d6000fd5b505050506040513d601f19601f820116820180604052508101906107c6919061128b565b565b600b5481565b336000908152600d602052604090205460ff166109bd5760405162461bcd60e51b81526004016104b6906114d4565b6008544210156109df5760405162461bcd60e51b81526004016104b690611466565b6001546040516323b872dd60e01b81526001600160a01b03909116906323b872dd90610a13903390309086906004016113f2565b602060405180830381600087803b158015610a2d57600080fd5b505af1158015610a41573d6000803e3d6000fd5b505050506040513d601f19601f82011682018060405250810190610a65919061128b565b50600154604051632e1a7d4d60e01b81526001600160a01b0390911690632e1a7d4d90610a96908490600401611536565b602060405180830381600087803b158015610ab057600080fd5b505af1158015610ac4573d6000803e3d6000fd5b505050506040513d601f19601f82011682018060405250810190610ae8919061138d565b506005546000610af782610e64565b9050600060105482856107329190611577565b6000546001600160a01b031681565b6002546001600160a01b031681565b600081601184604051610b3b91906113a5565b90815260405190819003602001902080546001600160a01b03929092166001600160a01b031990921691909117905550600192915050565b336000908152600e602052604090205460ff16610ba25760405162461bcd60e51b81526004016104b69061149d565b600a5481600f54610bb3919061153f565b1115610bd15760405162461bcd60e51b81526004016104b69061143a565b6000601183604051610be391906113a5565b90815260405190819003602001812054600080546001600160a01b0319166001600160a01b03928316908117918290556323b872dd60e01b8452935016906323b872dd90610c39903390309087906004016113f2565b602060405180830381600087803b158015610c5357600080fd5b505af1158015610c67573d6000803e3d6000fd5b505050506040513d601f19601f82011682018060405250810190610c8b919061128b565b5081600b6000828254610c9e919061153f565b909155505060015460405163b6b55f2560e01b81526000916001600160a01b03169063b6b55f2590610cd4908690600401611536565b602060405180830381600087803b158015610cee57600080fd5b505af1158015610d02573d6000803e3d6000fd5b505050506040513d601f19601f82011682018060405250810190610d26919061138d565b60015460405163a9059cbb60e01b81529192506001600160a01b03169063a9059cbb90610d599033908590600401611416565b602060405180830381600087803b158015610d7357600080fd5b505af1158015610d87573d6000803e3d6000fd5b505050506040513d601f19601f82011682018060405250810190610dab919061128b565b5080600f6000828254610dbe919061153f565b909155505050505050565b6001600160a01b03166000908152600d60205260409020805460ff19166001179055565b600e6020526000908152604090205460ff1681565b60045481565b60095460ff1615610e22576009805460ff19169055610986565b6009805460ff19166001179055565b6001600160a01b03166000908152600e60205260409020805460ff19166001179055565b6001546001600160a01b031681565b60006006548210610e7e57610e7761046a565b9050610eab565b600454600554600c54610e919190611577565b610e9b9190611557565b600b54610ea8919061153f565b90505b919050565b600c5481565b60105481565b6000600f5460105461047c919061153f565b610ed981603c611577565b600854610ee6919061153f565b60085550565b60035481565b60006006548210610f0557506000610eab565b610f0e82610e64565b610f1661046a565b610ea89190611596565b600a5481565b600d6020526000908152604090205460ff1681565b600455565b60055481565b600555565b60065481565b6000600354600a5461047c9190611577565b60095460ff1681565b60085481565b600655565b600f5481565b336000908152600d602052604090205460ff16610fac5760405162461bcd60e51b81526004016104b6906114d4565b610fb4610f51565b81601054610fc2919061153f565b1115610fe05760405162461bcd60e51b81526004016104b69061150b565b6000601183604051610ff291906113a5565b90815260405190819003602001812054600080546001600160a01b0319166001600160a01b03928316908117918290556323b872dd60e01b8452935016906323b872dd90611048903390309087906004016113f2565b602060405180830381600087803b15801561106257600080fd5b505af1158015611076573d6000803e3d6000fd5b505050506040513d601f19601f8201168201806040525081019061109a919061128b565b5081600c60008282546110ad919061153f565b909155505060015460405163b6b55f2560e01b81526000916001600160a01b03169063b6b55f25906110e3908690600401611536565b602060405180830381600087803b1580156110fd57600080fd5b505af1158015611111573d6000803e3d6000fd5b505050506040513d601f19601f82011682018060405250810190611135919061138d565b60015460405163a9059cbb60e01b81529192506001600160a01b03169063a9059cbb906111689033908590600401611416565b602060405180830381600087803b15801561118257600080fd5b505af1158015611196573d6000803e3d6000fd5b505050506040513d601f19601f820116820180604052508101906111ba919061128b565b508060106000828254610dbe919061153f565b600a55565b80356001600160a01b0381168114610eab57600080fd5b600082601f8301126111f9578081fd5b813567ffffffffffffffff80821115611214576112146115c3565b604051601f8301601f191681016020018281118282101715611238576112386115c3565b60405282815284830160200186101561124f578384fd5b82602086016020830137918201602001929092529392505050565b60006020828403121561127b578081fd5b611284826111d2565b9392505050565b60006020828403121561129c578081fd5b81518015158114611284578182fd5b6000602082840312156112bc578081fd5b813567ffffffffffffffff8111156112d2578182fd5b6112de848285016111e9565b949350505050565b600080604083850312156112f8578081fd5b823567ffffffffffffffff81111561130e578182fd5b61131a858286016111e9565b925050611329602084016111d2565b90509250929050565b60008060408385031215611344578182fd5b823567ffffffffffffffff81111561135a578283fd5b611366858286016111e9565b95602094909401359450505050565b600060208284031215611386578081fd5b5035919050565b60006020828403121561139e578081fd5b5051919050565b60008251815b818110156113c557602081860181015185830152016113ab565b818111156113d35782828501525b509190910192915050565b6001600160a01b0391909116815260200190565b6001600160a01b039384168152919092166020820152604081019190915260600190565b6001600160a01b03929092168252602082015260400190565b901515815260200190565b602080825260129082015271546f6f206d616e79206c697175696469747960701b604082015260600190565b6020808252601d908201527f4d617475726974792064617465206e6f74207265616368656420796574000000604082015260600190565b6020808252601b908201527f596f75277265206e6f7420616e20616c6c6f7765642061646d696e0000000000604082015260600190565b6020808252601c908201527f596f75277265206e6f7420616e20616c6c6f77656420636c69656e7400000000604082015260600190565b602080825260119082015270151bdbc81b585b9e48139bdd1a5bdb985b607a1b604082015260600190565b90815260200190565b60008219821115611552576115526115ad565b500190565b60008261157257634e487b7160e01b81526012600452602481fd5b500490565b6000816000190483118215151615611591576115916115ad565b500290565b6000828210156115a8576115a86115ad565b500390565b634e487b7160e01b600052601160045260246000fd5b634e487b7160e01b600052604160045260246000fdfea26469706673582212208eac613d2faf70a6271d67f71954ea373bba3033ef89099e790aa12a0073611c64736f6c63430008000033",
  "immutableReferences": {},
  "source": "/*\nMarex SmartContract\n\nSPDX-License-Identifier: MIT\n*/\npragma solidity >=0.8.0;\n\n// import \"./deployment/ManagedContract.sol\";\nimport \"@openzeppelin/contracts/utils/math/SafeMath.sol\";\nimport \"@openzeppelin/contracts/token/ERC20/ERC20.sol\";\nimport \"./finance/DecentralizedNote.sol\";\nimport \"./finance/MarexCoin.sol\";\n\n\n// contract Marex is ManagedContract {\ncontract Marex {\n    using SafeMath for uint;\n\n    IERC20 public ERC20Interface;\n    DecentralizedNote public _farmtoken;\n    MarexCoin public _testcoin;\n\n    /*\n    enum addressType{INVESTOR, LIQUIDITY}\n    mapping (address => addressType) public providerType;\n    */\n\n    // payoutRatio de 10%\n    uint public payoutRatio = 10;\n    uint public initialFixing = 40000;\n    uint public finalFixing = 26000;\n    uint public strikePrice = 30000;\n\n    // Active le contract aujourd'hui\n    uint public activationDate = block.timestamp;\n    // Date de maturit  aujourd'hui + 1 minute\n    uint public maturityDate = ( activationDate + 3 minutes);\n    // Bolean to activate/deactivate the contract\n    bool public locked = false;\n\n    // Liquidit maximum du provider\n    uint public maximumLiquidity = 10;\n\n    uint public totalLiquidity = 0;\n    uint public totalNotional = 0;\n\n    // For multiple liquidity providers\n    // uint public maximumDenomination = maximumLiquidity + maximumNotional;\n    // uint public maximumIssuanceSize = maximumDenomination + maximumNotional;\n\n    // @TODO ajout/Retrait de whitelist\n    mapping(address => bool) public clientWhitelist;\n    mapping(address => bool) public adminWhitelist;\n\n    uint public adminShares = 0;\n    uint public clientShares = 0;\n\n    /**\n    * @dev list of all supported tokens for transfer\n    *  string token symbol\n    *  address contract address of token\n    */\n    mapping(string => address) public authorizedTokens;\n\n\n    event Test(uint event_int);\n    event Fric(uint event_int, string event_string);\n    event Log(address event_string);\n    event LogS(string event_string);\n    event MaturityEnd(uint event_uint, uint event_block);\n\n    constructor(address farmTokenAddress, address testCoinAddress) {\n        _farmtoken = DecentralizedNote(farmTokenAddress);\n        _testcoin = MarexCoin(testCoinAddress);\n        // _farmtoken.approve(farmTokenAddress, 1000000);\n    }\n    /*\n    function initialize(Deployer deployer) override internal {\n        // exchange = OptionsExchange(deployer.getContractAddress(\"OptionsExchange\"));\n    }\n    */\n    function addClient(address _address) public {\n        clientWhitelist[_address] = true;\n    }\n    function addAdmin(address _address) public {\n        adminWhitelist[_address] = true;\n    }\n    function setPayoutRatio(uint _payoutRatio) public {\n        payoutRatio = _payoutRatio;\n    }\n    function setInitialFixing(uint _initialFixing) public {\n        initialFixing = _initialFixing;\n    }\n    function setFinalFixing(uint _finalFixing) public {\n        finalFixing = _finalFixing;\n    }\n    function setStrikePrice(uint _strikePrice) public {\n        strikePrice = _strikePrice;\n    }\n    function addMaturity(uint maturity_minute) public {\n        maturityDate = maturityDate + ( maturity_minute * 60);\n    }\n    function setMaximumLiquidity(uint maximum_liquidity) public {\n        maximumLiquidity = maximum_liquidity;\n    }\n    function setMaximumNotional(uint maximum_notional) public {\n        maximumLiquidity = maximum_notional;\n    }\n    function switchLock() public {\n        if (locked) {locked = false;}\n        else{locked = true;}\n    }\n    function addNewToken(string memory symbol_, address address_) public returns (bool) {\n        authorizedTokens[symbol_] = address_;\n        return true;\n    }\n    function adminPayout(uint _finalFixing) public view returns(uint) {\n        if (_finalFixing >= strikePrice) {\n            return 0;\n        }\n        return getPool() - clientPayout(_finalFixing);\n    }\n    function clientPayout(uint _finalFixing) public view returns(uint) {\n        if (_finalFixing >= strikePrice) {\n            return getPool();\n        }\n        return totalLiquidity + (totalNotional * finalFixing) / initialFixing;\n    }\n    function getPool() public view returns(uint) {\n        return totalLiquidity + totalNotional;\n    }\n\n    function getEarlyRedemptionSharesNumber() public view returns(uint) {\n        return clientShares + adminShares;\n    }\n\n    function getMaximumNotional() public view returns(uint) {\n        return maximumLiquidity * payoutRatio;\n    }\n\n    function addLiquidity(string memory symbol_, uint liquidityAmount) public {\n        // require(shares[msg.sender] + msg.value <= maximumsender, \"You can't send that much money\");\n        // require(whitelistedLiquidityProvider[msg.sender], \"You are not authorized to deposit);\n        // require(msg.value > 3, \"You can't send that much money\");\n        // Test if we reach maximumLiquidity\n\n\n        // LiquidityProvider Whitelist\n        // require(adminWhitelist[msg.sender].exists, \"You are not an authorized admin\");\n        require(adminWhitelist[msg.sender], \"You're not an allowed admin\");\n        require(adminShares + liquidityAmount <= maximumLiquidity, \"Too many liquidity\");\n\n        address contract_ = authorizedTokens[symbol_];\n        ERC20Interface =  ERC20(contract_);\n        ERC20Interface.transferFrom(msg.sender, address(this), liquidityAmount);\n        totalLiquidity += liquidityAmount;\n        \n\n        uint mintedToken = _farmtoken.deposit(liquidityAmount);        \n        _farmtoken.transfer(msg.sender, mintedToken);\n        adminShares += mintedToken;\n\n        // Emit that an liquidity provider sent money\n        //emit Test(msg.value);\n    }\n\n    function addNotional(string memory symbol_, uint notionalAmount) public {\n        // require(shares[msg.sender] + msg.value <= maximumsender, \"You can't send that much money\");\n        // require(whitelistedLiquidityProvider[msg.sender], \"You are not authorized to deposit);\n        // require(msg.value > 3, \"You can't send that much money\");\n        // Test if we reach maximumLiquidity\n        \n        // Client Whitelist\n        // require(clientWhitelist[msg.sender].exists, \"You are not an authorized client\");\n\n        require(clientWhitelist[msg.sender], \"You're not an allowed client\");\n        require(clientShares + notionalAmount <= getMaximumNotional(), \"Too many Notional\");\n\n        address contract_ = authorizedTokens[symbol_];\n        ERC20Interface =  ERC20(contract_);\n        ERC20Interface.transferFrom(msg.sender, address(this), notionalAmount);\n        totalNotional += notionalAmount;\n\n        uint mintedToken = _farmtoken.deposit(notionalAmount);\n        _farmtoken.transfer(msg.sender, mintedToken);\n        clientShares += mintedToken;\n\n        // Emit that an liquidity provider sent money\n        //emit Test(msg.value);\n    }\n    function withdrawNotional(uint lpTokenAmount) public {\n        // Depending on the number of LP tokens sent\n        require(clientWhitelist[msg.sender], \"You're not an allowed client\");\n        require(block.timestamp >= maturityDate, \"Maturity date not reached yet\");\n        //Check if the maxm amount from admin ad client have been deposited otherwise you can't withdraw\n        // + report the maturity until the max deposit has been made\n        _farmtoken.transferFrom(msg.sender, address(this), lpTokenAmount);\n        _farmtoken.withdraw(lpTokenAmount);\n\n        // OraclePrice should be fixed now\n        uint oraclePrice = finalFixing;\n\n        uint value = clientPayout(oraclePrice);\n        // fcking hell we can't use percentage\n        // uint currentPayoutAmount = (100*value - shares[msg.sender] * value - clientAmount * value) / 100;\n        uint currentPayoutAmount = (lpTokenAmount * value ) / clientShares;\n\n        ERC20Interface.transfer(msg.sender, currentPayoutAmount);\n    }\n\n    function withdrawLiquidity(uint lpTokenAmount) public {\n        // Depending on the number of LP tokens sent\n        require(adminWhitelist[msg.sender], \"You're not an allowed client\");\n        if (lpTokenAmount == getEarlyRedemptionSharesNumber()) {\n            _farmtoken.transferFrom(msg.sender, address(this), lpTokenAmount);\n            _farmtoken.withdraw(lpTokenAmount);\n            settle();\n\n        } else {\n            require(block.timestamp >= maturityDate, \"Maturity date not reached yet\");\n\n            _farmtoken.transferFrom(msg.sender, address(this), lpTokenAmount);\n            _farmtoken.withdraw(lpTokenAmount);\n\n            // OraclePrice should be fixed now\n            uint oraclePrice = finalFixing;\n\n            // uint value = _testcoin.balanceOf(address(this));\n            uint value = adminPayout(oraclePrice);\n            uint currentPayoutAmount = (lpTokenAmount * value ) / adminShares;\n            // uint currentPayoutAmount = (100*value - shares[msg.sender] * value - adminAmount * value) / 100;\n            ERC20Interface.transfer(msg.sender, currentPayoutAmount);\n        }\n    }\n\n    function settle() public {\n        clientShares = 0;\n        adminShares = 0;\n        totalLiquidity = 0;\n        totalNotional = 0;\n        if (!(_testcoin.balanceOf(address(this)) == 0)) {\n            _testcoin.transfer(msg.sender, _testcoin.balanceOf(address(this)));\n        }\n    }\n}\n/*\n    function associateLiquidity(string memory symbol_) public payable {\n        // require(shares[msg.sender] + msg.value <= maximumsender, \"You can't send that much money\");\n        // require(whitelistedLiquidityProvider[msg.sender], \"You are not authorized to deposit);\n        // require(msg.value > 3, \"You can't send that much money\");\n        // Test if we reach maximumLiquidity\n        shares[msg.sender] += msg.value;\n        address contract_ = authorizedTokens[symbol_];\n        ERC20Interface =  ERC20(contract_);\n        ERC20Interface.transfer(address(this), msg.value);\n        // exchange.depositTokens(address(this), address(ERC20Interface), msg.value);\n       /* \n        require(!liquidityProviderLock, \"This contract is locked for funds\");\n        if (shares[msg.sender] + msg.value > maximumLiquidity) {\n            if (msg.value >= (maximumSender - shares[msg.sender])) {\n                shares[msg.sender] += (maximumLiquidity = shares[msg.sender]);\n                msg.sender.transfer(maximumLiquidity = shares[msg.sender]);\n                liquidityProviderLock = true;\n            }\n        }else{\n            shares[msg.sender] += msg.value;\n        }\n        if(!senderList[msg.sender]) {\n            holders[_totalHolders] = msg.sender;\n            providerType[msg.sender] = addressType.LIQUIDITY;\n            senderList[msg.sender] = true;\n            _totalHolders++;\n        }*/\n        // Emit that an liquidity provider sent money\n        //emit Test(msg.value);\n    //}\n    /*\n    function associateAddress() public payable {\n        // require(shares[msg.sender] + msg.value <= maximumsender, \"You can't send that much money\");\n        // require(whitelistedInvestor[msg.sender], \"You are not authorized to deposit);\n        // require(msg.value > 3, \"You can't send that much money\");\n        // Test if we reach maximumsender\n        require(!investorLock, \"This contract is locked for funds\");\n        if (shares[msg.sender] + msg.value > maximumSender) {\n            if (msg.value >= (maximumSender - shares[msg.sender])) {\n                shares[msg.sender] += (maximumSender = shares[msg.sender]);\n                payable(msg.sender).transfer(maximumSender = shares[msg.sender]);\n                investorLock = true;\n            }\n        }else{\n            shares[msg.sender] += msg.value;\n        }\n        if(!senderList[msg.sender]) {\n            holders[_totalHolders] = payable(msg.sender);\n            providerType[msg.sender] = addressType.INVESTOR;\n            senderList[msg.sender] = true;\n            _totalHolders++;\n        }\n        // Emit that an investors sent money\n        emit Test(msg.value);\n    }\n*/\n/*\n    function approve(string memory symbol_, address address_, uint value) public {\n        address contract_ = authorizedTokens[symbol_];\n        ERC20Interface =  ERC20(contract_);\n        ERC20Interface.approve(address_, value);\n        // ERC20Interface.approve(address(0xCD50Fcc572DB2Cf8056aa76Cb0b26812696E353c), value);\n        //ee.approve(address(exchange), msg.value);\n        emit Log(address(contract_));\n    }\n*/",
  "sourcePath": "/home/rems/block/lol/contracts/Marex.sol",
  "compiler": {
    "name": "solc",
    "version": "0.8.0+commit.c7dfd78e.Emscripten.clang"
  },
  "schemaVersion": "3.4.0",
  "updatedAt": "2021-06-19T20:52:59.025Z",
  "networkType": "ethereum",
  "devdoc": {
    "kind": "dev",
    "methods": {},
    "stateVariables": {
      "authorizedTokens": {
        "details": "list of all supported tokens for transfer  string token symbol  address contract address of token"
      }
    },
    "version": 1
  },
  "userdoc": {
    "kind": "user",
    "methods": {},
    "version": 1
  }
}