{
  "contractName": "Marex",
  "abi": [
    {
      "inputs": [
        {
          "internalType": "address",
          "name": "farmTokenAddress",
          "type": "address"
        },
        {
          "internalType": "address",
          "name": "testCoinAddress",
          "type": "address"
        }
      ],
      "stateMutability": "nonpayable",
      "type": "constructor"
    },
    {
      "anonymous": false,
      "inputs": [
        {
          "indexed": false,
          "internalType": "uint256",
          "name": "event_int",
          "type": "uint256"
        },
        {
          "indexed": false,
          "internalType": "string",
          "name": "event_string",
          "type": "string"
        }
      ],
      "name": "Fric",
      "type": "event"
    },
    {
      "anonymous": false,
      "inputs": [
        {
          "indexed": false,
          "internalType": "address",
          "name": "event_string",
          "type": "address"
        }
      ],
      "name": "Log",
      "type": "event"
    },
    {
      "anonymous": false,
      "inputs": [
        {
          "indexed": false,
          "internalType": "string",
          "name": "event_string",
          "type": "string"
        }
      ],
      "name": "LogS",
      "type": "event"
    },
    {
      "anonymous": false,
      "inputs": [
        {
          "indexed": false,
          "internalType": "uint256",
          "name": "event_uint",
          "type": "uint256"
        },
        {
          "indexed": false,
          "internalType": "uint256",
          "name": "event_block",
          "type": "uint256"
        }
      ],
      "name": "MaturityEnd",
      "type": "event"
    },
    {
      "anonymous": false,
      "inputs": [
        {
          "indexed": false,
          "internalType": "uint256",
          "name": "event_int",
          "type": "uint256"
        }
      ],
      "name": "Test",
      "type": "event"
    },
    {
      "inputs": [],
      "name": "ERC20Interface",
      "outputs": [
        {
          "internalType": "contract IERC20",
          "name": "",
          "type": "address"
        }
      ],
      "stateMutability": "view",
      "type": "function",
      "constant": true
    },
    {
      "inputs": [],
      "name": "_farmtoken",
      "outputs": [
        {
          "internalType": "contract FarmToken",
          "name": "",
          "type": "address"
        }
      ],
      "stateMutability": "view",
      "type": "function",
      "constant": true
    },
    {
      "inputs": [],
      "name": "_testcoin",
      "outputs": [
        {
          "internalType": "contract TestCoin",
          "name": "",
          "type": "address"
        }
      ],
      "stateMutability": "view",
      "type": "function",
      "constant": true
    },
    {
      "inputs": [],
      "name": "activationDate",
      "outputs": [
        {
          "internalType": "uint256",
          "name": "",
          "type": "uint256"
        }
      ],
      "stateMutability": "view",
      "type": "function",
      "constant": true
    },
    {
      "inputs": [],
      "name": "adminShares",
      "outputs": [
        {
          "internalType": "uint256",
          "name": "",
          "type": "uint256"
        }
      ],
      "stateMutability": "view",
      "type": "function",
      "constant": true
    },
    {
      "inputs": [
        {
          "internalType": "address",
          "name": "",
          "type": "address"
        }
      ],
      "name": "adminWhitelist",
      "outputs": [
        {
          "internalType": "bool",
          "name": "",
          "type": "bool"
        }
      ],
      "stateMutability": "view",
      "type": "function",
      "constant": true
    },
    {
      "inputs": [
        {
          "internalType": "string",
          "name": "",
          "type": "string"
        }
      ],
      "name": "authorizedTokens",
      "outputs": [
        {
          "internalType": "address",
          "name": "",
          "type": "address"
        }
      ],
      "stateMutability": "view",
      "type": "function",
      "constant": true
    },
    {
      "inputs": [],
      "name": "clientShares",
      "outputs": [
        {
          "internalType": "uint256",
          "name": "",
          "type": "uint256"
        }
      ],
      "stateMutability": "view",
      "type": "function",
      "constant": true
    },
    {
      "inputs": [
        {
          "internalType": "address",
          "name": "",
          "type": "address"
        }
      ],
      "name": "clientWhitelist",
      "outputs": [
        {
          "internalType": "bool",
          "name": "",
          "type": "bool"
        }
      ],
      "stateMutability": "view",
      "type": "function",
      "constant": true
    },
    {
      "inputs": [],
      "name": "earlyRedemptionSharesNumber",
      "outputs": [
        {
          "internalType": "uint256",
          "name": "",
          "type": "uint256"
        }
      ],
      "stateMutability": "view",
      "type": "function",
      "constant": true
    },
    {
      "inputs": [],
      "name": "initialFixing",
      "outputs": [
        {
          "internalType": "uint256",
          "name": "",
          "type": "uint256"
        }
      ],
      "stateMutability": "view",
      "type": "function",
      "constant": true
    },
    {
      "inputs": [],
      "name": "locked",
      "outputs": [
        {
          "internalType": "bool",
          "name": "",
          "type": "bool"
        }
      ],
      "stateMutability": "view",
      "type": "function",
      "constant": true
    },
    {
      "inputs": [],
      "name": "maturityDate",
      "outputs": [
        {
          "internalType": "uint256",
          "name": "",
          "type": "uint256"
        }
      ],
      "stateMutability": "view",
      "type": "function",
      "constant": true
    },
    {
      "inputs": [],
      "name": "maximumLiquidity",
      "outputs": [
        {
          "internalType": "uint256",
          "name": "",
          "type": "uint256"
        }
      ],
      "stateMutability": "view",
      "type": "function",
      "constant": true
    },
    {
      "inputs": [],
      "name": "maximumNotional",
      "outputs": [
        {
          "internalType": "uint256",
          "name": "",
          "type": "uint256"
        }
      ],
      "stateMutability": "view",
      "type": "function",
      "constant": true
    },
    {
      "inputs": [],
      "name": "maximumRedemption",
      "outputs": [
        {
          "internalType": "uint256",
          "name": "",
          "type": "uint256"
        }
      ],
      "stateMutability": "view",
      "type": "function",
      "constant": true
    },
    {
      "inputs": [],
      "name": "payoutRatio",
      "outputs": [
        {
          "internalType": "uint256",
          "name": "",
          "type": "uint256"
        }
      ],
      "stateMutability": "view",
      "type": "function",
      "constant": true
    },
    {
      "inputs": [
        {
          "internalType": "address",
          "name": "",
          "type": "address"
        }
      ],
      "name": "shares",
      "outputs": [
        {
          "internalType": "uint256",
          "name": "",
          "type": "uint256"
        }
      ],
      "stateMutability": "view",
      "type": "function",
      "constant": true
    },
    {
      "inputs": [],
      "name": "strikePrice",
      "outputs": [
        {
          "internalType": "uint256",
          "name": "",
          "type": "uint256"
        }
      ],
      "stateMutability": "view",
      "type": "function",
      "constant": true
    },
    {
      "inputs": [
        {
          "internalType": "address",
          "name": "_address",
          "type": "address"
        }
      ],
      "name": "addClient",
      "outputs": [],
      "stateMutability": "nonpayable",
      "type": "function"
    },
    {
      "inputs": [
        {
          "internalType": "address",
          "name": "_address",
          "type": "address"
        }
      ],
      "name": "addAdmin",
      "outputs": [],
      "stateMutability": "nonpayable",
      "type": "function"
    },
    {
      "inputs": [
        {
          "internalType": "address",
          "name": "_address",
          "type": "address"
        },
        {
          "internalType": "uint256",
          "name": "sharesAmount",
          "type": "uint256"
        }
      ],
      "name": "setShares",
      "outputs": [],
      "stateMutability": "nonpayable",
      "type": "function"
    },
    {
      "inputs": [
        {
          "internalType": "uint256",
          "name": "payout_ratio",
          "type": "uint256"
        }
      ],
      "name": "setPayoutRatio",
      "outputs": [],
      "stateMutability": "nonpayable",
      "type": "function"
    },
    {
      "inputs": [
        {
          "internalType": "uint256",
          "name": "initial_price",
          "type": "uint256"
        }
      ],
      "name": "setInitialPrice",
      "outputs": [],
      "stateMutability": "nonpayable",
      "type": "function"
    },
    {
      "inputs": [
        {
          "internalType": "uint256",
          "name": "strike_price",
          "type": "uint256"
        }
      ],
      "name": "setStrikePrice",
      "outputs": [],
      "stateMutability": "nonpayable",
      "type": "function"
    },
    {
      "inputs": [
        {
          "internalType": "uint256",
          "name": "maturity_minute",
          "type": "uint256"
        }
      ],
      "name": "addMaturity",
      "outputs": [],
      "stateMutability": "nonpayable",
      "type": "function"
    },
    {
      "inputs": [
        {
          "internalType": "uint256",
          "name": "maximum_liquidity",
          "type": "uint256"
        }
      ],
      "name": "setMaximumLiquidity",
      "outputs": [],
      "stateMutability": "nonpayable",
      "type": "function"
    },
    {
      "inputs": [
        {
          "internalType": "uint256",
          "name": "maximum_notional",
          "type": "uint256"
        }
      ],
      "name": "setMaximumNotional",
      "outputs": [],
      "stateMutability": "nonpayable",
      "type": "function"
    },
    {
      "inputs": [
        {
          "internalType": "uint256",
          "name": "shares_number",
          "type": "uint256"
        }
      ],
      "name": "setEarlyRedemptionSharesNumber",
      "outputs": [],
      "stateMutability": "nonpayable",
      "type": "function"
    },
    {
      "inputs": [],
      "name": "switchLock",
      "outputs": [],
      "stateMutability": "nonpayable",
      "type": "function"
    },
    {
      "inputs": [
        {
          "internalType": "string",
          "name": "symbol_",
          "type": "string"
        },
        {
          "internalType": "address",
          "name": "address_",
          "type": "address"
        }
      ],
      "name": "addNewToken",
      "outputs": [
        {
          "internalType": "bool",
          "name": "",
          "type": "bool"
        }
      ],
      "stateMutability": "nonpayable",
      "type": "function"
    },
    {
      "inputs": [
        {
          "internalType": "uint256",
          "name": "finalFixing",
          "type": "uint256"
        }
      ],
      "name": "adminPayout",
      "outputs": [
        {
          "internalType": "uint256",
          "name": "",
          "type": "uint256"
        }
      ],
      "stateMutability": "view",
      "type": "function",
      "constant": true
    },
    {
      "inputs": [
        {
          "internalType": "uint256",
          "name": "finalFixing",
          "type": "uint256"
        },
        {
          "internalType": "address",
          "name": "_address",
          "type": "address"
        }
      ],
      "name": "payout",
      "outputs": [
        {
          "internalType": "uint256",
          "name": "",
          "type": "uint256"
        }
      ],
      "stateMutability": "view",
      "type": "function",
      "constant": true
    },
    {
      "inputs": [
        {
          "internalType": "string",
          "name": "symbol_",
          "type": "string"
        },
        {
          "internalType": "uint256",
          "name": "liquidityAmount",
          "type": "uint256"
        }
      ],
      "name": "addLiquidity",
      "outputs": [],
      "stateMutability": "nonpayable",
      "type": "function"
    },
    {
      "inputs": [
        {
          "internalType": "string",
          "name": "symbol_",
          "type": "string"
        },
        {
          "internalType": "uint256",
          "name": "notionalAmount",
          "type": "uint256"
        }
      ],
      "name": "addNotional",
      "outputs": [],
      "stateMutability": "nonpayable",
      "type": "function"
    },
    {
      "inputs": [
        {
          "internalType": "uint256",
          "name": "sharesAmount",
          "type": "uint256"
        }
      ],
      "name": "settle",
      "outputs": [],
      "stateMutability": "nonpayable",
      "type": "function"
    },
    {
      "inputs": [
        {
          "internalType": "uint256",
          "name": "lpTokenAmount",
          "type": "uint256"
        }
      ],
      "name": "withdrawNotional",
      "outputs": [],
      "stateMutability": "nonpayable",
      "type": "function"
    },
    {
      "inputs": [
        {
          "internalType": "uint256",
          "name": "lpTokenAmount",
          "type": "uint256"
        }
      ],
      "name": "withdrawLiquidity",
      "outputs": [],
      "stateMutability": "nonpayable",
      "type": "function"
    }
  ],
  "bytecode": "0x6080604052600a600355601e6004556000600555426006819055620000269060b4620001ef565b6007556008805460ff19169055600a600981905560035462000048916200020a565b600a55600a546009546200005d9190620001ef565b600b55600a600c55600060105560006011553480156200007c57600080fd5b5060405162001bf638038062001bf68339810160408190526200009f9162000176565b600180546001600160a01b038085166001600160a01b031992831617909255600280548484169216919091179081905560405163095ea7b360e01b815291169063095ea7b390620000fa908590620f424090600401620001d6565b602060405180830381600087803b1580156200011557600080fd5b505af11580156200012a573d6000803e3d6000fd5b505050506040513d601f19601f82011682018060405250810190620001509190620001ad565b50505062000242565b80516001600160a01b03811681146200017157600080fd5b919050565b6000806040838503121562000189578182fd5b620001948362000159565b9150620001a46020840162000159565b90509250929050565b600060208284031215620001bf578081fd5b81518015158114620001cf578182fd5b9392505050565b6001600160a01b03929092168252602082015260400190565b600082198211156200020557620002056200022c565b500190565b60008160001904831182151516156200022757620002276200022c565b500290565b634e487b7160e01b600052601160045260246000fd5b6119a480620002526000396000f3fe608060405234801561001057600080fd5b50600436106102325760003560e01c80638bccbf6211610130578063be95e01a116100b8578063e488cd9f1161007c578063e488cd9f14610437578063f93881a71461044a578063fa53060f14610452578063fc3fdb6f14610465578063fc5cd2461461046557610232565b8063be95e01a146103f9578063c52987cf1461040c578063ce7c2ac214610414578063cf30901214610427578063d59624b41461042f57610232565b80639d4e13da116100ff5780639d4e13da146103b05780639f4ba0ee146103b8578063ac12319d146103cb578063afd2a01c146103de578063b9487330146103e657610232565b80638bccbf621461036f5780638df828001461038257806396099fd6146103955780639c2d06641461039d57610232565b80632740728e116101be57806344a0b0851161018257806344a0b0851461033157806362e9fa2c146103395780637048027514610341578063740e1cca146103545780638b24dc391461035c57610232565b80632740728e146102d057806331932a4d146102f0578063433ff288146102f857806343928cfd1461030b57806343e20a1d1461031e57610232565b80630ffe9d52116102055780630ffe9d52146102855780631a3f3f08146102a55780631bbc4b83146102b85780631ffca242146102c057806325e73303146102c857610232565b806303dcd9cc146102375780630403aa3b146102555780630a861f2a1461025d5780630b098d8514610272575b600080fd5b61023f610478565b60405161024c919061189b565b60405180910390f35b61023f61047e565b61027061026b3660046116a9565b610484565b005b6102706102803660046116a9565b610959565b6102986102933660046115df565b61095e565b60405161024c9190611743565b6102706102b33660046116a9565b610984565b610298610b4b565b610298610b5a565b61023f610b69565b6102e36102de36600461161a565b610b6f565b60405161024c9190611794565b61023f610bbb565b610270610306366004611666565b610bc1565b61027061031936600461157c565b610e24565b6102e361032c36600461157c565b610e48565b61023f610e5d565b610270610e63565b61027061034f36600461157c565b610e8d565b610298610eb1565b61027061036a3660046116a9565b610ec0565b61027061037d366004611596565b610ec5565b6102706103903660046116a9565b610ee1565b61023f611156565b6102706103ab3660046116a9565b61115c565b61023f61117a565b6102706103c63660046116a9565b611180565b61023f6103d93660046116a9565b611185565b61023f6111d6565b6102e36103f436600461157c565b6111dc565b61023f6104073660046116d9565b6111f1565b61023f61124a565b61023f61042236600461157c565b611250565b6102e3611262565b61023f61126b565b6102706104453660046116a9565b611271565b61023f611276565b610270610460366004611666565b61127c565b6102706104733660046116a9565b6114df565b600b5481565b60065481565b336000908152600e602052604090205460ff166104bc5760405162461bcd60e51b81526004016104b390611839565b60405180910390fd5b6010546011546104cc91906118d4565b811415610681576001546040516323b872dd60e01b81526001600160a01b03909116906323b872dd9061050790339030908690600401611757565b602060405180830381600087803b15801561052157600080fd5b505af1158015610535573d6000803e3d6000fd5b505050506040513d601f19601f8201168201806040525081019061055991906115bf565b50600154604051632e1a7d4d60e01b81526001600160a01b0390911690632e1a7d4d9061058a90849060040161189b565b602060405180830381600087803b1580156105a457600080fd5b505af11580156105b8573d6000803e3d6000fd5b505050506040513d601f19601f820116820180604052508101906105dc91906116c1565b50336000818152600f6020526040808220829055601182905560108290559054600b54915163a9059cbb60e01b81526001600160a01b039091169263a9059cbb926106299260040161177b565b602060405180830381600087803b15801561064357600080fd5b505af1158015610657573d6000803e3d6000fd5b505050506040513d601f19601f8201168201806040525081019061067b91906115bf565b50610956565b6007544210156106a35760405162461bcd60e51b81526004016104b3906117cb565b6001546040516323b872dd60e01b81526001600160a01b03909116906323b872dd906106d790339030908690600401611757565b602060405180830381600087803b1580156106f157600080fd5b505af1158015610705573d6000803e3d6000fd5b505050506040513d601f19601f8201168201806040525081019061072991906115bf565b50600154604051632e1a7d4d60e01b81526000916001600160a01b031690632e1a7d4d9061075b90859060040161189b565b602060405180830381600087803b15801561077557600080fd5b505af1158015610789573d6000803e3d6000fd5b505050506040513d601f19601f820116820180604052508101906107ad91906116c1565b6005546002546040516370a0823160e01b815292935090916000916001600160a01b0316906370a08231906107e6903090600401611743565b60206040518083038186803b1580156107fe57600080fd5b505afa158015610812573d6000803e3d6000fd5b505050506040513d601f19601f8201168201806040525081019061083691906116c1565b905060006064610846838661190c565b336000908152600f602052604090205461086190859061190c565b61086c85606461190c565b610876919061192b565b610880919061192b565b61088a91906118ec565b336000908152600f60205260408120805492935086929091906108ae90849061192b565b9250508190555083601060008282546108c7919061192b565b909155505060005460405163a9059cbb60e01b81526001600160a01b039091169063a9059cbb906108fe903390859060040161177b565b602060405180830381600087803b15801561091857600080fd5b505af115801561092c573d6000803e3d6000fd5b505050506040513d601f19601f8201168201806040525081019061095091906115bf565b50505050505b50565b600355565b80516020818301810180516012825292820191909301209152546001600160a01b031681565b336000908152600d602052604090205460ff166109b35760405162461bcd60e51b81526004016104b390611839565b6007544210156109d55760405162461bcd60e51b81526004016104b3906117cb565b6001546040516323b872dd60e01b81526001600160a01b03909116906323b872dd90610a0990339030908690600401611757565b602060405180830381600087803b158015610a2357600080fd5b505af1158015610a37573d6000803e3d6000fd5b505050506040513d601f19601f82011682018060405250810190610a5b91906115bf565b50600154604051632e1a7d4d60e01b81526000916001600160a01b031690632e1a7d4d90610a8d90859060040161189b565b602060405180830381600087803b158015610aa757600080fd5b505af1158015610abb573d6000803e3d6000fd5b505050506040513d601f19601f82011682018060405250810190610adf91906116c1565b6005549091506000610af182336111f1565b905060006011548285610b04919061190c565b610b0e91906118ec565b336000908152600f6020526040812080549293508692909190610b3290849061192b565b9250508190555083601160008282546108c7919061192b565b6000546001600160a01b031681565b6002546001600160a01b031681565b600a5481565b600081601284604051610b8291906116fb565b90815260405190819003602001902080546001600160a01b03929092166001600160a01b03199092169190911790555060015b92915050565b600c5481565b336000908152600e602052604090205460ff16610bf05760405162461bcd60e51b81526004016104b390611802565b60095481601054610c0191906118d4565b1115610c1f5760405162461bcd60e51b81526004016104b39061179f565b6000601283604051610c3191906116fb565b90815260405190819003602001812054600080546001600160a01b0319166001600160a01b03928316908117918290556323b872dd60e01b8452935016906323b872dd90610c8790339030908790600401611757565b602060405180830381600087803b158015610ca157600080fd5b505af1158015610cb5573d6000803e3d6000fd5b505050506040513d601f19601f82011682018060405250810190610cd991906115bf565b5060015460405163b6b55f2560e01b81526001600160a01b039091169063b6b55f2590610d0a90859060040161189b565b602060405180830381600087803b158015610d2457600080fd5b505af1158015610d38573d6000803e3d6000fd5b505050506040513d601f19601f82011682018060405250810190610d5c91906116c1565b5060015460405163a9059cbb60e01b81526001600160a01b039091169063a9059cbb90610d8f903390869060040161177b565b602060405180830381600087803b158015610da957600080fd5b505af1158015610dbd573d6000803e3d6000fd5b505050506040513d601f19601f82011682018060405250810190610de191906115bf565b50336000908152600f602052604081208054849290610e019084906118d4565b925050819055508160106000828254610e1a91906118d4565b9091555050505050565b6001600160a01b03166000908152600d60205260409020805460ff19166001179055565b600e6020526000908152604090205460ff1681565b60045481565b60085460ff1615610e7d576008805460ff19169055610e8b565b6008805460ff191660011790555b565b6001600160a01b03166000908152600e60205260409020805460ff19166001179055565b6001546001600160a01b031681565b600c55565b6001600160a01b039091166000908152600f6020526040902055565b60006012604051610ef190611734565b90815260405190819003602001902054600080546001600160a01b0319166001600160a01b039092169182179055600754909150421015610f445760405162461bcd60e51b81526004016104b3906117cb565b6005546001546040516323b872dd60e01b8152849182916001600160a01b03909116906323b872dd90610f7f90339030908690600401611757565b602060405180830381600087803b158015610f9957600080fd5b505af1158015610fad573d6000803e3d6000fd5b505050506040513d601f19601f82011682018060405250810190610fd191906115bf565b50600154604051632e1a7d4d60e01b81526001600160a01b0390911690632e1a7d4d9061100290889060040161189b565b602060405180830381600087803b15801561101c57600080fd5b505af1158015611030573d6000803e3d6000fd5b505050506040513d601f19601f8201168201806040525081019061105491906116c1565b5060005460405163a9059cbb60e01b81526001600160a01b039091169063a9059cbb90611087903390859060040161177b565b602060405180830381600087803b1580156110a157600080fd5b505af11580156110b5573d6000803e3d6000fd5b505050506040513d601f19601f820116820180604052508101906110d991906115bf565b50336000908152600f6020526040812080548792906110f990849061192b565b925050819055508460116000828254611112919061192b565b90915550506040517f96ade0f1f5bcb55715ca55b0ec0d2a69bc3af69979945687d88827f582be3821906111479083906118a4565b60405180910390a15050505050565b60115481565b61116781603c61190c565b60075461117491906118d4565b60075550565b60035481565b600455565b60006005548210156111cd57600954600454836011546111a5919061190c565b6111af91906118ec565b600b546111bc919061192b565b6111c691906118d4565b90506111d1565b5060005b919050565b60095481565b600d6020526000908152604090205460ff1681565b600060055483106112055750600b54610bb5565b6009546004546001600160a01b0384166000908152600f602052604090205461122f90869061190c565b61123991906118ec565b61124391906118d4565b9392505050565b60055481565b600f6020526000908152604090205481565b60085460ff1681565b60075481565b600555565b60105481565b336000908152600d602052604090205460ff166112ab5760405162461bcd60e51b81526004016104b390611839565b600a54816011546112bc91906118d4565b11156112da5760405162461bcd60e51b81526004016104b390611870565b60006012836040516112ec91906116fb565b90815260405190819003602001812054600080546001600160a01b0319166001600160a01b03928316908117918290556323b872dd60e01b8452935016906323b872dd9061134290339030908790600401611757565b602060405180830381600087803b15801561135c57600080fd5b505af1158015611370573d6000803e3d6000fd5b505050506040513d601f19601f8201168201806040525081019061139491906115bf565b50336000908152600f6020526040812080548492906113b49084906118d4565b9250508190555081601160008282546113cd91906118d4565b909155505060015460405163b6b55f2560e01b81526001600160a01b039091169063b6b55f259061140290859060040161189b565b602060405180830381600087803b15801561141c57600080fd5b505af1158015611430573d6000803e3d6000fd5b505050506040513d601f19601f8201168201806040525081019061145491906116c1565b5060015460405163a9059cbb60e01b81526001600160a01b039091169063a9059cbb90611487903390869060040161177b565b602060405180830381600087803b1580156114a157600080fd5b505af11580156114b5573d6000803e3d6000fd5b505050506040513d601f19601f820116820180604052508101906114d991906115bf565b50505050565b600955565b80356001600160a01b03811681146111d157600080fd5b600082601f83011261150b578081fd5b813567ffffffffffffffff8082111561152657611526611958565b604051601f8301601f19168101602001828111828210171561154a5761154a611958565b604052828152848301602001861015611561578384fd5b82602086016020830137918201602001929092529392505050565b60006020828403121561158d578081fd5b611243826114e4565b600080604083850312156115a8578081fd5b6115b1836114e4565b946020939093013593505050565b6000602082840312156115d0578081fd5b81518015158114611243578182fd5b6000602082840312156115f0578081fd5b813567ffffffffffffffff811115611606578182fd5b611612848285016114fb565b949350505050565b6000806040838503121561162c578182fd5b823567ffffffffffffffff811115611642578283fd5b61164e858286016114fb565b92505061165d602084016114e4565b90509250929050565b60008060408385031215611678578182fd5b823567ffffffffffffffff81111561168e578283fd5b61169a858286016114fb565b95602094909401359450505050565b6000602082840312156116ba578081fd5b5035919050565b6000602082840312156116d2578081fd5b5051919050565b600080604083850312156116eb578182fd5b8235915061165d602084016114e4565b60008251815b8181101561171b5760208186018101518583015201611701565b818111156117295782828501525b509190910192915050565b621514d560ea1b815260030190565b6001600160a01b0391909116815260200190565b6001600160a01b039384168152919092166020820152604081019190915260600190565b6001600160a01b03929092168252602082015260400190565b901515815260200190565b602080825260129082015271546f6f206d616e79206c697175696469747960701b604082015260600190565b6020808252601d908201527f4d617475726974792064617465206e6f74207265616368656420796574000000604082015260600190565b6020808252601b908201527f596f75277265206e6f7420616e20616c6c6f7765642061646d696e0000000000604082015260600190565b6020808252601c908201527f596f75277265206e6f7420616e20616c6c6f77656420636c69656e7400000000604082015260600190565b602080825260119082015270151bdbc81b585b9e48139bdd1a5bdb985b607a1b604082015260600190565b90815260200190565b908152604060208201819052600f908201526e53656e64206d6f6e6579206261636b60881b606082015260800190565b600082198211156118e7576118e7611942565b500190565b60008261190757634e487b7160e01b81526012600452602481fd5b500490565b600081600019048311821515161561192657611926611942565b500290565b60008282101561193d5761193d611942565b500390565b634e487b7160e01b600052601160045260246000fd5b634e487b7160e01b600052604160045260246000fdfea26469706673582212208aad4c364589d773862baab5769e3edb1b4979777a78e3f6485f9594bc004d0164736f6c63430008000033",
  "immutableReferences": {},
  "source": "/*\nMarex SmartContract\n\nSPDX-License-Identifier: MIT\n*/\npragma solidity >=0.8.0;\n\n// import \"./deployment/ManagedContract.sol\";\nimport \"@openzeppelin/contracts/utils/math/SafeMath.sol\";\nimport \"@openzeppelin/contracts/token/ERC20/ERC20.sol\";\nimport \"./finance/FarmToken.sol\";\nimport \"./finance/TestCoin.sol\";\n\n\n// contract Marex is ManagedContract {\ncontract Marex {\n    using SafeMath for uint;\n\n    IERC20 public ERC20Interface;\n    FarmToken public _farmtoken;\n    TestCoin public _testcoin;\n\n    /*\n    enum addressType{INVESTOR, LIQUIDITY}\n    mapping (address => addressType) public providerType;\n    */\n\n    // payoutRatio de 10%\n    uint public payoutRatio = 10;\n    uint public initialFixing = 30;\n    uint public strikePrice = 0;\n\n    // Active le contract aujourd'hui\n    uint public activationDate = block.timestamp;\n    // Date de maturit  aujourd'hui + 1 minute\n    uint public maturityDate = ( activationDate + 3 minutes);\n    // Bolean to activate/deactivate the contract\n    bool public locked = false;\n\n    // Liquidit maximum du provider\n    uint public maximumLiquidity = 10;\n    // Liquidit maximum du sender  payoutRatio * liquidit du provider\n    uint public maximumNotional = maximumLiquidity * payoutRatio;\n    uint public maximumRedemption = maximumLiquidity + maximumNotional;\n\n    // Number of shares required to withdrawn before the maturity has been reached\n    uint public earlyRedemptionSharesNumber = 10;\n\n    // For multiple liquidity providers\n    // uint public maximumDenomination = maximumLiquidity + maximumNotional;\n    // uint public maximumIssuanceSize = maximumDenomination + maximumNotional;\n\n    // @TODO ajout/Retrait de whitelist\n    mapping(address => bool) public clientWhitelist;\n    mapping(address => bool) public adminWhitelist;\n\n    // mapping address => fond\n    mapping (address => uint) public shares;\n\n    uint public adminShares = 0;\n    uint public clientShares = 0;\n\n    /**\n    * @dev list of all supported tokens for transfer\n    *  string token symbol\n    *  address contract address of token\n    */\n    mapping(string => address) public authorizedTokens;\n\n\n    event Test(uint event_int);\n    event Fric(uint event_int, string event_string);\n    event Log(address event_string);\n    event LogS(string event_string);\n    event MaturityEnd(uint event_uint, uint event_block);\n\n    constructor(address farmTokenAddress, address testCoinAddress) {\n        _farmtoken = FarmToken(farmTokenAddress);\n        _testcoin = TestCoin(testCoinAddress);\n        // _farmtoken.approve(farmTokenAddress, 1000000);\n        _testcoin.approve(farmTokenAddress, 1000000);\n    }\n    /*\n    function initialize(Deployer deployer) override internal {\n        // exchange = OptionsExchange(deployer.getContractAddress(\"OptionsExchange\"));\n    }\n    */\n    function addClient(address _address) public {\n        clientWhitelist[_address] = true;\n    }\n    function addAdmin(address _address) public {\n        adminWhitelist[_address] = true;\n    }\n\n    function setShares(address _address, uint sharesAmount) public {\n        shares[_address] = sharesAmount;\n    }\n    function setPayoutRatio(uint payout_ratio) public {\n        payoutRatio = payout_ratio;\n    }\n    function setInitialPrice(uint initial_price) public {\n        initialFixing = initial_price;\n    }\n    function setStrikePrice(uint strike_price) public {\n        strikePrice = strike_price;\n    }\n    function addMaturity(uint maturity_minute) public {\n        maturityDate = maturityDate + ( maturity_minute * 60);\n    }\n    function setMaximumLiquidity(uint maximum_liquidity) public {\n        maximumLiquidity = maximum_liquidity;\n    }\n    function setMaximumNotional(uint maximum_notional) public {\n        maximumLiquidity = maximum_notional;\n    }\n    function setEarlyRedemptionSharesNumber(uint shares_number) public {\n        earlyRedemptionSharesNumber = shares_number;\n    }\n\n    function switchLock() public {\n        if (locked) {locked = false;}\n        else{locked = true;}\n    }\n\n    function addNewToken(string memory symbol_, address address_) public returns (bool) {\n        authorizedTokens[symbol_] = address_;\n        return true;\n    }\n\n    function adminPayout(uint finalFixing) public view returns(uint) {\n        if (finalFixing < strikePrice) {\n            return maximumRedemption - (clientShares * finalFixing ) / initialFixing + maximumLiquidity;\n        }\n        return 0;\n\n    }\n    function payout(uint finalFixing, address _address) public view returns(uint) {\n        if (finalFixing >= strikePrice) {\n            return maximumRedemption;\n        }\n        return (shares[_address] * finalFixing ) / initialFixing + maximumLiquidity;\n\n    }\n\n    function addLiquidity(string memory symbol_, uint liquidityAmount) public {\n        // require(shares[msg.sender] + msg.value <= maximumsender, \"You can't send that much money\");\n        // require(whitelistedLiquidityProvider[msg.sender], \"You are not authorized to deposit);\n        // require(msg.value > 3, \"You can't send that much money\");\n        // Test if we reach maximumLiquidity\n\n\n        // LiquidityProvider Whitelist\n        // require(adminWhitelist[msg.sender].exists, \"You are not an authorized admin\");\n        require(adminWhitelist[msg.sender], \"You're not an allowed admin\");\n\n        require(adminShares + liquidityAmount <= maximumLiquidity, \"Too many liquidity\");\n\n\n        address contract_ = authorizedTokens[symbol_];\n        ERC20Interface =  ERC20(contract_);\n\n        ERC20Interface.transferFrom(msg.sender, address(this), liquidityAmount);\n        _farmtoken.deposit(liquidityAmount);        \n        // Conversion Ratio ?\n        _farmtoken.transfer(msg.sender, liquidityAmount);\n        \n        shares[msg.sender] += liquidityAmount;\n        adminShares += liquidityAmount;\n        /*if (currentBalance == previousBalance + liquidityAmount) {\n        }*/\n\n        // Emit that an liquidity provider sent money\n        //emit Test(msg.value);\n    }\n\n    function addNotional(string memory symbol_, uint notionalAmount) public {\n        // require(shares[msg.sender] + msg.value <= maximumsender, \"You can't send that much money\");\n        // require(whitelistedLiquidityProvider[msg.sender], \"You are not authorized to deposit);\n        // require(msg.value > 3, \"You can't send that much money\");\n        // Test if we reach maximumLiquidity\n        \n        // Client Whitelist\n        // require(clientWhitelist[msg.sender].exists, \"You are not an authorized client\");\n\n        require(clientWhitelist[msg.sender], \"You're not an allowed client\");\n        require(clientShares + notionalAmount <= maximumNotional, \"Too many Notional\");\n\n\n\n        address contract_ = authorizedTokens[symbol_];\n        ERC20Interface =  ERC20(contract_);\n        \n        ERC20Interface.transferFrom(msg.sender, address(this), notionalAmount);\n\n        shares[msg.sender] += notionalAmount;\n        clientShares += notionalAmount;\n            // Conversion Ratio ?\n        _farmtoken.deposit(notionalAmount);\n        _farmtoken.transfer(msg.sender, notionalAmount);\n\n        // Emit that an liquidity provider sent money\n        //emit Test(msg.value);\n    }\n    function settle(uint sharesAmount) public {\n        address contract_ = authorizedTokens[\"TST\"];\n        ERC20Interface =  ERC20(contract_);\n        // Have we reached maturity ?\n        require(block.timestamp >= maturityDate, \"Maturity date not reached yet\");\n        // Do both participant send their maximum amount ?\n        /*\n        require(\n            ERC20Interface.balanceOf(address(this)) == maximumRedemption && \n            shares[msg.sender] == maximumNotional, \n            \"Maximum payout not reached\"\n        );*/\n\n        // Check oracle price\n        uint oraclePrice = strikePrice;\n        // Without liquidity pegging\n        // uint notional = shares[msg.sender];\n        // With liquidity pegging (Ratio multiplier ?)\n        // must also check if shares are enough compared to what was deposited\n        uint notional = sharesAmount;\n\n        // uint settleAmount = 0 ;\n        uint settleAmount = notional;\n        \n        // uint previousBalance = _farmtoken.balanceOf(address(this));\n        _farmtoken.transferFrom(msg.sender, address(this), sharesAmount);\n        // uint currentBalance = _farmtoken.balanceOf(address(this));\n        _farmtoken.withdraw(sharesAmount);\n\n        // Normally multiplier * sharesAmount = initialCollateral\n        // initialCollateral has to be fed in the payout function\n        \n        /*\n        if(clientWhitelist[msg.sender].exists) {\n            // Address is a client\n            settleAmount = payout(oraclePrice, notional);\n        } else if (admin.whiteList[msg.sender].exists) {\n            // Address is an admin\n            settleAmount = what's left in the pool ?\n        } else {\n            // Address is neither we stop computation\n            assert(true);\n        }*/\n\n        // Compute payout function ratio on all shares\n        // uint participantShares = shares[msg.sender];\n\n        // Check if sum of all balances is okay compared to fund locked in the contract\n        // and be sure that debt are cleansed and balance ajusted\n\n        // Send back payout\n        ERC20Interface.transfer(msg.sender, settleAmount);\n\n        // Previous\n        // shares[msg.sender] = 0;\n        // Multiplier also need here if liquidity pegging\n        shares[msg.sender] -= sharesAmount;\n        clientShares -= sharesAmount;\n        \n        // Emit the event \n        emit Fric(settleAmount, \"Send money back\");\n\n\n        /*\n        // Use the PayoutRatio Function\n        if (settleAmount > 0) {\n            shares[msg.sender] -= settleAmount;\n            if(senderList[msg.sender]) {\n                holders[_totalHolders] = address(0);\n                senderList[msg.sender] = false;\n                _totalHolders--;\n            }\n        }\n        msg.sender.transfer(settleAmount);\n\n        */\n        // exchange.withdrawTokens(settleAmount);\n    }\n\n\n    function withdrawNotional(uint lpTokenAmount) public {\n        // Depending on the number of LP tokens sent\n        require(clientWhitelist[msg.sender], \"You're not an allowed client\");\n        require(block.timestamp >= maturityDate, \"Maturity date not reached yet\");\n        //Check if the maxm amount from admin ad client have been deposited otherwise you can't withdraw\n        // + report the maturity until the max deposit has been made\n\n        // uint previousBalance = _farmtoken.balanceOf(address(this));\n        _farmtoken.transferFrom(msg.sender, address(this), lpTokenAmount);\n        // uint currentBalance = _farmtoken.balanceOf(address(this));\n        uint clientAmount = _farmtoken.withdraw(lpTokenAmount);\n\n        // OraclePrice should be fixed now\n        uint oraclePrice = strikePrice;\n        // uint withdrawAmount;\n        // uint currentShares = shares[msg.sender];\n\n        // uint currentPayoutAmount = (1 - (shares[msg.sender] - clientAmount)/100) * 10;//(1 - (shares[msg.sender] - clientAmount)/100) * payout(oraclePrice, clientAmount);\n        uint value = payout(oraclePrice, msg.sender);\n        // fcking hell we can't use percentage\n        // uint currentPayoutAmount = (100*value - shares[msg.sender] * value - clientAmount * value) / 100;\n        uint currentPayoutAmount = (clientAmount * value ) / clientShares;\n\n        shares[msg.sender] -= clientAmount;\n        clientShares -= clientAmount;\n\n        ERC20Interface.transfer(msg.sender, currentPayoutAmount);\n    }\n\n    function withdrawLiquidity(uint lpTokenAmount) public {\n        // Depending on the number of LP tokens sent\n        require(adminWhitelist[msg.sender], \"You're not an allowed client\");\n        if (lpTokenAmount == clientShares + adminShares) {\n            _farmtoken.transferFrom(msg.sender, address(this), lpTokenAmount);\n            _farmtoken.withdraw(lpTokenAmount);\n            // !!!! We Must clean every shares of everyone for this options !!!!\n            shares[msg.sender] = 0;\n            clientShares = 0;\n            adminShares = 0;\n            ERC20Interface.transfer(msg.sender, maximumRedemption);\n\n        } else {\n            require(block.timestamp >= maturityDate, \"Maturity date not reached yet\");\n\n            // uint previousBalance = _farmtoken.balanceOf(address(this));\n            _farmtoken.transferFrom(msg.sender, address(this), lpTokenAmount);\n            // uint currentBalance = _farmtoken.balanceOf(address(this));\n            uint256 adminAmount = _farmtoken.withdraw(lpTokenAmount);\n\n            // OraclePrice should be fixed now\n            uint oraclePrice = strikePrice;\n            // uint withdrawAmount;\n            // uint currentShares = shares[msg.sender];\n\n            // uint currentPayoutAmount = (1 - (shares[msg.sender] - adminAmount)/100) * adminPayout(oraclePrice);\n            //uint currentPayoutAmount = (1 - (shares[msg.sender] - adminAmount)/100) * 10;//(1 - (shares[msg.sender] - clientAmount)/100) * payout(oraclePrice, clientAmount);\n            uint value = _testcoin.balanceOf(address(this));\n            uint currentPayoutAmount = (100*value - shares[msg.sender] * value - adminAmount * value) / 100;\n\n\n            shares[msg.sender] -= adminAmount;\n            adminShares -= adminAmount;\n\n            ERC20Interface.transfer(msg.sender, currentPayoutAmount);\n        }\n    }\n/*\n    function associateLiquidity(string memory symbol_) public payable {\n        // require(shares[msg.sender] + msg.value <= maximumsender, \"You can't send that much money\");\n        // require(whitelistedLiquidityProvider[msg.sender], \"You are not authorized to deposit);\n        // require(msg.value > 3, \"You can't send that much money\");\n        // Test if we reach maximumLiquidity\n        shares[msg.sender] += msg.value;\n        address contract_ = authorizedTokens[symbol_];\n        ERC20Interface =  ERC20(contract_);\n        ERC20Interface.transfer(address(this), msg.value);\n        // exchange.depositTokens(address(this), address(ERC20Interface), msg.value);\n       /* \n        require(!liquidityProviderLock, \"This contract is locked for funds\");\n        if (shares[msg.sender] + msg.value > maximumLiquidity) {\n            if (msg.value >= (maximumSender - shares[msg.sender])) {\n                shares[msg.sender] += (maximumLiquidity = shares[msg.sender]);\n                msg.sender.transfer(maximumLiquidity = shares[msg.sender]);\n                liquidityProviderLock = true;\n            }\n        }else{\n            shares[msg.sender] += msg.value;\n        }\n        if(!senderList[msg.sender]) {\n            holders[_totalHolders] = msg.sender;\n            providerType[msg.sender] = addressType.LIQUIDITY;\n            senderList[msg.sender] = true;\n            _totalHolders++;\n        }*/\n        // Emit that an liquidity provider sent money\n        //emit Test(msg.value);\n    //}\n    /*\n    function associateAddress() public payable {\n        // require(shares[msg.sender] + msg.value <= maximumsender, \"You can't send that much money\");\n        // require(whitelistedInvestor[msg.sender], \"You are not authorized to deposit);\n        // require(msg.value > 3, \"You can't send that much money\");\n        // Test if we reach maximumsender\n        require(!investorLock, \"This contract is locked for funds\");\n        if (shares[msg.sender] + msg.value > maximumSender) {\n            if (msg.value >= (maximumSender - shares[msg.sender])) {\n                shares[msg.sender] += (maximumSender = shares[msg.sender]);\n                payable(msg.sender).transfer(maximumSender = shares[msg.sender]);\n                investorLock = true;\n            }\n        }else{\n            shares[msg.sender] += msg.value;\n        }\n        if(!senderList[msg.sender]) {\n            holders[_totalHolders] = payable(msg.sender);\n            providerType[msg.sender] = addressType.INVESTOR;\n            senderList[msg.sender] = true;\n            _totalHolders++;\n        }\n        // Emit that an investors sent money\n        emit Test(msg.value);\n    }\n*/\n    /*\n    function withdraw() public returns (bool) {\n        // It is important to set this to zero because the recipient\n        // can call this function again as part of the receiving call\n        // before `send` returns.\n        pendingReturns[msg.sender] = 0;\n\n        if (!msg.sender.send(amount)) {\n            // No need to call throw here, just reset the amount owing\n            pendingReturns[msg.sender] = amount;\n            return false;\n        }\n        return true;\n    }*/\n\n}\n/*\n    function approve(string memory symbol_, address address_, uint value) public {\n        address contract_ = authorizedTokens[symbol_];\n        ERC20Interface =  ERC20(contract_);\n        ERC20Interface.approve(address_, value);\n        // ERC20Interface.approve(address(0xCD50Fcc572DB2Cf8056aa76Cb0b26812696E353c), value);\n        //ee.approve(address(exchange), msg.value);\n        emit Log(address(contract_));\n    }\n*/",
  "sourcePath": "/home/rems/block/lol/contracts/Marex.sol",
  "compiler": {
    "name": "solc",
    "version": "0.8.0+commit.c7dfd78e.Emscripten.clang"
  },
  "schemaVersion": "3.4.0",
  "updatedAt": "2021-05-27T21:21:13.182Z",
  "networkType": "ethereum",
  "devdoc": {
    "kind": "dev",
    "methods": {},
    "stateVariables": {
      "authorizedTokens": {
        "details": "list of all supported tokens for transfer  string token symbol  address contract address of token"
      }
    },
    "version": 1
  },
  "userdoc": {
    "kind": "user",
    "methods": {},
    "version": 1
  }
}