{
  "_format": "hh-sol-artifact-1",
  "contractName": "OptionsExchange",
  "sourceName": "contracts/finance/OptionsExchange.sol",
  "abi": [
    {
      "inputs": [],
      "stateMutability": "nonpayable",
      "type": "constructor"
    },
    {
      "anonymous": false,
      "inputs": [
        {
          "indexed": true,
          "internalType": "address",
          "name": "token",
          "type": "address"
        },
        {
          "indexed": true,
          "internalType": "address",
          "name": "sender",
          "type": "address"
        }
      ],
      "name": "CreateSymbol",
      "type": "event"
    },
    {
      "anonymous": false,
      "inputs": [
        {
          "indexed": true,
          "internalType": "address",
          "name": "token",
          "type": "address"
        },
        {
          "indexed": true,
          "internalType": "address",
          "name": "sender",
          "type": "address"
        },
        {
          "indexed": true,
          "internalType": "address",
          "name": "onwer",
          "type": "address"
        },
        {
          "indexed": false,
          "internalType": "uint256",
          "name": "volume",
          "type": "uint256"
        }
      ],
      "name": "LiquidateEarly",
      "type": "event"
    },
    {
      "anonymous": false,
      "inputs": [
        {
          "indexed": true,
          "internalType": "address",
          "name": "token",
          "type": "address"
        },
        {
          "indexed": true,
          "internalType": "address",
          "name": "sender",
          "type": "address"
        },
        {
          "indexed": true,
          "internalType": "address",
          "name": "onwer",
          "type": "address"
        },
        {
          "indexed": false,
          "internalType": "uint256",
          "name": "volume",
          "type": "uint256"
        }
      ],
      "name": "LiquidateExpired",
      "type": "event"
    },
    {
      "anonymous": false,
      "inputs": [
        {
          "indexed": true,
          "internalType": "address",
          "name": "from",
          "type": "address"
        },
        {
          "indexed": false,
          "internalType": "uint256",
          "name": "value",
          "type": "uint256"
        }
      ],
      "name": "WithdrawTokens",
      "type": "event"
    },
    {
      "anonymous": false,
      "inputs": [
        {
          "indexed": true,
          "internalType": "address",
          "name": "token",
          "type": "address"
        },
        {
          "indexed": true,
          "internalType": "address",
          "name": "issuer",
          "type": "address"
        },
        {
          "indexed": true,
          "internalType": "address",
          "name": "onwer",
          "type": "address"
        },
        {
          "indexed": false,
          "internalType": "uint256",
          "name": "volume",
          "type": "uint256"
        }
      ],
      "name": "WriteOptions",
      "type": "event"
    },
    {
      "inputs": [],
      "name": "DOMAIN_SEPARATOR",
      "outputs": [
        {
          "internalType": "bytes32",
          "name": "",
          "type": "bytes32"
        }
      ],
      "stateMutability": "view",
      "type": "function"
    },
    {
      "inputs": [],
      "name": "PERMIT_TYPEHASH",
      "outputs": [
        {
          "internalType": "bytes32",
          "name": "",
          "type": "bytes32"
        }
      ],
      "stateMutability": "view",
      "type": "function"
    },
    {
      "inputs": [
        {
          "internalType": "address",
          "name": "owner",
          "type": "address"
        }
      ],
      "name": "balanceOf",
      "outputs": [
        {
          "internalType": "uint256",
          "name": "",
          "type": "uint256"
        }
      ],
      "stateMutability": "view",
      "type": "function"
    },
    {
      "inputs": [
        {
          "internalType": "address",
          "name": "owner",
          "type": "address"
        }
      ],
      "name": "calcCollateral",
      "outputs": [
        {
          "internalType": "uint256",
          "name": "",
          "type": "uint256"
        }
      ],
      "stateMutability": "view",
      "type": "function"
    },
    {
      "inputs": [
        {
          "internalType": "address",
          "name": "udlFeed",
          "type": "address"
        },
        {
          "internalType": "uint256",
          "name": "volume",
          "type": "uint256"
        },
        {
          "internalType": "enum OptionsExchange.OptionType",
          "name": "optType",
          "type": "uint8"
        },
        {
          "internalType": "uint256",
          "name": "strike",
          "type": "uint256"
        },
        {
          "internalType": "uint256",
          "name": "maturity",
          "type": "uint256"
        }
      ],
      "name": "calcCollateral",
      "outputs": [
        {
          "internalType": "uint256",
          "name": "",
          "type": "uint256"
        }
      ],
      "stateMutability": "view",
      "type": "function"
    },
    {
      "inputs": [
        {
          "internalType": "address",
          "name": "owner",
          "type": "address"
        }
      ],
      "name": "calcDebt",
      "outputs": [
        {
          "internalType": "uint256",
          "name": "debt",
          "type": "uint256"
        }
      ],
      "stateMutability": "view",
      "type": "function"
    },
    {
      "inputs": [
        {
          "internalType": "address",
          "name": "owner",
          "type": "address"
        }
      ],
      "name": "calcExpectedPayout",
      "outputs": [
        {
          "internalType": "int256",
          "name": "payout",
          "type": "int256"
        }
      ],
      "stateMutability": "view",
      "type": "function"
    },
    {
      "inputs": [
        {
          "internalType": "address",
          "name": "_tk",
          "type": "address"
        }
      ],
      "name": "calcIntrinsicValue",
      "outputs": [
        {
          "internalType": "int256",
          "name": "",
          "type": "int256"
        }
      ],
      "stateMutability": "view",
      "type": "function"
    },
    {
      "inputs": [
        {
          "internalType": "address",
          "name": "udlFeed",
          "type": "address"
        },
        {
          "internalType": "enum OptionsExchange.OptionType",
          "name": "optType",
          "type": "uint8"
        },
        {
          "internalType": "uint256",
          "name": "strike",
          "type": "uint256"
        },
        {
          "internalType": "uint256",
          "name": "maturity",
          "type": "uint256"
        }
      ],
      "name": "calcIntrinsicValue",
      "outputs": [
        {
          "internalType": "int256",
          "name": "",
          "type": "int256"
        }
      ],
      "stateMutability": "view",
      "type": "function"
    },
    {
      "inputs": [
        {
          "internalType": "address",
          "name": "owner",
          "type": "address"
        }
      ],
      "name": "calcSurplus",
      "outputs": [
        {
          "internalType": "uint256",
          "name": "",
          "type": "uint256"
        }
      ],
      "stateMutability": "view",
      "type": "function"
    },
    {
      "inputs": [
        {
          "internalType": "address",
          "name": "_tk",
          "type": "address"
        },
        {
          "internalType": "address",
          "name": "owner",
          "type": "address"
        },
        {
          "internalType": "uint256",
          "name": "volume",
          "type": "uint256"
        }
      ],
      "name": "cleanUp",
      "outputs": [],
      "stateMutability": "nonpayable",
      "type": "function"
    },
    {
      "inputs": [
        {
          "internalType": "address",
          "name": "",
          "type": "address"
        }
      ],
      "name": "collateral",
      "outputs": [
        {
          "internalType": "uint256",
          "name": "",
          "type": "uint256"
        }
      ],
      "stateMutability": "view",
      "type": "function"
    },
    {
      "inputs": [
        {
          "internalType": "string",
          "name": "symbol",
          "type": "string"
        },
        {
          "internalType": "address",
          "name": "udlFeed",
          "type": "address"
        }
      ],
      "name": "createSymbol",
      "outputs": [
        {
          "internalType": "address",
          "name": "tk",
          "type": "address"
        }
      ],
      "stateMutability": "nonpayable",
      "type": "function"
    },
    {
      "inputs": [
        {
          "internalType": "address",
          "name": "to",
          "type": "address"
        },
        {
          "internalType": "address",
          "name": "token",
          "type": "address"
        },
        {
          "internalType": "uint256",
          "name": "value",
          "type": "uint256"
        }
      ],
      "name": "depositTokens",
      "outputs": [],
      "stateMutability": "nonpayable",
      "type": "function"
    },
    {
      "inputs": [
        {
          "internalType": "address",
          "name": "to",
          "type": "address"
        },
        {
          "internalType": "address",
          "name": "token",
          "type": "address"
        },
        {
          "internalType": "uint256",
          "name": "value",
          "type": "uint256"
        },
        {
          "internalType": "uint256",
          "name": "deadline",
          "type": "uint256"
        },
        {
          "internalType": "uint8",
          "name": "v",
          "type": "uint8"
        },
        {
          "internalType": "bytes32",
          "name": "r",
          "type": "bytes32"
        },
        {
          "internalType": "bytes32",
          "name": "s",
          "type": "bytes32"
        }
      ],
      "name": "depositTokens",
      "outputs": [],
      "stateMutability": "nonpayable",
      "type": "function"
    },
    {
      "inputs": [
        {
          "internalType": "address",
          "name": "owner",
          "type": "address"
        }
      ],
      "name": "getBook",
      "outputs": [
        {
          "internalType": "string",
          "name": "symbols",
          "type": "string"
        },
        {
          "internalType": "address[]",
          "name": "tokens",
          "type": "address[]"
        },
        {
          "internalType": "uint256[]",
          "name": "holding",
          "type": "uint256[]"
        },
        {
          "internalType": "uint256[]",
          "name": "written",
          "type": "uint256[]"
        },
        {
          "internalType": "int256[]",
          "name": "iv",
          "type": "int256[]"
        }
      ],
      "stateMutability": "view",
      "type": "function"
    },
    {
      "inputs": [
        {
          "internalType": "address",
          "name": "udlFeed",
          "type": "address"
        },
        {
          "internalType": "enum OptionsExchange.OptionType",
          "name": "optType",
          "type": "uint8"
        },
        {
          "internalType": "uint256",
          "name": "strike",
          "type": "uint256"
        },
        {
          "internalType": "uint256",
          "name": "maturity",
          "type": "uint256"
        }
      ],
      "name": "getOptionSymbol",
      "outputs": [
        {
          "internalType": "string",
          "name": "symbol",
          "type": "string"
        }
      ],
      "stateMutability": "view",
      "type": "function"
    },
    {
      "inputs": [
        {
          "internalType": "string",
          "name": "symbol",
          "type": "string"
        }
      ],
      "name": "getUnderlyingPrice",
      "outputs": [
        {
          "internalType": "int256",
          "name": "",
          "type": "int256"
        }
      ],
      "stateMutability": "view",
      "type": "function"
    },
    {
      "inputs": [
        {
          "internalType": "contract Deployer",
          "name": "deployer",
          "type": "address"
        }
      ],
      "name": "initializeAndLock",
      "outputs": [],
      "stateMutability": "nonpayable",
      "type": "function"
    },
    {
      "inputs": [
        {
          "internalType": "address",
          "name": "_tk",
          "type": "address"
        },
        {
          "internalType": "address[]",
          "name": "owners",
          "type": "address[]"
        }
      ],
      "name": "liquidateExpired",
      "outputs": [],
      "stateMutability": "nonpayable",
      "type": "function"
    },
    {
      "inputs": [
        {
          "internalType": "address",
          "name": "_tk",
          "type": "address"
        },
        {
          "internalType": "address",
          "name": "owner",
          "type": "address"
        }
      ],
      "name": "liquidateOptions",
      "outputs": [
        {
          "internalType": "uint256",
          "name": "value",
          "type": "uint256"
        }
      ],
      "stateMutability": "nonpayable",
      "type": "function"
    },
    {
      "inputs": [],
      "name": "name",
      "outputs": [
        {
          "internalType": "string",
          "name": "",
          "type": "string"
        }
      ],
      "stateMutability": "pure",
      "type": "function"
    },
    {
      "inputs": [
        {
          "internalType": "address",
          "name": "",
          "type": "address"
        }
      ],
      "name": "nonces",
      "outputs": [
        {
          "internalType": "uint256",
          "name": "",
          "type": "uint256"
        }
      ],
      "stateMutability": "view",
      "type": "function"
    },
    {
      "inputs": [
        {
          "internalType": "address",
          "name": "udlFeed",
          "type": "address"
        }
      ],
      "name": "prefetchFeedData",
      "outputs": [],
      "stateMutability": "nonpayable",
      "type": "function"
    },
    {
      "inputs": [
        {
          "internalType": "string",
          "name": "symbol",
          "type": "string"
        }
      ],
      "name": "resolveToken",
      "outputs": [
        {
          "internalType": "address",
          "name": "",
          "type": "address"
        }
      ],
      "stateMutability": "view",
      "type": "function"
    },
    {
      "inputs": [
        {
          "internalType": "address",
          "name": "owner",
          "type": "address"
        }
      ],
      "name": "setCollateral",
      "outputs": [],
      "stateMutability": "nonpayable",
      "type": "function"
    },
    {
      "inputs": [
        {
          "internalType": "address",
          "name": "from",
          "type": "address"
        },
        {
          "internalType": "address",
          "name": "to",
          "type": "address"
        },
        {
          "internalType": "uint256",
          "name": "value",
          "type": "uint256"
        },
        {
          "internalType": "uint256",
          "name": "maxValue",
          "type": "uint256"
        },
        {
          "internalType": "uint256",
          "name": "deadline",
          "type": "uint256"
        },
        {
          "internalType": "uint8",
          "name": "v",
          "type": "uint8"
        },
        {
          "internalType": "bytes32",
          "name": "r",
          "type": "bytes32"
        },
        {
          "internalType": "bytes32",
          "name": "s",
          "type": "bytes32"
        }
      ],
      "name": "transferBalance",
      "outputs": [],
      "stateMutability": "nonpayable",
      "type": "function"
    },
    {
      "inputs": [
        {
          "internalType": "address",
          "name": "to",
          "type": "address"
        },
        {
          "internalType": "uint256",
          "name": "value",
          "type": "uint256"
        }
      ],
      "name": "transferBalance",
      "outputs": [],
      "stateMutability": "nonpayable",
      "type": "function"
    },
    {
      "inputs": [
        {
          "internalType": "address",
          "name": "from",
          "type": "address"
        },
        {
          "internalType": "address",
          "name": "to",
          "type": "address"
        },
        {
          "internalType": "uint256",
          "name": "value",
          "type": "uint256"
        }
      ],
      "name": "transferBalance",
      "outputs": [],
      "stateMutability": "nonpayable",
      "type": "function"
    },
    {
      "inputs": [
        {
          "internalType": "string",
          "name": "symbol",
          "type": "string"
        },
        {
          "internalType": "address",
          "name": "from",
          "type": "address"
        },
        {
          "internalType": "address",
          "name": "to",
          "type": "address"
        },
        {
          "internalType": "uint256",
          "name": "value",
          "type": "uint256"
        }
      ],
      "name": "transferOwnership",
      "outputs": [],
      "stateMutability": "nonpayable",
      "type": "function"
    },
    {
      "inputs": [],
      "name": "volumeBase",
      "outputs": [
        {
          "internalType": "uint256",
          "name": "",
          "type": "uint256"
        }
      ],
      "stateMutability": "view",
      "type": "function"
    },
    {
      "inputs": [
        {
          "internalType": "uint256",
          "name": "value",
          "type": "uint256"
        }
      ],
      "name": "withdrawTokens",
      "outputs": [],
      "stateMutability": "nonpayable",
      "type": "function"
    },
    {
      "inputs": [
        {
          "internalType": "address",
          "name": "udlFeed",
          "type": "address"
        },
        {
          "internalType": "uint256",
          "name": "volume",
          "type": "uint256"
        },
        {
          "internalType": "enum OptionsExchange.OptionType",
          "name": "optType",
          "type": "uint8"
        },
        {
          "internalType": "uint256",
          "name": "strike",
          "type": "uint256"
        },
        {
          "internalType": "uint256",
          "name": "maturity",
          "type": "uint256"
        },
        {
          "internalType": "address",
          "name": "to",
          "type": "address"
        }
      ],
      "name": "writeOptions",
      "outputs": [
        {
          "internalType": "address",
          "name": "_tk",
          "type": "address"
        }
      ],
      "stateMutability": "nonpayable",
      "type": "function"
    }
  ],
  "bytecode": "0x60806040523480156200001157600080fd5b5060004690506040518080620082ca60529139605201905060405180910390206040518060400160405280600f81526020017f4f7074696f6e7345786368616e67650000000000000000000000000000000000815250805190602001206040518060400160405280600181526020017f3100000000000000000000000000000000000000000000000000000000000000815250805190602001208330604051602001808681526020018581526020018481526020018381526020018273ffffffffffffffffffffffffffffffffffffffff1673ffffffffffffffffffffffffffffffffffffffff16815260200195505050505050604051602081830303815290604052805190602001206010819055505061819880620001326000396000f3fe608060405234801561001057600080fd5b50600436106101fb5760003560e01c806370a082311161011a5780638e3cb188116100ad578063b434e9d61161007c578063b434e9d614610e04578063b4d39b9814610e87578063d9537cdf14610f56578063edb5fd4f14610fae578063ef38eaf11461108c576101fb565b80638e3cb18814610cdc578063a53b004114610d20578063a5fdc5de14610d3e578063a606b94a14610d96576101fb565b8063827cbb06116100e9578063827cbb0614610a0957806383a7e7e114610b24578063886abef514610b9d5780638c922b6314610be1576101fb565b806370a082311461085257806373738fca146108aa57806378a03895146109435780637ecebe00146109b1576101fb565b8063439fa0881161019257806365a450611161016157806365a450611461069d5780636871d873146106f557806368d4f79d1461076d5780636d7f2895146107c5576101fb565b8063439fa0881461051a57806356a6d9ef146105b35780635c1bfb32146106015780635efb90fc14610645576101fb565b806330adf81f116101ce57806330adf81f14610442578063315a095d146104605780633644e5151461048e57806339dc5ef2146104ac576101fb565b806302c230741461020057806306fdde03146102585780630a93320e146102db57806316be637a1461037f575b600080fd5b6102426004803603602081101561021657600080fd5b81019080803573ffffffffffffffffffffffffffffffffffffffff169060200190929190505050611269565b6040518082815260200191505060405180910390f35b610260611699565b6040518080602001828103825283818151815260200191508051906020019080838360005b838110156102a0578082015181840152602081019050610285565b50505050905090810190601f1680156102cd5780820380516001836020036101000a031916815260200191505b509250505060405180910390f35b61037d60048036036101008110156102f257600080fd5b81019080803573ffffffffffffffffffffffffffffffffffffffff169060200190929190803573ffffffffffffffffffffffffffffffffffffffff169060200190929190803590602001909291908035906020019092919080359060200190929190803560ff16906020019092919080359060200190929190803590602001909291905050506116d6565b005b6104406004803603608081101561039557600080fd5b81019080803590602001906401000000008111156103b257600080fd5b8201836020820111156103c457600080fd5b803590602001918460018302840111640100000000831117156103e657600080fd5b9091929391929390803573ffffffffffffffffffffffffffffffffffffffff169060200190929190803573ffffffffffffffffffffffffffffffffffffffff16906020019092919080359060200190929190505050611863565b005b61044a611d51565b6040518082815260200191505060405180910390f35b61048c6004803603602081101561047657600080fd5b8101908080359060200190929190505050611d78565b005b610496611f08565b6040518082815260200191505060405180910390f35b610518600480360360608110156104c257600080fd5b81019080803573ffffffffffffffffffffffffffffffffffffffff169060200190929190803573ffffffffffffffffffffffffffffffffffffffff16906020019092919080359060200190929190505050611f0e565b005b6105b1600480360360e081101561053057600080fd5b81019080803573ffffffffffffffffffffffffffffffffffffffff169060200190929190803573ffffffffffffffffffffffffffffffffffffffff1690602001909291908035906020019092919080359060200190929190803560ff1690602001909291908035906020019092919080359060200190929190505050612127565b005b6105ff600480360360408110156105c957600080fd5b81019080803573ffffffffffffffffffffffffffffffffffffffff16906020019092919080359060200190929190505050612234565b005b6106436004803603602081101561061757600080fd5b81019080803573ffffffffffffffffffffffffffffffffffffffff169060200190929190505050612336565b005b6106876004803603602081101561065b57600080fd5b81019080803573ffffffffffffffffffffffffffffffffffffffff1690602001909291905050506123e0565b6040518082815260200191505060405180910390f35b6106df600480360360208110156106b357600080fd5b81019080803573ffffffffffffffffffffffffffffffffffffffff1690602001909291905050506124c3565b6040518082815260200191505060405180910390f35b6107576004803603604081101561070b57600080fd5b81019080803573ffffffffffffffffffffffffffffffffffffffff169060200190929190803573ffffffffffffffffffffffffffffffffffffffff16906020019092919050505061298e565b6040518082815260200191505060405180910390f35b6107af6004803603602081101561078357600080fd5b81019080803573ffffffffffffffffffffffffffffffffffffffff169060200190929190505050612ced565b6040518082815260200191505060405180910390f35b61083c600480360360208110156107db57600080fd5b81019080803590602001906401000000008111156107f857600080fd5b82018360208201111561080a57600080fd5b8035906020019184600183028401116401000000008311171561082c57600080fd5b9091929391929390505050612e38565b6040518082815260200191505060405180910390f35b6108946004803603602081101561086857600080fd5b81019080803573ffffffffffffffffffffffffffffffffffffffff169060200190929190505050613073565b6040518082815260200191505060405180910390f35b610941600480360360408110156108c057600080fd5b81019080803573ffffffffffffffffffffffffffffffffffffffff169060200190929190803590602001906401000000008111156108fd57600080fd5b82018360208201111561090f57600080fd5b8035906020019184602083028401116401000000008311171561093157600080fd5b9091929391929390505050613156565b005b6109af6004803603606081101561095957600080fd5b81019080803573ffffffffffffffffffffffffffffffffffffffff169060200190929190803573ffffffffffffffffffffffffffffffffffffffff16906020019092919080359060200190929190505050613392565b005b6109f3600480360360208110156109c757600080fd5b81019080803573ffffffffffffffffffffffffffffffffffffffff169060200190929190505050613750565b6040518082815260200191505060405180910390f35b610ae260048036036040811015610a1f57600080fd5b8101908080359060200190640100000000811115610a3c57600080fd5b820183602082011115610a4e57600080fd5b80359060200191846001830284011164010000000083111715610a7057600080fd5b91908080601f016020809104026020016040519081016040528093929190818152602001838380828437600081840152601f19601f820116905080830192505050505050509192919290803573ffffffffffffffffffffffffffffffffffffffff169060200190929190505050613768565b604051808273ffffffffffffffffffffffffffffffffffffffff1673ffffffffffffffffffffffffffffffffffffffff16815260200191505060405180910390f35b610b8760048036036080811015610b3a57600080fd5b81019080803573ffffffffffffffffffffffffffffffffffffffff169060200190929190803560ff1690602001909291908035906020019092919080359060200190929190505050613af0565b6040518082815260200191505060405180910390f35b610bdf60048036036020811015610bb357600080fd5b81019080803573ffffffffffffffffffffffffffffffffffffffff169060200190929190505050613b1d565b005b610c9a60048036036020811015610bf757600080fd5b8101908080359060200190640100000000811115610c1457600080fd5b820183602082011115610c2657600080fd5b80359060200191846001830284011164010000000083111715610c4857600080fd5b91908080601f016020809104026020016040519081016040528093929190818152602001838380828437600081840152601f19601f820116905080830192505050505050509192919290505050613b6c565b604051808273ffffffffffffffffffffffffffffffffffffffff1673ffffffffffffffffffffffffffffffffffffffff16815260200191505060405180910390f35b610d1e60048036036020811015610cf257600080fd5b81019080803573ffffffffffffffffffffffffffffffffffffffff169060200190929190505050613ca7565b005b610d28613d6f565b6040518082815260200191505060405180910390f35b610d8060048036036020811015610d5457600080fd5b81019080803573ffffffffffffffffffffffffffffffffffffffff169060200190929190505050613d75565b6040518082815260200191505060405180910390f35b610e0260048036036060811015610dac57600080fd5b81019080803573ffffffffffffffffffffffffffffffffffffffff169060200190929190803573ffffffffffffffffffffffffffffffffffffffff16906020019092919080359060200190929190505050613d8d565b005b610e71600480360360a0811015610e1a57600080fd5b81019080803573ffffffffffffffffffffffffffffffffffffffff16906020019092919080359060200190929190803560ff1690602001909291908035906020019092919080359060200190929190505050613f47565b6040518082815260200191505060405180910390f35b610f14600480360360c0811015610e9d57600080fd5b81019080803573ffffffffffffffffffffffffffffffffffffffff16906020019092919080359060200190929190803560ff1690602001909291908035906020019092919080359060200190929190803573ffffffffffffffffffffffffffffffffffffffff169060200190929190505050613f76565b604051808273ffffffffffffffffffffffffffffffffffffffff1673ffffffffffffffffffffffffffffffffffffffff16815260200191505060405180910390f35b610f9860048036036020811015610f6c57600080fd5b81019080803573ffffffffffffffffffffffffffffffffffffffff169060200190929190505050613f9b565b6040518082815260200191505060405180910390f35b61101160048036036080811015610fc457600080fd5b81019080803573ffffffffffffffffffffffffffffffffffffffff169060200190929190803560ff16906020019092919080359060200190929190803590602001909291905050506140b6565b6040518080602001828103825283818151815260200191508051906020019080838360005b83811015611051578082015181840152602081019050611036565b50505050905090810190601f16801561107e5780820380516001836020036101000a031916815260200191505b509250505060405180910390f35b6110ce600480360360208110156110a257600080fd5b81019080803573ffffffffffffffffffffffffffffffffffffffff1690602001909291905050506144a3565b60405180806020018060200180602001806020018060200186810386528b818151815260200191508051906020019080838360005b8381101561111e578082015181840152602081019050611103565b50505050905090810190601f16801561114b5780820380516001836020036101000a031916815260200191505b5086810385528a818151815260200191508051906020019060200280838360005b8381101561118757808201518184015260208101905061116c565b50505050905001868103845289818151815260200191508051906020019060200280838360005b838110156111c95780820151818401526020810190506111ae565b50505050905001868103835288818151815260200191508051906020019060200280838360005b8381101561120b5780820151818401526020810190506111f0565b50505050905001868103825287818151815260200191508051906020019060200280838360005b8381101561124d578082015181840152602081019050611232565b505050509050019a505050505050505050505060405180910390f35b60006060600a60008473ffffffffffffffffffffffffffffffffffffffff1673ffffffffffffffffffffffffffffffffffffffff16815260200190815260200160002080548060200260200160405190810160405280929190818152602001828054801561132c57602002820191906000526020600020905b8160009054906101000a900473ffffffffffffffffffffffffffffffffffffffff1673ffffffffffffffffffffffffffffffffffffffff16815260200190600101908083116112e2575b5050505050905060008090505b815181101561167b57600082828151811061135057fe5b60200260200101519050611362617fcb565b6008600085858151811061137257fe5b602002602001015173ffffffffffffffffffffffffffffffffffffffff1673ffffffffffffffffffffffffffffffffffffffff1681526020019081526020016000206040518060800160405290816000820160009054906101000a900473ffffffffffffffffffffffffffffffffffffffff1673ffffffffffffffffffffffffffffffffffffffff1673ffffffffffffffffffffffffffffffffffffffff1681526020016000820160149054906101000a900460ff16600181111561143357fe5b600181111561143e57fe5b81526020016001820160009054906101000a90046effffffffffffffffffffffffffffff166effffffffffffffffffffffffffffff166effffffffffffffffffffffffffffff16815260200160018201600f9054906101000a900463ffffffff1663ffffffff1663ffffffff1681525050905060008273ffffffffffffffffffffffffffffffffffffffff1663d0acc58f886040518263ffffffff1660e01b8152600401808273ffffffffffffffffffffffffffffffffffffffff1673ffffffffffffffffffffffffffffffffffffffff16815260200191505060206040518083038186803b15801561153057600080fd5b505afa158015611544573d6000803e3d6000fd5b505050506040513d602081101561155a57600080fd5b8101908080519060200190929190505050905060008373ffffffffffffffffffffffffffffffffffffffff166370a08231896040518263ffffffff1660e01b8152600401808273ffffffffffffffffffffffffffffffffffffffff1673ffffffffffffffffffffffffffffffffffffffff16815260200191505060206040518083038186803b1580156115ec57600080fd5b505afa158015611600573d6000803e3d6000fd5b505050506040513d602081101561161657600080fd5b810190808051906020019092919050505090506116686116596116428484614a6c90919063ffffffff16565b61164b86614afa565b614bb390919063ffffffff16565b88614cdd90919063ffffffff16565b9650505050508080600101915050611339565b50611691600d5483614d6b90919063ffffffff16565b915050919050565b60606040518060400160405280600f81526020017f4f7074696f6e7345786368616e67650000000000000000000000000000000000815250905090565b8585101561174c576040517f08c379a00000000000000000000000000000000000000000000000000000000081526004018080602001828103825260198152602001807f696e73756666696369656e74207065726d69742076616c75650000000000000081525060200191505060405180910390fd5b61175b88888787878787614e9f565b600560009054906101000a900473ffffffffffffffffffffffffffffffffffffffff1673ffffffffffffffffffffffffffffffffffffffff1663a606b94a8989896040518463ffffffff1660e01b8152600401808473ffffffffffffffffffffffffffffffffffffffff1673ffffffffffffffffffffffffffffffffffffffff1681526020018373ffffffffffffffffffffffffffffffffffffffff1673ffffffffffffffffffffffffffffffffffffffff1681526020018281526020019350505050600060405180830381600087803b15801561183857600080fd5b505af115801561184c573d6000803e3d6000fd5b50505050611859886151d8565b5050505050505050565b3373ffffffffffffffffffffffffffffffffffffffff16600b8686604051808383808284378083019250505092505050908152602001604051809103902060009054906101000a900473ffffffffffffffffffffffffffffffffffffffff1673ffffffffffffffffffffffffffffffffffffffff161461194b576040517f08c379a000000000000000000000000000000000000000000000000000000000815260040180806020018281038252601f8152602001807f756e617574686f72697a6564206f776e657273686970207472616e736665720081525060200191505060405180910390fd5b600033905060008173ffffffffffffffffffffffffffffffffffffffff1663d0acc58f866040518263ffffffff1660e01b8152600401808273ffffffffffffffffffffffffffffffffffffffff1673ffffffffffffffffffffffffffffffffffffffff16815260200191505060206040518083038186803b1580156119cf57600080fd5b505afa1580156119e3573d6000803e3d6000fd5b505050506040513d60208110156119f957600080fd5b8101908080519060200190929190505050148015611ace575060008173ffffffffffffffffffffffffffffffffffffffff166370a08231866040518263ffffffff1660e01b8152600401808273ffffffffffffffffffffffffffffffffffffffff1673ffffffffffffffffffffffffffffffffffffffff16815260200191505060206040518083038186803b158015611a9157600080fd5b505afa158015611aa5573d6000803e3d6000fd5b505050506040513d6020811015611abb57600080fd5b8101908080519060200190929190505050145b15611b1d57611b1b600a60008673ffffffffffffffffffffffffffffffffffffffff1673ffffffffffffffffffffffffffffffffffffffff16815260200190815260200160002033615369565b505b60008173ffffffffffffffffffffffffffffffffffffffff1663d0acc58f856040518263ffffffff1660e01b8152600401808273ffffffffffffffffffffffffffffffffffffffff1673ffffffffffffffffffffffffffffffffffffffff16815260200191505060206040518083038186803b158015611b9c57600080fd5b505afa158015611bb0573d6000803e3d6000fd5b505050506040513d6020811015611bc657600080fd5b8101908080519060200190929190505050148015611c9a5750818173ffffffffffffffffffffffffffffffffffffffff166370a08231856040518263ffffffff1660e01b8152600401808273ffffffffffffffffffffffffffffffffffffffff1673ffffffffffffffffffffffffffffffffffffffff16815260200191505060206040518083038186803b158015611c5d57600080fd5b505afa158015611c71573d6000803e3d6000fd5b505050506040513d6020811015611c8757600080fd5b8101908080519060200190929190505050145b15611d4057600a60008473ffffffffffffffffffffffffffffffffffffffff1673ffffffffffffffffffffffffffffffffffffffff168152602001908152602001600020339080600181540180825580915050600190039060005260206000200160009091909190916101000a81548173ffffffffffffffffffffffffffffffffffffffff021916908373ffffffffffffffffffffffffffffffffffffffff1602179055505b611d49846151d8565b505050505050565b7f6e71edae12b1b97f4d1f60370fef10105fa2faae0126114a169c64845d6126c960001b81565b611d8133613f9b565b811115611df6576040517f08c379a00000000000000000000000000000000000000000000000000000000081526004018080602001828103825260148152602001807f696e73756666696369656e7420737572706c757300000000000000000000000081525060200191505060405180910390fd5b600560009054906101000a900473ffffffffffffffffffffffffffffffffffffffff1673ffffffffffffffffffffffffffffffffffffffff166306b091f933836040518363ffffffff1660e01b8152600401808373ffffffffffffffffffffffffffffffffffffffff1673ffffffffffffffffffffffffffffffffffffffff16815260200182815260200192505050600060405180830381600087803b158015611e9f57600080fd5b505af1158015611eb3573d6000803e3d6000fd5b505050503373ffffffffffffffffffffffffffffffffffffffff167f680f2e4f4032ebf1774e8cdbaddcb1b617a5a606411c8ca96257ada338d3833c826040518082815260200191505060405180910390a250565b60105481565b60008290508073ffffffffffffffffffffffffffffffffffffffff166323b872dd33600560009054906101000a900473ffffffffffffffffffffffffffffffffffffffff16856040518463ffffffff1660e01b8152600401808473ffffffffffffffffffffffffffffffffffffffff1673ffffffffffffffffffffffffffffffffffffffff1681526020018373ffffffffffffffffffffffffffffffffffffffff1673ffffffffffffffffffffffffffffffffffffffff1681526020018281526020019350505050602060405180830381600087803b158015611ff057600080fd5b505af1158015612004573d6000803e3d6000fd5b505050506040513d602081101561201a57600080fd5b810190808051906020019092919050505050600560009054906101000a900473ffffffffffffffffffffffffffffffffffffffff1673ffffffffffffffffffffffffffffffffffffffff1663d3bca8848585856040518463ffffffff1660e01b8152600401808473ffffffffffffffffffffffffffffffffffffffff1673ffffffffffffffffffffffffffffffffffffffff1681526020018373ffffffffffffffffffffffffffffffffffffffff1673ffffffffffffffffffffffffffffffffffffffff1681526020018281526020019350505050600060405180830381600087803b15801561210957600080fd5b505af115801561211d573d6000803e3d6000fd5b5050505050505050565b8573ffffffffffffffffffffffffffffffffffffffff1663d505accf333088888888886040518863ffffffff1660e01b8152600401808873ffffffffffffffffffffffffffffffffffffffff1673ffffffffffffffffffffffffffffffffffffffff1681526020018773ffffffffffffffffffffffffffffffffffffffff1673ffffffffffffffffffffffffffffffffffffffff1681526020018681526020018581526020018460ff1660ff168152602001838152602001828152602001975050505050505050600060405180830381600087803b15801561220857600080fd5b505af115801561221c573d6000803e3d6000fd5b5050505061222b878787611f0e565b50505050505050565b600560009054906101000a900473ffffffffffffffffffffffffffffffffffffffff1673ffffffffffffffffffffffffffffffffffffffff1663a606b94a3384846040518463ffffffff1660e01b8152600401808473ffffffffffffffffffffffffffffffffffffffff1673ffffffffffffffffffffffffffffffffffffffff1681526020018373ffffffffffffffffffffffffffffffffffffffff1673ffffffffffffffffffffffffffffffffffffffff1681526020018281526020019350505050600060405180830381600087803b15801561231157600080fd5b505af1158015612325573d6000803e3d6000fd5b50505050612332336151d8565b5050565b600260149054906101000a900460ff16156123b9576040517f08c379a00000000000000000000000000000000000000000000000000000000081526004018080602001828103825260158152602001807f696e697469616c697a6174696f6e206c6f636b6564000000000000000000000081525060200191505060405180910390fd5b6001600260146101000a81548160ff0219169083151502179055506123dd816154db565b50565b6000600560009054906101000a900473ffffffffffffffffffffffffffffffffffffffff1673ffffffffffffffffffffffffffffffffffffffff16635efb90fc836040518263ffffffff1660e01b8152600401808273ffffffffffffffffffffffffffffffffffffffff1673ffffffffffffffffffffffffffffffffffffffff16815260200191505060206040518083038186803b15801561248157600080fd5b505afa158015612495573d6000803e3d6000fd5b505050506040513d60208110156124ab57600080fd5b81019080805190602001909291905050509050919050565b6000806060600a60008573ffffffffffffffffffffffffffffffffffffffff1673ffffffffffffffffffffffffffffffffffffffff16815260200190815260200160002080548060200260200160405190810160405280929190818152602001828054801561258757602002820191906000526020600020905b8160009054906101000a900473ffffffffffffffffffffffffffffffffffffffff1673ffffffffffffffffffffffffffffffffffffffff168152602001906001019080831161253d575b5050505050905060008090505b81518110156129575760008282815181106125ab57fe5b6020026020010151905060008190506125c2617fcb565b600860008473ffffffffffffffffffffffffffffffffffffffff1673ffffffffffffffffffffffffffffffffffffffff1681526020019081526020016000206040518060800160405290816000820160009054906101000a900473ffffffffffffffffffffffffffffffffffffffff1673ffffffffffffffffffffffffffffffffffffffff1673ffffffffffffffffffffffffffffffffffffffff1681526020016000820160149054906101000a900460ff16600181111561268057fe5b600181111561268b57fe5b81526020016001820160009054906101000a90046effffffffffffffffffffffffffffff166effffffffffffffffffffffffffffff166effffffffffffffffffffffffffffff16815260200160018201600f9054906101000a900463ffffffff1663ffffffff1663ffffffff1681525050905060008273ffffffffffffffffffffffffffffffffffffffff1663d0acc58f8a6040518263ffffffff1660e01b8152600401808273ffffffffffffffffffffffffffffffffffffffff1673ffffffffffffffffffffffffffffffffffffffff16815260200191505060206040518083038186803b15801561277d57600080fd5b505afa158015612791573d6000803e3d6000fd5b505050506040513d60208110156127a757600080fd5b8101908080519060200190929190505050905060008373ffffffffffffffffffffffffffffffffffffffff166370a082318b6040518263ffffffff1660e01b8152600401808273ffffffffffffffffffffffffffffffffffffffff1673ffffffffffffffffffffffffffffffffffffffff16815260200191505060206040518083038186803b15801561283957600080fd5b505afa15801561284d573d6000803e3d6000fd5b505050506040513d602081101561286357600080fd5b810190808051906020019092919050505090506129436128f660096000866000015173ffffffffffffffffffffffffffffffffffffffff1673ffffffffffffffffffffffffffffffffffffffff168152602001908152602001600020600001600f9054906101000a90046effffffffffffffffffffffffffffff166effffffffffffffffffffffffffffff168486615989565b61293561292661290f8587614a6c90919063ffffffff16565b61291888614afa565b614bb390919063ffffffff16565b8b614cdd90919063ffffffff16565b614cdd90919063ffffffff16565b975050505050508080600101915050612594565b5061296d600d5483614d6b90919063ffffffff16565b9150600082121561298357600092505050612989565b81925050505b919050565b6000612998617fcb565b600860008573ffffffffffffffffffffffffffffffffffffffff1673ffffffffffffffffffffffffffffffffffffffff1681526020019081526020016000206040518060800160405290816000820160009054906101000a900473ffffffffffffffffffffffffffffffffffffffff1673ffffffffffffffffffffffffffffffffffffffff1673ffffffffffffffffffffffffffffffffffffffff1681526020016000820160149054906101000a900460ff166001811115612a5657fe5b6001811115612a6157fe5b81526020016001820160009054906101000a90046effffffffffffffffffffffffffffff166effffffffffffffffffffffffffffff166effffffffffffffffffffffffffffff16815260200160018201600f9054906101000a900463ffffffff1663ffffffff1663ffffffff16815250509050600073ffffffffffffffffffffffffffffffffffffffff16816000015173ffffffffffffffffffffffffffffffffffffffff161415612b7b576040517f08c379a000000000000000000000000000000000000000000000000000000000815260040180806020018281038252600d8152602001807f696e76616c696420746f6b656e0000000000000000000000000000000000000081525060200191505060405180910390fd5b600084905060008173ffffffffffffffffffffffffffffffffffffffff1663d0acc58f866040518263ffffffff1660e01b8152600401808273ffffffffffffffffffffffffffffffffffffffff1673ffffffffffffffffffffffffffffffffffffffff16815260200191505060206040518083038186803b158015612bff57600080fd5b505afa158015612c13573d6000803e3d6000fd5b505050506040513d6020811015612c2957600080fd5b810190808051906020019092919050505011612cad576040517f08c379a000000000000000000000000000000000000000000000000000000000815260040180806020018281038252600d8152602001807f696e76616c6964206f776e65720000000000000000000000000000000000000081525060200191505060405180910390fd5b6000826060015163ffffffff16612cc3846159dd565b101590506000612cd284614afa565b9050612ce18685858585615a77565b94505050505092915050565b6000612e31600860008473ffffffffffffffffffffffffffffffffffffffff1673ffffffffffffffffffffffffffffffffffffffff1681526020019081526020016000206040518060800160405290816000820160009054906101000a900473ffffffffffffffffffffffffffffffffffffffff1673ffffffffffffffffffffffffffffffffffffffff1673ffffffffffffffffffffffffffffffffffffffff1681526020016000820160149054906101000a900460ff166001811115612db057fe5b6001811115612dbb57fe5b81526020016001820160009054906101000a90046effffffffffffffffffffffffffffff166effffffffffffffffffffffffffffff166effffffffffffffffffffffffffffff16815260200160018201600f9054906101000a900463ffffffff1663ffffffff1663ffffffff1681525050614afa565b9050919050565b600080600b8484604051808383808284378083019250505092505050908152602001604051809103902060009054906101000a900473ffffffffffffffffffffffffffffffffffffffff169050600073ffffffffffffffffffffffffffffffffffffffff168173ffffffffffffffffffffffffffffffffffffffff161415612f28576040517f08c379a000000000000000000000000000000000000000000000000000000000815260040180806020018281038252600f8152602001807f746f6b656e206e6f7420666f756e64000000000000000000000000000000000081525060200191505060405180910390fd5b61306a600860008373ffffffffffffffffffffffffffffffffffffffff1673ffffffffffffffffffffffffffffffffffffffff1681526020019081526020016000206040518060800160405290816000820160009054906101000a900473ffffffffffffffffffffffffffffffffffffffff1673ffffffffffffffffffffffffffffffffffffffff1673ffffffffffffffffffffffffffffffffffffffff1681526020016000820160149054906101000a900460ff166001811115612fe957fe5b6001811115612ff457fe5b81526020016001820160009054906101000a90046effffffffffffffffffffffffffffff166effffffffffffffffffffffffffffff166effffffffffffffffffffffffffffff16815260200160018201600f9054906101000a900463ffffffff1663ffffffff1663ffffffff1681525050615c6e565b91505092915050565b6000600560009054906101000a900473ffffffffffffffffffffffffffffffffffffffff1673ffffffffffffffffffffffffffffffffffffffff166370a08231836040518263ffffffff1660e01b8152600401808273ffffffffffffffffffffffffffffffffffffffff1673ffffffffffffffffffffffffffffffffffffffff16815260200191505060206040518083038186803b15801561311457600080fd5b505afa158015613128573d6000803e3d6000fd5b505050506040513d602081101561313e57600080fd5b81019080805190602001909291905050509050919050565b61315e617fcb565b600860008573ffffffffffffffffffffffffffffffffffffffff1673ffffffffffffffffffffffffffffffffffffffff1681526020019081526020016000206040518060800160405290816000820160009054906101000a900473ffffffffffffffffffffffffffffffffffffffff1673ffffffffffffffffffffffffffffffffffffffff1673ffffffffffffffffffffffffffffffffffffffff1681526020016000820160149054906101000a900460ff16600181111561321c57fe5b600181111561322757fe5b81526020016001820160009054906101000a90046effffffffffffffffffffffffffffff166effffffffffffffffffffffffffffff166effffffffffffffffffffffffffffff16815260200160018201600f9054906101000a900463ffffffff1663ffffffff1663ffffffff168152505090506000849050816060015163ffffffff166132b3836159dd565b1015613327576040517f08c379a00000000000000000000000000000000000000000000000000000000081526004018080602001828103825260128152602001807f6f7074696f6e206e6f742065787069726564000000000000000000000000000081525060200191505060405180910390fd5b600061333283614afa565b905060008090505b858590508110156133895761337b86868381811061335457fe5b9050602002013573ffffffffffffffffffffffffffffffffffffffff168585600186615a77565b50808060010191505061333a565b50505050505050565b600083905060008173ffffffffffffffffffffffffffffffffffffffff166370a08231856040518263ffffffff1660e01b8152600401808273ffffffffffffffffffffffffffffffffffffffff1673ffffffffffffffffffffffffffffffffffffffff16815260200191505060206040518083038186803b15801561341657600080fd5b505afa15801561342a573d6000803e3d6000fd5b505050506040513d602081101561344057600080fd5b8101908080519060200190929190505050148015613515575060008173ffffffffffffffffffffffffffffffffffffffff1663d0acc58f856040518263ffffffff1660e01b8152600401808273ffffffffffffffffffffffffffffffffffffffff1673ffffffffffffffffffffffffffffffffffffffff16815260200191505060206040518083038186803b1580156134d857600080fd5b505afa1580156134ec573d6000803e3d6000fd5b505050506040513d602081101561350257600080fd5b8101908080519060200190929190505050145b1561356457613562600a60008573ffffffffffffffffffffffffffffffffffffffff1673ffffffffffffffffffffffffffffffffffffffff16815260200190815260200160002085615369565b505b6000600760008573ffffffffffffffffffffffffffffffffffffffff1673ffffffffffffffffffffffffffffffffffffffff1681526020019081526020016000205490506137066136f7826136f2600860008a73ffffffffffffffffffffffffffffffffffffffff1673ffffffffffffffffffffffffffffffffffffffff1681526020019081526020016000206040518060800160405290816000820160009054906101000a900473ffffffffffffffffffffffffffffffffffffffff1673ffffffffffffffffffffffffffffffffffffffff1673ffffffffffffffffffffffffffffffffffffffff1681526020016000820160149054906101000a900460ff16600181111561367057fe5b600181111561367b57fe5b81526020016001820160009054906101000a90046effffffffffffffffffffffffffffff166effffffffffffffffffffffffffffff166effffffffffffffffffffffffffffff16815260200160018201600f9054906101000a900463ffffffff1663ffffffff1663ffffffff168152505087615e6c565b616021565b8261603a90919063ffffffff16565b600760008673ffffffffffffffffffffffffffffffffffffffff1673ffffffffffffffffffffffffffffffffffffffff168152602001908152602001600020819055505050505050565b600c6020528060005260406000206000915090505481565b60008073ffffffffffffffffffffffffffffffffffffffff16600b846040518082805190602001908083835b602083106137b75780518252602082019150602081019050602083039250613794565b6001836020036101000a038019825116818451168082178552505050505050905001915050908152602001604051809103902060009054906101000a900473ffffffffffffffffffffffffffffffffffffffff1673ffffffffffffffffffffffffffffffffffffffff1614613894576040517f08c379a000000000000000000000000000000000000000000000000000000000815260040180806020018281038252600f8152602001807f616c72656164792063726561746564000000000000000000000000000000000081525060200191505060405180910390fd5b600660009054906101000a900473ffffffffffffffffffffffffffffffffffffffff1673ffffffffffffffffffffffffffffffffffffffff166384b47b0f84846040518363ffffffff1660e01b815260040180806020018373ffffffffffffffffffffffffffffffffffffffff1673ffffffffffffffffffffffffffffffffffffffff168152602001828103825284818151815260200191508051906020019080838360005b8381101561395557808201518184015260208101905061393a565b50505050905090810190601f1680156139825780820380516001836020036101000a031916815260200191505b509350505050602060405180830381600087803b1580156139a257600080fd5b505af11580156139b6573d6000803e3d6000fd5b505050506040513d60208110156139cc57600080fd5b8101908080519060200190929190505050905080600b846040518082805190602001908083835b60208310613a1657805182526020820191506020810190506020830392506139f3565b6001836020036101000a038019825116818451168082178552505050505050905001915050908152602001604051809103902060006101000a81548173ffffffffffffffffffffffffffffffffffffffff021916908373ffffffffffffffffffffffffffffffffffffffff160217905550613a9082613ca7565b3373ffffffffffffffffffffffffffffffffffffffff168173ffffffffffffffffffffffffffffffffffffffff167f1e778eb413620d03df0615026f51cf388a81c6fabda25b38998bf20fbd0d764660405160405180910390a392915050565b6000613afa617fcb565b613b0686868686616084565b509050613b1281614afa565b915050949350505050565b613b26816124c3565b600760008373ffffffffffffffffffffffffffffffffffffffff1673ffffffffffffffffffffffffffffffffffffffff1681526020019081526020016000208190555050565b600080600b836040518082805190602001908083835b60208310613ba55780518252602082019150602081019050602083039250613b82565b6001836020036101000a038019825116818451168082178552505050505050905001915050908152602001604051809103902060009054906101000a900473ffffffffffffffffffffffffffffffffffffffff169050600073ffffffffffffffffffffffffffffffffffffffff168173ffffffffffffffffffffffffffffffffffffffff161415613c9e576040517f08c379a000000000000000000000000000000000000000000000000000000000815260040180806020018281038252600f8152602001807f746f6b656e206e6f7420666f756e64000000000000000000000000000000000081525060200191505060405180910390fd5b80915050919050565b613cb08161610d565b600960008373ffffffffffffffffffffffffffffffffffffffff1673ffffffffffffffffffffffffffffffffffffffff16815260200190815260200160002060008201518160000160006101000a8154816effffffffffffffffffffffffffffff02191690836effffffffffffffffffffffffffffff160217905550602082015181600001600f6101000a8154816effffffffffffffffffffffffffffff02191690836effffffffffffffffffffffffffffff16021790555090505050565b600d5481565b60076020528060005260406000206000915090505481565b600560009054906101000a900473ffffffffffffffffffffffffffffffffffffffff1673ffffffffffffffffffffffffffffffffffffffff166323e7792e336040518263ffffffff1660e01b8152600401808273ffffffffffffffffffffffffffffffffffffffff1673ffffffffffffffffffffffffffffffffffffffff16815260200191505060006040518083038186803b158015613e2c57600080fd5b505afa158015613e40573d6000803e3d6000fd5b50505050600560009054906101000a900473ffffffffffffffffffffffffffffffffffffffff1673ffffffffffffffffffffffffffffffffffffffff1663a606b94a8484846040518463ffffffff1660e01b8152600401808473ffffffffffffffffffffffffffffffffffffffff1673ffffffffffffffffffffffffffffffffffffffff1681526020018373ffffffffffffffffffffffffffffffffffffffff1673ffffffffffffffffffffffffffffffffffffffff1681526020018281526020019350505050600060405180830381600087803b158015613f2157600080fd5b505af1158015613f35573d6000803e3d6000fd5b50505050613f42836151d8565b505050565b6000613f51617fcb565b613f5d87868686616084565b509050613f6a8187615e6c565b91505095945050505050565b6000613f868787878787876163b2565b9050613f91336151d8565b9695505050505050565b600080613fa7836124c3565b90506000600560009054906101000a900473ffffffffffffffffffffffffffffffffffffffff1673ffffffffffffffffffffffffffffffffffffffff166370a08231856040518263ffffffff1660e01b8152600401808273ffffffffffffffffffffffffffffffffffffffff1673ffffffffffffffffffffffffffffffffffffffff16815260200191505060206040518083038186803b15801561404a57600080fd5b505afa15801561405e573d6000803e3d6000fd5b505050506040513d602081101561407457600080fd5b810190808051906020019092919050505090508181106140aa576140a1828261603a90919063ffffffff16565b925050506140b1565b6000925050505b919050565b60608473ffffffffffffffffffffffffffffffffffffffff166395d89b416040518163ffffffff1660e01b815260040160006040518083038186803b1580156140fe57600080fd5b505afa158015614112573d6000803e3d6000fd5b505050506040513d6000823e3d601f19601f82011682018060405250602081101561413c57600080fd5b810190808051604051939291908464010000000082111561415c57600080fd5b8382019150602082018581111561417257600080fd5b825186600182028301116401000000008211171561418f57600080fd5b8083526020830192505050908051906020019080838360005b838110156141c35780820151818401526020810190506141a8565b50505050905090810190601f1680156141f05780820380516001836020036101000a031916815260200191505b506040525050506000600181111561420457fe5b85600181111561421057fe5b14614250576040518060400160405280600181526020017f5000000000000000000000000000000000000000000000000000000000000000815250614287565b6040518060400160405280600181526020017f43000000000000000000000000000000000000000000000000000000000000008152505b61429085616fa5565b61429985616fa5565b6040516020018085805190602001908083835b602083106142cf57805182526020820191506020810190506020830392506142ac565b6001836020036101000a038019825116818451168082178552505050505050905001807f2d00000000000000000000000000000000000000000000000000000000000000815250600101807f450000000000000000000000000000000000000000000000000000000000000081525060010184805190602001908083835b60208310614370578051825260208201915060208101905060208303925061434d565b6001836020036101000a038019825116818451168082178552505050505050905001807f2d0000000000000000000000000000000000000000000000000000000000000081525060010183805190602001908083835b602083106143e957805182526020820191506020810190506020830392506143c6565b6001836020036101000a038019825116818451168082178552505050505050905001807f2d0000000000000000000000000000000000000000000000000000000000000081525060010182805190602001908083835b60208310614462578051825260208201915060208101905060208303925061443f565b6001836020036101000a0380198251168184511680821785525050505050509050019450505050506040516020818303038152906040529050949350505050565b6060806060806060600a60008773ffffffffffffffffffffffffffffffffffffffff1673ffffffffffffffffffffffffffffffffffffffff16815260200190815260200160002080548060200260200160405190810160405280929190818152602001828054801561456a57602002820191906000526020600020905b8160009054906101000a900473ffffffffffffffffffffffffffffffffffffffff1673ffffffffffffffffffffffffffffffffffffffff1681526020019060010190808311614520575b5050505050935083516040519080825280602002602001820160405280156145a15781602001602082028038833980820191505090505b50925083516040519080825280602002602001820160405280156145d45781602001602082028038833980820191505090505b50915083516040519080825280602002602001820160405280156146075781602001602082028038833980820191505090505b50905060008090505b8451811015614a6257600085828151811061462757fe5b60200260200101519050614639617fcb565b6008600088858151811061464957fe5b602002602001015173ffffffffffffffffffffffffffffffffffffffff1673ffffffffffffffffffffffffffffffffffffffff1681526020019081526020016000206040518060800160405290816000820160009054906101000a900473ffffffffffffffffffffffffffffffffffffffff1673ffffffffffffffffffffffffffffffffffffffff1673ffffffffffffffffffffffffffffffffffffffff1681526020016000820160149054906101000a900460ff16600181111561470a57fe5b600181111561471557fe5b81526020016001820160009054906101000a90046effffffffffffffffffffffffffffff166effffffffffffffffffffffffffffff166effffffffffffffffffffffffffffff16815260200160018201600f9054906101000a900463ffffffff1663ffffffff1663ffffffff1681525050905060008314156147a15761479a81616fb9565b9750614892565b876147ab82616fb9565b6040516020018083805190602001908083835b602083106147e157805182526020820191506020810190506020830392506147be565b6001836020036101000a038019825116818451168082178552505050505050905001807f0a0000000000000000000000000000000000000000000000000000000000000081525060010182805190602001908083835b6020831061485a5780518252602082019150602081019050602083039250614837565b6001836020036101000a0380198251168184511680821785525050505050509050019250505060405160208183030381529060405297505b8173ffffffffffffffffffffffffffffffffffffffff166370a082318a6040518263ffffffff1660e01b8152600401808273ffffffffffffffffffffffffffffffffffffffff1673ffffffffffffffffffffffffffffffffffffffff16815260200191505060206040518083038186803b15801561490f57600080fd5b505afa158015614923573d6000803e3d6000fd5b505050506040513d602081101561493957600080fd5b810190808051906020019092919050505086848151811061495657fe5b6020026020010181815250508173ffffffffffffffffffffffffffffffffffffffff1663d0acc58f8a6040518263ffffffff1660e01b8152600401808273ffffffffffffffffffffffffffffffffffffffff1673ffffffffffffffffffffffffffffffffffffffff16815260200191505060206040518083038186803b1580156149df57600080fd5b505afa1580156149f3573d6000803e3d6000fd5b505050506040513d6020811015614a0957600080fd5b8101908080519060200190929190505050858481518110614a2657fe5b602002602001018181525050614a3b81614afa565b848481518110614a4757fe5b60200260200101818152505050508080600101915050614610565b5091939590929450565b600080828403905060008312158015614a855750838113155b80614a9b5750600083128015614a9a57508381135b5b614af0576040517f08c379a000000000000000000000000000000000000000000000000000000000815260040180806020018281038252602481526020018061813f6024913960400191505060405180910390fd5b8091505092915050565b600080614b0683615c6e565b9050600083604001516effffffffffffffffffffffffffffff16905060006001811115614b2f57fe5b84602001516001811115614b3f57fe5b1415614b6957614b626000614b5d8385614a6c90919063ffffffff16565b616ff5565b9250614bac565b600180811115614b7557fe5b84602001516001811115614b8557fe5b1415614bab57614ba86000614ba38484614a6c90919063ffffffff16565b616ff5565b92505b5b5050919050565b600080831415614bc65760009050614cd7565b7fffffffffffffffffffffffffffffffffffffffffffffffffffffffffffffffff83148015614c1457507f800000000000000000000000000000000000000000000000000000000000000082145b15614c6a576040517f08c379a00000000000000000000000000000000000000000000000000000000081526004018080602001828103825260278152602001806180f26027913960400191505060405180910390fd5b6000828402905082848281614c7b57fe5b0514614cd2576040517f08c379a00000000000000000000000000000000000000000000000000000000081526004018080602001828103825260278152602001806180f26027913960400191505060405180910390fd5b809150505b92915050565b600080828401905060008312158015614cf65750838112155b80614d0c5750600083128015614d0b57508381125b5b614d61576040517f08c379a000000000000000000000000000000000000000000000000000000000815260040180806020018281038252602181526020018061808f6021913960400191505060405180910390fd5b8091505092915050565b600080821415614de3576040517f08c379a00000000000000000000000000000000000000000000000000000000081526004018080602001828103825260208152602001807f5369676e6564536166654d6174683a206469766973696f6e206279207a65726f81525060200191505060405180910390fd5b7fffffffffffffffffffffffffffffffffffffffffffffffffffffffffffffffff82148015614e3157507f800000000000000000000000000000000000000000000000000000000000000083145b15614e87576040517f08c379a00000000000000000000000000000000000000000000000000000000081526004018080602001828103825260218152602001806180b06021913960400191505060405180910390fd5b6000828481614e9257fe5b0590508091505092915050565b42841015614f15576040517f08c379a000000000000000000000000000000000000000000000000000000000815260040180806020018281038252600e8152602001807f7065726d6974206578706972656400000000000000000000000000000000000081525060200191505060405180910390fd5b60006010547f6e71edae12b1b97f4d1f60370fef10105fa2faae0126114a169c64845d6126c960001b898989600c60008e73ffffffffffffffffffffffffffffffffffffffff1673ffffffffffffffffffffffffffffffffffffffff1681526020019081526020016000206000815480929190600101919050558a604051602001808781526020018673ffffffffffffffffffffffffffffffffffffffff1673ffffffffffffffffffffffffffffffffffffffff1681526020018573ffffffffffffffffffffffffffffffffffffffff1673ffffffffffffffffffffffffffffffffffffffff16815260200184815260200183815260200182815260200196505050505050506040516020818303038152906040528051906020012060405160200180807f190100000000000000000000000000000000000000000000000000000000000081525060020183815260200182815260200192505050604051602081830303815290604052805190602001209050600060018286868660405160008152602001604052604051808581526020018460ff1660ff1681526020018381526020018281526020019450505050506020604051602081039080840390855afa1580156150e7573d6000803e3d6000fd5b505050602060405103519050600073ffffffffffffffffffffffffffffffffffffffff168173ffffffffffffffffffffffffffffffffffffffff161415801561515b57508873ffffffffffffffffffffffffffffffffffffffff168173ffffffffffffffffffffffffffffffffffffffff16145b6151cd576040517f08c379a00000000000000000000000000000000000000000000000000000000081526004018080602001828103825260118152602001807f696e76616c6964207369676e617475726500000000000000000000000000000081525060200191505060405180910390fd5b505050505050505050565b600760008273ffffffffffffffffffffffffffffffffffffffff1673ffffffffffffffffffffffffffffffffffffffff16815260200190815260200160002054600560009054906101000a900473ffffffffffffffffffffffffffffffffffffffff1673ffffffffffffffffffffffffffffffffffffffff166370a08231836040518263ffffffff1660e01b8152600401808273ffffffffffffffffffffffffffffffffffffffff1673ffffffffffffffffffffffffffffffffffffffff16815260200191505060206040518083038186803b1580156152b757600080fd5b505afa1580156152cb573d6000803e3d6000fd5b505050506040513d60208110156152e157600080fd5b81019080805190602001909291905050501015615366576040517f08c379a00000000000000000000000000000000000000000000000000000000081526004018080602001828103825260178152602001807f696e73756666696369656e7420636f6c6c61746572616c00000000000000000081525060200191505060405180910390fd5b50565b600080600090505b83805490508110156154cf578273ffffffffffffffffffffffffffffffffffffffff168482815481106153a057fe5b9060005260206000200160009054906101000a900473ffffffffffffffffffffffffffffffffffffffff1673ffffffffffffffffffffffffffffffffffffffff1614156154c257836001858054905003815481106153fa57fe5b9060005260206000200160009054906101000a900473ffffffffffffffffffffffffffffffffffffffff1684828154811061543157fe5b9060005260206000200160006101000a81548173ffffffffffffffffffffffffffffffffffffffff021916908373ffffffffffffffffffffffffffffffffffffffff1602179055508380548061548357fe5b6001900381819060005260206000200160006101000a81549073ffffffffffffffffffffffffffffffffffffffff0219169055905560019150506154d5565b8080600101915050615371565b50600090505b92915050565b6154e361700e565b73ffffffffffffffffffffffffffffffffffffffff16633644e5156040518163ffffffff1660e01b815260040160206040518083038186803b15801561552857600080fd5b505afa15801561553c573d6000803e3d6000fd5b505050506040513d602081101561555257600080fd5b81019080805190602001909291905050506010819055508073ffffffffffffffffffffffffffffffffffffffff166304433bbc6040518163ffffffff1660e01b815260040180806020018281038252600c8152602001807f54696d6550726f7669646572000000000000000000000000000000000000000081525060200191505060206040518083038186803b1580156155eb57600080fd5b505afa1580156155ff573d6000803e3d6000fd5b505050506040513d602081101561561557600080fd5b8101908080519060200190929190505050600360006101000a81548173ffffffffffffffffffffffffffffffffffffffff021916908373ffffffffffffffffffffffffffffffffffffffff1602179055508073ffffffffffffffffffffffffffffffffffffffff166304433bbc6040518163ffffffff1660e01b815260040180806020018281038252600e8152602001807f43726564697450726f766964657200000000000000000000000000000000000081525060200191505060206040518083038186803b1580156156e857600080fd5b505afa1580156156fc573d6000803e3d6000fd5b505050506040513d602081101561571257600080fd5b8101908080519060200190929190505050600560006101000a81548173ffffffffffffffffffffffffffffffffffffffff021916908373ffffffffffffffffffffffffffffffffffffffff1602179055508073ffffffffffffffffffffffffffffffffffffffff166304433bbc6040518163ffffffff1660e01b81526004018080602001828103825260108152602001807f50726f746f636f6c53657474696e67730000000000000000000000000000000081525060200191505060206040518083038186803b1580156157e557600080fd5b505afa1580156157f9573d6000803e3d6000fd5b505050506040513d602081101561580f57600080fd5b8101908080519060200190929190505050600460006101000a81548173ffffffffffffffffffffffffffffffffffffffff021916908373ffffffffffffffffffffffffffffffffffffffff1602179055508073ffffffffffffffffffffffffffffffffffffffff166304433bbc6040518163ffffffff1660e01b81526004018080602001828103825260128152602001807f4f7074696f6e546f6b656e466163746f7279000000000000000000000000000081525060200191505060206040518083038186803b1580156158e257600080fd5b505afa1580156158f6573d6000803e3d6000fd5b505050506040513d602081101561590c57600080fd5b8101908080519060200190929190505050600660006101000a81548173ffffffffffffffffffffffffffffffffffffffff021916908373ffffffffffffffffffffffffffffffffffffffff160217905550670de0b6b3a7640000600d81905550670de0b6b3a7640000600e81905550633b9aca00600f8190555050565b60006159d4600f546159c66159a56159a086617038565b6170b0565b6159b8878961713090919063ffffffff16565b61713090919063ffffffff16565b6171b690919063ffffffff16565b90509392505050565b6000816000015173ffffffffffffffffffffffffffffffffffffffff16638e15f4736040518163ffffffff1660e01b8152600401604080518083038186803b158015615a2857600080fd5b505afa158015615a3c573d6000803e3d6000fd5b505050506040513d6040811015615a5257600080fd5b8101908080519060200190929190805190602001909291905050505080915050919050565b6000808473ffffffffffffffffffffffffffffffffffffffff1663d0acc58f886040518263ffffffff1660e01b8152600401808273ffffffffffffffffffffffffffffffffffffffff1673ffffffffffffffffffffffffffffffffffffffff16815260200191505060206040518083038186803b158015615af757600080fd5b505afa158015615b0b573d6000803e3d6000fd5b505050506040513d6020811015615b2157600080fd5b81019080805190602001909291905050509050615b47818461713090919063ffffffff16565b92508315615bde57615b5b87868386617200565b91508673ffffffffffffffffffffffffffffffffffffffff163373ffffffffffffffffffffffffffffffffffffffff168673ffffffffffffffffffffffffffffffffffffffff167f4a3cb05a76ff28d45e2b73730a44e1d836d2c5adb86a3cc9d2b6473b59c35849846040518082815260200191505060405180910390a4615c64565b60008111615c54576040517f08c379a000000000000000000000000000000000000000000000000000000000815260040180806020018281038252600e8152602001807f696e76616c696420766f6c756d6500000000000000000000000000000000000081525060200191505060405180910390fd5b615c6187878784876173c8565b91505b5095945050505050565b6000600360009054906101000a900473ffffffffffffffffffffffffffffffffffffffff1673ffffffffffffffffffffffffffffffffffffffff1663bbe4fd506040518163ffffffff1660e01b815260040160206040518083038186803b158015615cd857600080fd5b505afa158015615cec573d6000803e3d6000fd5b505050506040513d6020811015615d0257600080fd5b8101908080519060200190929190505050826060015163ffffffff161115615dbd57816000015173ffffffffffffffffffffffffffffffffffffffff16638e15f4736040518163ffffffff1660e01b8152600401604080518083038186803b158015615d6d57600080fd5b505afa158015615d81573d6000803e3d6000fd5b505050506040513d6040811015615d9757600080fd5b810190808051906020019092919080519060200190929190505050905080915050615e67565b816000015173ffffffffffffffffffffffffffffffffffffffff1663e757223083606001516040518263ffffffff1660e01b8152600401808263ffffffff168152602001915050604080518083038186803b158015615e1b57600080fd5b505afa158015615e2f573d6000803e3d6000fd5b505050506040513d6040811015615e4557600080fd5b8101908080519060200190929190805190602001909291905050509050809150505b919050565b6000615e7661802b565b60096000856000015173ffffffffffffffffffffffffffffffffffffffff1673ffffffffffffffffffffffffffffffffffffffff1681526020019081526020016000206040518060400160405290816000820160009054906101000a90046effffffffffffffffffffffffffffff166effffffffffffffffffffffffffffff166effffffffffffffffffffffffffffff16815260200160008201600f9054906101000a90046effffffffffffffffffffffffffffff166effffffffffffffffffffffffffffff166effffffffffffffffffffffffffffff16815250509050600081600001516effffffffffffffffffffffffffffff161480615f8d5750600081602001516effffffffffffffffffffffffffffff16145b15615fa257615f9f846000015161610d565b90505b6000616004600d54615ff6615fcd85602001516effffffffffffffffffffffffffffff16888a615989565b615fe888615fda8b614afa565b614bb390919063ffffffff16565b614cdd90919063ffffffff16565b614d6b90919063ffffffff16565b905060008113616015576000616017565b805b9250505092915050565b60008183106160305781616032565b825b905092915050565b600061607c83836040518060400160405280601e81526020017f536166654d6174683a207375627472616374696f6e206f766572666c6f77000081525061771d565b905092915050565b61608c617fcb565b606060405180608001604052808773ffffffffffffffffffffffffffffffffffffffff1681526020018660018111156160c157fe5b81526020016160cf866177dd565b6effffffffffffffffffffffffffffff1681526020016160ee8561784f565b63ffffffff16815250915061610282616fb9565b905094509492505050565b61611561802b565b600082905060008173ffffffffffffffffffffffffffffffffffffffff1663990c11d8600460009054906101000a900473ffffffffffffffffffffffffffffffffffffffff1673ffffffffffffffffffffffffffffffffffffffff1663b8c3af7b6040518163ffffffff1660e01b815260040160206040518083038186803b1580156161a057600080fd5b505afa1580156161b4573d6000803e3d6000fd5b505050506040513d60208110156161ca57600080fd5b81019080805190602001909291905050506040518263ffffffff1660e01b81526004018082815260200191505060206040518083038186803b15801561620f57600080fd5b505afa158015616223573d6000803e3d6000fd5b505050506040513d602081101561623957600080fd5b8101908080519060200190929190505050905060405180604001604052806162eb8473ffffffffffffffffffffffffffffffffffffffff1663d2cc49a1856040518263ffffffff1660e01b81526004018082815260200191505060206040518083038186803b1580156162ab57600080fd5b505afa1580156162bf573d6000803e3d6000fd5b505050506040513d60208110156162d557600080fd5b81019080805190602001909291905050506177dd565b6effffffffffffffffffffffffffffff1681526020016163958473ffffffffffffffffffffffffffffffffffffffff1663c26802c9856040518263ffffffff1660e01b81526004018082815260200191505060206040518083038186803b15801561635557600080fd5b505afa158015616369573d6000803e3d6000fd5b505050506040513d602081101561637f57600080fd5b81019080805190602001909291905050506177dd565b6effffffffffffffffffffffffffffff1681525092505050919050565b600080600460009054906101000a900473ffffffffffffffffffffffffffffffffffffffff1673ffffffffffffffffffffffffffffffffffffffff166387ed36f8896040518263ffffffff1660e01b8152600401808273ffffffffffffffffffffffffffffffffffffffff1673ffffffffffffffffffffffffffffffffffffffff16815260200191505060206040518083038186803b15801561645457600080fd5b505afa158015616468573d6000803e3d6000fd5b505050506040513d602081101561647e57600080fd5b810190808051906020019092919050505013616502576040517f08c379a00000000000000000000000000000000000000000000000000000000081526004018080602001828103825260108152602001807f66656564206e6f7420616c6c6f7765640000000000000000000000000000000081525060200191505060405180910390fd5b60008611616578576040517f08c379a000000000000000000000000000000000000000000000000000000000815260040180806020018281038252600e8152602001807f696e76616c696420766f6c756d6500000000000000000000000000000000000081525060200191505060405180910390fd5b600360009054906101000a900473ffffffffffffffffffffffffffffffffffffffff1673ffffffffffffffffffffffffffffffffffffffff1663bbe4fd506040518163ffffffff1660e01b815260040160206040518083038186803b1580156165e057600080fd5b505afa1580156165f4573d6000803e3d6000fd5b505050506040513d602081101561660a57600080fd5b8101908080519060200190929190505050831161668f576040517f08c379a00000000000000000000000000000000000000000000000000000000081526004018080602001828103825260108152602001807f696e76616c6964206d617475726974790000000000000000000000000000000081525060200191505060405180910390fd5b616697617fcb565b60606166a589888888616084565b91509150600b816040518082805190602001908083835b602083106166df57805182526020820191506020810190506020830392506166bc565b6001836020036101000a038019825116818451168082178552505050505050905001915050908152602001604051809103902060009054906101000a900473ffffffffffffffffffffffffffffffffffffffff169250600073ffffffffffffffffffffffffffffffffffffffff168373ffffffffffffffffffffffffffffffffffffffff16141561677757616774818a613768565b92505b600083905060008173ffffffffffffffffffffffffffffffffffffffff1663d0acc58f336040518263ffffffff1660e01b8152600401808273ffffffffffffffffffffffffffffffffffffffff1673ffffffffffffffffffffffffffffffffffffffff16815260200191505060206040518083038186803b1580156167fb57600080fd5b505afa15801561680f573d6000803e3d6000fd5b505050506040513d602081101561682557600080fd5b81019080805190602001909291905050501480156168fa575060008173ffffffffffffffffffffffffffffffffffffffff166370a08231336040518263ffffffff1660e01b8152600401808273ffffffffffffffffffffffffffffffffffffffff1673ffffffffffffffffffffffffffffffffffffffff16815260200191505060206040518083038186803b1580156168bd57600080fd5b505afa1580156168d1573d6000803e3d6000fd5b505050506040513d60208110156168e757600080fd5b8101908080519060200190929190505050145b156169a057600a60003373ffffffffffffffffffffffffffffffffffffffff1673ffffffffffffffffffffffffffffffffffffffff168152602001908152602001600020849080600181540180825580915050600190039060005260206000200160009091909190916101000a81548173ffffffffffffffffffffffffffffffffffffffff021916908373ffffffffffffffffffffffffffffffffffffffff1602179055505b8473ffffffffffffffffffffffffffffffffffffffff163373ffffffffffffffffffffffffffffffffffffffff1614158015616a93575060008173ffffffffffffffffffffffffffffffffffffffff1663d0acc58f876040518263ffffffff1660e01b8152600401808273ffffffffffffffffffffffffffffffffffffffff1673ffffffffffffffffffffffffffffffffffffffff16815260200191505060206040518083038186803b158015616a5657600080fd5b505afa158015616a6a573d6000803e3d6000fd5b505050506040513d6020811015616a8057600080fd5b8101908080519060200190929190505050145b8015616b56575060008173ffffffffffffffffffffffffffffffffffffffff166370a08231876040518263ffffffff1660e01b8152600401808273ffffffffffffffffffffffffffffffffffffffff1673ffffffffffffffffffffffffffffffffffffffff16815260200191505060206040518083038186803b158015616b1957600080fd5b505afa158015616b2d573d6000803e3d6000fd5b505050506040513d6020811015616b4357600080fd5b8101908080519060200190929190505050145b15616bfc57600a60008673ffffffffffffffffffffffffffffffffffffffff1673ffffffffffffffffffffffffffffffffffffffff168152602001908152602001600020849080600181540180825580915050600190039060005260206000200160009091909190916101000a81548173ffffffffffffffffffffffffffffffffffffffff021916908373ffffffffffffffffffffffffffffffffffffffff1602179055505b8073ffffffffffffffffffffffffffffffffffffffff1663b613999233878c6040518463ffffffff1660e01b8152600401808473ffffffffffffffffffffffffffffffffffffffff1673ffffffffffffffffffffffffffffffffffffffff1681526020018373ffffffffffffffffffffffffffffffffffffffff1673ffffffffffffffffffffffffffffffffffffffff1681526020018281526020019350505050600060405180830381600087803b158015616cb757600080fd5b505af1158015616ccb573d6000803e3d6000fd5b50505050600073ffffffffffffffffffffffffffffffffffffffff16600860008673ffffffffffffffffffffffffffffffffffffffff1673ffffffffffffffffffffffffffffffffffffffff16815260200190815260200160002060000160009054906101000a900473ffffffffffffffffffffffffffffffffffffffff1673ffffffffffffffffffffffffffffffffffffffff161415616e7e5782600860008673ffffffffffffffffffffffffffffffffffffffff1673ffffffffffffffffffffffffffffffffffffffff16815260200190815260200160002060008201518160000160006101000a81548173ffffffffffffffffffffffffffffffffffffffff021916908373ffffffffffffffffffffffffffffffffffffffff16021790555060208201518160000160146101000a81548160ff02191690836001811115616e1157fe5b021790555060408201518160010160006101000a8154816effffffffffffffffffffffffffffff02191690836effffffffffffffffffffffffffffff160217905550606082015181600101600f6101000a81548163ffffffff021916908363ffffffff1602179055509050505b616ed9616e8b848b615e6c565b600760003373ffffffffffffffffffffffffffffffffffffffff1673ffffffffffffffffffffffffffffffffffffffff168152602001908152602001600020546178b690919063ffffffff16565b600760003373ffffffffffffffffffffffffffffffffffffffff1673ffffffffffffffffffffffffffffffffffffffff168152602001908152602001600020819055508473ffffffffffffffffffffffffffffffffffffffff163373ffffffffffffffffffffffffffffffffffffffff168573ffffffffffffffffffffffffffffffffffffffff167f84aa5b93ad2c470d4e48853ea55b71721d342628a481c8c40e3ebc6e728d4be58c6040518082815260200191505060405180910390a45050509695505050505050565b6060616fb282600161793e565b9050919050565b6060616fee8260000151836020015184604001516effffffffffffffffffffffffffffff16856060015163ffffffff166140b6565b9050919050565b60008183136170045781617006565b825b905092915050565b6000600260009054906101000a900473ffffffffffffffffffffffffffffffffffffffff16905090565b600080617044836159dd565b905080836060015163ffffffff1611156170a55761709e6201518061709061707f84876060015163ffffffff1661603a90919063ffffffff16565b600e5461713090919063ffffffff16565b6171b690919063ffffffff16565b91506170aa565b600091505b50919050565b6000806170da60026170cc6001866178b690919063ffffffff16565b6171b690919063ffffffff16565b90508291505b8181101561712a5780915061712360026171158361710785886171b690919063ffffffff16565b6178b690919063ffffffff16565b6171b690919063ffffffff16565b90506170e0565b50919050565b60008083141561714357600090506171b0565b600082840290508284828161715457fe5b04146171ab576040517f08c379a00000000000000000000000000000000000000000000000000000000081526004018080602001828103825260218152602001806180d16021913960400191505060405180910390fd5b809150505b92915050565b60006171f883836040518060400160405280601a81526020017f536166654d6174683a206469766973696f6e206279207a65726f000000000000815250617cad565b905092915050565b6000808211156173175761721f600d54836171b690919063ffffffff16565b9050600560009054906101000a900473ffffffffffffffffffffffffffffffffffffffff1673ffffffffffffffffffffffffffffffffffffffff1663d1a0cc5c8686846040518463ffffffff1660e01b8152600401808473ffffffffffffffffffffffffffffffffffffffff1673ffffffffffffffffffffffffffffffffffffffff1681526020018373ffffffffffffffffffffffffffffffffffffffff1673ffffffffffffffffffffffffffffffffffffffff1681526020018281526020019350505050600060405180830381600087803b1580156172fe57600080fd5b505af1158015617312573d6000803e3d6000fd5b505050505b60008311156173c0578373ffffffffffffffffffffffffffffffffffffffff16639dc29fac86856040518363ffffffff1660e01b8152600401808373ffffffffffffffffffffffffffffffffffffffff1673ffffffffffffffffffffffffffffffffffffffff16815260200182815260200192505050600060405180830381600087803b1580156173a757600080fd5b505af11580156173bb573d6000803e3d6000fd5b505050505b949350505050565b60006173d261802b565b60096000876000015173ffffffffffffffffffffffffffffffffffffffff1673ffffffffffffffffffffffffffffffffffffffff1681526020019081526020016000206040518060400160405290816000820160009054906101000a90046effffffffffffffffffffffffffffff166effffffffffffffffffffffffffffff166effffffffffffffffffffffffffffff16815260200160008201600f9054906101000a90046effffffffffffffffffffffffffffff166effffffffffffffffffffffffffffff166effffffffffffffffffffffffffffff1681525050905060006174be88888488617d73565b90506174f6600d546174e88985600001516effffffffffffffffffffffffffffff1689868a617f7d565b6171b690919063ffffffff16565b9250600560009054906101000a900473ffffffffffffffffffffffffffffffffffffffff1673ffffffffffffffffffffffffffffffffffffffff1663d1a0cc5c8988866040518463ffffffff1660e01b8152600401808473ffffffffffffffffffffffffffffffffffffffff1673ffffffffffffffffffffffffffffffffffffffff1681526020018373ffffffffffffffffffffffffffffffffffffffff1673ffffffffffffffffffffffffffffffffffffffff1681526020018281526020019350505050600060405180830381600087803b1580156175d557600080fd5b505af11580156175e9573d6000803e3d6000fd5b505050506000811115617696578573ffffffffffffffffffffffffffffffffffffffff16639dc29fac89836040518363ffffffff1660e01b8152600401808373ffffffffffffffffffffffffffffffffffffffff1673ffffffffffffffffffffffffffffffffffffffff16815260200182815260200192505050600060405180830381600087803b15801561767d57600080fd5b505af1158015617691573d6000803e3d6000fd5b505050505b8773ffffffffffffffffffffffffffffffffffffffff163373ffffffffffffffffffffffffffffffffffffffff168773ffffffffffffffffffffffffffffffffffffffff167f9426e81f32e21c1b2a7f64d6c9eb9e0434fa97ec784cdb07005deb2233559072846040518082815260200191505060405180910390a4505095945050505050565b60008383111582906177ca576040517f08c379a00000000000000000000000000000000000000000000000000000000081526004018080602001828103825283818151815260200191508051906020019080838360005b8381101561778f578082015181840152602081019050617774565b50505050905090810190601f1680156177bc5780820380516001836020036101000a031916815260200191505b509250505060405180910390fd5b5060008385039050809150509392505050565b60006f010000000000000000000000000000008210617847576040517f08c379a00000000000000000000000000000000000000000000000000000000081526004018080602001828103825260278152602001806180686027913960400191505060405180910390fd5b819050919050565b600064010000000082106178ae576040517f08c379a00000000000000000000000000000000000000000000000000000000081526004018080602001828103825260268152602001806181196026913960400191505060405180910390fd5b819050919050565b600080828401905083811015617934576040517f08c379a000000000000000000000000000000000000000000000000000000000815260040180806020018281038252601b8152602001807f536166654d6174683a206164646974696f6e206f766572666c6f77000000000081525060200191505060405180910390fd5b8091505092915050565b60606000831415617986576040518060400160405280600181526020017f30000000000000000000000000000000000000000000000000000000000000008152509050617ca7565b6000606490506060816040519080825280601f01601f1916602001820160405280156179c15781602001600182028038833980820191505090505b50905060008090505b60008614617a3c576000600a87816179de57fe5b069050600a87816179eb57fe5b0496508060300160f81b838380600101945081518110617a0757fe5b60200101907effffffffffffffffffffffffffffffffffffffffffffffffffffffffffffff1916908160001a905350506179ca565b60008090508515617ad65760008090505b82811015617ad4577f3000000000000000000000000000000000000000000000000000000000000000848281518110617a8257fe5b602001015160f81c60f81b7effffffffffffffffffffffffffffffffffffffffffffffffffffffffffffff19161415617ac2578180600101925050617ac7565b617ad4565b8080600101915050617a4d565b505b600060028211617ae7576000617ae9565b815b830390506060816040519080825280601f01601f191660200182016040528015617b225781602001600182028038833980820191505090505b50905060008090505b82811015617b97578560018287030381518110617b4457fe5b602001015160f81c60f81b828281518110617b5b57fe5b60200101907effffffffffffffffffffffffffffffffffffffffffffffffffffffffffffff1916908160001a9053508080600101915050617b2b565b50809650878015617ba85750600283115b15617ca05780617bb984600061793e565b6040516020018083805190602001908083835b60208310617bef5780518252602082019150602081019050602083039250617bcc565b6001836020036101000a038019825116818451168082178552505050505050905001807f650000000000000000000000000000000000000000000000000000000000000081525060010182805190602001908083835b60208310617c685780518252602082019150602081019050602083039250617c45565b6001836020036101000a0380198251168184511680821785525050505050509050019250505060405160208183030381529060405296505b5050505050505b92915050565b60008083118290617d59576040517f08c379a00000000000000000000000000000000000000000000000000000000081526004018080602001828103825283818151815260200191508051906020019080838360005b83811015617d1e578082015181840152602081019050617d03565b50505050905090810190601f168015617d4b5780820380516001836020036101000a031916815260200191505b509250505060405180910390fd5b506000838581617d6557fe5b049050809150509392505050565b600080600560009054906101000a900473ffffffffffffffffffffffffffffffffffffffff1673ffffffffffffffffffffffffffffffffffffffff166370a08231876040518263ffffffff1660e01b8152600401808273ffffffffffffffffffffffffffffffffffffffff1673ffffffffffffffffffffffffffffffffffffffff16815260200191505060206040518083038186803b158015617e1557600080fd5b505afa158015617e29573d6000803e3d6000fd5b505050506040513d6020811015617e3f57600080fd5b810190808051906020019092919050505090506000617e5d876124c3565b9050818111617ed4576040517f08c379a00000000000000000000000000000000000000000000000000000000081526004018080602001828103825260158152602001807f756e66697420666f72206c69717569646174696f6e000000000000000000000081525060200191505060405180910390fd5b617f65617f1e617f1787600001516effffffffffffffffffffffffffffff1688602001516effffffffffffffffffffffffffffff1661603a90919063ffffffff16565b8689615989565b617f5786617f49600d54617f3b888861603a90919063ffffffff16565b61713090919063ffffffff16565b61713090919063ffffffff16565b6171b690919063ffffffff16565b9250617f718385616021565b92505050949350505050565b6000617fc084617fb285617fa486617f968b8b8e615989565b6178b690919063ffffffff16565b61713090919063ffffffff16565b6171b690919063ffffffff16565b905095945050505050565b6040518060800160405280600073ffffffffffffffffffffffffffffffffffffffff1681526020016000600181111561800057fe5b815260200160006effffffffffffffffffffffffffffff168152602001600063ffffffff1681525090565b604051806040016040528060006effffffffffffffffffffffffffffff16815260200160006effffffffffffffffffffffffffffff168152509056fe53616665436173743a2076616c756520646f65736e27742066697420696e2031323020626974735369676e6564536166654d6174683a206164646974696f6e206f766572666c6f775369676e6564536166654d6174683a206469766973696f6e206f766572666c6f77536166654d6174683a206d756c7469706c69636174696f6e206f766572666c6f775369676e6564536166654d6174683a206d756c7469706c69636174696f6e206f766572666c6f7753616665436173743a2076616c756520646f65736e27742066697420696e20333220626974735369676e6564536166654d6174683a207375627472616374696f6e206f766572666c6f77a26469706673582212208635cfdabd3ed966b01a59abf27d1592d5001b8d6e2ec5da9bb132d135537c1a64736f6c63430006000033454950373132446f6d61696e28737472696e67206e616d652c737472696e672076657273696f6e2c75696e7432353620636861696e49642c6164647265737320766572696679696e67436f6e747261637429",
  "linkReferences": {},
  "deployedLinkReferences": {}
}